:020000040800F2
:1000000058070020B5010008691D0008611D00089F
:10001000651D0008BD020008D52000080000000092
:10002000000000000000000000000000711D00083A
:10003000CD020008000000006D1D0008751D0008BD
:10004000CF010008CF010008CF010008CF01000850
:10005000CF010008CF010008CF010008CF01000840
:10006000CF010008CF010008CF010008CF01000830
:10007000CF010008CF010008C1020008CF0100082D
:10008000CF010008CF010008CF010008CF01000810
:10009000CF010008CF010008CF010008CF01000800
:1000A000CF0100087D1D0008CF010008CF01000826
:1000B000CF010008CF01000800000000CF010008B8
:1000C000CF0100080000000000000000CF01000880
:1000D00000000000C9200008CF0100080000000057
:1000E000CF010008CF010008CF01000800F002F89E
:1000F00000F050F814A696E8000CB244B344DA4578
:1001000001D100F047F8BAE80F000FA696E83000DA
:10011000A5EB040504EB0607AAEB0704A7F101070A
:100120004FEA15154FEA3414A4F10104AC4201D38F
:1001300000F030F813F0010F18BFFB1A43F0010371
:1001400000F001F8DBE718475C2100007C2100008B
:10015000103A24BF78C878C1FAD8520724BF30C8F3
:1001600030C144BF04680C60704700007047000055
:100170000023002400250026103A28BF78C1FBD8B0
:10018000520728BF30C148BF0B6070471FB51FBD65
:1001900010B510BD00F058F81146FFF7F7FF01F059
:1001A0009BFF00F076F803B4FFF7F2FF03BC00F00A
:1001B0007DF800000948804709480047FEE7FEE750
:1001C000FEE7FEE7FEE7FEE7FEE7FEE7FEE7FEE707
:1001D00004480549054A064B70470000791D000890
:1001E000ED000008580100205807002058030020A7
:1001F000580300204FF0000200B51346944696467F
:10020000203922BFA0E80C50A0E80C50B1F1200129
:10021000BFF4F7AF090728BFA0E80C5048BF0CC0D7
:100220005DF804EB890028BF40F8042B08BF704735
:1002300048BF20F8022B11F0804F18BF00F8012BA7
:100240007047704770477047754600F02BF8AE4610
:1002500005006946534620F00700854618B020B5D2
:10026000FFF7B6FFBDE820404FF000064FF0000753
:100270004FF000084FF0000BAC46ACE8C009ACE80A
:10028000C009ACE8C009ACE8C00921F007018D46FF
:10029000704710B50446AFF300802046BDE810401B
:1002A000FFF781BF00487047200000200149182057
:1002B000ABBEFEE72600020070470000FEE700002C
:1002C00040F28000C2F2000000F088B870470000E1
:1002D000EFF3108072B600BFFEE70000014690F811
:1002E0002100022816D10868D1E90FC3026822F064
:1002F0000E020260026822F001020260012000FA90
:1003000003F2CCF8042081F821000020002281F8BB
:1003100020207047042088630120002281F82020DB
:100320007047000090F82110022923D1026840F2A2
:10033000040C1168C4F2020C21F00E011160136864
:100340002F21C4F202018A4223F00103136015DD5C
:100350003023C4F202039A421CD04423C4F20203A5
:100360009A421BD05823C4F202039A421CD14FF484
:10037000803321E004218163012070470823C4F207
:1003800002039A420ED01C23C4F202039A420BD1FC
:10039000102311E04FF480730EE000BF4FF4805340
:1003A0000AE000BF012307E00CF168014FF0807301
:1003B0008A4208BF4FF480130121CCF8003080F846
:1003C0002110416B0022002980F8202004BF00206A
:1003D000704780B58847002080BD000010B5D0E987
:1003E0000FCE0168DCF800300A6823FA0EF35C07D0
:1003F0002AD512F0040427D00A68920603D40A68AA
:1004000022F004020A602F22C4F20202914240F25A
:100410000402C4F202025BDD3023C4F202039942FB
:1004200072D04423C4F20203994273D05823C4F219
:100430000203994240F07A804FF480231360C16A2E
:10044000002940F098806FE09C0727D512F0020445
:1004500024D00A68920606D40A6822F00A020A60CA
:10046000012280F821202F22C4F20202914240F2A0
:100470000402C4F202023BDD3023C4F202039942BB
:1004800060D04423C4F2020399425FD05823C4F2DF
:100490000203994260D14FF4003365E01B0743D556
:1004A00012F0080208BF10BD0A6822F00E020A60AE
:1004B000012101FA0EF2CCF80420816380F82110AA
:1004C000016B0022002980F8202054D12CE000BFCD
:1004D0000823C4F20203994222D01C23C4F202036F
:1004E000994223D140231360C16A002943D11BE004
:1004F0000823C4F2020399422CD01C23C4F2020345
:10050000994229D120232FE04FF480631360C16A00
:1005100089BB09E04FF480431360C16A59BB03E013
:1005200004231360C16A31BB10BD00BF02F168042F
:100530004FF08063A14208BF4FF480031360C16A8B
:10054000C9B9F1E74FF400730EE000BF4FF4005358
:100550000AE000BF022307E002F168044FF00073D5
:10056000A14208BF4FF400131360816A00220029E2
:1005700080F82020D8D0BDE8104008470146002868
:100580004FF0010008BF70472DE9F043D1F800C0DB
:100590004FF6F873CBF6FD734CF6CD426344CCF6C0
:1005A000CC42A3FB02236FF0030202EA9302002372
:1005B000C4F2020301F10C08C1E90F320222D1E9B1
:1005C000019E98E8F00181F82120DCF8002043F634
:1005D000F0739A4342EA090242EA0E0222432A4396
:1005E00032433A4342EA0802CCF8002000228A63F0
:1005F00081F8210081F820200020BDE8F0437047F9
:1006000090F820C0BCF1010F04BF02207047F0B584
:100610004FF0010E80F820E090F821C0BCF1010FEE
:1006200026D14FF0020C80F821C04FF0000CC0F82A
:1006300038C0D0E900C4C56AC66BDCF80070102C65
:1006400027F00107CCF80070006C0EFA00F0706023
:100650000846CCF8043004BF10460A46CCF808001F
:10066000CCF80C20DCF8000045B140F00E000DE0A5
:10067000002180F820100220F0BD00BF20F004000F
:10068000CCF80000DCF8000040F00A00CCF80000D4
:10069000DCF8000040F00100CCF800000020F0BDC4
:1006A0002DE9F04F82B00E68002E00F0F58041F287
:1006B0000002C4F20102032340F2004E904208BF40
:1006C00002234FF6FF7CC4F2010E009300240123A5
:1006D000C1F2100C4FF0000B4FF0000944E000BFD6
:1006E000002704F00C030F229A402AEA020207FABC
:1006F00003F34FEA9B051A4346F825204E6840F263
:100700000C45F202DEF8082054BF22EA080242EA51
:100710000802C4F20105CEF808202A68B30254BFCB
:1007200022EA080242EA08022A60B303DEF8042043
:1007300054BF22EA080242EA0802F303CEF804207A
:10074000DEF800204FF0010354BF22EA080242EA1B
:100750000802CEF800200E680BF1010B36FA0BF2FE
:1007600004F1040400F0988003FA0BFA16EA0A0870
:10077000F1D04E68664511DC122E55D8DFE806F040
:10078000340A4C48545454545454545454545454A7
:1007900054445000D1F80C9046E000BF4FF6FF7271
:1007A000C1F2210296420FDC0022C1F211029642F0
:1007B0001AD00022C1F21202964215D00022C1F2D4
:1007C0002102964210D02FE00022C1F2220296426E
:1007D0000AD00022C1F23102964205D00022C1F2B5
:1007E0003202964220D100BF8A684AB1012A14BF62
:1007F000C0F814A0C0F810A04FF0080914E000BF22
:100800004FF0040910E000BFCA6802F104090BE0D0
:100810004FF0000908E000BFCA6802F1080903E0D0
:10082000CA6802F10C0900BF02462646B8F5807F6F
:1008300024BF0432203E17680F25B54027EA05057E
:1008400009FA06F635431560CA79D2067FF583AFFB
:1008500041F21803C4F202031A68AEF57E7642F044
:1008600001021A601A6802F001020192019A2BF04B
:10087000030256F802A040F60002C4F201029042C0
:100880003FF42EAF40F60042C4F20102009F9042B6
:1008900008BF012725E700BF02B0BDE8F08F0000C8
:1008A000C26802EA0103914341EA034101617047D2
:1008B000002A08BF090401617047000040F254108B
:1008C000C2F200000068704740F2000040F254118C
:1008D000C2F20000C2F2000100780A681044086009
:1008E0007047000080B542F20000C4F202000168C7
:1008F00041F010010160032000F08CF80F2000F09F
:1009000005F800F027F8002080BD000070B540F227
:100910000006C2F2000640F208013278C2F200017D
:100920004FF47A730968B3FBF2F20446B1FBF2F1BB
:10093000084600F085FB0F2C4FF0010508D838B9A8
:100940004FF0FF3021460022002500F037F8746098
:10095000284670BD82B041F21800C4F2020001685E
:10096000042241F001010160016801F001010191DF
:100970000199416841F080514160406800F0805029
:10098000009000980420C4F20100016862F31A612B
:10099000016002B070470000002848BF704700F0B7
:1009A0001F01012202FA01F11C2202EAD0004EF2DC
:1009B0000012CEF2000281507047000010B54EF6D2
:1009C0000C5CCEF2000CDCF80030C3F3022E8EF08B
:1009D0000704042C28BF0424BEF103034FF0FF3E9C
:1009E0000EFA04F438BF0023A14399400EFA03F332
:1009F0009A43114300F00F0200F160430901043AE9
:100A000003F564436244002848BF02F10C031970E7
:100A100010BD00004EF60C51CEF200010A684FF6F0
:100A2000FF031A4060F30A2242F0806040F0FD703C
:100A300008607047002804BF012070472DE9F0438B
:100A400081B042F20008C4F202080446D8F800005F
:100A50000D4600F0070081420CD9D8F8000020F0C4
:100A600007002843C8F80000D8F8000000F007008D
:100A7000A8426CD1206841F204098107C4F202093E
:100A800017D5410705D5D9F8001041F4E061C9F840
:100A90000010010705D5D9F8001041F46051C9F8DC
:100AA0000010D9F80010A26821F0F0011143C9F834
:100AB0000010C00742D1D8F8000000F007008542BE
:100AC0000CD2D8F8000020F007002843C8F8000036
:100AD000D8F8000000F00700A84238D1206841078C
:100AE00007D5D9F80010E26821F4E0611143C9F894
:100AF0000010000708D5D9F80000216920F46050E3
:100B000040EAC100C9F80000D9F8002002F00C004A
:100B1000082841F20020C0F27A004DD142F294231D
:100B2000C2F38341C0F60003595CD20338D440F6C7
:100B30000010C0F23D0048433EE000BF606859F835
:100B4000041C022808D0012826D1890306D40120DC
:100B500001B0BDE8F08300BF8901F8D5D9F80010D5
:100B600021F003010843C9F80000FFF7A7FE06467D
:100B700041F28837D9F80000616800F00C00B0EB52
:100B8000810F98D0FFF79AFE801BB842F2D903205C
:100B900001B0BDE8F08300BF8907D8D5DEE700BF0C
:100BA000D9F8002042F29223C2F34042C0F600037B
:100BB0009A5C4843B0FBF2F0D9F8001042F27A2276
:100BC000C1F30311C0F60002515C40F2080220FAA2
:100BD00001F140F20400C2F200000068C2F200021B
:100BE0001160FFF793FE002001B0BDE8F083000024
:100BF00040F2080041F20401C2F20000C4F2020116
:100C00000068096842F28A22C1F30221C0F600029C
:100C1000515CC8407047000040F2080041F20401F6
:100C2000C2F20000C4F202010068096842F28A229E
:100C3000C1F3C221C0F60002515CC84070470000F9
:100C4000002804BF012070472DE9F04182B004461E
:100C5000007841F20006C007C4F202060CD07068AA
:100C600000F00C00042840F081803068800303D538
:100C70006068002800F04681207880071BD57068E6
:100C800010F00C0F09D0706800F00C00082840F03C
:100C900087807068C00300F183803068800703D5C7
:100CA0002069012840F02E813068616920F0F80049
:100CB00040EAC10030602078000713D42078400754
:100CC0002CD4E569002D00F01881706800F00C004C
:100CD000082840F0A780012D40F00481012002B0D7
:100CE000BDE8F081A069002800F084800020C4F2F3
:100CF00042200121C0F88014FFF7E0FD054600BF47
:100D0000706A800700F1B280FFF7D8FD401B02280F
:100D1000F6D9032002B0BDE8F08100BFF0695FEAB8
:100D2000C00808D4F06940F08050F061F06900F02C
:100D300080500090009847F20007C4F2000738681E
:100D4000C00549D4386840F480703860FFF7B6FDBC
:100D5000054600BF3868C0053ED4FFF7AFFD401B15
:100D60006428F7D9032002B0BDE8F081706800F074
:100D70000C00082803D17068C0033FF576AF6168A6
:100D80003068002900F00C81B1F5A02F00F000813F
:100D9000B1F5803F40F01A8140F480301CE100BF83
:100DA0002069002840F20000C4F2422000F0888050
:100DB00001210160FFF782FD054600BF3068800712
:100DC0003FF572AFFFF77AFD401B0228F6D90320EA
:100DD00002B0BDE8F08100BFE168306A002900F090
:100DE0009D80052900F09280012940F0AF8040F0FD
:100DF0000100B1E00020C4F242200021C0F88014BC
:100E0000FFF75CFD054600BF706A80077FF556AFAF
:100E1000FFF754FD401B0228F6D9032002B0BDE8BD
:100E2000F08100BF0027C4F2422700203866FFF798
:100E300045FD022D05460DD13068800140F1DE8070
:100E4000FFF73CFD401B02284FF00300F4D902B02D
:100E5000BDE8F081306880014FD5FFF72FFD401BC2
:100E600002284FF00300F5D9F1E700BF40F2080077
:100E7000C2F20000006844F6D351C1F26201A0FB47
:100E80000101480A019000BF00BF0198411E0028DF
:100E900001913FF413AF00BF0198411E002801915A
:100EA0003FF40CAF00BF0198411E002801913FF4B0
:100EB00005AF00BF0198411E00280191E4D1FDE675
:100EC00000210160FFF7FAFC054600BF306880078B
:100ED0007FF5F1AEFFF7F2FC401B02284FF0030054
:100EE000F4D9B4E77068216A00F480328A4209D1EB
:100EF000616A00F47010884204D1002002B0BDE89D
:100F0000F08100BF012002B0BDE8F08140F0040094
:100F10003062306A40F001001EE000BF20F00100A6
:100F20003062306A20F004003062FFF7C7FC0546EB
:100F300041F28837306A800720D5FFF7BFFC401B9D
:100F4000B8424FF00300F5D981E700BF20F001005F
:100F50003062306A20F004003062FFF7AFFC0546D3
:100F600041F28837306A800708D4FFF7A7FC401B9E
:100F7000B842F7D9032002B0BDE8F081B8F1000F04
:100F80003FF59FAEF06920F08050F06199E600BF18
:100F900040F480203060306840F480301CE000BFB6
:100FA00020F480303060306820F480203060FFF71B
:100FB00085FC0546306880037FF55EAEFFF77EFC5A
:100FC000401B64284FF00300F4D940E720F4803040
:100FD0003060306820F480203060FFF76FFC0546F9
:100FE000306880033FF548AEFFF768FC401B64287B
:100FF000F6D9032002B0BDE8F08100BF206AB0F549
:10100000803F05D17168A26821F4003111437160FD
:101010007168626A21F47411114308437060012001
:101020003866FFF74BFC0446306880013FF565AF3A
:10103000FFF744FC001B02284FF00300F4D906E739
:10104000411E0020B0EB116F1CBF012070474EF213
:101050001002CEF2000251604EF62351CEF2000192
:10106000F0230B70072190601160704770470000FB
:101070007047000090F83C20012A4FF0020228D06F
:1010800010B580F83D200268D2F804E0D2F808C01C
:101090000C682EF070032343B2F1804F53600BD0E5
:1010A00042F60043C4F201039A4205D040F20043E5
:1010B000C4F200039A4204D149682CF0800319431A
:1010C00091600121002280F83D1080F83C20BDE8AD
:1010D0001040104670470000002804BF01207047F0
:1010E00010B590F83D1031B9002180F83C1004464D
:1010F00000F05CF82046022180F83D10016842F6BD
:10110000004C0B68B1F1804FC4F2010C18BF61456F
:101110003CD1846823F070032343B1F1804F18BFA2
:1011200061453BD1046923F440732343826923F072
:101130008003D0F804E0C4681A4361450A60CC62B9
:10114000C1F828E002D14269CCF8302001224A617E
:101150000B69DB0703D00B6923F001030B6180F8F7
:10116000462080F83E2080F83F2080F8402080F81C
:10117000412080F8422080F8432080F8442080F805
:10118000452080F83D20002010BD00BF40F2004403
:10119000C4F20004A142BCD0BFE700BF40F200444B
:1011A000C4F20004A142BDD0C0E70000006842F6CE
:1011B0000041C4F20101884218BF704780B582B077
:1011C00041F21800C4F202000168002241F40061FB
:1011D00001600068002100F400600190019819206E
:1011E000FFF7ECFB192002B0BDE88040FFF7D4BB4D
:1011F00090F83D1001291CBF01207047022180F8A2
:101200003D100068C168B0F1804F41F00101C1603C
:101210000BD042F60041C4F20101884205D040F2F1
:101220000041C4F20001884206D1816801F0070143
:10123000062904BF00207047016841F001010160E8
:101240000020704790F83C20012A4FF002026CD039
:1012500080B580F83D20D0F800C04FF67772DCF8FA
:10126000083023EA0202CCF808200B684F2B29DC57
:101270001F2B45DD202B46D0302B44D0402B40F097
:10128000AF80D1F804E0C968DCF82030DCF8202019
:1012900022F00102CCF82020DCF8182022F0F00225
:1012A00042EA011123F00A0242EA0E02CCF81810B9
:1012B000CCF82020DCF8081041F0470121F0300183
:1012C00028E000BF6F2B33DDB3F5005F74D0B3F5BA
:1012D000805F21D0702B40F08380D1E901E3C968A1
:1012E000DCF8082043EA0E0322F47F4243EA01219E
:1012F0001143CCF80810DCF8081041F0770109E040
:101300000BB1102B6CD1DCF8081021F070011943DF
:1013100041F00701CCF808100022012180F83D10AF
:10132000002180F83C10BDE880401046704700BFA7
:10133000502B21D0602B53D1D1F804E0C968DCF8E0
:101340002030DCF8202022F01002CCF82020DCF83D
:10135000182022F4704242EA013123F0A00242EA4E
:101360000E12CCF81810CCF82020DCF8081041F050
:10137000670121F01001CDE7D1F804E0C968DCF87D
:101380002030DCF8202022F00102CCF82020DCF80C
:10139000182022F0F00242EA011123F00A0242EA88
:1013A0000E02CCF81810CCF82020DCF8081041F020
:1013B000570121F02001ADE7D1E901E3C968DCF86C
:1013C000082043EA0E0322F47F4243EA012111433D
:1013D000CCF80810DCF8081041F480419AE700BF0F
:1013E00001229AE77047000070B504460068C5689E
:1013F0000669B10716D515F0020113D06FF002018E
:101400000161012121778069800703D02046FFF721
:10141000E9FF05E0204600F08FF8204600F08EF846
:1014200000202077700719D515F0040016D0206829
:101430006FF00401016102212177806910F4407F7F
:1014400004D02046FFF7CEFF06E000BF204600F0A4
:1014500073F8204600F072F800202077300717D587
:1014600015F0080014D020686FF008010161042114
:101470002177C069800703D02046FFF7B3FF05E05E
:10148000204600F059F8204600F058F80020207758
:10149000F00619D515F0100016D020686FF0100175
:1014A000016108212177C06910F4407F04D02046F3
:1014B000FFF798FF06E000BF204600F03DF8204609
:1014C00000F03CF800202077F00718BF15F001006D
:1014D00002D1300609D412E020686FF001010161E9
:1014E000204600F02DF8300609D515F0800006D012
:1014F00020686FF0800101612046FFF7B7FD70069C
:1015000009D515F0400006D020686FF04001016158
:10151000204600F02BF8B00658BF70BD15F0200033
:1015200008D021686FF0200220460A61BDE87040B3
:10153000FFF79EBD70BD00007047000070470000BF
:1015400080B540F60000C4F201004FF40051FFF7EF
:10155000A7F940F20C1040F20C01C2F20000C2F2F6
:1015600000010D22BDE8804000F094BB70470000F0
:101570007047000070470000B0B582B001680A688B
:10158000CC684B6902F02F05202D04F0200505D111
:1015900025B102B0BDE8B04000F016BD5FEA027CA4
:1015A0001EBF03F0010E04F4907313EB0E0341D140
:1015B000036BD50618D5012B16D114F0100313D0E8
:1015C000002201920A6801924A680192019A4969CF
:1015D00049064BD4818DC28DC38D002B18BF91421B
:1015E00040F0F48102B0B0BD13062DD514F0800395
:1015F0002AD090F84120212AF4D18268B2F5805F88
:1016000003D10269002A00F06782026A531C036258
:1016100012784A60C28C013A1304C284E2D1C868CD
:1016200020F08000C860C86840F04000C86002B088
:10163000B0BD00BFD30718BF14F4807340F0D08052
:10164000530700F1D380D8E05206CBD514F0400206
:10165000C8D0CA6822F04002CA60202180F8411038
:1016600002B0BDE8B04000F077BB00BFC16B0A68B4
:10167000526893B2002BB5D0858DAB42B2D2C285F1
:101680008969202900F0A180016851E8031F0268E0
:1016900021F4807142E80313DBB1016851E8031FB4
:1016A000026821F4807142E8031393B1016851E8A4
:1016B000031F026821F4807142E803134BB10168F3
:1016C00051E8031F026821F4807142E80313002BE4
:1016D000DAD1016851E8051F026821F0010142E8F2
:1016E0000513C3B3016851E8051F026821F0010129
:1016F00042E805137BB3016851E8051F026821F039
:10170000010142E8051333B3016851E8051F02687F
:1017100021F0010142E80513002BDAD11BE000BFE4
:10172000016851E8051F026821F0400142E80513F5
:10173000DBB1016851E8051F026821F0400142E871
:10174000051393B1016851E8051F026821F04001BB
:1017500042E805134BB1016851E8051F026821F00A
:10176000400142E80513002BDAD1202180F8421015
:1017700000210163016851E8031F026821F0100194
:1017800042E80313DBB1016851E8031F026821F04E
:10179000100142E8031393B1016851E8031F026886
:1017A00021F0100142E803134BB1016851E8031F17
:1017B000026821F0100142E80313002BDAD1C16B5B
:1017C00004460846FEF78AFD204602214163818DCA
:1017D000C28D891A89B202B0BDE8B040FFF7C8BE19
:1017E000436C43F001034364530706D5BEF1000F79
:1017F00003D0436C43F002034364930706D5BEF164
:10180000000F03D0436C43F004034364BCF1000FAA
:1018100006D55EEA050303D0436C43F00803436436
:10182000436C002B3FF4DEAE920605D525B104468D
:1018300000F0CAFB216820464969426C01F0400172
:1018400002F00802891800F0B98000BF016851E871
:10185000031F026821F4907142E80313BBB30168CF
:1018600051E8031F026821F4907142E8031373B337
:10187000016851E8031F026821F4907142E80313E4
:101880002BB3016851E8031F026821F4907142E80C
:101890000313002BDAD11AE0016851E8051F026832
:1018A00021F0010142E80513DBB1016851E8051F91
:1018B000026821F0010142E8051393B1016851E883
:1018C000051F026821F0010142E805134BB10168D0
:1018D00051E8051F026821F0010142E80513002BC1
:1018E000DAD1016B012924D1016851E8031F026894
:1018F00021F0100142E80313DBB1016851E8031F36
:10190000026821F0100142E8031393B1016851E825
:10191000031F026821F0100142E803134BB1016874
:1019200051E8031F026821F0100142E80313002B65
:10193000DAD1202180F84210002101630168496951
:10194000490640F1C380016851E8051F026821F093
:10195000400142E80513DBB1016851E8051F026848
:1019600021F0400142E8051393B1016851E8051FD9
:10197000026821F0400142E805134BB1016851E8CB
:10198000051F026821F0400142E80513002BDAD15F
:10199000C16B002900F09A8041F68952C0F600021E
:1019A000044608464A63FEF7BDFC00283FF41AAE21
:1019B000E06B416B02B0BDE8B04008470446FFF75A
:1019C000D9FD0020606402B0B0BD00BF891A00BF1D
:1019D000026852E8032F036822F4907243E803255B
:1019E000BDB3026852E8032F036822F4907243E803
:1019F000032575B3026852E8032F036822F490723E
:101A000043E803252DB3026852E8032F036822F44C
:101A1000907243E80325002DDAD11AE0026852E8FB
:101A2000052F036822F0010243E80525DDB10268B5
:101A300052E8052F036822F0010243E8052595B11D
:101A4000026852E8052F036822F0010243E80525E9
:101A50004DB1026852E8052F036822F0010243E805
:101A60000525002DDAD1202280F8422000220263D1
:101A7000026852E8032F036822F0100243E80325AE
:101A8000DDB1026852E8032F036822F0100243E838
:101A9000032595B1026852E8032F036822F0100273
:101AA00043E803254DB1026852E8032F036822F092
:101AB000100243E80325002DDAD1022289B24263E5
:101AC00002B0BDE8B040FFF753BD00BF02B0BDE8B3
:101AD000B040FFF74FBD00BF026A32F8023B6FF320
:101AE0005F234B60026295E5002804BF0120704728
:101AF00010B5044690F8410028B9002084F8400051
:101B0000204600F063F8242084F841002068D4E9DE
:101B10000212C36823F40053C360036923F44053E3
:101B20001A430261D4E904231143C268194341F204
:101B30000C639A431143C1604169A26921F4407169
:101B4000114343F60002C4F201029042416103D006
:101B5000FFF74EF802E000BFFFF75EF8D4E900237C
:101B6000192148439900B0FBF1F048F21F5CC5F21F
:101B7000EB1CA0FB0C314FF69C734909C0F6FF73B8
:101B800001FB0300322303EB0010A0FB0C03F02049
:101B900000EA531000EB0110C3F3431108449060B6
:101BA0001069202120F490401061506920F02A0033
:101BB0005061D06840F40050D0600020606484F828
:101BC000411084F84210606310BD0000F0B585B08C
:101BD00040F600050446C4F20105006805F54051D1
:101BE000002788420497CDE90277019702D005B01B
:101BF000F0BD00BF41F21800C4F20200016801AE5E
:101C000041F480410160016801F480410091009934
:101C1000016841F0040101600068314600F00400F1
:101C2000009000984FF40070019002200290032071
:101C300004902846FEF734FD4FF48060CDE901079B
:101C4000284631460397FEF72BFD40F280054420DD
:101C5000C2F20005C4F202001021802285E8830050
:101C60002846C5E90327C5E90577EF61FEF786FC3D
:101C7000002818BFFEF72CFB252000210022A563B9
:101C80006C62FEF79BFE2520FEF786FE05B0F0BDD8
:101C90007047000090F84130202B09D1944600296C
:101CA0004FF0010218BFBCF1000F05D1104670477C
:101CB00002221046704700BF70B500222123016246
:101CC000A0F824C0A0F826C0426480F8413004681F
:101CD000836B41F6117E41F6C17541F69556C0F60B
:101CE000000EC0F60005C0F60006C3E90AE5C3E928
:101CF0000C62221D044618466346FEF781FC2168EB
:101D000020466FF040020A60016851E8051F026832
:101D100041F0800142E80513DBB1016851E8051F7D
:101D2000026841F0800142E8051393B1016851E86F
:101D3000051F026841F0800142E805134BB10168BC
:101D400051E8051F026841F0800142E80513002BAD
:101D5000DAD1002070BD000070470000704700001D
:101D6000FEE70000FEE70000FEE70000704700000D
:101D700070470000FEF7A8BD7047000040F2C400A5
:101D8000C2F20000FFF730BB406A0021C185C18468
:101D9000FFF7F0BB406A01684A6990F84130212B97
:101DA0002DD112F080022AD00021C184016851E8AF
:101DB000031F026821F0C00142E80313DBB1016890
:101DC00051E8031F026821F0C00142E8031393B1F8
:101DD000016851E8031F026821F0C00142E80313C3
:101DE0004BB1016851E8031F026821F0C00142E8CD
:101DF0000313002BDAD1202180F8411001684969D2
:101E000090F84220222A40F07D8011F0400179D0E4
:101E10000021C185016851E8031F026821F4907117
:101E200042E80313BBB3016851E8031F026821F4C1
:101E3000907142E8031373B3016851E8031F02680D
:101E400021F4907142E803132BB3016851E8031F9A
:101E5000026821F4907142E80313002BDAD11AE0F2
:101E6000016851E8051F026821F0010142E80513ED
:101E7000DBB1016851E8051F026821F0010142E869
:101E8000051393B1016851E8051F026821F00101B3
:101E900042E805134BB1016851E8051F026821F0C3
:101EA000010142E80513002BDAD1016B012924D18D
:101EB000016851E8031F026821F0100142E8031392
:101EC000DBB1016851E8031F026821F0100142E80C
:101ED000031393B1016851E8031F026821F0100158
:101EE00042E803134BB1016851E8031F026821F077
:101EF000100142E80313002BDAD1202180F84210B0
:101F000000210163416C41F010014164FFF732BBD5
:101F10000168406A0968890648BFFFF71DBF0021B4
:101F2000C18400BF016851E8051F026821F08001EB
:101F300042E8051383B3016851E8051F026821F0E8
:101F4000800142E805133BB3016851E8051F0268B0
:101F500021F0800142E80513F3B1016851E8051F43
:101F6000026821F0800142E80513002BDAD113E06A
:101F7000016851E8031F026841F0400142E8031381
:101F8000002B08BF7047016851E8031F026841F049
:101F9000400142E8031393B1016851E8031F02684E
:101FA00041F0400142E803134BB1016851E8031FBF
:101FB000026841F0400142E80313002BD8D170477A
:101FC000406AFFF7CBBE000081B090F84210222992
:101FD00021D183680246B3F5805F09D152F8281FEA
:101FE00052F8183C002B63D003685B680AE000BF1E
:101FF00052F8281F13B90369002BF5D003685B68FA
:1020000003F07F030B70116801311160C18D01393C
:102010000A04C18502D001B0704700BF0168CA68D8
:1020200022F02002CA60CA6822F48072CA604A693B
:1020300022F001024A61202180F842100021416310
:10204000026B012A3CD10163016851E8031F026859
:1020500021F0100142E80313DBB1016851E8031FCE
:10206000026821F0100142E8031393B1016851E8BE
:10207000031F026821F0100142E803134BB101680D
:1020800051E8031F026821F0100142E80313002BFE
:10209000DAD101680A68D20606D5002200920A68E1
:1020A0000092496800910099818D01B0FFF760BAF4
:1020B000026852686FF35F2221F8022B8162A5E764
:1020C00001B0FFF7E5BD000040F20C10C2F20000C5
:1020D000FFF752BAFEE7000090B0FEF703FC06AC33
:1020E000201D2421FEF786F80220069001200A9088
:1020F00010200B90002520460D95FEF7A1FD28B17C
:10210000EFF3108072B600BFFEE700BF0F20CDE9ED
:10211000000568460021CDE902550495FEF78AFCCA
:1021200020B1EFF3108072B6FEE700BF002541F248
:102130001806CDE90855CDE90655C4F20206306807
:1021400040F6000440F0200030603068C4F2010422
:1021500000F020000090009830684FF4005140F0EB
:10216000040030603068002200F004000090009805
:1021700020464FF40057FEF79BFB0120CDE90705F1
:102180000220099006A920460697FEF789FA56F81C
:10219000040C002140F0010046F8040C56F8040C31
:1021A000002200F00100069006980E20FEF706FCC3
:1021B0000E20FEF7F1FB40F20C1004F54051C2F284
:1021C00000000C234FF4E13280E82600C0E90355FB
:1021D000C0E90535C561FFF787FC28B1EFF3108032
:1021E00072B600BFFEE700BF40F2C40004F5105114
:1021F000C2F200004FF6FF130995CDE90755CDE96E
:1022000000557C2280E82600C0E90335C0E9055569
:10221000FEF762FF20B1EFF3108072B6FEE700BF59
:102220004FF48050069040F2C400C2F2000006A9AC
:10223000FFF708F820B1EFF3108072B6FEE700BF99
:1022400040F2C404C2F2000469462046FEF712FFC1
:1022500020B1EFF3108072B6FEE700BF206801697D
:10226000C9071CBF6FF00101016140F2C400C2F256
:102270000000FEF7BDFF00BFFEE700000000000009
:102280000000010203040607080900000000010223
:102290000304010202030405060708090A0B0C0DDA
:1022A0000E0F1010C82200080000002020000000BF
:1022B00050010008E8220008200000203807000034
:1022C0007001000800000000010000001000000084
:1022D00000127A0048656C6C6F20576F726C640A4C
:0822E0000D00000000000000E9
:04000005080000ED02
:00000001FF
