:020000040800F2
:10000000F8060020B5010008B926000841250008BF
:10001000B52600081D0400086D2D00080000000032
:10002000000000000000000000000000552800084B
:10003000B10400080000000029270008AD280008CE
:10004000CF010008CF010008CF010008CF01000850
:10005000CF010008CF010008CF010008CF01000840
:10006000CF010008CF010008CF010008CF01000830
:10007000CF010008CF010008CF010008CF01000820
:10008000CF010008CF010008CF010008CF01000810
:10009000CF010008CF010008CF010008CF01000800
:1000A000CF010008CF010008CF010008CF010008F0
:1000B000CF010008CF01000800000000CF010008B8
:1000C000CF0100080000000000000000CF01000880
:1000D00000000000CF010008CF0100080000000070
:1000E000CF010008CF010008CF01000800F002F89E
:1000F00000F050F814A696E8000CB244B344DA4578
:1001000001D100F047F8BAE80F000FA696E83000DA
:10011000A5EB040504EB0607AAEB0704A7F101070A
:100120004FEA15154FEA3414A4F10104AC4201D38F
:1001300000F030F813F0010F18BFFB1A43F0010371
:1001400000F001F8DBE718473C4900005C4900007B
:10015000103A24BF78C878C1FAD8520724BF30C8F3
:1001600030C144BF04680C60704700007047000055
:100170000023002400250026103A28BF78C1FBD8B0
:10018000520728BF30C148BF0B6070471FB51FBD65
:1001900010B510BD00F06CF81146FFF7F7FF02F044
:1001A0002FFE00F08AF803B4FFF7F2FF03BC00F063
:1001B0008DF800000948804709480047FEE7FEE740
:1001C000FEE7FEE7FEE7FEE7FEE7FEE7FEE7FEE707
:1001D00004480549054A064B7047000031290008CC
:1001E000ED000008F8000020F8060020F8020020CA
:1001F000F80200204FF0000200B5134694469646E0
:10020000203922BFA0E80C50A0E80C50B1F1200129
:10021000BFF4F7AF090728BFA0E80C5048BF0CC0D7
:100220005DF804EB890028BF40F8042B08BF704735
:1002300048BF20F8022B11F0804F18BF00F8012BA7
:10024000704770477047704710B500F009F80068B4
:1002500010BD10B5044600F003F8046010BD0000A6
:100260000048704718000020004870471800002020
:100270007546FFF7F9FFAE4605006946534620F084
:100280000700854618B020B5FFF7A2FFBDE8204063
:100290004FF000064FF000074FF000084FF0000B42
:1002A000AC46ACE8C009ACE8C009ACE8C009ACE8B1
:1002B000C00921F007018D46704710B50446AFF321
:1002C00000802046BDE81040FFF76DBF01491820AF
:1002D000ABBEFEE7260002007047000080B584B088
:1002E000029000200190029800688068C00770B3F7
:1002F000FFE702980168886820F00100886000F03C
:100300002DFF0190FFE7029800688068C007E8B100
:10031000FFE700F023FF0199401A032815D3FFE7F8
:10032000029800688068C00770B1FFE70299886A88
:1003300040F0100088620299C86A40F00100C8626B
:1003400001208DF80F0006E0FFE7DCE7FFE7002063
:100350008DF80F00FFE79DF80F0004B080BD00008E
:1003600080B584B00290002001900090029800684F
:100370008068C007002849D1FFE7029801688868B3
:1003800040F00100886040F20000C2F20000006806
:100390004DF68361C4F21B31A0FB0110800C00906C
:1003A000FFE7009820B1FFE7009801380090F8E7D8
:1003B00000F0D4FE0190FFE7029800688068C00753
:1003C00018BBFFE700F0CAFE0199401A03281BD3AF
:1003D000FFE7029800688068C007A0B9FFE70299AC
:1003E000886A40F0100088620299C86A40F00100F3
:1003F000C862FFE70299002081F82400FFE701208E
:100400008DF80F0006E0FFE7D6E7FFE700208DF844
:100410000F00FFE79DF80F0004B080BDFFE7FEE787
:1004200080B584B0ADF80E000291BDF80E0049F61B
:100430009A11C1F69911A0FB0120ADF80600BDF894
:100440000E0000EBC000A0FB0110ADF80400BDF8E9
:1004500006100091BDF80400401A04F03BF902991F
:1004600004F064F904F01AF901460098084480B2D7
:1004700004B080BD80B582B08DF807009DF90700FB
:1004800003F0E2FC02460B464FF020404FF28F3162
:10049000C3F6F07102F072FD002248F20003C4F2CC
:1004A0007B0303F025FD03F085FA02B080BD000058
:1004B0007047000081B0EFF3108072B60090FFE744
:1004C000FEE7000080B584B08DF80F000020029098
:1004D0008DF80700FFE79DF807009DF80F10884290
:1004E00010DAFFE702F092F9014602980844029000
:1004F000012000F08FFCFFE79DF8070001308DF828
:100500000700E8E702989DF80F10B0FBF1F004B087
:1005100080BD000085B00390029100208DF8070097
:100520000090FFE7039890F82400012804D1FFE72A
:1005300002208DF81300C3E00399012081F8240004
:10054000FFE7FFE702984068062812D8FFE7039804
:100550000068406B029A1168526802EB8202053A09
:100560001F239340984391400843039909684863C7
:1005700029E0029840680C2812D8FFE70398006829
:10058000006B029A1168526802EB8202233A1F2321
:10059000934098439140084303990968086311E028
:1005A00003980068C06A029A1168526802EB8202DE
:1005B000413A1F23934098439140084303990968A7
:1005C000C862FFE7FFE7029800680A2812D3FFE736
:1005D00003980068C06802990A68896802EB4202C1
:1005E0001E3A0723934098439140084303990968B2
:1005F000C86010E003980068006902990A68896879
:1006000002EB420207239340984391400843039929
:1006100009680861FFE702980068102805D0FFE725
:1006200002980068112840D1FFE70398006842F261
:100630000041C4F2010188422DD1FFE70398006810
:1006400080680002002825D4FFE7039801688868C5
:1006500040F40000886002980068102819D1FFE774
:1006600040F20000C2F2000000684DF68361C4F25F
:100670001B31A0FB0110800C00EB800040000090BB
:10068000FFE7009820B1FFE7009801380090F8E7F5
:10069000FFE7FFE708E00399886A40F020008862DE
:1006A00001208DF80700FFE7FFE7FFE7039900202F
:1006B00081F82400FFE79DF807008DF81300FFE79D
:1006C0009DF8130005B0704781B000900098006855
:1006D000C06C01B07047000080B588B00690002063
:1006E0008DF81700049003900290069820B9FFE758
:1006F00001208DF81F00F4E00698806830B1FFE714
:100700000698007D08B1FFE7FFE7FFE70698806ADB
:1007100050B9FFE706990020C862069981F82400C5
:10072000069800F0E3F8FFE70698FFF7D7FD8DF88D
:1007300017000698806AC006002800F1C480FFE711
:100740009DF81700002840F0BE80FFE70698806AF9
:1007500040F0020020F488500699886206994868A3
:10076000CA691043097B40EA41010398084303909A
:10077000069881680120B1F5807F019008D0FFE7DD
:10078000069880680138B0FA80F040090190FFE7D0
:1007900001990498CA0740F48071002A18BF0846DE
:1007A00004900698007D01281ED1FFE70698007B83
:1007B00070B9FFE7069881694EF20000CFF6FF702E
:1007C00000EB41300499084340F4006004900AE0D3
:1007D0000699886A40F0200088620699C86A40F04D
:1007E0000100C862FFE7FFE706980068406820F450
:1007F00069400499084306990968486006980068AA
:1008000080684FF2FD71CFF6E1710840039908430B
:10081000069909688860069881680120B1F5807F93
:10082000009008D0FFE7069880680138B0FA80F0A1
:1008300040090090FFE7009800F00100002818BF71
:100840004FF48070B0F5807F09D1FFE70698016909
:100850000020CFF6F07000EB01500290FFE7069801
:100860000068C06A20F4700002990843069909687C
:10087000C86206980068806840F6FE61CFF61F7176
:100880000840039988420CD1FFE706990020C8620E
:100890000698806A40F0010020F002000699886204
:1008A00010E00698806A40F0100020F002000699DF
:1008B00088620699C86A40F00100C86201208DF87C
:1008C0001700FFE708E00699886A40F01000886288
:1008D00001208DF81700FFE79DF817008DF81F0025
:1008E000FFE79DF81F0008B080BD000080B588B00C
:1008F00007900020069005900490039007980068E8
:1009000042F20041C4F2010188422AD1FFE7FFE729
:1009100041F21800C4F20200016841F40071016064
:10092000006800F4007002900298FFE7FFE741F2D0
:100930001800C4F20200016841F00401016000687F
:1009400000F0040001900198FFE7012003900320CC
:10095000049040F60000C4F2010003A900F07CFA04
:10096000FFE708B080BD000080B58CB00A90099107
:10097000002008900790069000F0F0FB08900A987D
:1009800000688068C00500280FD5FFE70A99886ACB
:1009900040F020008862FFE70A99002081F82400D7
:1009A000FFE701208DF82F001CE10A9800684068DD
:1009B000C005002838D4FFE70A980068C06A10F420
:1009C000700F31D1FFE7FFE70A98006800688007E1
:1009D000002828D4FFE70998013018B3FFE70998E9
:1009E00040B1FFE700F0BAFB0899401A0999884224
:1009F00017D9FFE70A9800680068800700280FD41D
:100A0000FFE70A99886A40F004008862FFE70A99C4
:100A1000002081F82400FFE703208DF82F00E1E09B
:100A2000FFE7FFE7D0E7B0E040F20000C2F20000CD
:100A300000680490022000F045FC01460498B0FBD9
:100A4000F1F005900A980068006944F62411C2F29A
:100A5000924108422BD1FFE70A980068C06844F62B
:100A60002411C0F29201084221D1FFE70A980068E0
:100A70000169002042F29242C1F2492211420390E0
:100A80000DD1FFE70A980068C06842F29241C0F2B7
:100A900049010840B0FA80F040090390FFE703984D
:100AA000C1072920002918BF1420029039E00A98B4
:100AB0000068006942F29241C1F2492108420CD11A
:100AC000FFE70A980068C168012042F29242C0F232
:100AD0004902114201901CD0FFE70A9800680169A1
:100AE000002049F24922C0F22402114200900DD1A7
:100AF000FFE70A980068C06849F24921C0F2240162
:100B00000840B0FA80F040090090FFE7009801909B
:100B1000FFE70198C107FC20002918BF542002906C
:100B2000FFE70598029948430690FFE70798069962
:100B3000884229D2FFE70998013008B3FFE70998F6
:100B400040B1FFE700F00AFB0899401A0999884272
:100B500015D9FFE70798069988420FD2FFE70A994F
:100B6000886A40F004008862FFE70A99002081F853
:100B70002400FFE703208DF82F0033E0FFE7FFE7B5
:100B8000079801300790D1E7FFE70A9801686FF0F6
:100B9000120008600A99886A40F4007088620A9816
:100BA0000068806800F46020B0F5602F16D1FFE780
:100BB0000A98007B90B9FFE70A99886A20F4807050
:100BC00088620A98806AC004002806D4FFE70A9960
:100BD000886A40F001008862FFE7FFE700208DF897
:100BE0002F00FFE79DF82F000CB080BD80B584B0CA
:100BF000029000208DF80700FFE7029890F824008B
:100C0000012804D1FFE702208DF80F00C5E002990A
:100C1000012081F82400FFE7FFE70298FFF7A0FB1F
:100C20008DF807009DF80700002840F0AA80FFE734
:100C30000298806A40F4807040F201218843029952
:100C400088620298006842F60001C4F201018842FD
:100C500009D1FFE742F20440C4F20100006810F439
:100C6000702F03D018E00020B0B9FFE70299886A1E
:100C700020F48010886202980068406840050028CF
:100C800009D5FFE70298806A40F4805020F40050B4
:100C900002998862FFE72CE00299886A40F480108C
:100CA00088620298006842F20041C4F20101884261
:100CB00009D0FFE70298006842F60001C4F2010182
:100CC000884209D1FFE742F20440C4F20100006803
:100CD0004005002803D40BE0012048B9FFE7029843
:100CE000806A40F4805020F4005002998862FFE747
:100CF000FFE70298806AC004002806D5FFE7029942
:100D0000C86A20F00600C86203E002990020C862A9
:100D1000FFE7FFE70299002081F82400FFE702982F
:100D200001686FF00200086002980068806800F4B3
:100D30006020B0F5602F1CD1FFE70298006842F6F2
:100D40000001C4F20101884209D1FFE742F20440E8
:100D5000C4F20100006810F4702F03D009E00020F5
:100D600038B9FFE702980168886840F4A0008860FD
:100D700006E002980168886840F480108860FFE708
:100D800006E0FFE70299002081F82400FFE7FFE773
:100D90009DF807008DF80F00FFE79DF80F0004B0E5
:100DA00080BD000080B584B0029000208DF807005F
:100DB000FFE7029890F82400012804D1FFE7022001
:100DC0008DF80F0022E00299012081F82400FFE74E
:100DD000FFE70298FFF782FA8DF807009DF80700F9
:100DE00048B9FFE70298806A40F0010020F488507B
:100DF00002998862FFE7FFE70299002081F824004A
:100E0000FFE79DF807008DF80F00FFE79DF80F0042
:100E100004B080BD80B584B0039000F09FF90290CB
:100E2000039801900198013048B1FFE740F21000AB
:100E3000C2F200000178019808440190FFE7FFE743
:100E400000F08CF90299401A0199884201D2FFE71B
:100E5000F6E704B080BD00008FB00E900D91002029
:100E60000C900890FFE70D9800680C99C840002886
:100E700000F07181FFE70C99012088400B900D98DC
:100E800000680B9908400A900A980B99884240F034
:100E90005E81FFE70D9840680490002851D0FFE77D
:100EA000049801283AD0FFE7049802283FD0FFE7D2
:100EB000049803285FD0FFE70498112832D0FFE799
:100EC0000498122838D0FFE704980021C1F21101DC
:100ED000884236D0FFE704980021C1F2120188420F
:100EE0002FD0FFE704980021C1F22101884228D0C9
:100EF000FFE704980021C1F22201884221D0FFE7D8
:100F000004980021C1F2310188421AD0FFE7049809
:100F10000021C1F23201884213D02FE00D98C06841
:100F200008902CE00D98C0680430089027E00D98D8
:100F3000C0680830089022E00D98C0680C30089016
:100F40001DE00D98806818B9FFE70420089011E0B3
:100F50000D988068012806D1FFE7082008900B98BB
:100F60000E99086105E0082008900B980E994861D9
:100F7000FFE7FFE703E00020089000E0FFE70A98A2
:100F8000FF2803D8FFE70E98039003E00E98043083
:100F90000390FFE7039807900A98FF2804D8FFE71B
:100FA0000C988000029006E00C996FF01F0000EB97
:100FB00081000290FFE70298069007980068069A61
:100FC0000F21914088430899914008430799086090
:100FD0000D98C079C006002840F1B880FFE7FFE710
:100FE00041F21800C4F20200016841F00101016001
:100FF000006800F0010005900598FFE70C9820F0CC
:1010000003000821C4F20101405809900C9800F037
:10101000030081000F2000FA01F10998884309902C
:101020000E9840F60001C4F20101884203D1FFE7A7
:101030000020019018E00E9840F60041C4F2010132
:10104000884203D1FFE7012000900AE00E9941F2A7
:101050000002C4F201020320914208BF0220009066
:10106000FFE700980190FFE701980C9901F0030158
:10107000890000FA01F109980843099009980C9930
:1010800021F003010822C4F2010288500D988079F2
:10109000C006002809D5FFE70A9A40F20841C4F2C9
:1010A000010108681043086008E00A9A40F208410C
:1010B000C4F20101086890430860FFE70D98807949
:1010C0008006002809D5FFE70A9A40F20C41C4F2D5
:1010D000010108681043086008E00A9A40F20C41D8
:1010E000C4F20101086890430860FFE70D98807919
:1010F0008007002809D5FFE70A9A40F20441C4F2AC
:10110000010108681043086008E00A9A40F20441AF
:10111000C4F20101086890430860FFE70D988079E8
:10112000C00748B1FFE70A9A40F20041C4F201014A
:1011300008681043086008E00A9A40F20041C4F2CF
:101140000101086890430860FFE7FFE7FFE70C989C
:1011500001300C9087E60FB07047000040F2F000BD
:10116000C2F200000068704740F21000C2F20000B6
:10117000027840F2F001C2F20001086810440860F1
:101180007047000080B542F20001C4F20201086815
:1011900040F010000860032000F08CF80F2000F0F1
:1011A00005F800F03BF8002080BD000080B582B05B
:1011B000009040F20000C2F20000006840F210010E
:1011C000C2F200010A784FF47A71B1FBF2F1B0FB80
:1011D000F1F000F007FF20B1FFE701208DF80700D4
:1011E00018E000980F280DD8FFE700994FF0FF3066
:1011F000002200F045F8009840F21401C2F200010C
:10120000086003E001208DF8070003E000208DF85E
:101210000700FFE79DF8070002B080BD83B0FFE73D
:1012200041F21800C4F20200016841F001010160BE
:10123000006800F0010002900298FFE7FFE741F22A
:101240001C00C4F20200016841F080510160006896
:1012500000F0805001900198FFE7FFE70421C4F2FD
:10126000010108680090009820F0E060009000986C
:1012700040F08060009000980860FFE703B070477E
:1012800080B586B08DF8170004910392002002907B
:1012900001F06EFD02909DF91700019002980499EB
:1012A000039A01F00BFA0146019801F069FD06B0BE
:1012B00080BD000080B582B00190019801F082FDF0
:1012C00002B080BD80B588B00790002006900590E0
:1012D00004900390029007980190012866D0FFE7E0
:1012E0000198022800F0A580FFE70198102840F03F
:1012F000B080FFE741F20400C4F2020000680390EE
:1013000041F20000C4F202000068C00100284CD580
:10131000FFE70398C0F3834144F66020C0F6000065
:10132000405C04909DF80E00C007F0B1FFE741F269
:101330000400C4F202000068C0F3404144F670208B
:10134000C0F60000405C06909DF80E00C00758B142
:10135000FFE7069941F20020C0F27A00B0FBF1F0FD
:10136000049948430590FFE707E0049840F6001110
:10137000C0F23D0148430590FFE741F20400C4F28A
:10138000020000684002002803D5FFE7059802909C
:101390000AE0059840004AF6AB21CAF6AA21A0FB54
:1013A000011040080290FFE7FFE753E041F2200000
:1013B000C4F2020000680390039800F44070B0F596
:1013C000807F0AD1FFE79DF80C008007002804D534
:1013D000FFE74FF4004002902AE0039800F44070C9
:1013E000B0F5007F0DD1FFE741F22400C4F2020006
:1013F00000688007002804D5FFE749F640400290C6
:1014000015E0039800F44070B0F5407F0DD1FFE780
:1014100041F20000C4F2020000688003002804D5F5
:10142000FFE74FF22440029000E0FFE7FFE7FFE70D
:1014300010E000F029FA41F20401C4F20201096847
:1014400001F44042022101EB5231B0FBF1F0029075
:1014500000E0FFE7029808B080BD000080B586B0CC
:10146000049000200390029004980078C0070028A0
:1014700000F0AC80FFE700208DF8070041F21C006F
:10148000C4F202000068C000002813D4FFE7FFE7A1
:1014900041F21C00C4F20200016841F08051016079
:1014A000006800F0805000900098FFE701208DF860
:1014B0000700FFE747F20000C4F200000068C00523
:1014C000002822D4FFE747F20001C4F200010868B7
:1014D00040F480700860FFF741FE0390FFE747F299
:1014E0000000C4F200000068C00500280CD4FFE72B
:1014F000FFF734FE0399401A652804D3FFE7032061
:101500008DF817008AE0EAE7FFE741F22000C4F215
:101510000200006800F4407002900298E0B3FFE718
:1015200002980499496801F44071884234D0FFE779
:1015300041F22001C4F20201086820F440700290D8
:1015400040F24042C4F242220120106000201060AC
:10155000029808609DF80800C007E0B1FFE7FFF7B8
:10156000FDFD0390FFE741F22000C4F20200006895
:10157000800700280ED4FFE7FFF7F0FD0399401A1B
:1015800041F28931884204D3FFE703208DF8170028
:1015900044E0E8E7FFE7FFE741F22001C4F202017F
:1015A000086820F44070049A5268104308609DF85F
:1015B0000700012809D1FFE741F21C01C4F2020132
:1015C000086820F080500860FFE7FFE70498007883
:1015D000800700280CD5FFE741F20401C4F20201A4
:1015E000086820F44040049A926810430860FFE7BE
:1015F00004980078C00600280CD5FFE741F20401EA
:10160000C4F20201086820F48000049AD2681043F2
:101610000860FFE700208DF81700FFE79DF817002E
:1016200006B080BD80B584B002900191029820B9C7
:10163000FFE701208DF80F001BE1019842F2000145
:10164000C4F20201096801F00701884216D9FFE7D8
:1016500042F20000C4F20200016821F00701019A81
:1016600011430160006800F007000199884204D02E
:10167000FFE701208DF80F00FBE0FFE702980078FC
:10168000800700282AD5FFE7029800784007002845
:1016900009D5FFE741F20401C4F20201086840F4F1
:1016A000E0600860FFE7029800780007002809D58D
:1016B000FFE741F20401C4F20201086840F46050FF
:1016C0000860FFE741F20401C4F20201086820F05B
:1016D000F000029A926810430860FFE702980078D1
:1016E000C007002860D0FFE70298406801280ED1AB
:1016F000FFE741F20000C4F2020000688003002806
:1017000004D4FFE701208DF80F00B2E021E0029839
:10171000406802280ED1FFE741F20000C4F2020047
:1017200000688001002804D4FFE701208DF80F0035
:101730009FE00DE041F20000C4F202000068800763
:10174000002804D4FFE701208DF80F0091E0FFE7A7
:10175000FFE741F20401C4F20201086820F003002F
:10176000029A526810430860FFF7F8FC0090FFE708
:1017700041F20400C4F20200006800F00C0002997B
:101780004968B0EB810F0ED0FFE7FFF7E7FC009947
:10179000401A41F28931884204D3FFE703208DF8D3
:1017A0000F0066E0E4E7FFE7019842F20001C4F2AF
:1017B0000201096801F00701884216D2FFE742F2F0
:1017C0000000C4F20200016821F00701019A1143F0
:1017D0000160006800F007000199884204D0FFE72B
:1017E00001208DF80F0044E0FFE7029800784007E1
:1017F00000280CD5FFE741F20401C4F20201086899
:1018000020F4E060029AD26810430860FFE7029873
:101810000078000700280DD5FFE741F20401C4F26B
:101820000201086820F46050029A126940EAC2007E
:101830000860FFE700F03AF841F20401C4F2020147
:101840000968C9B20A0944F64821C0F60001895C5A
:10185000C84040F20001C2F20001086040F21400EA
:10186000C2F200000068FFF7A1FC00208DF80F0015
:10187000FFE79DF80F0004B080BD000040F20000BB
:10188000C2F200000068704780B5FFF7F7FF41F231
:101890000401C4F202010968C1F3C22244F65821CE
:1018A000C0F60001895CC84080BD000086B0002001
:1018B0000590049003900290019041F20400C4F25C
:1018C000020000680590059800F00C0001460091A8
:1018D00000283FD0FFE70098042804D0FFE70098D5
:1018E000082806D037E041F20020C0F27A000190CB
:1018F00037E00598C0F3834144F67220C0F600003B
:10190000405C02909DF81600C007C0B1FFE741F2AD
:101910000400C4F202000068C0F3404144F6822093
:10192000C0F60000405C0490029841F20021C0F231
:101930007A0148430499B0FBF1F0039007E0029864
:1019400040F60011C0F23D0148430390FFE70398C1
:10195000019006E0FFE741F20020C0F27A0001901A
:10196000FFE7019806B0704780B586B004900498F0
:1019700020B9FFE701208DF817002EE304980078C6
:10198000C007002800F0AE80FFE741F20400C4F277
:101990000200006800F00C00042813D0FFE741F2B9
:1019A0000400C4F20200006800F00C0008281BD1FB
:1019B000FFE741F20400C4F202000068C0030028FF
:1019C00012D5FFE741F20000C4F202000068800374
:1019D000002808D5FFE70498406820B9FFE70120F8
:1019E0008DF81700F9E27CE0FFE704984068B0F555
:1019F000803F09D1FFE741F20001C4F2020108680B
:101A000040F48030086032E00498406868B9FFE72D
:101A100041F20001C4F20201086820F4803008603D
:101A2000086820F48020086020E004984068B0F541
:101A3000A02F0DD1FFE741F20001C4F202010868B6
:101A400040F480200860086840F4803008600CE0B2
:101A500041F20001C4F20201086820F480300860FD
:101A6000086820F480200860FFE7FFE7FFE7FFE752
:101A700004984068D0B1FFE7FFF770FB0390FFE7E1
:101A800041F20000C4F202000068800300280CD478
:101A9000FFE7FFF763FB0399401A652804D3FFE7CC
:101AA00003208DF8170098E2EAE719E0FFF756FBEC
:101AB0000390FFE741F20000C4F2020000688003D7
:101AC00000280CD5FFE7FFF749FB0399401A65286A
:101AD00004D3FFE703208DF817007EE2EAE7FFE773
:101AE000FFE7FFE7049800788007002840F18D8029
:101AF000FFE741F20400C4F20200006810F00C0F8E
:101B000013D0FFE741F20400C4F20200006800F0C5
:101B10000C00082829D1FFE741F20400C4F20200BA
:101B20000068C003002820D4FFE741F20000C4F29F
:101B3000020000688007002809D5FFE704980069C3
:101B4000012804D0FFE701208DF8170045E241F29B
:101B50000001C4F20201086820F0F800049A5269FA
:101B600040EAC2000860FFE74EE00498006958B3FD
:101B7000FFE70021C4F2422101200860FFF7EEFADE
:101B80000390FFE741F20000C4F202000068800702
:101B900000280CD4FFE7FFF7E1FA0399401A032865
:101BA00004D3FFE703208DF8170016E2EAE741F2BD
:101BB0000001C4F20201086820F0F800049A52699A
:101BC00040EAC20008601EE00021C4F24221002069
:101BD0000860FFF7C3FA0390FFE741F20000C4F288
:101BE00002000068800700280CD5FFE7FFF7B6FA6F
:101BF0000399401A032804D3FFE703208DF8170048
:101C0000EBE1EAE7FFE7FFE7FFE70498007800076A
:101C1000002848D5FFE70498806918B3FFE740F231
:101C20008041C4F2422101200860FFF797FA039037
:101C3000FFE741F22400C4F2020000688007002898
:101C40000CD4FFE7FFF78AFA0399401A032804D35C
:101C5000FFE703208DF81700BFE1EAE7012000F05D
:101C6000B7FD1FE040F28041C4F24221002008602D
:101C7000FFF774FA0390FFE741F22400C4F2020078
:101C80000068800700280CD5FFE7FFF767FA039983
:101C9000401A032804D3FFE703208DF817009CE1C6
:101CA000EAE7FFE7FFE7049800784007002840F1E3
:101CB000D880FFE700208DF8070041F21C00C4F235
:101CC00002000068C000002813D4FFE7FFE741F2DC
:101CD0001C00C4F20200016841F0805101600068FC
:101CE00000F0805000900098FFE701208DF8070079
:101CF000FFE747F20000C4F200000068C0050028BA
:101D000022D4FFE747F20001C4F20001086840F462
:101D100080700860FFF722FA0390FFE747F20000A7
:101D2000C4F200000068C00500280CD4FFE7FFF7EC
:101D300015FA0399401A652804D3FFE703208DF8AC
:101D400017004AE1EAE7FFE7FFE70498C0680128C7
:101D500009D1FFE741F22001C4F20201086840F016
:101D60000100086031E00498C06868B9FFE741F2FB
:101D70002001C4F20201086820F001000860086830
:101D800020F0040008601FE00498C06805280DD109
:101D9000FFE741F22001C4F20201086840F00400AC
:101DA0000860086840F0010008600CE041F2200182
:101DB000C4F20201086820F001000860086820F001
:101DC00004000860FFE7FFE7FFE7FFE70498C0684B
:101DD000E0B1FFE7FFF7C2F90390FFE741F220000F
:101DE000C4F202000068800700280ED4FFE7FFF766
:101DF000B5F90399401A41F28931884204D3FFE7CB
:101E000003208DF81700E8E0E8E71BE0FFF7A6F9EC
:101E10000390FFE741F22000C4F20200006880074F
:101E200000280ED5FFE7FFF799F90399401A41F210
:101E30008931884204D3FFE703208DF81700CCE0F6
:101E4000E8E7FFE79DF80700012809D1FFE741F225
:101E50001C01C4F20201086820F080500860FFE70E
:101E6000FFE70498C069002800F0B380FFE741F263
:101E70000400C4F20200006800F00C00082800F022
:101E80008280FFE70498C06902285CD1FFE76021E7
:101E9000C4F2422100200860FFF760F90390FFE7D9
:101EA00041F20000C4F202000068800100280CD555
:101EB000FFE7FFF753F90399401A032804D3FFE71C
:101EC00003208DF8170088E0EAE70498006AB0F56F
:101ED000803F0CD1FFE741F20401C4F2020108681F
:101EE00020F40030049A926810430860FFE741F242
:101EF0000401C4F20201086820F47410049B1A6AF9
:101F00005B6A1A43104308606021C4F24221012039
:101F10000860FFF723F90390FFE741F20000C4F2E5
:101F200002000068800100280CD4FFE7FFF716F9D3
:101F30000399401A032804D3FFE703208DF8170004
:101F40004BE0EAE71EE06021C4F242210020086075
:101F5000FFF704F90390FFE741F20000C4F202002A
:101F60000068800100280CD5FFE7FFF7F7F8039918
:101F7000401A032804D3FFE703208DF817002CE054
:101F8000EAE7FFE724E00498C069012804D1FFE7ED
:101F900001208DF8170020E041F20400C4F2020095
:101FA00000680290029800F480300499096A88421F
:101FB00008D1FFE7029800F470100499496A88423A
:101FC00004D0FFE701208DF8170006E0FFE7FFE7E8
:101FD000FFE700208DF81700FFE79DF8170006B017
:101FE00080BD000080B582B00190019800F034FC03
:101FF00002B080BD84B00290019100200090FFE704
:10200000029890F83C00012804D1FFE702208DF8E7
:102010000F0044E00299012081F83C00FFE7FFE750
:10202000009820F0FF000199C968084300900098CB
:1020300020F440700199896808430090009820F4CA
:1020400080600199496808430090009820F400607E
:102050000199096808430090009820F48050019984
:10206000096908430090009820F4005001994969DB
:1020700008430090009820F480400199C969084302
:1020800000900098029909684864FFE702990020CF
:1020900081F83C00FFE700208DF80F00FFE79DF876
:1020A0000F0004B07047000085B003900291FFE775
:1020B000039890F83C00012804D1FFE702208DF836
:1020C000130052E00399012081F83C00FFE7FFE78D
:1020D0000399022081F83D00039800684068019050
:1020E0000398006880680090019820F070000190CB
:1020F00002980168019808430190019803990968C2
:1021000048600398006842F60041C4F20101884229
:102110000FD0FFE703980068B0F1804F09D0FFE7C8
:102120000398006840F20041C4F2000188420ED1D9
:10213000FFE7009820F08000009002984168009826
:10214000084300900098039909688860FFE70399A5
:10215000012081F83D00FFE70399002081F83C0051
:10216000FFE700208DF81300FFE79DF8130005B08E
:102170007047000080B586B0059000200490039061
:10218000029001900598006842F60041C4F20101F6
:1021900088421DD1FFE7FFE741F21800C4F20200B8
:1021A000016841F004010160006800F00400009043
:1021B0000098FFE74FF40060019002200290049025
:1021C00040F60000C4F2010001A9FEF745FEFFE75A
:1021D00006B080BD80B586B00490039102920020C5
:1021E0008DF80700FFE7049890F83C00012804D11F
:1021F000FFE702208DF8170089E00499012081F89B
:102200003C00FFE7FFE7029800900C2800F2708086
:102210000099DFE801F0076D6D6D206D6D6D3A6D11
:102220006D6D530004980068039900F013FC049846
:102230000168886940F0080088610498016888692D
:1022400020F0040088610398026904980168886995
:102250001043886150E004980068039900F062FC24
:1022600004980168886940F40060886104980168F6
:10227000886920F480608861039802690498016885
:10228000886940EA0220886136E004980068039972
:1022900000F0B4FC04980168C86940F00800C86107
:1022A00004980168C86920F00400C86103980269B5
:1022B00004980168C8691043C8611DE0049800686B
:1022C000039900F007FD04980168C86940F40060B4
:1022D000C86104980168C86920F48060C8610398E7
:1022E000026904980168C86940EA0220C86103E0F5
:1022F00001208DF80700FFE7FFE70499002081F82F
:102300003C00FFE79DF807008DF81700FFE79DF8F8
:10231000170006B080BD000080B582B00090009824
:1023200020B9FFE701208DF807003FE0009890F802
:102330003D0040B9FFE70099002081F83C0000987B
:1023400000F038F8FFE70099022081F83D0000997D
:1023500051F8040B00F0EEFA0099012081F84600D4
:10236000FFE70099012081F83E00009981F83F00C5
:10237000009981F84000009981F84100FFE7FFE7EC
:102380000099012081F84200009981F843000099EA
:1023900081F84400009981F84500FFE70099012089
:1023A00081F83D0000208DF80700FFE79DF8070049
:1023B00002B080BD82B001900198006842F60041F1
:1023C000C4F20101884210D1FFE7FFE741F2180093
:1023D000C4F20200016841F400610160006800F489
:1023E000006000900098FFE7FFE702B07047000030
:1023F00080B58AB008900791079828B9FFE7089838
:1024000090F83E0005901CE00798042805D1FFE7EE
:10241000089890F83F00049010E00798082805D12C
:10242000FFE7089890F84000039004E0089890F8BF
:1024300041000390FFE703980490FFE7049805909C
:10244000FFE70598012804D0FFE701208DF8270059
:1024500071E0079828B9FFE70899022081F83E004B
:102460001EE00798042806D1FFE70899022081F8AA
:102470003F00029012E00798082806D1FFE708996C
:10248000022081F84000019005E00899022081F8BF
:1024900041000190FFE701980290FFE70298FFE7F3
:1024A000089800680799012200F0B8FA08980068B7
:1024B00042F60041C4F20101884207D1FFE70898C3
:1024C0000168486C40F400404864FFE708980068E1
:1024D00042F60041C4F2010188420FD0FFE708989C
:1024E0000068B0F1804F09D0FFE70898006840F21B
:1024F0000041C4F20001884212D1FFE70898006849
:10250000806800F0070006900698062807D0FFE7CD
:1025100008980168086840F001000860FFE706E0DD
:1025200008980168086840F001000860FFE7002093
:102530008DF82700FFE79DF827000AB080BD000056
:10254000FFE7FEE780B584B000210391029101917D
:1025500040F27800C2F20000009042F20042C4F261
:10256000010202608160017301754FF46022C26153
:10257000416001210161FEF7AFF818B1FFE7FDF7F7
:1025800099FFFFE70020019001210291039040F2A2
:102590007800C2F2000001A9FDF7BCFF18B1FFE707
:1025A000FDF788FFFFE704B080BD000081B0FFE7C2
:1025B00041F21800C4F20200016841F00401016018
:1025C000006800F0040000900098FFE701B0704739
:1025D00080B594B000210191139112911191109145
:1025E0000F910E910D910C910B910A910991089107
:1025F0000791069105910491039140F2A800C2F25F
:102600000000029042F60042C4F20102026015226C
:10261000426081604FF6FF72C26001614161816179
:10262000FFF77AFE18B1FFE7FDF744FFFFE7002050
:102630001290139040F2A800C2F2000012A9FFF716
:1026400033FD18B1FFE7FDF735FFFFE760200B9082
:1026500000200C900D900F901090119040F2A80067
:10266000C2F200000BA90C22FFF7B4FD18B1FFE77E
:10267000FDF720FFFFE700200390049005900690EF
:1026800007904FF4005108910A9040F2A800C2F25E
:10269000000003A9FFF7AEFC18B1FFE7FDF70AFF42
:1026A000FFE740F2A800C2F20000FFF763FD14B09C
:1026B00080BD0000FFE7FEE7FFE7FEE788B0079078
:1026C00006910592079800F0070004900498C0F165
:1026D0000700052803D3FFE70420019004E00498D5
:1026E000C0F107000190FFE70198039004980430BF
:1026F000062803D8FFE70020009003E00498033881
:102700000090FFE70098029006980399012202FAD0
:1027100001F101390840029B984005999A40013A1D
:102720001140084308B070477047000080B588B07A
:102730008DF81F009DF91F00FDF79CFE069006997D
:1027400045F24040C4F6894001F0E6FE01F0A6FFE4
:102750000138ADF81600FFE7BDF8160040F2A801F9
:10276000C2F200010A68D062BDF81600C860FFE737
:102770000520FDF7A7FE0490049801F0C3FF4FF277
:102780000001C4F27F5101F0C7FE0390039908468F
:1027900001F0CCFF0390BDF816000399FDF740FE51
:1027A000ADF80A00BDF80A0040F2A801C2F200012B
:1027B0000191096808644FF4C870FEF72BFB01987B
:1027C0000168002008643220FEF724FB08B080BDB9
:1027D00082B00190019840F20001C2F20001096844
:1027E000C90844F6D352C1F26202A1FB0221890951
:1027F00048430090FFE700BFFFE70098411E0091AB
:102800000028F8D1FFE702B07047000080B582B021
:1028100040F27800C2F200000090FEF7E7F900985D
:102820006421FEF7A1F840B9FFE740F27800C2F258
:102830000000FDF749FF019008E040F27800C2F285
:102840000000FEF7AFFA00200190FFE7019802B008
:1028500080BD00007047000080B582B000900098F5
:102860000138B0F1807F03D3FFE70120019019E028
:10287000009801384EF21401CEF2000108604FF0CA
:10288000FF300F2100F07CFA4EF21801CEF2000169
:10289000002008604EF21002CEF200020721116003
:1028A0000190FFE7019802B080BD000080B5FEF7FF
:1028B0005BFC80BD80B596B00CA801902821FDF787
:1028C00099FC0198002102910B910A9109910891BC
:1028D0000791069105910491039102220C92012225
:1028E0001092102211921391FFF73EF818B1FFE7F2
:1028F000FDF7E0FDFFE70F20079000210891099107
:102900000A910B9107A8FEF78DFE18B1FFE7FDF7BE
:10291000D1FDFFE7022003900020059003A8FEF7F9
:102920009DFD18B1FFE7FDF7C5FDFFE716B080BDBF
:102930007047000083B002900191029800680090F7
:10294000029842F60041C4F2010188420DD0FFE72F
:102950000298B0F1804F08D0FFE7029840F20041A2
:10296000C4F2000188420AD1FFE7009820F070000D
:10297000009001984168009808430090FFE7029892
:1029800042F60041C4F2010188420DD0FFE70298EF
:10299000B0F1804F08D0FFE7029840F20041C4F246
:1029A000000188420AD1FFE7009820F440700090AF
:1029B0000198C168009808430090FFE7009820F054
:1029C00080000199496908430090009802990860C5
:1029D000019880680299C86201980068029988622B
:1029E000029842F60041C4F20101884205D1FFE796
:1029F0000198006902990863FFE702990120486184
:102A000002980069C00730B1FFE70299086920F019
:102A100001000861FFE703B07047000084B0039035
:102A200002910192029800F01F010120884000905D
:102A3000009A0399086A904308620198029901F08C
:102A40001F0100FA01F20399086A1043086204B0FA
:102A50007047000085B0049003910498006A0190CB
:102A60000499086A20F00100086204984068009008
:102A7000049880690290029820F0700002900298F9
:102A800020F0030002900398016802980843029026
:102A9000019820F002000190039881680198084392
:102AA0000190049842F60041C4F2010188420ED11F
:102AB000FFE7019820F0080001900398C168019891
:102AC00008430190019820F004000190FFE704986A
:102AD00042F60041C4F20101884213D1FFE7009899
:102AE00020F480700090009820F40070009003980B
:102AF0004169009808430090039881690098084351
:102B00000090FFE700980499486002980499886152
:102B1000039840680499486301980499086205B0D5
:102B20007047000085B0049003910498006A0190FA
:102B30000499086A20F01000086204984068009028
:102B4000049880690290029820F4E0400290029874
:102B500020F44070029003980168029840EA012036
:102B60000290019820F0200001900398816801985C
:102B700040EA01100190049842F60041C4F20101BC
:102B800088420FD1FFE7019820F080000190039860
:102B9000C168019840EA01100190019820F04000BE
:102BA0000190FFE7049842F60041C4F20101884217
:102BB00015D1FFE7009820F480600090009820F481
:102BC0000060009003984169009840EA81000090FD
:102BD00003988169009840EA81000090FFE700981F
:102BE00004994860029804998861039840680499A0
:102BF000886301980499086205B0704785B0049015
:102C000003910498006A01900499086A20F4807086
:102C100008620498406800900498C0690290029885
:102C200020F070000290029820F0030002900398B8
:102C30000168029808430290019820F40070019006
:102C400003988168019840EA01200190049842F6B7
:102C50000041C4F2010188420FD1FFE7019820F43E
:102C6000006001900398C168019840EA012001903A
:102C7000019820F480600190FFE7049842F600413B
:102C8000C4F20101884215D1FFE7009820F480507A
:102C90000090009820F4005000900398416900983B
:102CA00040EA0110009003988169009840EA011001
:102CB0000090FFE700980499486002980499C86161
:102CC000039840680499C86301980499086205B0A4
:102CD0007047000085B0049003910498006A019049
:102CE0000499086A20F480500862049840680090B3
:102CF0000498C0690290029820F4E0400290029883
:102D000020F44070029003980168029840EA012084
:102D10000290019820F40050019003988168019876
:102D200040EA01300190049842F60041C4F20101EA
:102D300088420BD1FFE7009820F480400090039870
:102D40004169009840EA81100090FFE700980499DB
:102D5000486002980499C86103984068049908641F
:102D600001980499086205B070470000FFE7FEE78C
:102D70004EF60C50CEF200000068C0F302207047FF
:102D800082B08DF8070000919DF9070000280AD451
:102D9000FFE7009800019DF907104EF20042CEF2C5
:102DA000000288540BE0009800019DF8071001F024
:102DB0000F014EF61452CEF200028854FFE702B023
:102DC0007047000083B00290029800F00700009066
:102DD0004EF60C51CEF200010868019001984FF6B2
:102DE000FF02104001900198009A40EA0220002260
:102DF000C0F2FA52104301900198086003B0704786
:102E000080B582B000200190FEF7BCF9FFF752FDBB
:102E1000FFF7CCFBFFF796FBFFF7DAFB40F2A800C9
:102E2000C2F200000C21FFF7E3FAFFE700208DF863
:102E30000300FFE79DF803000B2810DCFFE79DF877
:102E4000031040F20400C2F200004056FFF76EFC8F
:102E5000FFE79DF8030001308DF80300EAE74FF427
:102E60007A70FDF7D7FFE1E7490050EAC12018BFAB
:102E700004204A0D18BF40F0010040F2FF72B2EB8F
:102E8000515F08BF40F00200012808BF05207047CD
:102E90002DE9F0414F1E00EBC7010446D1E90001C6
:102EA00015461E4637F006020DD02A46334601F07D
:102EB0001FF87F1E04EBC703D3E9002300F0ACFD2D
:102EC00037F00602F1D1022F25D0042F13D0062FA0
:102ED00018BFBDE8F0812A46334601F009F8D4E96D
:102EE0000A2300F099FD2A46334601F001F8D4E99F
:102EF000082300F091FD2A46334600F0F9FFD4E99B
:102F0000062300F089FD2A46334600F0F1FFD4E99C
:102F1000042300F081FD2A46334600F0E9FFD4E99E
:102F2000022300F079FD2A46334600F0E1FFD4E9A0
:102F30000023BDE8F04100F06FBD00000022134601
:102F40001046014900F024BE0000F03F00F064BDCF
:102F5000002213461046114600F01ABE40F201321C
:102F600000204FF0E04101F0DFBC0000024A0020E9
:102F7000110701F0D9BC000001FDFFFF2DE9F04D64
:102F80001D460C4694B0174621F0004123F0004343
:102F9000002814BF4FF0010C4FF0000C0CEB440C58
:102FA000FB4A0CEB02064FEA620C66452BD33E004F
:102FB00018BF012606EB45061644F64A964222D370
:102FC000F54A53EA070C02D0944205D148B914B02F
:102FD00000201146BDE8F08D002808BF4FF0000C1E
:102FE00001D04FF0010C0CEB440212F5001F0AD87F
:102FF000002F14BF4FF0010C4FF0000C0CEB4502FA
:1030000012F5001F07D914B03A462B462146BDE8F9
:10301000F04DFFF79BBF0022DFF880A3002CB8BF64
:10302000534526DADFF878C36345A8BF022220DAC9
:10303000DFF864C39C451CDCDFF868C30CEB235C41
:10304000BCF1140F08DDCCF1340627FA06FC0CFAAB
:1030500006F6BE420DD108E05FB9CCF1140623FAA2
:1030600006FC0CFA06F69E4203D10CF00102C2F1F6
:10307000020251EA000C19D1002D17DA002C18BFFA
:10308000022A01D0012A07D00220FDF7E2F814B08D
:10309000BDE8F04DFFF752BF0220FDF7DAF8FFF769
:1030A0004DFF14B081F00041BDE8F08DB7F1000C88
:1030B0006CD1534525D104F1804212F5801201BF35
:1030C00000280020B44914B008BFBDE8F08DB24814
:1030D000884207DC002DA1BF6046294614B0BDE838
:1030E000F08D07E0002DBFBF604685F0004114B0B1
:1030F000BDE8F08DAC497944D1E9000114B0BDE8D8
:10310000F08DDFF894C2634525D1002D1FDA19B187
:10311000514512D1D8B909E0002840F0F6829F4A03
:10312000214614B062F31E01BDE8F08D0020214657
:1031300014B060F31E01BDE8F08D08DA14B0234628
:10314000BDE8F04D02460020614600F021BD14B0FC
:103150002146BDE8F08D514518DAB5F1804F0DD00C
:10316000A5F1005CBCF1FF5C10D1B4F1000C0DDBEB
:1031700014B06146BDE8F04D00F0F6BB234614B034
:103180000246BDE8F04D194600F0B2BE060024F03C
:10319000004C3BD1D9B1514533D1002C06DD002D77
:1031A000A1BF0020514614B0BDE8F08D002C01DD18
:1031B000002D1BDB002C13DA002D11DB012A4FF050
:1031C000000014BF7549794914B0BDE8F08D022A9A
:1031D00018BF002C0AD0012A08D1002C06DA0AE018
:1031E000002CB8BF002D11DA012A04D0002014B041
:1031F0000146BDE8F08D14B000204FF00041BDE85D
:10320000F08DA1F14050B0F17F601AD0012000EBA9
:10321000E47050EA020421D05F4C521E4FF0000BC4
:10322000104304BF4FF0000B614C624883427DDDC8
:10323000614A6248934229DD884217DB002D2FDB6B
:1032400041E0002C00DA4AB1022A0CBF01204FF005
:10325000FF3014B0BDE8F04D00F0F6BD0120FCF7E2
:10326000F8FF14B0BDE8F04DFFF772BE4A4A8A423B
:103270000CDC002D14DC0220FCF7EBFFFFF776FEE0
:1032800061F31E0414B02146BDE8F08D814202DADC
:10329000002D18DA04E0404B994220DD002D12DDAC
:1032A0000220FCF7D6FFFFF759FE05460E46002226
:1032B00053465846214600F01BFE14B066F31E012B
:1032C0002846BDE8F08D0220FCF7C3FFFFF74EFE55
:1032D0000A46214614B062F31E01BDE8F08D0022BB
:1032E0003046614601F02AF8064688466FF0010232
:1032F00001F01AFB4FF05532314B00F02DFF3246F2
:10330000434600F0F5FD00222E4B00F025FF8A46D3
:103310003246434602901046194600F0E9FD5346F6
:10332000029A00F0E5FD8246324600E054E0059145
:1033300043464FF0C040244900F0DAFDCDE90C01CE
:10334000224A214B5046059900F0D2FD8246019158
:103350001F4A204B3046414600F0CAFD5246019BB1
:1033600000F0ECFF82460B4602460991DDE90C01B4
:1033700000F052FBDDE90C2300268846304600F0C1
:10338000DDFF5246099B00F0E7FE024600F07EB9E1
:10339000FFFF1F00FFFF0F000000F03F0000F07F65
:1033A0000000404301FCFFFF461900000000F0FF51
:1033B0000000F0BF0000E0410000F043FFFFEF3FDE
:1033C0005555D53F0000E03F4715F73FFE822B657E
:1033D00044DF5DF80BAE543E0020B1F5801F07DAE4
:1033E00035223046614601F09FFA06466FF0340000
:1033F00000EB2150A0F2FF300190C1F3130040F028
:103400007F6141F040510291FE498842D8BF0020BF
:1034100004DDFD498142C8BF012001DD0F9008E0B5
:1034200000200F900198401C01900298A0F5801098
:1034300002900299F548784405910F9900EBC1007C
:103440001290D0E900233046059900F077FFCDE9CE
:103450000C011298D0E900233046059900F0DCFAFF
:1034600002460B460020EA4900F092FB0B46CDE9EC
:1034700008010246DDE90C0100F03AFD0A90E5483A
:103480008A464FF0000878440299006810904FF087
:10349000005040EA61010F9801EB804000F50021E7
:1034A00012981191D0E90023109800F047FF32469E
:1034B000059B00F051FE4246534600F019FDDDE940
:1034C0001023064603914046514600F011FDDDE908
:1034D0000C2300F041FE3246039B00F02FFFDDE994
:1034E000082300F005FD03910A9A129053461046F6
:1034F000194600F0FDFC06460246C7480B460291FD
:1035000006217844FFF7C4FC029B324605910890DF
:103510001046194600F0ECFC059B089A00F0E8FC08
:10352000064609915346404619460A9A00F074FA35
:10353000039B129A00F0DCFC3246099B00F06CFA07
:10354000CDE90801424653461046194600F0D0FC2A
:1035500002460B46029104900020B04900F05CFA4C
:10356000DDE9082300F058FA0E464246AB4B4046D0
:1035700000F0E4FE029B049A00F0E0FEDDE908237F
:1035800000F0EAFD4246049102903346104651464F
:1035900000F0AEFCCDE90C0153460A9A049902985A
:1035A00000F0A6FC824600913346424603991298E9
:1035B00000F09EFC5246009B00F02EFA82460B461D
:1035C00002460991DDE90C0100F026FADDE90C2341
:1035D00000268846304600F0B1FE5246099B00F0B6
:1035E000BBFDCDE90801434632464FF060408C49AF
:1035F00000F07EFC82460491DDE90801894A884B8F
:1036000000F076FC02910090434632468648874996
:1036100000F06EFC029B009A00F0FEF9844B7B44A4
:103620000F9A03EBC203D3E9002300F0F5F90090F1
:103630000291019800F008FC0E9003915046029B05
:10364000009A049900F0E8F97A4A7A440F9B02EB59
:10365000C3030993D3E9002300F0DEF9039B0E9A1C
:1036600000F0DAF988463046039B0E9A00F066FEB9
:10367000099BD3E9002300F061FE5246049B00F051
:103680005DFE029B009A00F067FD024600200B469B
:1036900002903846294600F02BFC824603912B46C7
:1036A00038461946029A00F049FE3246434600F079
:1036B0001FFC5246039B00F0AFF907468A4632468C
:1036C00043462946029800F013FC05460E463A464A
:1036D000534600F0A1F9584A8846914221DBA8EBF5
:1036E000020353EA000210D12A46334600F026FEB8
:1036F000CDE90310514A524B3846514600F08CF93F
:10370000DDE9033200F0F2FC21D20220FCF7A1FD3A
:10371000FFF724FC0A46214614B062F31E01BDE8FF
:10372000F08D484B28F000429A4210D3464A08EBED
:10373000020353EA00027FF4C6AD2A46334600F086
:10374000FDFD3A46534600F0D1FC7FF6BCAD0022A9
:10375000019228F000403D493D4A01EB2051824250
:1037600023DA481C4FF4801121FA00F04044394A12
:10377000C0F30A517A44384BA1F2FF31CB4020EA22
:103780000303C0F3130040F48010C1F11401C840DA
:1037900012680190B8F1000FBCBF4042019028466A
:1037A000314600F0CBFD05460E462A4633463846E4
:1037B000514600F031F94FF000084246274B404691
:1037C000039100F095FBCDE90C01254A254B4046BD
:1037D000039900F08DFB029100902A463346404643
:1037E000039900F0ABFD3A46534600F0B5FC1E4A83
:1037F0001E4B00F07DFB029B009A00F00DF907467E
:10380000884635E08E9803007AB60B007E150000DE
:103810000000F03FB6150000E21400000000084070
:1038200009C7EE3FFD033ADCF5015B14E02F3EBE15
:10383000B61300007A13000000009040FE822B6552
:103840004715973C00CC904000346F3F01FCFFFFD0
:103850000000E03FC8120000FFFF0F00432EE63FCC
:10386000396CA80C615C20BEEF39FAFE422EE63FAF
:1038700002460B46DDE90C0100F0CEF8DDE90C2331
:1038800005460E4600F05AFD3A46434600F064FCF9
:1038900007462A46334605911046194600F028FB94
:1038A000824602462E4888460B4605217844FFF79B
:1038B000EFFA5246434600F01BFB2A46334600F01F
:1038C0004BFC80468A463A4628463146059B00F026
:1038D0000FFB3A46059B00F09FF8059100900022EF
:1038E0004FF080434046514600F028FD07460391C3
:1038F000424653462846314600F0FAFA3A46039BC0
:1039000000F046F9059B009A00F018FD2A46334660
:1039100000F014FD0022134B00F01EFC0546019838
:103920000E4601EB00510815002810DC28463146F0
:10393000019A00F0F9FFFFF797FA042808BFFFF794
:1039400015FB28463146019A00F0EEFF05460B466E
:1039500014B02A4658462146BDE8F04D00F0C8BADA
:10396000681100000000F03F2DE9F04106460F46C7
:1039700000F0FEFB041E0D4618BF0120284320F076
:103980000040C0F17F6000F1E040C00F0ED0301C5D
:1039900018BF0120384320F00040C0F17F6000F1E3
:1039A000E040C00F04BF0120FCF753FC204629462D
:1039B000BDE8F08121F0004201F00043A2F1605225
:1039C000B2F5801F28BFD2F17F6C0BD95FEA001CD3
:1039D00043EAC20242EB507018BF704728BF20F084
:1039E00001007047B2F5801FBCBF184670474FEA10
:1039F000410C1CF5001F02D2084600F05EBF70B5F6
:103A000000F020FB00000089FFF7F6BF4FF00040F8
:103A1000A0F580007047000010B591EA030F48BF81
:103A200083F0004300F19284841A71EB030C05D2F9
:103A3000121943EB0C03001B61EB0C014FEA11540C
:103A4000A4EB135CDFF81CE11EEA430F18BF9EEAEB
:103A5000445F00F0748021EA045123EA0E0343F42A
:103A60008013DCF1200E32D322FA0CFE10EB0E0094
:103A700023FA0CFE41EB0E01CCF1200E03FA0EFEF0
:103A800010EB0E00CCF1200E51F10001B1F5801FBA
:103A900032D201EB045112FA0EF2BDE8104058BFC9
:103AA0007047401C38BF5FEA420218BF70470028C9
:103AB00014BF20F0010041F100014FEA410313F56A
:103AC000001F38BF7047A1F1C04100F009BB012AB7
:103AD00043EB0302ACF1200CDCF11F0E32BF4FF0C0
:103AE000000E23FA0CF310EB030041EB0451B4EB8E
:103AF000115FD0D0A1EB045101F58011490801EB11
:103B000004515FEA30000ED350F1000038BF12FAC2
:103B10000EFE08D1BDE81040C9E7401C38BF5FEA7F
:103B20004202CAD1C3E7BDE810404FEA410313F592
:103B3000001F38BF7047A1F1C04100F0D1BA9EEA22
:103B4000445F08D011EA5E0FBDE8104004BF01F0E9
:103B5000004100207047BDE8104070B500F072FAD7
:103B600064FBBE3E0000E0FF02494FF0000000F0A1
:103B7000A9BE00BF0000F87F491058BFC1F1404105
:103B80005B1058BFC3F140438B42EFF30080704796
:103B90002DE9C04130B4DFF8A8C23CEA111418BFC7
:103BA0003CEA131400F0F0801CEA111481EA0305CA
:103BB00044EAD57418BF1CEA131500F0CB80A4EBBF
:103BC000050404F17F7404F500344FF0004545EA24
:103BD000C12145EAC32341EA505143EA52534FEA17
:103BE000C0204FEAC222994208BF904200F0A08054
:103BF0004FEA13650FF24816765D4FEA134506FB50
:103C000005F7C7F1807706FB07F74FEAD737A7FB21
:103C100003687642A7FB06CEC8F5803838BFA8F106
:103C2000010807FB08E6A6FB028C4FF0000EE6FB3E
:103C300003CED8F100086FEA0C0C5CF1000C6FEABF
:103C40000E0E4EF1004EA6FB0C584FF00007E6FB9F
:103C50000E87A1FB08C6A0FB07CE16EB0E064FF0A1
:103C6000000545F10005E1FB076515F1E04E7EBF5B
:103C7000A4F580345FEA46066D4116F1800745F1F0
:103C800000054FEA172747EA05674FEA15254FEA6F
:103C90000666A6F1DE46B6F1805F20D9384605EB10
:103CA000C47124F0010C01EB0C11BCF1FE6F02D8C1
:103CB000F0BCBDE8008124425CBF01F5801E9EEA95
:103CC000C47F02D4F0BCBDE80081244200F13980F9
:103CD000A1F1C041F0BCBDE8004100F001BA4FEADB
:103CE000D02040EA41504FEAD1214FEAD22242EAA5
:103CF00043524FEAD323A7FB028607FB036605FB6B
:103D000002661EEA0E0F58BFA6EB0056B6EB005631
:103D10004FEA520E4EEAC37E18EB0E0E56EB530ED0
:103D2000BCD518EB02085E417F1C55F10005B5E7D4
:103D30004FF480154FF000074FF000064FF00008D9
:103D4000ACE701F1C04101F000414FF00000F0BCD0
:103D5000BDE800810CEA131511EA0C1F00D00CE03D
:103D600013EA0C1F00F025804FF0000081EA0301E8
:103D700001F00041F0BCBDE80081F0BCBDE80041AD
:103D800081EA030100F0ACB9F0BCBDE8004170B5B8
:103D900000F058F9097EFC3E00F007B84FF0000033
:103DA00081EA030101F00041704781EA030100F05C
:103DB00097B9F0BCBDE8004122494FF000007047C0
:103DC000FFFDFBF9F7F5F4F2F0EEEDEBE9E8E6E4E0
:103DD000E3E1E0DEDDDBDAD8D7D5D4D3D1D0CFCD67
:103DE000CCCBCAC8C7C6C5C4C2C1C0BFBEBDBCBBA0
:103DF000BAB9B8B7B6B5B4B3B2B1B0AFAEADACAB9B
:103E0000AAA9A8A8A7A6A5A4A3A3A2A1A09F9F9E74
:103E10009D9C9C9B9A999998979796959594939326
:103E2000929191908F8F8E8E8D8C8C8B8B8A8989BD
:103E30008888878786858584848383828281818040
:103E40000000FF070000F87F10F0004248BF40422A
:103E5000B0FA80F310FA03F10AD0C3F11D0303F5A1
:103E6000806302EB03524FEA415002EBD1217047CD
:103E70004FF000007047000051EA030C17D41CF506
:103E8000801F58BFBCF5801F00F10680994218BF03
:103E9000704708BF9042704707D711F5801F58BF81
:103EA00013F5801F19D499427047894270471CF559
:103EB000801F08D5BCF5801FF7D58B4218BF70470F
:103EC00008BF824270474FF4001C1CEB410F38BF03
:103ED0001CEB430F01D28B42704770B500F0B2F873
:103EE000922449004FF000514FF08053FFF744BE39
:103EF00070B5DFF848C11CEA111E1EBF1CEA13157D
:103F00009EEA0C0F95EA0C0F00F06F8081EA030423
:103F10004EEAD47EAE4421EA4C1123EA4C1341F41C
:103F2000801143F48013AEF17F7EA1FB024CA0FB15
:103F30000365361955EB0C05A1FB034C4CF100034E
:103F4000A0FB021C16EB0C06654153F1000309426D
:103F500018BF46F0010613F4007F0BD14FEA03317E
:103F60004FEA053041EA155140EA165034036FF02C
:103F700003020AE04FEAC3214FEAC52041EA555146
:103F800040EA5650F4026FF0020202EB2E4201EBBF
:103F9000025585EACE710AD05FEA440C18BF24F0BE
:103FA000004450F1000041F1000120EAD47040F2D9
:103FB000FE7C624500D270BDA84214BF4FF0804421
:103FC0004FF04044002E08BF0024BEF1806FA8BF10
:103FD000A1F1C041BDE8704080F2828001F1C04192
:103FE00001F000414FF0000070470CEA13159EEA03
:103FF0000C0F18BF95EA0C0F06D081EA030E4FF0A4
:1040000000000EF0004170BD00F01CF88900013E78
:1040100000F007B800F009B84FEA430C5FEA5C5CB7
:1040200008D081EA030100F05BB84FEA410C5FEA77
:104030005C5CF6D102494FF0000070470000FF07BA
:104040000000F87F0EF1020E2EF0030E5EF8046BF6
:10405000364205D4012A43EB030515F5001F12D89B
:10406000012841EB010C1CF5001F0CD80ED14FEAC2
:10407000D17C0CEB4C0C0CF1020C15F5001F08BFA9
:104080004CEBD37C04E04FF0080C01E04FEAD37C0A
:104090000CEB4C0526FA05F606F00706B6F1040C03
:1040A00006D20EEB860CBDE870404CF0010C604768
:1040B000DFE80CF0090B02024FF00041A1F50021EE
:1040C0004FF0000070BD19461046012851EB010465
:1040D00018BFD4F5001484BF002001F0004170BD6A
:1040E0000808A0F500114FEA3101704753EA010CAE
:1040F00017D41CF5801F58BFBCF5801F00F1068047
:104100008B4218BF704708BF8242704707D713F52C
:10411000801F58BF11F5801F19D48B4270479B42F6
:1041200070471CF5801F08D5BCF5801FF7D5994254
:1041300018BF704708BF904270474FF4001C1CEB3B
:10414000430F38BF1CEB410F01D2994270470FB4A7
:104150000CBC03BCFFF7C1BE10B591EA030F81F0A0
:1041600000413FF561AC83F0004300F0EFB8000080
:104170002DE9F04101F5801CBCF5001FC0F2C380A1
:104180004FEA115C21EA0C5141F480110CF1FD0C55
:104190005FEA5C0C0CF5C07C01D340004941890208
:1041A00041EA905187023BA48E0EA45D0A0C04FBE9
:1041B00004F602FB06F6C6F14046A4FB0662F60DC5
:1041C00046EA422606FB06F4A4FB01235242C3F151
:1041D000404338BF5B1EA6FB02420024E6FB0324DB
:1041E000D20B42EA4446A6FB0623A1FB02E2A3FB54
:1041F00007E4A4184FF0000252F10002E3FB014271
:104200006442C2F1404E38BFAEF1010EA6FB04235A
:104210004FF00002E6FB0E32A2FB0346B6194FF048
:10422000000454F10004E2FB0264A1FB06E6A4FBD7
:1042300007E816EB08064FF0000858F10008E4FB09
:1042400001687642C8F1405838BFA8F10108A2FBC6
:1042500006E4A3FB08E52D194FF0000454F1000417
:10426000E2FB0854A1FB05E6A7FB04E818EB0608EF
:104270004FF0000656F10006E1FB048618F1200518
:1042800056F10006A80940EA8660B109A8F11B08AA
:1042900008F03F08B8F10A0F1CD901EB0C51BDE83A
:1042A000F08100BFFCF5EEE8E2DDD8D3CFCBC7C389
:1042B000C0BDB9B6B4B1AEACA9A7A5A3A19F9D9B43
:1042C0009A9896959392908F8D8C8B898887868506
:1042D00084838281A0FB006800FB01F208EB4208A6
:1042E000B8EB872807D5341858EB0104D5D5401C06
:1042F00051F10001D1E7341A78EB0104CDD4401E0E
:1043000071F10001C9E75FEA4C0C5FEA9C5C0DD1DA
:1043100005D301F000414FF00000BDE8F081BDE899
:10432000F04170B5FFF78EFE6DDBFFBEBDE8F041DA
:1043300001494FF0000070470000F87F10B591EA86
:10434000030F48BF83F000433FF56EAB841A71EB57
:10435000030C07D28CF0004C121943EB0C03001B2A
:1043600061EB0C014FEA1154A4EB135CDFF8A4E1FC
:104370001EEA430F18BF9EEA445F00F0B48021EAB2
:10438000045123EA6E035242C3EB6E0338BF5B1E37
:10439000DCF1200E25D322FA0CFE10EB0E0043FABE
:1043A0000CFE41EB0E01CCF1200E03FA0EFE10EBD9
:1043B0000E00CCF1200E51F1000129D401EB045183
:1043C00012FA0EF2BDE8104058BF7047401C1CBFE7
:1043D000B2F1004F704700280CBF491C20F00100CB
:1043E000704712EB020E43EB030218BF4FF0010EB1
:1043F0004EEA4202ACF1200CDCF11E0E56D943FA13
:104400000CFE10EB0E00CCF11E0E51F1FF31D5D594
:104410000EF1010E12FA0EFE404141EB010101EBDB
:10442000445C5FEA5C5C10D901EB045110EBDE7078
:1044300038BFBEF1004FBDE8104018BF70470028DC
:104440000CBF491C20F00100704734D24FEAD42C35
:1044500024F4006411F500111BD0B1FA81F20B3A7B
:10446000A41AA41ED2F12003914030FA03F3194399
:10447000904001EBCC7101EB0451002CBDE81040E1
:10448000A8BF704701F1C04101F000414FF00000AA
:104490007047B0FA80F310FA03F102D1BDE8104082
:1044A0007047E41A173C4805C90AE2E701EB0451DA
:1044B000BDE81040704749104FEA300001EB04514D
:1044C000BDE8104002E04FF0000170474A0008BF0D
:1044D0000042F8D0B2F5001F28BF704701F000413C
:1044E0004FF0000070479EEA445F07D011EA5E0F6C
:1044F000BDE8104004BF002100207047BDE8104017
:1045000070B5FFF79FFD00BF40DFF63E104683F019
:10451000004170470000E0FF4FF47F0C1CEAD0120E
:104520001EBF1CEAD11392EA0C0F93EA0C0F00F0A5
:10453000858090EA010F48BF42F4807240F4000C7D
:1045400041F400002CF07F4120F07F4000B5A2EB49
:10455000030281420FF2081CACEB504E9EF800E0C3
:10456000C0F100004FEA4E0E00FB0EFC38BF4900C0
:104570004FEA2C1C0CFB0EF34FEACE1E0EEB635ED3
:104580004FEA112C0EFB0CFC4FEAC1214FEA1C53E1
:1045900000FB031102F5FA024FEA112C0EFB0CFC92
:1045A0004FEA01314FEADC4C00FB0C1142EB224296
:1045B000C14228BF09184CEB03335DF804EB10EB44
:1045C000410143EBC250B2F57C0F38BF704729D58B
:1045D00012F0F00F1CBF00F1C04000F00040704727
:1045E000008182838485868788898B8C8D8E8F91CC
:1045F0009293959697999A9C9D9FA0A2A3A5A7A8F0
:10460000AAACAEB0B2B3B5B7B9BCBEC0C2C5C7C91B
:10461000CCCED1D4D7D9DCDFE2E6E9ECF0F3F7FA7F
:10462000FE0000004FEA400C0CF1807CBCF17E4F94
:1046300028BF7047B0F1C04000F03FB90CEAD11379
:1046400090EA010F48BF42F48072624538BF63456B
:1046500007D213F47F0F16D080EA010000F000406B
:10466000704710B500F0E3F8097EFC3E00F005B895
:1046700080EA010000F00040704780EA010000F08D
:10468000004000F01AB912F47F0F04BF02487047CF
:1046900080EA010000F011B90000C07F41000B0E5C
:1046A000D3F19E0208D950F400034FEA032323FA02
:1046B00002F048BF4042704710B500F0B8F800BFA4
:1046C00049922480002070476FF0004282EA200067
:1046D0007047000010F0004148BF4042B0FA80F33C
:1046E00010FA03F2C3F19D030BD051EAC35101EB61
:1046F0001220530638BF704700F1010008BF20F0B8
:1047000001007047B0FA80F310FA03F2C3F19D0381
:104710000AD0D90501EB1220530638BF704700F1CB
:10472000010008BF20F00100704700004FF47F0C2B
:104730001CEAD0121EBF1CEAD11392EA0C0F93EAB6
:104740000C0F00F0478090EA010F48BF42F48072DE
:104750004FF0004C4CEA00204CEA012102EB03022E
:10476000A0FB0113A2F50002002918BF43F00103CA
:104770005B0028BF4FEA330342EB22425FEA132C6F
:104780004CEBC2502EBFBCEB436FB2F57C0F7047B1
:104790004FEA036CBCF1004F08BF20F00100B2F5F6
:1047A0007C0F38BF70470BD582F0FF0212F5803FB7
:1047B000C8BF704700F1C040D8BF00F0004070474C
:1047C00000F5000C5FEA4C0C48BF7047B0F1C040E8
:1047D00000F073B80CEAD11390EA010F48BF42F41D
:1047E0008072624538BF634504D280EA010000F060
:1047F0000040704710B500F01AF800BF8900013E74
:1048000000F007B800F009B85FEA410C5FEA1C6CE1
:1048100008D080EA010000F050B85FEA400C5FEA7F
:104820001C6CF6D14FF00040A0F5800070470EF1EF
:10483000020E2EF0030E5EF8044B244204D44FEA1D
:104840004102B2F17F4F11D84FEA4003B3F17F4FDD
:104850000CD80ED14FEAD07C0CEB4C0C0CF1020CB6
:10486000B2F17F4F08BF4CEBD17C04E04FF0080C55
:1048700001E04FEAD17C0CEB4C0324FA03F404F082
:104880000704B4F1040C06D20EEB840CBDE8104012
:104890004CF0010C6047DFE80CF0070802024FF013
:1048A0000040A0F5800010BD0846420018BFD2F1BC
:1048B000807288BF00F0004010BDFF2141EAD05057
:1048C000C00570470CF00F03092B08BF082000F04B
:1048D00059800A2B0BD0082B18BF704708BF1CF05B
:1048E000400F0AD04FF000004FF0000170471CF05D
:1048F000400F18BF4FF0004070471CF0100F08D059
:1049000000F07F4220F0704342EAD3014FEA437047
:10491000704700F0604021F07F4242EA000201F05F
:104920007F4040EA727070474FF0FF0C4CF4E06C2F
:104930001CEA11531CBF9CEA030C9445C2BFDA4227
:1049400001EB02517047002B0DD0BCF1000F0FD0CE
:1049500001F00041002AA4BF41F0E04141F07F6135
:104960004FF00000704701F000414FF00000704729
:1049700050EA01334FF09B0C18BF4CF0806C7FF471
:10498000F3A870471CF4801F11D01CF4E02F03D053
:104990006FEACC31490070474FF04050EFF300828E
:1049A00022F0704242EA000282F3008870474FF022
:1049B0000000704700000000000000000000F03F11
:1049C000000000000000F83F0000000000000000B0
:1049D0000000004003B8E23F0000000000000000BB
:1049E00006D0CF43EBFD4C3E033333333333E33F49
:1049F000FFAB6FDBB66DDB3F4D268F515555D53F75
:104A000001411DA96074D13F65DBC9934A86CD3F42
:104A1000EF4E454A287ECA3F3E5555555555C53F30
:104A200093BDBE166CC166BF2CDE25AF6A56113F22
:104A3000F16BD2C541BDBBBED0A4BE726937663E24
:104A40000000000000000000000000000000000066
:104A50000102030406070809000000000102030424
:104A600002030405060708090A0B0C0D0E0F1010AF
:104A7000010202030405060708090A0B0C0D0E0FBC
:104A800010100102A84A00080000002018000000D1
:104A900050010008C04A000818000020E00600008D
:104AA000700100080000000000127A00FD020504F9
:104AB0000205020402FE00FD0100000010000000DB
:04000005080000ED02
:00000001FF
