:020000040800F2
:100000007806002019020008191500087914000864
:1000100015150008110400089516000800000000DE
:10002000000000000000000000000000C9150008EA
:1000300015040008000000008915000821160008BA
:1000400033020008330200083302000833020008BC
:1000500033020008330200083302000833020008AC
:10006000330200083302000833020008330200089C
:10007000330200083302000833020008330200088C
:10008000330200083302000833020008330200087C
:10009000330200083302000833020008330200086C
:1000A000330200083302000833020008330200085C
:1000B000330200083302000833020008330200084C
:1000C000330200083302000833020008330200083C
:1000D000330200083302000833020008330200082C
:1000E0003302000833020008330200080000000059
:1000F0000000000000000000000000000000000000
:100100000000000000000000330200083302000875
:1001100033020008330200083302000833020008EB
:1001200033020008330200083302000833020008DB
:1001300033020008330200083302000833020008CB
:1001400033020008330200083302000833020008BB
:1001500000F002F800F050F814A696E8000CB24443
:10016000B344DA4501D100F047F8BAE80F000FA612
:1001700096E83000A5EB040504EB0607AAEB07049C
:10018000A7F101074FEA15154FEA3414A4F1010451
:10019000AC4201D300F030F813F0010F18BFFB1A86
:1001A00043F0010300F001F8DBE71847C415000035
:1001B000E4150000103A24BF78C878C1FAD8520775
:1001C00024BF30C830C144BF04680C6070470000D1
:1001D000704700000023002400250026103A28BFA5
:1001E00078C1FBD8520728BF30C148BF0B607047A9
:1001F0001FB51FBD10B510BD00F0D0F81146FFF7B8
:10020000F7FF01F091FA00F0EEF803B4FFF7F2FF08
:1002100003BC00F0F5F80000094880470948004792
:10022000FEE7FEE7FEE7FEE7FEE7FEE7FEE7FEE7A6
:10023000FEE7FEE704480549054A064B7047000003
:10024000911600085101000878000020780600206F
:10025000780200207802002053EA020C00F0698046
:100260002DE9F04B4FF00006002B1FBFB3FA83F5CA
:1002700003FA05F424FA05F65E4012BF1643B2FAFB
:1002800082F502FA05F4C5F120051EBF22FA05FC2D
:1002900044EA0C04203556EA044C4FEA144418BFD3
:1002A000641C4FF000084FF00009904271EB030C02
:1002B00039D3002919BFB1FA81F701FA07F6B0FA6C
:1002C00080F700FA07F6C7F120071EBF20FA07FCE7
:1002D00046EA0C062037B6FBF4FCA7EB0507103FF7
:1002E00007F01F0BCBF120062CFA06F60CFA0BFBDD
:1002F00044BFB3460026202FA4BF5E464FF0000B3C
:100300005BEA060C08BF4FF0010B19EB0B0948EB39
:100310000608ABFB027C06FB02CC0BFB03CCC01B2C
:1003200071EB0C01C1E70B46024641464846BDE869
:10033000F08B13B5084318BF4FF0FF300146AFF301
:100340000080BDE81C4070474FF0000200B5134626
:1003500094469646203922BFA0E80C50A0E80C50E5
:10036000B1F12001BFF4F7AF090728BFA0E80C5096
:1003700048BF0CC05DF804EB890028BF40F8042B8F
:1003800008BF704748BF20F8022B11F0804F18BFFC
:1003900000F8012B7047704770477047754600F0B2
:1003A0002BF8AE4605006946534620F00700854607
:1003B00018B020B5FFF73EFFBDE820404FF0000623
:1003C0004FF000074FF000084FF0000BAC46ACE8D0
:1003D000C009ACE8C009ACE8C009ACE8C00921F02C
:1003E00007018D46704710B50446AFF300802046E4
:1003F000BDE81040FFF709BF00487047100000201B
:1004000001491820ABBEFEE726000200704700003D
:10041000FFE7FEE77047000081B0EFF3108072B68F
:100420000090FFE7FEE7000090B00F900E910020D3
:100430000D900990FFE70E9800680D99C8400028BC
:1004400000F07F81FFE70D99012088400C900E9805
:1004500000680C9908400B900B980C99884240F06A
:100460006C81FFE70E9840680590002851D0FFE7A7
:10047000059801283AD0FFE7059802283FD0FFE70A
:10048000059803285FD0FFE70598112832D0FFE7D1
:100490000598122838D0FFE705980021C1F2110114
:1004A000884236D0FFE705980021C1F21201884248
:1004B0002FD0FFE705980021C1F22101884228D002
:1004C000FFE705980021C1F22201884221D0FFE711
:1004D00005980021C1F2310188421AD0FFE7059842
:1004E0000021C1F23201884213D02FE00E98C0687B
:1004F00009902CE00E98C0680430099027E00E980F
:10050000C0680830099022E00E98C0680C3009904D
:100510001DE00E98806818B9FFE70420099011E0EB
:100520000E988068012806D1FFE7082009900C98F2
:100530000F99086105E0082009900C980F9948610F
:10054000FFE7FFE703E00020099000E0FFE70B98DA
:10055000FF2803D8FFE70F98049003E00F980430BA
:100560000490FFE7049808900B98FF2804D8FFE751
:100570000D988000039006E00D996FF01F0000EBCE
:1005800081000390FFE70398079008980068079A96
:100590000F219140884309999140084308990860C8
:1005A0000E98C079C006002840F1C680FFE7FFE73B
:1005B00041F21800C4F20200016841F0010101603B
:1005C000006800F0010006900698FFE70D9820F003
:1005D00003000821C4F2010140580A900D9800F070
:1005E000030081000F2000FA01F10A9888430A9065
:1005F0000F9840F60001C4F20101884203D1FFE7E1
:100600000020029026E00F9840F60041C4F201015C
:10061000884203D1FFE70120019018E00F9841F2D2
:100620000001C4F20101884203D1FFE702200090DB
:100630000AE00F9941F20042C4F201020420914203
:1006400008BF03200090FFE700980190FFE70198A2
:100650000290FFE702980D9901F00301890000FA6A
:1006600001F10A9808430A900A980D9921F00301B4
:100670000822C4F2010288500E988079C006002832
:1006800009D5FFE70B9A40F20841C4F2010108685E
:100690001043086008E00B9A40F20841C4F20101DF
:1006A000086890430860FFE70E988079800600286C
:1006B00009D5FFE70B9A40F20C41C4F2010108682A
:1006C0001043086008E00B9A40F20C41C4F20101AB
:1006D000086890430860FFE70E988079800700283B
:1006E00009D5FFE70B9A40F20441C4F20101086802
:1006F0001043086008E00B9A40F20441C4F2010183
:10070000086890430860FFE70E988079C00748B1F9
:10071000FFE70B9A40F20041C4F201010868104360
:10072000086008E00B9A40F20041C4F20101086839
:1007300090430860FFE7FFE7FFE70D9801300D9059
:1007400079E610B07047000082B00190ADF8021059
:100750008DF801209DF8010028B1FFE7BDF80200E7
:100760000199086105E0BDF80200000401990861E3
:10077000FFE702B07047000040F27000C2F20000D4
:100780000068704740F20400C2F20000027840F2B4
:100790007001C2F200010868104408607047000050
:1007A00080B542F20001C4F20201086840F0100076
:1007B0000860032000F08CF80F2000F005F800F02E
:1007C0003BF8002080BD000080B582B0009040F270
:1007D0000000C2F20000006840F20401C2F2000111
:1007E0000A784FF47A71B1FBF2F1B0FBF1F000F04E
:1007F0003BFE20B1FFE701208DF8070018E00098CC
:100800000F280DD8FFE700994FF0FF30002200F0CD
:1008100045F8009840F20801C2F20001086003E0C8
:1008200001208DF8070003E000208DF80700FFE7A6
:100830009DF8070002B080BD83B0FFE741F21800C9
:10084000C4F20200016841F001010160006800F09B
:10085000010002900298FFE7FFE741F21C00C4F29A
:100860000200016841F080510160006800F0805092
:1008700001900198FFE7FFE70421C4F20101086835
:100880000090009820F0E0600090009840F0007028
:10089000009000980860FFE703B0704780B586B00D
:1008A0008DF81700049103920020029000F0F4FEEE
:1008B00002909DF91700019002980499039A00F0A4
:1008C0002DFE0146019800F0EFFE06B080BD00004D
:1008D00080B582B00190019800F008FF02B080BDA1
:1008E00080B584B002900191029820B9FFE7012001
:1008F0008DF80F001BE1019842F20001C4F20201E1
:10090000096801F00701884216D9FFE742F20000AA
:10091000C4F20200016821F00701019A114301604D
:10092000006800F007000199884204D0FFE7012029
:100930008DF80F00FBE0FFE70298007880070028A1
:100940002AD5FFE7029800784007002809D5FFE77D
:1009500041F20401C4F20201086840F4E06008605A
:10096000FFE7029800780007002809D5FFE741F269
:100970000401C4F20201086840F460500860FFE717
:1009800041F20401C4F20201086820F0F000029A6A
:10099000926810430860FFE702980078C0070028BB
:1009A00060D0FFE70298406801280ED1FFE741F2CE
:1009B0000000C4F2020000688003002804D4FFE7AE
:1009C00001208DF80F00B2E021E002984068022873
:1009D0000ED1FFE741F20000C4F20200006880017E
:1009E000002804D4FFE701208DF80F009FE00DE000
:1009F00041F20000C4F2020000688007002804D41D
:100A0000FFE701208DF80F0091E0FFE7FFE741F2DB
:100A10000401C4F20201086820F00300029A52683F
:100A200010430860FFF7A8FE0090FFE741F20400C2
:100A3000C4F20200006800F00C0002994968B0EBB3
:100A4000810F0ED0FFE7FFF797FE0099401A41F2A1
:100A50008931884204D3FFE703208DF80F0066E058
:100A6000E4E7FFE7019842F20001C4F202010968DD
:100A700001F00701884216D2FFE742F20000C4F2FB
:100A80000200016821F00701019A1143016000682A
:100A900000F007000199884204D0FFE701208DF89B
:100AA0000F0044E0FFE702980078400700280CD5CB
:100AB000FFE741F20401C4F20201086820F4E0609B
:100AC000029AD26810430860FFE702980078000796
:100AD00000280DD5FFE741F20401C4F202010868C5
:100AE00020F46050029A126940EAC2000860FFE7F1
:100AF00000F022F841F20401C4F202010968C9B20F
:100B00000A0941F24071C0F60001895CC84040F218
:100B10000001C2F20001086040F20800C2F20000C9
:100B20000068FFF751FE00208DF80F00FFE79DF8E9
:100B30000F0004B080BD000080B588B00020079091
:100B400006900590049003900290019041F20400F9
:100B5000C4F2020000680790079800F00C000146FC
:100B60000091002878D0FFE70098042804D0FFE720
:100B70000098082806D070E041F20020C0F27A0008
:100B8000039070E00798C0F3834141F25070C0F6C3
:100B90000000405C04909DF81E00C007002850D063
:100BA000FFE741F22C00C4F20200016801F00F02DD
:100BB00041F25E71C0F60001895C06910068C003D5
:100BC000002825D5FFE741F22C00C4F2020001689D
:100BD000CAB2012101EB12110291006800F47061A8
:100BE000022000EB1120019001980499A0FB010163
:100BF00041F20022C0F27A02A0FB020301FB0231A3
:100C0000029A069BA2FB0323FFF726FB05900AE04E
:100C1000049841F20021C0F27A0148430699B0FBE2
:100C2000F1F00590FFE7049841F25071C0F6000121
:100C3000497B884204D1FFE7059840080590FFE70B
:100C400007E0049840F60011C0F23D0148430590CA
:100C5000FFE70598039006E0FFE741F20020C0F2AD
:100C60007A000390FFE7039808B080BD80B586B096
:100C70000490049820B9FFE701208DF81700EFE3F6
:100C800004980078C007002800F0AE80FFE741F22A
:100C90000400C4F20200006800F00C00042813D025
:100CA000FFE741F20400C4F20200006800F00C000B
:100CB00008281BD1FFE741F20400C4F202000068DB
:100CC000C003002812D5FFE741F20000C4F2020081
:100CD00000688003002808D5FFE70498806820B9E1
:100CE000FFE701208DF81700BAE37CE0FFE70498E6
:100CF0008068B0F5803F09D1FFE741F20001C4F2FE
:100D00000201086840F48030086032E0049880688E
:100D100068B9FFE741F20001C4F20201086820F45B
:100D200080300860086820F48020086020E0049883
:100D30008068B0F5A02F0DD1FFE741F20001C4F2A9
:100D40000201086840F480200860086840F48030A0
:100D500008600CE041F20001C4F20201086820F4CE
:100D600080300860086820F480200860FFE7FFE713
:100D7000FFE7FFE704988068D0B1FFE7FFF7FCFCCE
:100D80000390FFE741F20000C4F202000068800314
:100D900000280CD4FFE7FFF7EFFC0399401A652801
:100DA00004D3FFE703208DF8170059E3EAE719E0C1
:100DB000FFF7E2FC0390FFE741F20000C4F20200FB
:100DC0000068800300280CD5FFE7FFF7D5FC0399E6
:100DD000401A652804D3FFE703208DF817003FE38E
:100DE000EAE7FFE7FFE7FFE70498007880070028BD
:100DF00040F18D80FFE741F20400C4F20200006878
:100E000010F00C0F13D0FFE741F20400C4F202000F
:100E1000006800F00C00082829D1FFE741F2040027
:100E2000C4F202000068C003002820D4FFE741F2AA
:100E30000000C4F2020000688007002809D5FFE71F
:100E400004984069012804D0FFE701208DF81700BD
:100E500006E341F20001C4F20201086820F0F80044
:100E6000049A926940EAC2000860FFE74EE00498E5
:100E7000406958B3FFE70021C4F242210120086015
:100E8000FFF77AFC0390FFE741F20000C4F2020092
:100E90000068800700280CD4FFE7FFF76DFC03997A
:100EA000401A032804D3FFE703208DF81700D7E288
:100EB000EAE741F20001C4F20201086820F0F800FC
:100EC000049A926940EAC20008601EE00021C4F260
:100ED000422100200860FFF74FFC0390FFE741F23A
:100EE0000000C4F202000068800700280CD5FFE76C
:100EF000FFF742FC0399401A032804D3FFE70320BD
:100F00008DF81700ACE2EAE7FFE7FFE7FFE7049898
:100F100000780007002848D5FFE70498C06918B397
:100F2000FFE740F28041C4F2422101200860FFF750
:100F300023FC0390FFE741F22400C4F202000068A2
:100F4000800700280CD4FFE7FFF716FC0399401A2E
:100F5000032804D3FFE703208DF8170080E2EAE7B7
:100F6000012000F013FB1FE040F28041C4F2422157
:100F700000200860FFF700FC0390FFE741F2240027
:100F8000C4F202000068800700280CD5FFE7FFF7D5
:100F9000F3FB0399401A032804D3FFE703208DF8DD
:100FA00017005DE2EAE7FFE7FFE7049800784007F3
:100FB000002840F1D880FFE700208DF8070041F2BB
:100FC0001C00C4F202000068C000002813D4FFE730
:100FD000FFE741F21C00C4F20200016841F08051B9
:100FE0000160006800F0805000900098FFE7012049
:100FF0008DF80700FFE747F20000C4F20000006828
:10100000C005002822D4FFE747F20001C4F2000126
:10101000086840F480700860FFF7AEFB0390FFE7BC
:1010200047F20000C4F200000068C00500280CD49C
:10103000FFE7FFF7A1FB0399401A652804D3FFE7F8
:1010400003208DF817000BE2EAE7FFE7FFE70498BB
:101050000069012809D1FFE741F22001C4F2020131
:10106000086840F00100086031E00498006968B940
:10107000FFE741F22001C4F20201086820F00100FC
:101080000860086820F0040008601FE00498006908
:1010900005280DD1FFE741F22001C4F202010868E2
:1010A00040F004000860086840F0010008600CE0AF
:1010B00041F22001C4F20201086820F0010008603A
:1010C000086820F004000860FFE7FFE7FFE7FFE79C
:1010D00004980069E0B1FFE7FFF74EFB0390FFE7DC
:1010E00041F22000C4F202000068800700280ED4FC
:1010F000FFE7FFF741FB0399401A41F2893188422B
:1011000004D3FFE703208DF81700A9E1E8E71BE00F
:10111000FFF732FB0390FFE741F22000C4F2020028
:101120000068800700280ED5FFE7FFF725FB03992D
:10113000401A41F28931884204D3FFE703208DF839
:1011400017008DE1E8E7FFE79DF80700012809D1C6
:10115000FFE741F21C01C4F20201086820F0805050
:101160000860FFE7FFE70498C06A002800F0B78036
:10117000FFE741F20400C4F202000068C003002847
:1011800017D5FFE741F20400C4F20200006800F046
:101190000C0008280DD1FFE741F22C00C4F2020038
:1011A0000068C003002804D5FFE701208DF8170070
:1011B00056E10498C06A022868D1FFE741F20000B6
:1011C000C4F202000068C000002810D5FFE741F219
:1011D0002C00C4F20200006800F0F0000499496B92
:1011E000884204D0FFE701208DF8170038E168211C
:1011F000C4F2422100200860FFF7BEFA0390FFE727
:1012000041F20000C4F202000068000100280CD581
:10121000FFE7FFF7B1FA0399401A652804D3FFE707
:1012200003208DF817001BE1EAE741F22C01C4F21C
:101230000201086820F0F000049A526B1043086025
:10124000086820F47060049A126B104308606821EB
:10125000C4F2422101200860FFF78EFA0390FFE7F5
:1012600041F20000C4F202000068000100280CD422
:10127000FFE7FFF781FA0399401A652804D3FFE7D7
:1012800003208DF81700EBE0EAE726E041F22C019D
:10129000C4F20201086820F4803008606821C4F2BA
:1012A000422100200860FFF767FA0390FFE741F250
:1012B0000000C4F202000068000100280CD5FFE71E
:1012C000FFF75AFA0399401A652804D3FFE7032071
:1012D0008DF81700C4E0EAE7FFE7FFE7FFE70498AF
:1012E000006A002800F0B880FFE741F20400C4F271
:1012F0000200006800F00C00082800F08780FFE77B
:101300000498006A022861D1FFE76021C4F24221FB
:1013100000200860FFF730FA0390FFE741F2000079
:10132000C4F202000068800100280CD5FFE7FFF737
:1013300023FA0399401A032804D3FFE703208DF80A
:1013400017008DE0EAE70498406AB0F5803F11D1BC
:10135000FFE70498426841F22C01C4F202010868D8
:1013600010430860086820F00F00049AD268104308
:101370000860FFE741F20401C4F20201086820F4AA
:101380007410049B5A6A9B6A1A43104308606021D8
:10139000C4F2422101200860FFF7EEF90390FFE755
:1013A00041F20000C4F202000068800100280CD461
:1013B000FFE7FFF7E1F90399401A032804D3FFE799
:1013C00003208DF817004BE0EAE71EE06021C4F22D
:1013D000422100200860FFF7CFF90390FFE741F2B8
:1013E0000000C4F202000068800100280CD5FFE76D
:1013F000FFF7C2F90399401A032804D3FFE703203B
:101400008DF817002CE0EAE7FFE724E00498006A73
:10141000012804D1FFE701208DF8170020E041F2F8
:101420000400C4F2020000680290029800F48030C8
:101430000499496A884208D1FFE7029800F47010C5
:101440000499896A884204D0FFE701208DF81700CB
:1014500006E0FFE7FFE7FFE700208DF81700FFE752
:101460009DF8170006B080BD80B582B0019001984C
:1014700000F0ACF802B080BDFFE7FEE780B58AB0AF
:1014800000200990089007900690FFE741F21800AD
:10149000C4F20200016841F020010160006800F020
:1014A000200005900598FFE7FFE741F21800C4F21D
:1014B0000200016841F004010160006800F00400CE
:1014C00004900498FFE741F20040C4F2010002904A
:1014D0004FF46041009100220192FFF735F9009A24
:1014E000019902980692012207920891022109911E
:1014F00006A90391FEF798FF019A02980399072322
:1015000006930023C1F2110307930892FEF78CFFA4
:101510000AB080BDFFE7FEE7FFE7FEE788B007906F
:1015200006910592079800F0070004900498C0F116
:101530000700052803D3FFE70420019004E0049886
:10154000C0F107000190FFE7019803900498043070
:10155000062803D8FFE70020009003E00498033832
:101560000090FFE70098029006980399012202FA82
:1015700001F101390840029B984005999A40013ACF
:101580001140084308B070477047000082B00190D6
:10159000019840F20001C2F200010968C90844F64E
:1015A000D352C1F26202A1FB022189094843009093
:1015B000FFE700BFFFE70098411E00910028F8D127
:1015C000FFE702B0704700007047000080B582B0AE
:1015D000009000980138B0F1807F03D3FFE701202D
:1015E000019019E0009801384EF21401CEF200018A
:1015F00008604FF0FF300F2100F056F84EF218014E
:10160000CEF20001002008604EF21002CEF200027D
:10161000072111600190FFE7019802B080BD000032
:1016200080B5FFF7AFF880BD80B594B006A80090F4
:101630003821FEF789FE009800210591049103915D
:10164000029101910222069201220B9210220C9229
:101650000E911191FFF70AFB18B1FFE7FEF7DCFED0
:10166000FFE70F2001900021029103910491059161
:1016700001A8FFF735F918B1FFE7FEF7CDFEFFE748
:101680007021C4F242210120086014B080BD000026
:1016900070470000FFE7FEE74EF60C50CEF2000068
:1016A0000068C0F30220704782B08DF807000091F7
:1016B0009DF9070000280AD4FFE7009800019DF972
:1016C00007104EF20042CEF2000288540BE0009860
:1016D00000019DF8071001F00F014EF61452CEF2F2
:1016E00000028854FFE702B07047000083B0029008
:1016F000029800F0070000904EF60C51CEF2000167
:101700000868019001984FF6FF021040019001987F
:10171000009A40EA02200022C0F2FA5210430190DF
:101720000198086003B0704780B582B00020019036
:10173000FFF736F8FFF778FFFFF7A0FEFFE7FEE7B9
:101740000000000000000000010203040607080971
:10175000000004050607080900000000000D010252
:10176000030405060708090A0B0C0D0E0F100000F4
:10177000901700080000002010000000B4010008CD
:10178000A01700081000002068060000D40100081F
:1017900000127A00010000001000000000000000AC
:04000005080001519D
:00000001FF
