:020000040800F2
:10000000C806002019020008E1110008D9110008F3
:10001000DD11000811040008F511000800000000BF
:10002000000000000000000000000000E9110008CE
:100030001504000800000000E5110008ED1100089B
:1000400033020008330200083302000833020008BC
:1000500033020008330200083302000833020008AC
:10006000330200083302000833020008330200089C
:10007000330200083302000833020008330200088C
:10008000330200083302000833020008330200087C
:10009000330200083302000833020008330200086C
:1000A000330200083302000833020008330200085C
:1000B000330200083302000833020008330200084C
:1000C000330200083302000833020008330200083C
:1000D000330200083302000833020008330200082C
:1000E0003302000833020008330200080000000059
:1000F0000000000000000000000000000000000000
:100100000000000000000000330200083302000875
:1001100033020008330200083302000833020008EB
:1001200033020008330200083302000833020008DB
:1001300033020008330200083302000833020008CB
:1001400033020008330200083302000833020008BB
:1001500000F002F800F050F814A696E8000CB24443
:10016000B344DA4501D100F047F8BAE80F000FA612
:1001700096E83000A5EB040504EB0607AAEB07049C
:10018000A7F101074FEA15154FEA3414A4F1010451
:10019000AC4201D300F030F813F0010F18BFFB1A86
:1001A00043F0010300F001F8DBE718471C120000E0
:1001B0003C120000103A24BF78C878C1FAD8520720
:1001C00024BF30C830C144BF04680C6070470000D1
:1001D000704700000023002400250026103A28BFA5
:1001E00078C1FBD8520728BF30C148BF0B607047A9
:1001F0001FB51FBD10B510BD00F0D0F81146FFF7B8
:10020000F7FF00F0F9FF00F0EEF803B4FFF7F2FF9C
:1002100003BC00F0F5F80000094880470948004792
:10022000FEE7FEE7FEE7FEE7FEE7FEE7FEE7FEE7A6
:10023000FEE7FEE704480549054A064B7047000003
:10024000F111000851010008C8000020C806002074
:10025000C8020020C802002053EA020C00F06980A6
:100260002DE9F04B4FF00006002B1FBFB3FA83F5CA
:1002700003FA05F424FA05F65E4012BF1643B2FAFB
:1002800082F502FA05F4C5F120051EBF22FA05FC2D
:1002900044EA0C04203556EA044C4FEA144418BFD3
:1002A000641C4FF000084FF00009904271EB030C02
:1002B00039D3002919BFB1FA81F701FA07F6B0FA6C
:1002C00080F700FA07F6C7F120071EBF20FA07FCE7
:1002D00046EA0C062037B6FBF4FCA7EB0507103FF7
:1002E00007F01F0BCBF120062CFA06F60CFA0BFBDD
:1002F00044BFB3460026202FA4BF5E464FF0000B3C
:100300005BEA060C08BF4FF0010B19EB0B0948EB39
:100310000608ABFB027C06FB02CC0BFB03CCC01B2C
:1003200071EB0C01C1E70B46024641464846BDE869
:10033000F08B13B5084318BF4FF0FF300146AFF301
:100340000080BDE81C4070474FF0000200B5134626
:1003500094469646203922BFA0E80C50A0E80C50E5
:10036000B1F12001BFF4F7AF090728BFA0E80C5096
:1003700048BF0CC05DF804EB890028BF40F8042B8F
:1003800008BF704748BF20F8022B11F0804F18BFFC
:1003900000F8012B7047704770477047754600F0B2
:1003A0002BF8AE4605006946534620F00700854607
:1003B00018B020B5FFF73EFFBDE820404FF0000623
:1003C0004FF000074FF000084FF0000BAC46ACE8D0
:1003D000C009ACE8C009ACE8C009ACE8C00921F02C
:1003E00007018D46704710B50446AFF300802046E4
:1003F000BDE81040FFF709BF00487047100000201B
:1004000001491820ABBEFEE726000200704700003D
:10041000FEE7000070470000B0B5044600F018F990
:10042000054640F20400C2F200000078611C18BFCB
:10043000044400BF00F00CF9401BA042FAD3B0BD49
:100440002DE9F04F82B00E68002E00F0F78041F2E7
:100450000042C4F20102042340F2004E904208BF61
:1004600003234FF6FF7CC4F2010E00930024012306
:10047000C1F2100C4FF0000A4FF000094AE041F2BF
:100480000002C4F20102009F904208BF022704F05C
:100490000C030F229A402BEA020207FA03F34FEAF9
:1004A0009A051A4346F825204E6840F20C45F202A0
:1004B000DEF8082054BF22EA080242EA0802C4F229
:1004C0000105CEF808202A68B30254BF22EA0802C8
:1004D00042EA08022A60B303DEF8042054BF22EA8D
:1004E000080242EA0802F303CEF80420DEF80020F6
:1004F0004FF0010354BF22EA080242EA0802CEF894
:1005000000200E680AF1010A36FA0AF204F1040426
:1005100000F0948003FA0AFB16EA0B08F1D04E684B
:10052000664511DC122E51D8DFE806F0340A494640
:1005300050505050505050505050505050424D001C
:10054000D1F80C9042E000BF4FF6FF72C1F22102D9
:1005500096420FDC0022C1F2110296421AD000220C
:10056000C1F21202964215D00022C1F22102964237
:1005700010D02BE00022C1F2220296420AD00022C3
:10058000C1F23102964205D00022C1F232029642F7
:100590001CD100BF8A6842B1012A14BFC0F814B050
:1005A000C0F810B04FF0080910E04FF004090DE05A
:1005B000CA6802F1040909E04FF0000906E0CA68C0
:1005C00002F1080902E0CA6802F10C090246264657
:1005D000B8F5807F24BF0432203E17680F25B54050
:1005E00027EA050509FA06F635431560CA79D206E9
:1005F0007FF587AF41F21803C4F202031A68AEF523
:100600007E7642F001021A601A6802F0010201923D
:10061000019A2AF0030256F802B040F60002C4F232
:100620000102904208D040F60042C4F2010290421A
:100630007FF425AF01272AE7002728E702B0BDE8AD
:10064000F08F0000002A08BF090401617047000014
:1006500040F2C000C2F200000068704740F204009F
:1006600040F2C001C2F20000C2F2000100780A6844
:10067000104408607047000080B542F20000C4F2E8
:100680000200016841F010010160032000F07EF8D3
:100690000F2000F005F800F02BF8002080BD0000CE
:1006A000B0B540F20402C2F2000240F2000112783A
:1006B000C2F200014FF47A730968B3FBF2F2044608
:1006C000B1FBF2F1084600F09DFB0F2C4FF0010545
:1006D0000CD858B94FF0FF3021460022002500F019
:1006E00029F840F20800C2F2000004602846B0BDBC
:1006F00082B041F21800C4F202000168022241F007
:1007000001010160016801F0010101910199416855
:1007100041F080514160406800F0805000900098A6
:100720000420C4F20100016862F31A61016002B0A2
:100730007047000010B54EF60C5CCEF2000CDCF8F1
:100740000030C3F3022E8EF00704042C28BF0424CB
:10075000BEF103034FF0FF3E0EFA04F438BF00234E
:10076000A14399400EFA03F39A43114300F160420A
:1007700000F00F03090102F56442043B63440028C2
:1007800048BF03F10C02117010BD00004EF60C5171
:10079000CEF200010A684FF6FF031A4060F30A2206
:1007A00042F0806040F0FD7008607047002804BF90
:1007B000012070472DE9F04381B042F20008C4F2F5
:1007C00002080446D8F800000D4600F007008142F8
:1007D0000CD9D8F8000020F007002843C8F8000022
:1007E000D8F8000000F00700A8426BD1206841F261
:1007F00004098107C4F2020917D5410705D5D9F8C4
:10080000001041F4E061C9F80010010705D5D9F8DE
:10081000001041F46051C9F80010D9F80010A26826
:1008200021F0F0011143C9F80010C00741D1D8F8F8
:10083000000000F0070085420CD2D8F8000020F03C
:1008400007002843C8F80000D8F8000000F00700AF
:10085000A84237D12068410707D5D9F80010E268CF
:1008600021F4E0611143C9F80010000708D5D9F858
:100870000000216920F4605040EAC100C9F800007E
:10088000D9F8002002F00C00082841F20020C0F244
:100890007A0069D141F2A831C2F38344C0F6000165
:1008A000095DD20334D440F60010C0F23D00484345
:1008B0005AE0606859F8041C022807D0012824D1A6
:1008C000890305D4012001B0BDE8F0838901F9D581
:1008D000D9F8001021F003010843C9F80000FFF720
:1008E000B7FE064641F28837D9F80000616800F08B
:1008F0000C00B0EB810F9AD0FFF7AAFE801BB84224
:10090000F2D9032001B0BDE8F0838907DAD5DFE72B
:10091000D9F8282041F2B63302F00F02C0F60003E6
:100920009A5CD9F82830DB0303D44843B0FBF2F0DB
:1009300014E0D9F82830D9F8287042F20046C7F3FD
:100940000327C0F2F406C3F3031307FB006001336F
:10095000A0FB0101A3FB0223FFF77EFCA4F10D0124
:10096000B1FA81F14909C840D9F8001041F290323A
:10097000C1F30311C0F60002515C40F2000220FAFC
:1009800001F140F20800C2F200000068C2F2000269
:100990001160FFF785FE002001B0BDE8F083000084
:1009A00040F2000041F20401C2F20000C4F2020170
:1009B0000068096841F2A032C1F30221C0F60002CA
:1009C000515CC8407047000040F2000041F2040151
:1009D000C2F20000C4F202010068096841F2A032CC
:1009E000C1F3C221C0F60002515CC840704700004C
:1009F000002804BF012070472DE9F04182B0044671
:100A0000007841F20006C007C4F2020647D07068C1
:100A100000F00C00042808D1306880033FD5A0689E
:100A2000E8BB012002B0BDE8F081706800F00C0066
:100A3000082802D17068C003EED4A56830682DB1D3
:100A4000B5F5A02F09D0B5F5803F0AD020F480304D
:100A50003060306820F4802005E040F48020306071
:100A6000306840F480303060FFF7F2FD002D05461D
:100A700012D000BF3068800311D4FFF7E9FD401B9E
:100A80006428F7D924E100BFFFF7E2FD401B64288A
:100A90004FF0030000F2A78030688003F4D4207880
:100AA000800719D5706810F00C0F07D0706800F03F
:100AB0000C00082827D17068C00324D43068800750
:100AC00003D56069012840F050813068A16920F0A9
:100AD000F80040EAC10030602078000750D5E06996
:100AE00048B36820C4F242200121C0F81814FFF76F
:100AF000AFFD0546706A80072FD4FFF7A9FD401BA4
:100B00000228F7D9E4E06069002840F26800C4F2E6
:100B1000422000F0B480012140F8681CFFF798FDE6
:100B2000054600BF30688007CFD4FFF791FD401B1A
:100B30000228F7D9CCE06820C4F242200021C0F896
:100B40001814FFF785FD0546706A800718D5FFF772
:100B50007FFD401B0228F7D9BAE040F20000C2F244
:100B60000000006844F6D351C1F26201A0FB01010C
:100B7000480A019000BF0198411E00280191F9D157
:100B80002078400732D4E06A002800F0D6807168EF
:100B9000C90308D5716801F00C01082903D1F16A75
:100BA000C90300F1E280022853D13068C00006D5A5
:100BB000F06A616B00F0F000884240F0D680682750
:100BC000C4F2422700203860FFF742FD054600BF0F
:100BD0003068000140F19480FFF73AFD401B642823
:100BE0004FF00300F4D902B0BDE8F081F0695FEA8C
:100BF000C00808D4F06940F08050F061F06900F05E
:100C000080500090009847F20007C4F2000738684F
:100C1000C00510D4386840F480703860FFF718FDC4
:100C2000054600BF3868C00505D4FFF711FD401B1D
:100C30006428F7D94CE02569306A1DB1052D31D003
:100C4000012D33D020F001003062306A20F0040022
:100C50002EE0F06A002120F48030F0626820C4F2B7
:100C600042200160FFF7F4FC054600BF3068000138
:100C700063D5FFF7EDFC401B6428F7D928E000217D
:100C800040F8681CFFF7E4FC054600BF30688007A9
:100C90007FF522AFFFF7DCFC401B02284FF003007A
:100CA000F4D9A0E740F004003062306A40F001005F
:100CB0003062FFF7CDFC002D054641F2883713D096
:100CC000306A800713D4FFF7C3FC401BB842F7D942
:100CD000032002B0BDE8F081FFF7BAFC401BB84228
:100CE0004FF003003FF67FAF306A8007F4D4B8F1CD
:100CF000000F3FF548AFF06920F08050F06142E707
:100D0000F06AD4E90C1220F0F0001043F062F06AAF
:100D100020F470600843F06201203860FFF798FC0F
:100D2000054600BF3068000107D4FFF791FC401B67
:100D300064284FF00300F5D955E7256A8DB1706836
:100D400000F00C00082814D1012D0ED07068616AE3
:100D500000F480328A4208D1A16A00F470108842FF
:100D600003D1002002B0BDE8F081012002B0BDE84F
:100D7000F0816827C4F24227002047F8080CFFF7EB
:100D800067FC022D05460BD13068800113D5FFF7B3
:100D90005FFC401B02284FF00300F5D923E700BF9A
:100DA00030688001DDD5FFF753FC401B02284FF06F
:100DB0000300F5D917E7606AB0F5803F09D1F16A01
:100DC0006268E3681143F162F16A21F00F0119438F
:100DD000F1627168A26A21F47411114308437060D2
:100DE000012047F8080CFFF733FC04463068800107
:100DF000B7D4FFF72DFC001B02284FF00300F5D9F4
:100E0000F1E60000411E0020B0EB116F1CBF012075
:100E100070474EF21002CEF2000251604EF623519E
:100E2000CEF20001F0230B70072190601160704733
:100E3000002804BF0120704710B5044690F8410017
:100E400028B9002084F84000204600F061F82420F2
:100E500084F841002068D4E90212C36823F40053E7
:100E6000C360036923F440531A430261D4E90423A5
:100E70001143C268194341F20C639A431143C160A4
:100E80004169A26921F44071114343F60002C4F2A2
:100E900001029042416102D0FFF782FD01E0FFF7BD
:100EA00093FDD4E90023192148439900B0FBF1F0E8
:100EB00048F21F5CC5F2EB1CA0FB0C314FF69C7393
:100EC0004909C0F6FF7301FB0300322303EB001056
:100ED000A0FB0C03F02000EA531000EB0110C3F359
:100EE0004311084490601069202120F49040106163
:100EF000506920F02A005061D06840F40050D06062
:100F00000020606484F8411084F84210606310BDD2
:100F100070B586B040F60004C4F20104006804F520
:100F20004051002688420596CDE90366029601D01D
:100F300006B070BD41F21800C4F20200016802ADB3
:100F400041F480410160016801F4804101910199FF
:100F5000016841F0040101600068294600F00400C6
:100F6000019001984FF4007002900220039003203A
:100F700005902046FFF764FA4FF48060CDE9020641
:100F8000204629460496FFF75BFA06B070BD0000C4
:100F90002DE9F04381B0044690F84200202809D1A1
:100FA000894600294FF0010018BF002A06D101B080
:100FB000BDE8F083022001B0BDE8F08300202221CB
:100FC0001D46606484F8421020631646FFF740FB1C
:100FD000A685E685A1680746B1F5805F02D1206944
:100FE000002842D0C8464FF00009E08DD8B36E1CEF
:100FF00020680068800614D4002EF9D0FFF728FB83
:101000000146002D4FF0030066D0C91BA94263D8EA
:101010002068C168490744BF01685FEA0171E7D5EC
:1010200026E0B8F1000F0BD0A068B0F5805F10D0BB
:1010300008B9206968B12068406800F07F000AE0C4
:1010400020684FF0000840686FF35F2029F8020B1A
:1010500003E02068406808F8010BE08D0138E08566
:10106000E08D0028C4D1002036E04FF00008BCE736
:10107000002100910168009140680090009800BF35
:10108000206850E8030F216820F4907041E80302C3
:10109000002AF5D1206850E8050F216820F00100F2
:1010A00041E80502002AF5D1206B01280AD100BFD2
:1010B000206850E8030F216820F0100041E8030287
:1010C000002AF5D1202084F8420000200821206366
:1010D000616484F840000320202184F8421001B0AC
:1010E000BDE8F0832DE9F04381B0044690F841005B
:1010F000202809D1884600294FF0010018BF002A96
:1011000006D101B0BDE8F083022001B0BDE8F08354
:101110000020606421201D4684F841001646FFF738
:1011200097FAA684E684A1680646B1F5805F02D1ED
:10113000206900284DD0C1464FF00008E08C40B334
:101140006F1C0BE0B9F1000F1AD019F8010B2168E0
:101150004860E08C0138E084E08CD0B12068006801
:101160000006EFD4002FF9D0FFF772FA01464FF0D6
:10117000030045B3891BA94225D82068C068EDE764
:1011800038F8020B21686FF35F2048604FF00009C8
:10119000DFE720680068400614D46F1C04E000BF3D
:1011A0002068006840060DD4002FF9D0FFF750FAF0
:1011B00001464FF0030035B1891BA94203D82068CE
:1011C000C068EDE70020202184F8411001B0BDE89F
:1011D000F0834FF00009B1E7FEE70000FEE70000F2
:1011E000FEE700007047000070470000FFF736BAC6
:1011F00070470000FEE7000094B0FFF73DFA06AC30
:1012000020463821FFF7A0F80220069001200B901D
:10121000102000250C9020460595CDE90355CDE919
:1012200001550E951195FFF7E3FB20B1EFF3108008
:1012300072B600BFFEE70F20CDE9010501A800212D
:10124000CDE903550595FFF7B1FA20B1EFF3108012
:1012500072B600BFFEE77020C4F24220012606608D
:10126000002541F21800CDE90855CDE90655C4F234
:101270000200016841F2004441F00401016001688C
:10128000C4F2010401F004010191019901680022F6
:1012900041F0200101600068182100F02000019059
:1012A000019820461827FFF7CDF90220099006A9DA
:1012B0002046CDE906760895FFF7C2F840F27000A7
:1012C00004F51051C2F200000C234FF4165280E8CE
:1012D0002600C0E90355C0E90535C561FFF7A8FD43
:1012E00018B1EFF3108072B6FEE740F27004C2F25C
:1012F000000406AD2046294601224FF0FF33FFF7D8
:10130000F1FE4FF4FA70FFF787F8204629460122D4
:101310004FF0FF33FFF73CFE9DF8180000F002F895
:10132000E8E70000B0B5722808D0672815D140F270
:10133000B804C2F200042068082105E040F2BC04B1
:10134000C2F2000420681021002841F20040C4F2DB
:1013500001000ED0002200250DE040F27000C2F224
:10136000000007A10F224FF0FF33BDE8B040FFF7A8
:10137000B9BE01220125FFF765F92560B0BD00BFA8
:10138000496E76616C696420696E707574210A001B
:101390000000000000000000010203040607080925
:1013A000000000000102030400000405060708090C
:1013B00000000000000D0102030405060708090AE9
:1013C0000B0C0D0E0F100000E813000800000020A9
:1013D00010000000B4010008F813000810000020FD
:1013E000B8060000D401000800127A0001000000D5
:0813F0001000000000000000E5
:04000005080001519D
:00000001FF
