:020000040800F2
:10000000A8060020190200080D2600082125000876
:100010000926000851050008B1270008000000006B
:10002000000000000000000000000000BD260008E5
:1000300055050008000000007D260008152700086F
:1000400033020008330200083302000833020008BC
:1000500033020008330200083302000833020008AC
:10006000330200083302000833020008330200089C
:10007000330200083302000833020008330200088C
:10008000330200083302000833020008330200087C
:10009000330200083302000833020008330200086C
:1000A000330200083302000833020008330200085C
:1000B000330200083302000833020008330200084C
:1000C000330200083302000833020008330200083C
:1000D000330200083302000833020008330200082C
:1000E0003302000833020008330200080000000059
:1000F0000000000000000000000000000000000000
:100100000000000000000000330200083302000875
:1001100033020008330200083302000833020008EB
:1001200033020008330200083302000833020008DB
:1001300033020008330200083302000833020008CB
:1001400033020008330200083302000833020008BB
:1001500000F002F800F050F814A696E8000CB24443
:10016000B344DA4501D100F047F8BAE80F000FA612
:1001700096E83000A5EB040504EB0607AAEB07049C
:10018000A7F101074FEA15154FEA3414A4F1010451
:10019000AC4201D300F030F813F0010F18BFFB1A86
:1001A00043F0010300F001F8DBE718477028000076
:1001B00090280000103A24BF78C878C1FAD85207B6
:1001C00024BF30C830C144BF04680C6070470000D1
:1001D000704700000023002400250026103A28BFA5
:1001E00078C1FBD8520728BF30C148BF0B607047A9
:1001F0001FB51FBD10B510BD00F0D0F81146FFF7B8
:10020000F7FF02F01FFB00F0EEF803B4FFF7F2FF78
:1002100003BC00F0F5F80000094880470948004792
:10022000FEE7FEE7FEE7FEE7FEE7FEE7FEE7FEE7A6
:10023000FEE7FEE704480549054A064B7047000003
:10024000AD27000851010008A8000020A8060020E2
:10025000A8020020A802002053EA020C00F06980E6
:100260002DE9F04B4FF00006002B1FBFB3FA83F5CA
:1002700003FA05F424FA05F65E4012BF1643B2FAFB
:1002800082F502FA05F4C5F120051EBF22FA05FC2D
:1002900044EA0C04203556EA044C4FEA144418BFD3
:1002A000641C4FF000084FF00009904271EB030C02
:1002B00039D3002919BFB1FA81F701FA07F6B0FA6C
:1002C00080F700FA07F6C7F120071EBF20FA07FCE7
:1002D00046EA0C062037B6FBF4FCA7EB0507103FF7
:1002E00007F01F0BCBF120062CFA06F60CFA0BFBDD
:1002F00044BFB3460026202FA4BF5E464FF0000B3C
:100300005BEA060C08BF4FF0010B19EB0B0948EB39
:100310000608ABFB027C06FB02CC0BFB03CCC01B2C
:1003200071EB0C01C1E70B46024641464846BDE869
:10033000F08B13B5084318BF4FF0FF300146AFF301
:100340000080BDE81C4070474FF0000200B5134626
:1003500094469646203922BFA0E80C50A0E80C50E5
:10036000B1F12001BFF4F7AF090728BFA0E80C5096
:1003700048BF0CC05DF804EB890028BF40F8042B8F
:1003800008BF704748BF20F8022B11F0804F18BFFC
:1003900000F8012B7047704770477047754600F0B2
:1003A0002BF8AE4605006946534620F00700854607
:1003B00018B020B5FFF73EFFBDE820404FF0000623
:1003C0004FF000074FF000084FF0000BAC46ACE8D0
:1003D000C009ACE8C009ACE8C009ACE8C00921F02C
:1003E00007018D46704710B50446AFF300802046E4
:1003F000BDE81040FFF709BF00487047100000201B
:1004000001491820ABBEFEE726000200704700003D
:1004100080B584B002900020019002980068806846
:10042000C00770B3FFE702980168886820F00100F8
:10043000886000F0E3FE0190FFE7029800688068A2
:10044000C007E8B1FFE700F0D9FE0199401A032880
:1004500015D3FFE7029800688068C00770B1FFE716
:100460000299886A40F0100088620299C86A40F0D8
:100470000100C86201208DF80F0006E0FFE7DCE70D
:10048000FFE700208DF80F00FFE79DF80F0004B094
:1004900080BD000080B584B00290002001900090E3
:1004A000029800688068C007002849D1FFE70298D9
:1004B0000168886840F00100886040F20000C2F2E4
:1004C000000000684DF68361C4F21B31A0FB0110EF
:1004D000800C0090FFE7009820B1FFE700980138FA
:1004E0000090F8E700F08AFE0190FFE702980068AC
:1004F0008068C00718BBFFE700F080FE0199401A32
:1005000003281BD3FFE7029800688068C007A0B9E2
:10051000FFE70299886A40F0100088620299C86A71
:1005200040F00100C862FFE70299002081F8240032
:10053000FFE701208DF80F0006E0FFE7D6E7FFE7B1
:1005400000208DF80F00FFE79DF80F0004B080BD7C
:10055000FFE7FEE77047000081B0EFF3108072B64E
:100560000090FFE7FEE7000085B0039002910020B5
:100570008DF807000090FFE7039890F82400012809
:1005800004D1FFE702208DF81300C3E00399012096
:1005900081F82400FFE7FFE702984068062812D898
:1005A000FFE703980068406B029A1168526802EBFB
:1005B0008202053A1F2393409843914008430399D0
:1005C0000968486329E0029840680C2812D8FFE7C0
:1005D00003980068006B029A1168526802EB82026D
:1005E000233A1F2393409843914008430399096895
:1005F000086311E003980068C06A029A11685268A3
:1006000002EB8202413A1F239340984391400843F2
:1006100003990968C862FFE7FFE7029800680A28A3
:1006200012D3FFE703980068C06802990A688968D6
:1006300002EB42021E3A072393409843914008433D
:1006400003990968C86010E003980068006902997E
:100650000A68896802EB420207239340984391405D
:100660000843039909680861FFE7029800681028A9
:1006700005D0FFE702980068112840D1FFE70398F2
:10068000006842F20041C4F2010188422DD1FFE727
:100690000398006880680002002825D4FFE70398CB
:1006A0000168886840F4000088600298006810289B
:1006B00019D1FFE740F20000C2F2000000684DF6D9
:1006C0008361C4F21B31A0FB0110800C00EB8000A1
:1006D00040000090FFE7009820B1FFE70098013844
:1006E0000090F8E7FFE7FFE708E00399886A40F029
:1006F0002000886201208DF80700FFE7FFE7FFE791
:100700000399002081F82400FFE79DF807008DF889
:100710001300FFE79DF8130005B0704781B000900B
:1007200000980068C06C01B07047000080B588B0C8
:10073000069000208DF81700049003900290069810
:1007400020B9FFE701208DF81F00F4E006988068CB
:1007500030B1FFE70698007D08B1FFE7FFE7FFE74C
:100760000698806A50B9FFE706990020C86206998A
:1007700081F82400069800F0E3F8FFE70698FFF7F9
:1007800047FE8DF817000698806AC006002800F121
:10079000C480FFE79DF81700002840F0BE80FFE707
:1007A0000698806A40F0020020F48850069988621A
:1007B00006994868CA691043097B40EA41010398D9
:1007C00008430390069881680120B1F5807F01906D
:1007D00008D0FFE7069880680138B0FA80F0400939
:1007E0000190FFE701990498CA0740F48071002A3C
:1007F00018BF084604900698007D01281ED1FFE727
:100800000698007B70B9FFE7069881694EF20000F8
:10081000CFF6FF7000EB41300499084340F40060CC
:1008200004900AE00699886A40F0200088620699E0
:10083000C86A40F00100C862FFE7FFE70698006859
:10084000406820F4694004990843069909684860A3
:100850000698006880684FF2FD71CFF6E17108409C
:100860000399084306990968886006988168012001
:10087000B1F5807F009008D0FFE7069880680138C6
:10088000B0FA80F040090090FFE7009800F0010006
:10089000002818BF4FF48070B0F5807F09D1FFE7C2
:1008A000069801690020CFF6F07000EB015002902D
:1008B000FFE706980068C06A20F4700002990843B8
:1008C00006990968C86206980068806840F6FE616B
:1008D000CFF61F710840039988420CD1FFE70699B3
:1008E0000020C8620698806A40F0010020F00200F3
:1008F0000699886210E00698806A40F0100020F0A7
:100900000200069988620699C86A40F00100C86230
:1009100001208DF81700FFE708E00699886A40F08B
:100920001000886201208DF81700FFE79DF817007E
:100930008DF81F00FFE79DF81F0008B080BD000084
:1009400080B588B007900020069005900490039031
:100950000798006842F20041C4F2010188422AD19E
:10096000FFE7FFE741F21800C4F20200016841F41A
:1009700000710160006800F4007002900298FFE7C7
:10098000FFE741F21800C4F20200016841F00401DF
:100990000160006800F0040001900198FFE7082062
:1009A00003900320049040F60000C4F2010003A964
:1009B00000F07CFAFFE708B080BD000080B58CB085
:1009C0000A900991002008900790069000F016FC0C
:1009D00008900A9800688068C00500280FD5FFE7D6
:1009E0000A99886A40F020008862FFE70A9900208F
:1009F00081F82400FFE701208DF82F001CE10A9800
:100A000000684068C005002838D4FFE70A980068ED
:100A1000C06A10F4700F31D1FFE7FFE70A98006851
:100A200000688007002828D4FFE70998013018B330
:100A3000FFE7099840B1FFE700F0E0FB0899401A92
:100A40000999884217D9FFE70A980068006880076B
:100A500000280FD4FFE70A99886A40F004008862F2
:100A6000FFE70A99002081F82400FFE703208DF8B2
:100A70002F00E1E0FFE7FFE7D0E7B0E040F2000041
:100A8000C2F2000000680490022000F06BFC0146F6
:100A90000498B0FBF1F005900A980068006944F6EC
:100AA0002411C2F2924108422BD1FFE70A98006854
:100AB000C06844F62411C0F29201084221D1FFE738
:100AC0000A9800680169002042F29242C1F249226C
:100AD000114203900DD1FFE70A980068C06842F206
:100AE0009241C0F249010840B0FA80F040090390F9
:100AF000FFE70398C1072920002918BF142002909E
:100B000039E00A980068006942F29241C1F2492135
:100B100008420CD1FFE70A980068C168012042F240
:100B20009242C0F24902114201901CD0FFE70A989C
:100B300000680169002049F24922C0F224021142F2
:100B400000900DD1FFE70A980068C06849F249217A
:100B5000C0F224010840B0FA80F040090090FFE79D
:100B600000980190FFE70198C107FC20002918BFF9
:100B700054200290FFE70598029948430690FFE74A
:100B800007980699884229D2FFE70998013008B3EF
:100B9000FFE7099840B1FFE700F030FB0899401AE1
:100BA0000999884215D9FFE70798069988420FD21C
:100BB000FFE70A99886A40F004008862FFE70A9913
:100BC000002081F82400FFE703208DF82F0033E098
:100BD000FFE7FFE7079801300790D1E7FFE70A98A2
:100BE00001686FF0120008600A99886A40F400708A
:100BF00088620A980068806800F46020B0F5602F71
:100C000016D1FFE70A98007B90B9FFE70A99886A36
:100C100020F4807088620A98806AC004002806D494
:100C2000FFE70A99886A40F001008862FFE7FFE762
:100C300000208DF82F00FFE79DF82F000CB080BD3D
:100C400080B584B0029000208DF80700FFE702987D
:100C500090F82400012804D1FFE702208DF80F004E
:100C6000C5E00299012081F82400FFE7FFE7029820
:100C7000FFF710FC8DF807009DF80700002840F0F2
:100C8000AA80FFE70298806A40F4807040F2012158
:100C90008843029988620298006842F60001C4F213
:100CA0000101884209D1FFE742F20440C4F2010089
:100CB000006810F4702F03D018E00020B0B9FFE7EF
:100CC0000299886A20F4801088620298006840685F
:100CD0004005002809D5FFE70298806A40F480505B
:100CE00020F4005002998862FFE72CE00299886A9C
:100CF00040F4801088620298006842F20041C4F219
:100D00000101884209D0FFE70298006842F600011D
:100D1000C4F20101884209D1FFE742F20440C4F263
:100D2000010000684005002803D40BE0012048B909
:100D3000FFE70298806A40F4805020F40050029946
:100D40008862FFE7FFE70298806AC004002806D5A2
:100D5000FFE70299C86A20F00600C86203E0029922
:100D60000020C862FFE7FFE70299002081F8240015
:100D7000FFE7029801686FF00200086002980068BF
:100D8000806800F46020B0F5602F1CD1FFE7029866
:100D9000006842F60001C4F20101884209D1FFE770
:100DA00042F20440C4F20100006810F4702F03D036
:100DB00009E0002038B9FFE702980168886840F42C
:100DC000A000886006E002980168886840F48010FE
:100DD0008860FFE706E0FFE70299002081F8240021
:100DE000FFE7FFE79DF807008DF80F00FFE79DF88C
:100DF0000F0004B080BD000080B584B002900020D8
:100E00008DF80700FFE7029890F82400012804D12C
:100E1000FFE702208DF80F0022E00299012081F8FF
:100E20002400FFE7FFE70298FFF7F2FA8DF80700CA
:100E30009DF8070048B9FFE70298806A40F001007A
:100E400020F4885002998862FFE7FFE702990020AA
:100E500081F82400FFE79DF807008DF80F00FFE7F9
:100E60009DF80F0004B080BD80B584B0039000F001
:100E7000C5F90290039801900198013048B1FFE74D
:100E800040F20400C2F20000017801980844019089
:100E9000FFE7FFE700F0B2F90299401A0199884292
:100EA00001D2FFE7F6E704B080BD000090B00F90DC
:100EB0000E9100200D900990FFE70E9800680D99A3
:100EC000C840002800F07F81FFE70D99012088408D
:100ED0000C900E9800680C9908400B900B980C9998
:100EE000884240F06C81FFE70E984068059000282A
:100EF00051D0FFE7059801283AD0FFE7059802286E
:100F00003FD0FFE7059803285FD0FFE70598112839
:100F100032D0FFE70598122838D0FFE70598002166
:100F2000C1F21101884236D0FFE705980021C1F2D5
:100F3000120188422FD0FFE705980021C1F221015C
:100F4000884228D0FFE705980021C1F2220188429B
:100F500021D0FFE705980021C1F2310188421AD063
:100F6000FFE705980021C1F23201884213D02FE03B
:100F70000E98C06809902CE00E98C0680430099063
:100F800027E00E98C0680830099022E00E98C068EB
:100F90000C3009901DE00E98806818B9FFE7042016
:100FA000099011E00E988068012806D1FFE708201B
:100FB00009900C980F99086105E0082009900C9899
:100FC0000F994861FFE7FFE703E00020099000E088
:100FD000FFE70B98FF2803D8FFE70F98049003E082
:100FE0000F9804300490FFE7049808900B98FF28AE
:100FF00004D8FFE70D988000039006E00D996FF08C
:101000001F0000EB81000390FFE70398079008980A
:101010000068079A0F21914088430999914008433D
:10102000089908600E98C079C006002840F1C68073
:10103000FFE7FFE741F21800C4F20200016841F047
:1010400001010160006800F0010006900698FFE7CA
:101050000D9820F003000821C4F2010140580A90C5
:101060000D9800F0030081000F2000FA01F10A98AA
:1010700088430A900F9840F60001C4F201018842AB
:1010800003D1FFE70020029026E00F9840F60041D0
:10109000C4F20101884203D1FFE70120019018E06A
:1010A0000F9841F20001C4F20101884203D1FFE729
:1010B000022000900AE00F9941F20042C4F20102BE
:1010C0000420914208BF03200090FFE700980190A0
:1010D000FFE701980290FFE702980D9901F00301E4
:1010E000890000FA01F10A9808430A900A980D99BC
:1010F00021F003010822C4F2010288500E98807981
:10110000C006002809D5FFE70B9A40F20841C4F257
:10111000010108681043086008E00B9A40F208419A
:10112000C4F20101086890430860FFE70E988079D7
:101130008006002809D5FFE70B9A40F20C41C4F263
:10114000010108681043086008E00B9A40F20C4166
:10115000C4F20101086890430860FFE70E988079A7
:101160008007002809D5FFE70B9A40F20441C4F23A
:10117000010108681043086008E00B9A40F204413E
:10118000C4F20101086890430860FFE70E98807977
:10119000C00748B1FFE70B9A40F20041C4F20101D9
:1011A00008681043086008E00B9A40F20041C4F25E
:1011B0000101086890430860FFE7FFE7FFE70D982B
:1011C00001300D9079E610B07047000082B00190B8
:1011D000ADF802108DF801209DF8010028B1FFE75D
:1011E000BDF802000199086105E0BDF802000004A5
:1011F00001990861FFE702B07047000040F2A400C7
:10120000C2F200000068704740F20400C2F2000021
:10121000027840F2A401C2F200010868104408609C
:101220007047000080B542F20001C4F20201086874
:1012300040F010000860032000F08CF80F2000F050
:1012400005F800F03BF8002080BD000080B582B0BA
:10125000009040F20000C2F20000006840F2040179
:10126000C2F200010A784FF47A71B1FBF2F1B0FBDF
:10127000F1F001F04DF920B1FFE701208DF80700F2
:1012800018E000980F280DD8FFE700994FF0FF30C5
:10129000002200F045F8009840F20801C2F2000177
:1012A000086003E001208DF8070003E000208DF8BE
:1012B0000700FFE79DF8070002B080BD83B0FFE79D
:1012C00041F21800C4F20200016841F0010101601E
:1012D000006800F0010002900298FFE7FFE741F28A
:1012E0001C00C4F20200016841F0805101600068F6
:1012F00000F0805001900198FFE7FFE70421C4F25D
:10130000010108680090009820F0E06000900098CB
:1013100040F08060009000980860FFE703B07047DD
:1013200080B586B08DF817000491039200200290DA
:1013300001F040FA02909DF917000190029804997B
:10134000039A01F065F90146019801F03BFA06B0F5
:1013500080BD000080B582B00190019801F054FA80
:1013600002B080BD80B58CB00B90002001900A9037
:1013700009900890079006900590049003900B98B0
:101380000138014602910F2800F259810299DFE8E5
:1013900011F00301460156019B005601560156010A
:1013A000CF0056015601560156015601560156010D
:1013B000100041F20400C4F202000068049041F2FF
:1013C0000000C4F202000068C00100287BD5FFE7DE
:1013D0000498C0F3834142F6E010C0F60000405C80
:1013E00008909DF81200C00700284CD0FFE741F29A
:1013F0002C00C4F20200016801F00F0242F6EE1167
:10140000C0F60001895C0A910068C003002821D55C
:10141000FFE741F22C00C4F202000168CAB20121C8
:1014200001EB12110591006800F47061022000EBDD
:1014300011200790059941F20020C0F27A00B0FB1C
:10144000F1F0079948430A99B0FBF1F00899484335
:1014500009900AE00A9941F20020C0F27A00B0FB3C
:10146000F1F0089948430990FFE7089842F6E01127
:10147000C0F60001497B884204D1FFE70998400883
:101480000990FFE707E0089840F60011C0F23D011F
:1014900048430990FFE741F20400C4F202000068EB
:1014A0004002002803D5FFE7099803900AE0099855
:1014B00040004AF6AB21CAF6AA21A0FB0110400861
:1014C0000390FFE7FFE7BBE041F22C00C4F202000B
:1014D00000688003002804D4FFE700F081FB03903C
:1014E00025E041F20000C4F202000068C0000028BC
:1014F0001CD5FFE741F22C00C4F202000168CAB219
:10150000012101EB12110591006881B2022000EB6C
:1015100011300690059941F20020C0F27A00B0FB2C
:10152000F1F00699484340000390FFE7FFE787E0AA
:1015300041F22C00C4F2020000684003002804D4E9
:10154000FFE700F04DFB039025E041F20000C4F2FC
:1015500002000068C00000281CD5FFE741F22C0003
:10156000C4F202000168CAB2012101EB1211059117
:10157000006881B2022000EB11300690059941F21B
:101580000020C0F27A00B0FBF1F006994843400019
:101590000390FFE7FFE753E041F22000C4F20200AE
:1015A00000680490049800F44070B0F5807F0AD180
:1015B000FFE79DF810008007002804D5FFE74FF4EF
:1015C000004003902AE0049800F44070B0F5007FDA
:1015D0000DD1FFE741F22400C4F202000068800749
:1015E000002804D5FFE749F64040039015E0049831
:1015F00000F44070B0F5407F0DD1FFE741F20000EC
:10160000C4F2020000688003002804D5FFE74FF20F
:101610002440039000E0FFE7FFE7FFE710E000F061
:10162000CDFA41F20401C4F20201096801F440421A
:10163000022101EB5231B0FBF1F0039000E0FFE733
:1016400003980CB080BD000080B588B006900020E3
:1016500005900490039006980078C007002800F0D9
:10166000AC80FFE700208DF80B0041F21C00C4F2B3
:1016700002000068C000002813D4FFE7FFE741F232
:101680001C00C4F20200016841F080510160006852
:1016900000F0805001900198FFE701208DF80B00C9
:1016A000FFE747F20000C4F200000068C005002810
:1016B00022D4FFE747F20001C4F20001086840F4B9
:1016C00080700860FFF79AFD0590FFE747F2000081
:1016D000C4F200000068C00500280CD4FFE7FFF743
:1016E0008DFD0599401A652804D3FFE703208DF886
:1016F0001F002CE1EAE7FFE741F22000C4F20200FC
:10170000006800F4407004900498E0B3FFE7049888
:101710000699496801F44071884234D0FFE741F2EC
:101720002001C4F20201086820F44070049040F2E5
:101730004042C4F242220120106000201060049850
:1017400008609DF81000C007E0B1FFE7FFF756FD05
:101750000590FFE741F22000C4F202000068800714
:1017600000280ED4FFE7FFF749FD0599401A41F222
:101770008931884204D3FFE703208DF81F00E6E09B
:10178000E8E7FFE7FFE741F22001C4F20201086841
:1017900020F44070069A5268104308609DF80B00D0
:1017A000012809D1FFE741F21C01C4F202010868D7
:1017B00020F080500860FFE7FFE706980078800778
:1017C00000280CD5FFE741F20401C4F202010868C9
:1017D00020F44040069A926810430860FFE706989C
:1017E0000078400700280CD5FFE741F22C01C4F235
:1017F0000201086820F40030069AD268104308609D
:10180000FFE706980078000700280CD5FFE741F2B3
:101810002C01C4F20201086820F48020069A1269A3
:1018200010430860FFE741F22C00C4F20200006898
:101830008003002809D4FFE741F22C00C4F2020023
:1018400000684003002803D5FFE701200390FFE76D
:101850000398012865D1FFE741F20000C4F20200BD
:101860000068C00000284AD4FFE741F20000C4F23B
:10187000020000684001002810D5FFE741F22C006B
:10188000C4F20200006800F0F000069989698842FD
:1018900004D0FFE701208DF81F0058E041F22C0131
:1018A000C4F20201086820F0F000069A9269104321
:1018B0000860086820F47040069A52691043086076
:1018C0007021C4F2422101200860FFF797FC0590C7
:1018D000FFE741F20000C4F2020000688000002827
:1018E0000CD4FFE7FFF78AFC0599401A652804D35A
:1018F000FFE703208DF81F0029E0EAE710E041F23E
:101900002C00C4F20200006800F470400699496996
:10191000884204D0FFE701208DF81F0017E0FFE7A1
:10192000FFE706980078C00600280CD5FFE741F2D3
:101930000401C4F20201086820F48000069AD2690A
:1019400010430860FFE700208DF81F00FFE79DF8B7
:101950001F0008B080BD000080B584B002900191E6
:10196000029820B9FFE701208DF80F001BE10198D4
:1019700042F20001C4F20201096801F00701884245
:1019800016D9FFE742F20000C4F20200016821F01C
:101990000701019A11430160006800F007000199F6
:1019A000884204D0FFE701208DF80F00FBE0FFE73D
:1019B00002980078800700282AD5FFE7029800786F
:1019C0004007002809D5FFE741F20401C4F20201F3
:1019D000086840F4E0600860FFE7029800780007BC
:1019E000002809D5FFE741F20401C4F202010868AA
:1019F00040F460500860FFE741F20401C4F20201C4
:101A0000086820F0F000029A926810430860FFE72F
:101A100002980078C007002860D0FFE7029840686D
:101A200001280ED1FFE741F20000C4F20200006875
:101A30008003002804D4FFE701208DF80F00B2E0F6
:101A400021E00298406802280ED1FFE741F2000031
:101A5000C4F2020000688001002804D4FFE70120DE
:101A60008DF80F009FE00DE041F20000C4F202008B
:101A700000688007002804D4FFE701208DF80F00DC
:101A800091E0FFE7FFE741F20401C4F202010868B8
:101A900020F00300029A526810430860FFF7AEFB83
:101AA0000090FFE741F20400C4F20200006800F079
:101AB0000C0002994968B0EB810F0ED0FFE7FFF7E9
:101AC0009DFB0099401A41F28931884204D3FFE717
:101AD00003208DF80F0066E0E4E7FFE7019842F28B
:101AE0000001C4F20201096801F00701884216D220
:101AF000FFE742F20000C4F20200016821F0070192
:101B0000019A11430160006800F0070001998842C2
:101B100004D0FFE701208DF80F0044E0FFE70298B2
:101B20000078400700280CD5FFE741F20401C4F219
:101B30000201086820F4E060029AD268104308604D
:101B4000FFE702980078000700280DD5FFE741F273
:101B50000401C4F20201086820F46050029A12697C
:101B600040EAC2000860FFE700F03AF841F20401E1
:101B7000C4F202010968C9B20A0942F6C811C0F6E6
:101B80000001895CC84040F20001C2F20001086017
:101B900040F20800C2F200000068FFF757FB002087
:101BA0008DF80F00FFE79DF80F0004B080BD000026
:101BB00040F20000C2F200000068704780B5FFF7F5
:101BC000F7FF41F20401C4F202010968C1F3C22225
:101BD00042F6D811C0F60001895CC84080BD000003
:101BE00080B588B00020079006900590049003907F
:101BF0000290019041F20400C4F2020000680790D4
:101C0000079800F00C0001460091002878D0FFE70B
:101C10000098042804D0FFE70098082806D070E058
:101C200041F20020C0F27A00039070E00798C0F300
:101C3000834142F6FE10C0F60000405C04909DF81F
:101C40001E00C007002850D0FFE741F22C00C4F26C
:101C50000200016801F00F0242F60C21C0F60001FB
:101C6000895C06910068C003002825D5FFE741F292
:101C70002C00C4F202000168CAB2012101EB12116A
:101C80000291006800F47061022000EB11200190C5
:101C900001980499A0FB010141F20022C0F27A02EE
:101CA000A0FB020301FB0231029A069BA2FB032365
:101CB000FEF7D2FA05900AE0049841F20021C0F242
:101CC0007A0148430699B0FBF1F00590FFE70498CC
:101CD00042F6FE11C0F60001497B884204D1FFE7BD
:101CE000059840080590FFE707E0049840F60011CA
:101CF000C0F23D0148430590FFE70598039006E0D8
:101D0000FFE741F20020C0F27A000390FFE703985A
:101D100008B080BD80B586B00490049820B9FFE774
:101D200001208DF81700EFE304980078C007002821
:101D300000F0AE80FFE741F20400C4F20200006848
:101D400000F00C00042813D0FFE741F20400C4F2B5
:101D50000200006800F00C0008281BD1FFE741F2E8
:101D60000400C4F202000068C003002812D5FFE797
:101D700041F20000C4F2020000688003002808D588
:101D8000FFE70498806820B9FFE701208DF817006D
:101D9000BAE37CE0FFE704988068B0F5803F09D1A2
:101DA000FFE741F20001C4F20201086840F480300C
:101DB000086032E00498806868B9FFE741F20001EA
:101DC000C4F20201086820F480300860086820F43A
:101DD0008020086020E004988068B0F5A02F0DD125
:101DE000FFE741F20001C4F20201086840F48020DC
:101DF0000860086840F4803008600CE041F200019F
:101E0000C4F20201086820F480300860086820F4F9
:101E100080200860FFE7FFE7FFE7FFE7049880689E
:101E2000D0B1FFE7FFF7EAF90390FFE741F20000C6
:101E3000C4F202000068800300280CD4FFE7FFF71B
:101E4000DDF90399401A652804D3FFE703208DF8D4
:101E5000170059E3EAE719E0FFF7D0F90390FFE72D
:101E600041F20000C4F202000068800300280CD593
:101E7000FFE7FFF7C3F90399401A652804D3FFE78A
:101E800003208DF817003FE3EAE7FFE7FFE7FFE7EE
:101E9000049800788007002840F18D80FFE741F228
:101EA0000400C4F20200006810F00C0F13D0FFE72A
:101EB00041F20400C4F20200006800F00C0008289F
:101EC00029D1FFE741F20400C4F202000068C00318
:101ED000002820D4FFE741F20000C4F202000068AD
:101EE0008007002809D5FFE704984069012804D03D
:101EF000FFE701208DF8170006E341F20001C4F26C
:101F00000201086820F0F800049A926940EAC200D1
:101F10000860FFE74EE00498406958B3FFE70021EE
:101F2000C4F2422101200860FFF768F90390FFE73F
:101F300041F20000C4F202000068800700280CD4BF
:101F4000FFE7FFF75BF90399401A032804D3FFE783
:101F500003208DF81700D7E2EAE741F20001C4F24E
:101F60000201086820F0F800049A926940EAC20071
:101F700008601EE00021C4F2422100200860FFF743
:101F80003DF90390FFE741F20000C4F2020000684F
:101F9000800700280CD5FFE7FFF730F90399401AB6
:101FA000032804D3FFE703208DF81700ACE2EAE72B
:101FB000FFE7FFE7FFE7049800780007002848D50F
:101FC000FFE70498C06918B3FFE740F28041C4F20C
:101FD000422101200860FFF711F90390FFE741F269
:101FE0002400C4F202000068800700280CD4FFE738
:101FF000FFF704F90399401A032804D3FFE70320ED
:102000008DF8170080E2EAE7012000F039FB1FE0BD
:1020100040F28041C4F2422100200860FFF7EEF850
:102020000390FFE741F22400C4F202000068800739
:1020300000280CD5FFE7FFF7E1F80399401A0328C1
:1020400004D3FFE703208DF817005DE2EAE7FFE71E
:10205000FFE7049800784007002840F1D880FFE7A8
:1020600000208DF8070041F21C00C4F20200006855
:10207000C000002813D4FFE7FFE741F21C00C4F2C0
:102080000200016841F080510160006800F080505A
:1020900000900098FFE701208DF80700FFE747F266
:1020A0000000C4F200000068C005002822D4FFE749
:1020B00047F20001C4F20001086840F48070086033
:1020C000FFF79CF80390FFE747F20000C4F200001E
:1020D0000068C00500280CD4FFE7FFF78FF80399CC
:1020E000401A652804D3FFE703208DF817000BE2A0
:1020F000EAE7FFE7FFE704980069012809D1FFE755
:1021000041F22001C4F20201086840F001000860B9
:1021100031E00498006968B9FFE741F22001C4F298
:102120000201086820F001000860086820F004003F
:1021300008601FE00498006905280DD1FFE741F20F
:102140002001C4F20201086840F004000860086839
:1021500040F0010008600CE041F22001C4F20201ED
:10216000086820F001000860086820F0040008609A
:10217000FFE7FFE7FFE7FFE704980069E0B1FFE74B
:10218000FFF73CF80390FFE741F22000C4F20200A1
:102190000068800700280ED4FFE7FFF72FF80399A7
:1021A000401A41F28931884204D3FFE703208DF8B9
:1021B0001700A9E1E8E71BE0FFF720F80390FFE72D
:1021C00041F22000C4F202000068800700280ED50A
:1021D000FFE7FFF713F80399401A41F2893188426B
:1021E00004D3FFE703208DF817008DE1E8E7FFE750
:1021F0009DF80700012809D1FFE741F21C01C4F254
:102200000201086820F080500860FFE7FFE70498AB
:10221000C06A002800F0B780FFE741F20400C4F272
:1022200002000068C003002817D5FFE741F2040050
:10223000C4F20200006800F00C0008280DD1FFE78E
:1022400041F22C00C4F202000068C003002804D54B
:10225000FFE701208DF8170056E10498C06A0228B4
:1022600068D1FFE741F20000C4F202000068C0003C
:10227000002810D5FFE741F22C00C4F202000068EC
:1022800000F0F0000499496B884204D0FFE7012078
:102290008DF8170038E16821C4F24221002008605F
:1022A000FEF7ACFF0390FFE741F20000C4F202002A
:1022B0000068000100280CD5FFE7FEF79FFF039997
:1022C000401A652804D3FFE703208DF817001BE1AF
:1022D000EAE741F22C01C4F20201086820F0F000A4
:1022E000049A526B10430860086820F47060049AE6
:1022F000126B104308606821C4F24221012008607B
:10230000FEF77CFF0390FFE741F20000C4F20200F9
:102310000068000100280CD4FFE7FEF76FFF039967
:10232000401A652804D3FFE703208DF81700EBE07F
:10233000EAE726E041F22C01C4F20201086820F429
:10234000803008606821C4F2422100200860FEF756
:1023500055FF0390FFE741F20000C4F2020000685D
:10236000000100280CD5FFE7FEF748FF0399401A4B
:10237000652804D3FFE703208DF81700C4E0EAE7DF
:10238000FFE7FFE7FFE70498006A002800F0B88045
:10239000FFE741F20400C4F20200006800F00C0004
:1023A000082800F08780FFE70498006A022861D1BE
:1023B000FFE76021C4F2422100200860FEF71EFF03
:1023C0000390FFE741F20000C4F2020000688001C0
:1023D00000280CD5FFE7FEF711FF0399401A0328E8
:1023E00004D3FFE703208DF817008DE0EAE7049897
:1023F000406AB0F5803F11D1FFE70498426841F28E
:102400002C01C4F20201086810430860086820F03B
:102410000F00049AD26810430860FFE741F20401FC
:10242000C4F20201086820F47410049B5A6A9B6A83
:102430001A43104308606021C4F242210120086061
:10244000FEF7DCFE0390FFE741F20000C4F2020059
:102450000068800100280CD4FFE7FEF7CFFE039947
:10246000401A032804D3FFE703208DF817004BE040
:10247000EAE71EE06021C4F2422100200860FEF776
:10248000BDFE0390FFE741F20000C4F202000068C5
:10249000800100280CD5FFE7FEF7B0FE0399401A33
:1024A000032804D3FFE703208DF817002CE0EAE7A8
:1024B000FFE724E00498006A012804D1FFE7012027
:1024C0008DF8170020E041F20400C4F20200006819
:1024D0000290029800F480300499496A884208D139
:1024E000FFE7029800F470100499896A884204D0CA
:1024F000FFE701208DF8170006E0FFE7FFE7FFE7A1
:1025000000208DF81700FFE79DF8170006B080BD8A
:1025100080B582B00190019800F0D2F802B080BD81
:10252000FFE7FEE780B584B000210391029101919D
:1025300040F27400C2F20000009042F20042C4F285
:10254000010202608160017301754FF46022C26173
:10255000416001210161FEF7E9F818B1FFE7FDF7DD
:10256000FBFFFFE703200190012002900020039071
:1025700040F27400C2F2000001A9FDF7F5FF18B1A6
:10258000FFE7FDF7E9FFFFE704B080BD80B58AB043
:1025900000200990089007900690FFE741F218008C
:1025A000C4F20200016841F004010160006800F01B
:1025B000040005900598FFE7FFE741F21800C4F218
:1025C0000200016841F020010160006800F0200075
:1025D00004900498FFE741F20040C4F20100039028
:1025E000F021019100220292FEF7F0FD019A02997A
:1025F000039806920122079208910221099106A9E7
:10260000FEF754FC0AB080BDFFE7FEE7FFE7FEE7F8
:1026100088B0079006910592079800F00700049093
:102620000498C0F10700052803D3FFE704200190B8
:1026300004E00498C0F107000190FFE701980390BF
:1026400004980430062803D8FFE70020009003E038
:10265000049803380090FFE70098029006980399C9
:10266000012202FA01F101390840029B98400599C4
:102670009A40013A1140084308B070477047000083
:1026800082B00190019840F20001C2F20001096895
:10269000C90844F6D352C1F26202A1FB02218909A2
:1026A00048430090FFE700BFFFE70098411E0091FC
:1026B0000028F8D1FFE702B0704700007047000023
:1026C00080B582B0009000980138B0F1807F03D3CC
:1026D000FFE70120019019E0009801384EF2140143
:1026E000CEF2000108604FF0FF300F2100F06AF8D1
:1026F0004EF21801CEF20001002008604EF21002E6
:10270000CEF20002072111600190FFE7019802B0AC
:1027100080BD000080B5FEF777FD80BD80B59EB01E
:1027200010A801903821FDF70FFE019800210291B9
:102730000F910E910D910C910B910A9109910891B5
:1027400007910691059104910391022210920122B2
:1027500015921022169218911B91FFF7DBFA18B10F
:10276000FFE7FDF7F9FEFFE70F200B9000210C912A
:102770000D910E910F910BA8FFF7EEF818B1FFE73E
:10278000FDF7EAFEFFE7022003900020059003A872
:10279000FEF75AFF18B1FFE7FDF7DEFEFFE77021F5
:1027A000C4F24221012008601EB080BD70470000C5
:1027B000FFE7FEE74EF60C50CEF200000068C0F3D3
:1027C0000220704782B08DF8070000919DF9070044
:1027D00000280AD4FFE7009800019DF907104EF287
:1027E0000042CEF2000288540BE0009800019DF8F0
:1027F000071001F00F014EF61452CEF20002885479
:10280000FFE702B07047000083B00290029800F02A
:10281000070000904EF60C51CEF2000108680190BE
:1028200001984FF6FF02104001900198009A40EA8B
:1028300002200022C0F2FA52104301900198086071
:1028400003B0704780B58EB000200A900D90FEF75F
:10285000E9FCFFF763FFFFF799FEFFF763FE0A98B5
:10286000ADF832004FF48050ADF83000BDF83000C4
:10287000ADF82E00FFE740F27001C2F20001002027
:10288000086040F27400C2F200000990FEF7D8F927
:1028900009986421FEF792F8002840F08B80FFE74A
:1028A00040F27400C2F20000FDF738FF48F21F51F9
:1028B000C5F2EB11A0FB0110400940F27001C2F219
:1028C00000010591086041F20040C4F20100069049
:1028D0001021019101220492FEF778FC0599BDF8C0
:1028E00030000968B0FBF1F0FEF7BEFA01990698D6
:1028F00000220892FEF76AFC049A069820210791AC
:10290000FEF764FC0599BDF830000968B0FBF1F0F2
:10291000FEF7AAFA06980799089AFEF757FC049A58
:10292000069840210391FEF751FC0599BDF830004F
:102930000968B0FBF1F0FEF797FA03990698089A38
:10294000FEF744FC049A069880210291FEF73EFCB3
:102950000599BDF830000968B0FBF1F0FEF784FA84
:1029600002990698089AFEF731FC0399049A069892
:10297000FEF72CFC0599BDF830000968B0FBF1F0BA
:10298000FEF772FA03990698089AFEF71FFC049A5C
:1029900006980799FEF71AFC0599BDF830000968FA
:1029A000B0FBF1F0FEF760FA06980799089AFEF777
:1029B0000DFCFFE76420FEF757FA40F27400C2F204
:1029C0000000FEF719FA56E70000000000000000C2
:1029D00001020304060708090000000001020304C5
:1029E000000004050607080900000000000D0102B0
:1029F000030405060708090A0B0C0D0E0F10000052
:102A000004050607080900000000000D0102030488
:102A100005060708090A0B0C0D0E0F10402A0008C6
:102A20000000002010000000B4010008502A000837
:102A30001000002098060000D401000800000000EB
:102A400000127A00010000001000000000000000E9
:04000005080001519D
:00000001FF
