:020000040800F2
:10000000F8060020B50100088D23000835220008FD
:10001000892300081D0400083129000800000000A1
:100020000000000000000000000000003D24000867
:100030002104000800000000FD23000895240008AA
:10004000CF010008CF010008CF010008CF01000850
:10005000CF010008CF010008CF010008CF01000840
:10006000CF010008CF010008CF010008CF01000830
:10007000CF010008CF010008CF010008CF01000820
:10008000CF010008CF010008CF010008CF01000810
:10009000CF010008CF010008CF010008CF01000800
:1000A000CF010008CF010008CF010008CF010008F0
:1000B000CF010008CF01000800000000CF010008B8
:1000C000CF0100080000000000000000CF01000880
:1000D00000000000CF010008CF0100080000000070
:1000E000CF010008CF010008CF01000800F002F89E
:1000F00000F050F814A696E8000CB244B344DA4578
:1001000001D100F047F8BAE80F000FA696E83000DA
:10011000A5EB040504EB0607AAEB0704A7F101070A
:100120004FEA15154FEA3414A4F10104AC4201D38F
:1001300000F030F813F0010F18BFFB1A43F0010371
:1001400000F001F8DBE71847383A0000583A0000A1
:10015000103A24BF78C878C1FAD8520724BF30C8F3
:1001600030C144BF04680C60704700007047000055
:100170000023002400250026103A28BF78C1FBD8B0
:10018000520728BF30C148BF0B6070471FB51FBD65
:1001900010B510BD00F06CF81146FFF7F7FF02F044
:1001A0005BFC00F08AF803B4FFF7F2FF03BC00F039
:1001B0008DF800000948804709480047FEE7FEE740
:1001C000FEE7FEE7FEE7FEE7FEE7FEE7FEE7FEE707
:1001D00004480549054A064B70470000F52400080D
:1001E000ED000008F8000020F8060020F8020020CA
:1001F000F80200204FF0000200B5134694469646E0
:10020000203922BFA0E80C50A0E80C50B1F1200129
:10021000BFF4F7AF090728BFA0E80C5048BF0CC0D7
:100220005DF804EB890028BF40F8042B08BF704735
:1002300048BF20F8022B11F0804F18BF00F8012BA7
:10024000704770477047704710B500F009F80068B4
:1002500010BD10B5044600F003F8046010BD0000A6
:100260000048704718000020004870471800002020
:100270007546FFF7F9FFAE4605006946534620F084
:100280000700854618B020B5FFF7A2FFBDE8204063
:100290004FF000064FF000074FF000084FF0000B42
:1002A000AC46ACE8C009ACE8C009ACE8C009ACE8B1
:1002B000C00921F007018D46704710B50446AFF321
:1002C00000802046BDE81040FFF76DBF01491820AF
:1002D000ABBEFEE7260002007047000080B584B088
:1002E000029000200190029800688068C00770B3F7
:1002F000FFE702980168886820F00100886000F03C
:100300007BFF0190FFE7029800688068C007E8B1B2
:10031000FFE700F071FF0199401A032815D3FFE7AA
:10032000029800688068C00770B1FFE70299886A88
:1003300040F0100088620299C86A40F00100C8626B
:1003400001208DF80F0006E0FFE7DCE7FFE7002063
:100350008DF80F00FFE79DF80F0004B080BD00008E
:1003600080B584B00290002001900090029800684F
:100370008068C007002849D1FFE7029801688868B3
:1003800040F00100886040F20000C2F20000006806
:100390004DF68361C4F21B31A0FB0110800C00906C
:1003A000FFE7009820B1FFE7009801380090F8E7D8
:1003B00000F022FF0190FFE7029800688068C00704
:1003C00018BBFFE700F018FF0199401A03281BD360
:1003D000FFE7029800688068C007A0B9FFE70299AC
:1003E000886A40F0100088620299C86A40F00100F3
:1003F000C862FFE70299002081F82400FFE701208E
:100400008DF80F0006E0FFE7D6E7FFE700208DF844
:100410000F00FFE79DF80F0004B080BDFFE7FEE787
:100420007047000080B586B0049000208DF80F0062
:100430000190FFE7049890F82400012804D1FFE719
:1004400002208DF81700AEE00499012081F8240005
:10045000FFE7FFE70498FFF741FF8DF80F000498CE
:10046000FFF77EFF8DF80F009DF80F00002840F089
:100470008F80FFE70498806A40F0020020F48850E3
:100480000499886240F20000C2F200000068009007
:10049000022000F065FF01460098B0FBF1F040003B
:1004A0000190FFE7019820B1FFE701980138019022
:1004B000F8E704980168886840F00800886000F058
:1004C0009BFE0290FFE70498006880680007002800
:1004D00022D5FFE700F090FE0299401A0B281AD3AC
:1004E000FFE70498006880680007002812D5FFE73E
:1004F0000498806A40F0100020F00200049988629D
:10050000FFE70499002081F82400FFE701208DF81F
:10051000170048E0FFE7D6E704980168886840F0D4
:100520000400886000F068FE0290FFE7049800680D
:1005300080684007002822D5FFE700F05DFE0299A1
:10054000401A0B281AD3FFE7049800688068400718
:10055000002812D5FFE70498806A40F0100020F0D0
:10056000020004998862FFE70499002081F82400C2
:10057000FFE701208DF8170015E0FFE7D6E70498A4
:10058000806A40F0010020F0020004998862FFE7D1
:10059000FFE70499002081F82400FFE79DF80F0091
:1005A0008DF81700FFE79DF8170006B080BD00002A
:1005B00085B00390029100208DF807000090FFE7BE
:1005C000039890F82400012804D1FFE702208DF859
:1005D0001300C3E00399012081F82400FFE7FFE73F
:1005E00002984068062812D8FFE703980068406B1D
:1005F000029A1168526802EB8202053A1F23934067
:1006000098439140084303990968486329E0029898
:1006100040680C2812D8FFE703980068006B029A24
:100620001168526802EB8202233A1F2393409843D9
:100630009140084303990968086311E00398006832
:10064000C06A029A1168526802EB8202413A1F2383
:10065000934098439140084303990968C862FFE7B3
:10066000FFE7029800680A2812D3FFE703980068A2
:10067000C06802990A68896802EB42021E3A0723A1
:10068000934098439140084303990968C86010E07B
:1006900003980068006902990A68896802EB4202BF
:1006A00007239340984391400843039909680861E0
:1006B000FFE702980068102805D0FFE7029800685D
:1006C000112840D1FFE70398006842F20041C4F2CC
:1006D000010188422DD1FFE703980068806800027D
:1006E000002825D4FFE703980168886840F40000DB
:1006F000886002980068102819D1FFE740F20000D6
:10070000C2F2000000684DF68361C4F21B31A0FB09
:100710000110800C00EB800040000090FFE7009883
:1007200020B1FFE7009801380090F8E7FFE7FFE706
:1007300008E00399886A40F02000886201208DF863
:100740000700FFE7FFE7FFE70399002081F8240097
:10075000FFE79DF807008DF81300FFE79DF81300F1
:1007600005B0704781B0009000980068C06C01B07F
:100770007047000080B588B0069000208DF8170003
:10078000049003900290069820B9FFE701208DF8AD
:100790001F00F4E00698806830B1FFE70698007DFE
:1007A00008B1FFE7FFE7FFE70698806A50B9FFE767
:1007B00006990020C862069981F82400069800F086
:1007C000E3F8FFE70698FFF789FD8DF81700069814
:1007D000806AC006002800F1C480FFE79DF817007A
:1007E000002840F0BE80FFE70698806A40F00200D3
:1007F00020F488500699886206994868CA691043AF
:10080000097B40EA410103980843039006988168F8
:100810000120B1F5807F019008D0FFE7069880683D
:100820000138B0FA80F040090190FFE7019904987F
:10083000CA0740F48071002A18BF08460490069841
:10084000007D01281ED1FFE70698007B70B9FFE705
:10085000069881694EF20000CFF6FF7000EB413040
:100860000499084340F4006004900AE00699886AFD
:1008700040F0200088620699C86A40F00100C86212
:10088000FFE7FFE706980068406820F46940049994
:1008900008430699096848600698006880684FF226
:1008A000FD71CFF6E1710840039908430699096884
:1008B0008860069881680120B1F5807F009008D09B
:1008C000FFE7069880680138B0FA80F04009009090
:1008D000FFE7009800F00100002818BF4FF4807077
:1008E000B0F5807F09D1FFE7069801690020CFF6B7
:1008F000F07000EB01500290FFE706980068C06AB4
:1009000020F470000299084306990968C8620698A5
:100910000068806840F6FE61CFF61F7108400399B9
:1009200088420CD1FFE706990020C8620698806AC9
:1009300040F0010020F002000699886210E006985D
:10094000806A40F0100020F0020006998862069943
:10095000C86A40F00100C86201208DF81700FFE767
:1009600008E00699886A40F01000886201208DF83E
:100970001700FFE79DF817008DF81F00FFE79DF8AF
:100980001F0008B080BD000080B588B0079000202F
:1009900006900590049003900798006842F2004189
:1009A000C4F2010188422AD1FFE7FFE741F21800B3
:1009B000C4F20200016841F400710160006800F4B3
:1009C000007002900298FFE7FFE741F21800C4F2BE
:1009D0000200016841F004010160006800F00400B9
:1009E00001900198FFE7102003900320049040F647
:1009F0000000C4F2010003A900F07CFAFFE708B090
:100A000080BD000080B58CB00A900991002008904C
:100A10000790069000F0F0FB08900A980068806844
:100A2000C00500280FD5FFE70A99886A40F020002A
:100A30008862FFE70A99002081F82400FFE701207F
:100A40008DF82F001CE10A9800684068C005002856
:100A500038D4FFE70A980068C06A10F4700F31D1EB
:100A6000FFE7FFE70A98006800688007002828D49D
:100A7000FFE70998013018B3FFE7099840B1FFE795
:100A800000F0BAFB0899401A0999884217D9FFE784
:100A90000A9800680068800700280FD4FFE70A99C9
:100AA000886A40F004008862FFE70A99002081F814
:100AB0002400FFE703208DF82F00E1E0FFE7FFE7C8
:100AC000D0E7B0E040F20000C2F2000000680490FD
:100AD000022000F045FC01460498B0FBF1F00590BF
:100AE0000A980068006944F62411C2F29241084253
:100AF0002BD1FFE70A980068C06844F62411C0F2C1
:100B00009201084221D1FFE70A980068016900209C
:100B100042F29242C1F24922114203900DD1FFE705
:100B20000A980068C06842F29241C0F24901084048
:100B3000B0FA80F040090390FFE70398C10729202D
:100B4000002918BF1420029039E00A980068006953
:100B500042F29241C1F2492108420CD1FFE70A98C2
:100B60000068C168012042F29242C0F2490211427B
:100B700001901CD0FFE70A9800680169002049F243
:100B80004922C0F22402114200900DD1FFE70A98D9
:100B90000068C06849F24921C0F224010840B0FA57
:100BA00080F040090090FFE700980190FFE701986E
:100BB000C107FC20002918BF54200290FFE70598C8
:100BC000029948430690FFE707980699884229D280
:100BD000FFE70998013008B3FFE7099840B1FFE744
:100BE00000F00AFB0899401A0999884215D9FFE7D5
:100BF0000798069988420FD2FFE70A99886A40F061
:100C000004008862FFE70A99002081F82400FFE7CA
:100C100003208DF82F0033E0FFE7FFE7079801304E
:100C20000790D1E7FFE70A9801686FF012000860AB
:100C30000A99886A40F4007088620A98006880689F
:100C400000F46020B0F5602F16D1FFE70A98007B12
:100C500090B9FFE70A99886A20F4807088620A9840
:100C6000806AC004002806D4FFE70A99886A40F029
:100C700001008862FFE7FFE700208DF82F00FFE703
:100C80009DF82F000CB080BD80B584B0029000208C
:100C90008DF80700FFE7029890F82400012804D19E
:100CA000FFE702208DF80F00C5E00299012081F8CE
:100CB0002400FFE7FFE70298FFF752FB8DF80700DB
:100CC0009DF80700002840F0AA80FFE70298806A9C
:100CD00040F4807040F201218843029988620298B2
:100CE000006842F60001C4F20101884209D1FFE721
:100CF00042F20440C4F20100006810F4702F03D0E7
:100D000018E00020B0B9FFE70299886A20F480104B
:100D100088620298006840684005002809D5FFE70E
:100D20000298806A40F4805020F400500299886252
:100D3000FFE72CE00299886A40F4801088620298EC
:100D4000006842F20041C4F20101884209D0FFE785
:100D50000298006842F60001C4F20101884209D1FC
:100D6000FFE742F20440C4F2010000684005002899
:100D700003D40BE0012048B9FFE70298806A40F4F1
:100D8000805020F4005002998862FFE7FFE7029844
:100D9000806AC004002806D5FFE70299C86A20F0DF
:100DA0000600C86203E002990020C862FFE7FFE77F
:100DB0000299002081F82400FFE7029801686FF093
:100DC0000200086002980068806800F46020B0F5B6
:100DD000602F1CD1FFE70298006842F60001C4F2C0
:100DE0000101884209D1FFE742F20440C4F2010048
:100DF000006810F4702F03D009E0002038B9FFE735
:100E000002980168886840F4A000886006E00298B3
:100E10000168886840F480108860FFE706E0FFE71B
:100E20000299002081F82400FFE7FFE79DF8070002
:100E30008DF80F00FFE79DF80F0004B080BD0000A3
:100E400080B584B0029000208DF80700FFE702987B
:100E500090F82400012804D1FFE702208DF80F004C
:100E600022E00299012081F82400FFE7FFE70298C1
:100E7000FFF734FA8DF807009DF8070048B9FFE73F
:100E80000298806A40F0010020F48850029988623C
:100E9000FFE7FFE70299002081F82400FFE79DF8B3
:100EA00007008DF80F00FFE79DF80F0004B080BD2C
:100EB00080B584B0039000F09FF9029003980190F0
:100EC0000198013048B1FFE740F21100C2F2000082
:100ED0000178019808440190FFE7FFE700F08CF9E2
:100EE0000299401A0199884201D2FFE7F6E704B05F
:100EF00080BD00008FB00E900D9100200C900890E6
:100F0000FFE70D9800680C99C840002800F0718137
:100F1000FFE70C99012088400B900D9800680B9911
:100F200008400A900A980B99884240F05E81FFE7DA
:100F30000D9840680490002851D0FFE704980128DC
:100F40003AD0FFE7049802283FD0FFE7049803282F
:100F50005FD0FFE70498112832D0FFE704981228E9
:100F600038D0FFE704980021C1F21101884236D041
:100F7000FFE704980021C1F2120188422FD0FFE759
:100F800004980021C1F22101884228D0FFE704988B
:100F90000021C1F22201884221D0FFE704980021FC
:100FA000C1F2310188421AD0FFE704980021C1F252
:100FB0003201884213D02FE00D98C06808902CE0D1
:100FC0000D98C0680430089027E00D98C06808307C
:100FD000089022E00D98C0680C3008901DE00D9834
:100FE000806818B9FFE70420089011E00D98806828
:100FF000012806D1FFE7082008900B980E99086198
:1010000005E0082008900B980E994861FFE7FFE77C
:1010100003E00020089000E0FFE70A98FF2803D8CB
:10102000FFE70E98039003E00E9804300390FFE76B
:10103000039807900A98FF2804D8FFE70C988000CF
:10104000029006E00C996FF01F0000EB8100029007
:10105000FFE70298069007980068069A0F219140D2
:101060008843089991400843079908600D98C07912
:10107000C006002840F1B880FFE7FFE741F2180002
:10108000C4F20200016841F001010160006800F053
:10109000010005900598FFE70C9820F00300082157
:1010A000C4F20101405809900C9800F0030081003F
:1010B0000F2000FA01F10998884309900E9840F634
:1010C0000001C4F20101884203D1FFE70020019032
:1010D00018E00E9840F60041C4F20101884203D1A5
:1010E000FFE7012000900AE00E9941F20002C4F2ED
:1010F00001020320914208BF02200090FFE7009800
:101100000190FFE701980C9901F00301890000FAB2
:1011100001F109980843099009980C9921F00301FD
:101120000822C4F2010288500D988079C006002878
:1011300009D5FFE70A9A40F20841C4F201010868A4
:101140001043086008E00A9A40F20841C4F2010125
:10115000086890430860FFE70D98807980060028B2
:1011600009D5FFE70A9A40F20C41C4F20101086870
:101170001043086008E00A9A40F20C41C4F20101F1
:10118000086890430860FFE70D9880798007002881
:1011900009D5FFE70A9A40F20441C4F20101086848
:1011A0001043086008E00A9A40F20441C4F20101C9
:1011B000086890430860FFE70D988079C00748B140
:1011C000FFE70A9A40F20041C4F2010108681043A7
:1011D000086008E00A9A40F20041C4F20101086880
:1011E00090430860FFE7FFE7FFE70C9801300C90A1
:1011F00087E60FB07047000040F2F000C2F2000036
:101200000068704740F21100C2F20000027840F21C
:10121000F001C2F200010868104408607047000045
:1012200080B542F20001C4F20201086840F01000EB
:101230000860032000F08CF80F2000F005F800F0A3
:101240003BF8002080BD000080B582B0009040F2E5
:101250000000C2F20000006840F21101C2F2000179
:101260000A784FF47A71B1FBF2F1B0FBF1F000F0C3
:1012700023FE20B1FFE701208DF8070018E0009859
:101280000F280DD8FFE700994FF0FF30002200F043
:1012900045F8009840F21401C2F20001086003E032
:1012A00001208DF8070003E000208DF80700FFE71C
:1012B0009DF8070002B080BD83B0FFE741F218003F
:1012C000C4F20200016841F001010160006800F011
:1012D000010002900298FFE7FFE741F21C00C4F210
:1012E0000200016841F080510160006800F0805008
:1012F00001900198FFE7FFE70421C4F201010868AB
:101300000090009820F0E0600090009840F080602D
:10131000009000980860FFE703B0704780B586B082
:101320008DF81700049103920020029001F002FB57
:1013300002909DF91700019002980499039A01F018
:1013400027F80146019801F0FDFA06B080BD0000C3
:1013500080B582B00190019801F016FB02B080BD0B
:1013600080B588B007900020069005900490039007
:10137000029007980190012866D0FFE701980228A3
:1013800000F0A580FFE70198102840F0B080FFE74B
:1013900041F20400C4F202000068039041F2000030
:1013A000C4F202000068C00100284CD5FFE7039892
:1013B000C0F3834143F65C30C0F60000405C04900B
:1013C0009DF80E00C007F0B1FFE741F20400C4F23F
:1013D00002000068C0F3404143F66C30C0F60000E4
:1013E000405C06909DF80E00C00758B1FFE70699D3
:1013F00041F20020C0F27A00B0FBF1F004994843BA
:101400000590FFE707E0049840F60011C0F23D01A7
:1014100048430590FFE741F20400C4F2020000686F
:101420004002002803D5FFE7059802900AE00598DE
:1014300040004AF6AB21CAF6AA21A0FB01104008E1
:101440000290FFE7FFE753E041F22000C4F2020000
:1014500000680390039800F44070B0F5807F0AD1D3
:10146000FFE79DF80C008007002804D5FFE74FF444
:10147000004002902AE0039800F44070B0F5007F2D
:101480000DD1FFE741F22400C4F20200006880079A
:10149000002804D5FFE749F64040029015E0039884
:1014A00000F44070B0F5407F0DD1FFE741F200003D
:1014B000C4F2020000688003002804D5FFE74FF261
:1014C0002440029000E0FFE7FFE7FFE710E000F0B4
:1014D00045F941F20401C4F20201096801F44042F5
:1014E000022101EB5231B0FBF1F0029000E0FFE786
:1014F000029808B080BD000080B584B002900191D0
:10150000029820B9FFE701208DF80F001BE1019838
:1015100042F20001C4F20201096801F007018842A9
:1015200016D9FFE742F20000C4F20200016821F080
:101530000701019A11430160006800F0070001995A
:10154000884204D0FFE701208DF80F00FBE0FFE7A1
:1015500002980078800700282AD5FFE702980078D3
:101560004007002809D5FFE741F20401C4F2020157
:10157000086840F4E0600860FFE702980078000720
:10158000002809D5FFE741F20401C4F2020108680E
:1015900040F460500860FFE741F20401C4F2020128
:1015A000086820F0F000029A926810430860FFE794
:1015B00002980078C007002860D0FFE702984068D2
:1015C00001280ED1FFE741F20000C4F202000068DA
:1015D0008003002804D4FFE701208DF80F00B2E05B
:1015E00021E00298406802280ED1FFE741F2000096
:1015F000C4F2020000688001002804D4FFE7012043
:101600008DF80F009FE00DE041F20000C4F20200EF
:1016100000688007002804D4FFE701208DF80F0040
:1016200091E0FFE7FFE741F20401C4F2020108681C
:1016300020F00300029A526810430860FFF7DCFDB7
:101640000090FFE741F20400C4F20200006800F0DD
:101650000C0002994968B0EB810F0ED0FFE7FFF74D
:10166000CBFD0099401A41F28931884204D3FFE74B
:1016700003208DF80F0066E0E4E7FFE7019842F2EF
:101680000001C4F20201096801F00701884216D284
:10169000FFE742F20000C4F20200016821F00701F6
:1016A000019A11430160006800F007000199884227
:1016B00004D0FFE701208DF80F0044E0FFE7029817
:1016C0000078400700280CD5FFE741F20401C4F27E
:1016D0000201086820F4E060029AD26810430860B2
:1016E000FFE702980078000700280DD5FFE741F2D8
:1016F0000401C4F20201086820F46050029A1269E1
:1017000040EAC2000860FFE700F03AF841F2040145
:10171000C4F202010968C9B20A0943F64431C0F6AD
:101720000001895CC84040F20001C2F2000108607B
:1017300040F21400C2F200000068FFF785FD0020AF
:101740008DF80F00FFE79DF80F0004B080BD00008A
:1017500040F20000C2F200000068704780B5FFF759
:10176000F7FF41F20401C4F202010968C1F3C22289
:1017700043F65431C0F60001895CC84080BD0000CA
:1017800086B000200590049003900290019041F2F1
:101790000400C4F2020000680590059800F00C00F7
:1017A0000146009100283FD0FFE70098042804D0AC
:1017B000FFE70098082806D037E041F20020C0F289
:1017C0007A00019037E00598C0F3834143F66E300C
:1017D000C0F60000405C02909DF81600C007C0B142
:1017E000FFE741F20400C4F202000068C0F3404188
:1017F00043F67E30C0F60000405C0490029841F24F
:101800000021C0F27A0148430499B0FBF1F0039043
:1018100007E0029840F60011C0F23D0148430390F2
:10182000FFE70398019006E0FFE741F20020C0F2D5
:101830007A000190FFE7019806B0704780B586B046
:101840000490049820B9FFE701208DF817002EE3DB
:1018500004980078C007002800F0AE80FFE741F24E
:101860000400C4F20200006800F00C00042813D049
:10187000FFE741F20400C4F20200006800F00C002F
:1018800008281BD1FFE741F20400C4F202000068FF
:10189000C003002812D5FFE741F20000C4F20200A5
:1018A00000688003002808D5FFE70498406820B945
:1018B000FFE701208DF81700F9E27CE0FFE70498CC
:1018C0004068B0F5803F09D1FFE741F20001C4F262
:1018D0000201086840F48030086032E004984068F3
:1018E00068B9FFE741F20001C4F20201086820F480
:1018F00080300860086820F48020086020E00498A8
:101900004068B0F5A02F0DD1FFE741F20001C4F20D
:101910000201086840F480200860086840F48030C4
:1019200008600CE041F20001C4F20201086820F4F2
:1019300080300860086820F480200860FFE7FFE737
:10194000FFE7FFE704984068D0B1FFE7FFF754FCDA
:101950000390FFE741F20000C4F202000068800338
:1019600000280CD4FFE7FFF747FC0399401A6528CD
:1019700004D3FFE703208DF8170098E2EAE719E0A7
:10198000FFF73AFC0390FFE741F20000C4F20200C7
:101990000068800300280CD5FFE7FFF72DFC0399B2
:1019A000401A652804D3FFE703208DF817007EE274
:1019B000EAE7FFE7FFE7FFE70498007880070028E1
:1019C00040F18D80FFE741F20400C4F2020000689C
:1019D00010F00C0F13D0FFE741F20400C4F2020034
:1019E000006800F00C00082829D1FFE741F204004C
:1019F000C4F202000068C003002820D4FFE741F2CF
:101A00000000C4F2020000688007002809D5FFE743
:101A100004980069012804D0FFE701208DF8170021
:101A200045E241F20001C4F20201086820F0F8002A
:101A3000049A526940EAC2000860FFE74EE0049849
:101A4000006958B3FFE70021C4F242210120086079
:101A5000FFF7D2FB0390FFE741F20000C4F202005F
:101A60000068800700280CD4FFE7FFF7C5FB039947
:101A7000401A032804D3FFE703208DF8170016E26D
:101A8000EAE741F20001C4F20201086820F0F80020
:101A9000049A526940EAC20008601EE00021C4F2C4
:101AA000422100200860FFF7A7FB0390FFE741F207
:101AB0000000C4F202000068800700280CD5FFE790
:101AC000FFF79AFB0399401A032804D3FFE703208A
:101AD0008DF81700EBE1EAE7FFE7FFE7FFE704987F
:101AE00000780007002848D5FFE70498806918B3FC
:101AF000FFE740F28041C4F2422101200860FFF775
:101B00007BFB0390FFE741F22400C4F2020000686F
:101B1000800700280CD4FFE7FFF76EFB0399401AFB
:101B2000032804D3FFE703208DF81700BFE1EAE79D
:101B3000012000F065FC1FE040F28041C4F2422128
:101B400000200860FFF758FB0390FFE741F22400F4
:101B5000C4F202000068800700280CD5FFE7FFF7F9
:101B60004BFB0399401A032804D3FFE703208DF8A9
:101B700017009CE1EAE7FFE7FFE7049800784007D9
:101B8000002840F1D880FFE700208DF8070041F2DF
:101B90001C00C4F202000068C000002813D4FFE754
:101BA000FFE741F21C00C4F20200016841F08051DD
:101BB0000160006800F0805000900098FFE701206D
:101BC0008DF80700FFE747F20000C4F2000000684C
:101BD000C005002822D4FFE747F20001C4F200014B
:101BE000086840F480700860FFF706FB0390FFE789
:101BF00047F20000C4F200000068C00500280CD4C1
:101C0000FFE7FFF7F9FA0399401A652804D3FFE7C5
:101C100003208DF817004AE1EAE7FFE7FFE70498A1
:101C2000C068012809D1FFE741F22001C4F2020196
:101C3000086840F00100086031E00498C06868B9A5
:101C4000FFE741F22001C4F20201086820F0010020
:101C50000860086820F0040008601FE00498C0686D
:101C600005280DD1FFE741F22001C4F20201086806
:101C700040F004000860086840F0010008600CE0D3
:101C800041F22001C4F20201086820F0010008605E
:101C9000086820F004000860FFE7FFE7FFE7FFE7C0
:101CA0000498C068E0B1FFE7FFF7A6FA0390FFE7EA
:101CB00041F22000C4F202000068800700280ED420
:101CC000FFE7FFF799FA0399401A41F289318842F8
:101CD00004D3FFE703208DF81700E8E0E8E71BE0F6
:101CE000FFF78AFA0390FFE741F22000C4F20200F6
:101CF0000068800700280ED5FFE7FFF77DFA0399FB
:101D0000401A41F28931884204D3FFE703208DF85D
:101D10001700CCE0E8E7FFE79DF80700012809D1AC
:101D2000FFE741F21C01C4F20201086820F0805074
:101D30000860FFE7FFE70498C069002800F0B3805F
:101D4000FFE741F20400C4F20200006800F00C005A
:101D5000082800F08280FFE70498C06902285CD15F
:101D6000FFE76021C4F2422100200860FFF744FA37
:101D70000390FFE741F20000C4F202000068800116
:101D800000280CD5FFE7FFF737FA0399401A03281C
:101D900004D3FFE703208DF8170088E0EAE70498F2
:101DA000006AB0F5803F0CD1FFE741F20401C4F2B4
:101DB0000201086820F40030049A92681043086019
:101DC000FFE741F20401C4F20201086820F4741034
:101DD000049B1A6A5B6A1A43104308606021C4F2CC
:101DE000422101200860FFF707FA0390FFE741F264
:101DF0000000C4F202000068800100280CD4FFE754
:101E0000FFF7FAF90399401A032804D3FFE70320E8
:101E10008DF817004BE0EAE71EE06021C4F2422192
:101E200000200860FFF7E8F90390FFE741F20000A7
:101E3000C4F202000068800100280CD5FFE7FFF71C
:101E4000DBF90399401A032804D3FFE703208DF838
:101E500017002CE0EAE7FFE724E00498C0690128B6
:101E600004D1FFE701208DF8170020E041F20400C3
:101E7000C4F2020000680290029800F480300499D5
:101E8000096A884208D1FFE7029800F470100499AB
:101E9000496A884204D0FFE701208DF8170006E068
:101EA000FFE7FFE7FFE700208DF81700FFE79DF849
:101EB000170006B080BD000080B582B00190019887
:101EC00000F0BEFA02B080BD80B586B004900391E8
:101ED000029200208DF80700FFE7049890F83C007C
:101EE000012804D1FFE702208DF8170089E004994A
:101EF000012081F83C00FFE7FFE7029800900C28E2
:101F000000F270800099DFE801F0076D6D6D206DC3
:101F10006D6D3A6D6D6D530004980068039900F083
:101F20007BFB04980168886940F008008861049888
:101F30000168886920F004008861039802690498A8
:101F4000016888691043886150E00498006803992B
:101F500000F0CAFB04980168886940F40060886159
:101F600004980168886920F4806088610398026998
:101F700004980168886940EA0220886136E0049884
:101F80000068039900F01CFC04980168C86940F0DF
:101F90000800C86104980168C86920F00400C8619D
:101FA0000398026904980168C8691043C8611DE07C
:101FB00004980068039900F06FFC04980168C869F0
:101FC00040F40060C86104980168C86920F480602A
:101FD000C8610398026904980168C86940EA022050
:101FE000C86103E001208DF80700FFE7FFE70499CF
:101FF000002081F83C00FFE79DF807008DF81700EE
:10200000FFE79DF8170006B080BD000080B582B0E4
:102010000090009820B9FFE701208DF807003FE00D
:10202000009890F83D0040B9FFE70099002081F842
:102030003C00009800F038F8FFE70099022081F892
:102040003D00009951F8040B00F056FA0099012068
:1020500081F84600FFE70099012081F83E000099D1
:1020600081F83F00009981F84000009981F8410013
:10207000FFE7FFE70099012081F84200009981F80D
:102080004300009981F84400009981F84500FFE77A
:102090000099012081F83D0000208DF80700FFE73E
:1020A0009DF8070002B080BD82B0019001980068E1
:1020B00042F60041C4F20101884210D1FFE7FFE778
:1020C00041F21800C4F20200016841F400610160AD
:1020D000006800F4006000900098FFE7FFE702B09E
:1020E0007047000080B58AB008900791079828B91A
:1020F000FFE7089890F83E0005901CE00798042838
:1021000005D1FFE7089890F83F00049010E0079889
:10211000082805D1FFE7089890F84000039004E0F4
:10212000089890F841000390FFE703980490FFE7B8
:1021300004980590FFE70598012804D0FFE70120E7
:102140008DF8270071E0079828B9FFE70899022069
:1021500081F83E001EE00798042806D1FFE70899A1
:10216000022081F83F00029012E00798082806D16B
:10217000FFE70899022081F84000019005E00899E6
:10218000022081F841000190FFE701980290FFE7EB
:102190000298FFE7089800680799012200F020FAEA
:1021A0000898006842F60041C4F20101884207D154
:1021B000FFE708980168486C40F400404864FFE776
:1021C0000898006842F60041C4F2010188420FD02D
:1021D000FFE708980068B0F1804F09D0FFE7089842
:1021E000006840F20041C4F20001884212D1FFE7CA
:1021F00008980068806800F0070006900698062896
:1022000007D0FFE708980168086840F001000860FF
:10221000FFE706E008980168086840F001000860E0
:10222000FFE700208DF82700FFE79DF827000AB0A0
:1022300080BD0000FFE7FEE780B586B00020059076
:1022400004900390FFE741F21800C4F20200016815
:1022500041F400710160006800F40070029002987F
:10226000FFE740F27800C2F20000019042F2004124
:10227000C4F20101016000218160017301754FF416
:102280006022C2614160012100910161FEF772FA92
:10229000009901980422039204910321059103A956
:1022A000FEF786F906B080BD80B588B0FFE741F241
:1022B0001800C4F20200016841F0040101600068E6
:1022C00000F0040007900798FFE7002006900590B3
:1022D000049003904FF400600390022004900320C8
:1022E0000090069040F60000C4F20100019003A99E
:1022F0000291FEF7FFFD009A0198029910230393C3
:102300000492FEF7F7FD08B080BD000080B58AB0EA
:102310000020099008900790069005900490039083
:10232000FFE741F21800C4F20200016841F40061C5
:102330000160006800F4006002900298FFE740F23C
:10234000A800C2F20000019042F60041C4F201016F
:102350000160152141600021009181604FF47A7283
:10236000C26001614161FFF751FE0099019860224E
:1023700003924FF4FA7204920591079103A90C227B
:10238000FFF7A2FD0AB080BDFFE7FEE7FFE7FEE72B
:1023900088B0079006910592079800F00700049016
:1023A0000498C0F10700052803D3FFE7042001903B
:1023B00004E00498C0F107000190FFE70198039042
:1023C00004980430062803D8FFE70020009003E0BB
:1023D000049803380090FFE700980290069803994C
:1023E000012202FA01F101390840029B9840059947
:1023F0009A40013A1140084308B070477047000006
:1024000082B00190019840F20001C2F20001096817
:10241000C90844F6D352C1F26202A1FB0221890924
:1024200048430090FFE700BFFFE70098411E00917E
:102430000028F8D1FFE702B07047000070470000A5
:1024400080B582B0009000980138B0F1807F03D34E
:10245000FFE70120019019E0009801384EF21401C5
:10246000CEF2000108604FF0FF300F2100F06AFA51
:102470004EF21801CEF20001002008604EF2100268
:10248000CEF20002072111600190FFE7019802B02F
:1024900080BD000080B5FEF7B5FE80BD80B592B06E
:1024A00008A800902821FDF7A5FE009800210291C0
:1024B00007910691059104910391022201920892DD
:1024C00001230C9310230D930F9210914FF4601180
:1024D0001191FFF7B3F9019902980F220392049129
:1024E00005904FF480620692079003A8FFF704F866
:1024F00012B080BD7047000083B002900191029835
:1025000000680090029842F60041C4F2010188423E
:102510000DD0FFE70298B0F1804F08D0FFE7029896
:1025200040F20041C4F2000188420AD1FFE700985E
:1025300020F07000009001984168009808430090D6
:10254000FFE7029842F60041C4F2010188420DD033
:10255000FFE70298B0F1804F08D0FFE7029840F201
:102560000041C4F2000188420AD1FFE7009820F43C
:10257000407000900198C168009808430090FFE700
:10258000009820F080000199496908430090009864
:1025900002990860019880680299C86201980068F1
:1025A00002998862029842F60041C4F20101884211
:1025B00005D1FFE70198006902990863FFE70299D6
:1025C0000120486102980069C00730B1FFE7029915
:1025D000086920F001000861FFE703B070470000C0
:1025E00084B0039002910192029800F01F01012033
:1025F00088400090009A0399086A90430862019805
:10260000029901F01F0100FA01F20399086A1043D0
:10261000086204B07047000085B0049003910498EC
:10262000006A01900499086A20F001000862049889
:1026300040680090049880690290029820F0700031
:102640000290029820F0030002900398016802981B
:1026500008430290019820F00200019003988168DD
:10266000019808430190049842F60041C4F2010128
:1026700088420ED1FFE7019820F0080001900398EE
:10268000C168019808430190019820F0040001906E
:10269000FFE7049842F60041C4F20101884213D1D9
:1026A000FFE7009820F480700090009820F40070FC
:1026B000009003984169009808430090039881694D
:1026C000009808430090FFE700980499486002983A
:1026D00004998861039840680499486301980499B3
:1026E000086205B07047000085B00490039104981B
:1026F000006A01900499086A20F0100008620498AA
:1027000040680090049880690290029820F4E040AC
:102710000290029820F44070029003980168029899
:1027200040EA01200290019820F0200001900398D7
:102730008168019840EA01100190049842F6004136
:10274000C4F2010188420FD1FFE7019820F0800018
:1027500001900398C168019840EA01100190019826
:1027600020F040000190FFE7049842F60041C4F2D7
:102770000101884215D1FFE7009820F480600090A5
:10278000009820F40060009003984169009840EAA6
:102790008100009003988169009840EA81000090D0
:1027A000FFE70098049948600298049988610398AB
:1027B00040680499886301980499086205B07047DD
:1027C00085B0049003910498006A01900499086A06
:1027D00020F4807008620498406800900498C069F2
:1027E0000290029820F070000290029820F00300FE
:1027F000029003980168029808430290019820F41F
:102800000070019003988168019840EA01200190CE
:10281000049842F60041C4F2010188420FD1FFE75B
:10282000019820F4006001900398C168019840EA83
:1028300001200190019820F480600190FFE7049846
:1028400042F60041C4F20101884215D1FFE7009829
:1028500020F480500090009820F4005000900398DD
:102860004169009840EA011000900398816900983E
:1028700040EA01100090FFE7009804994860029830
:102880000499C861039840680499C8630198049941
:10289000086205B07047000085B004900391049869
:1028A000006A01900499086A20F480500862049834
:1028B000406800900498C0690290029820F4E040BB
:1028C0000290029820F440700290039801680298E8
:1028D00040EA01200290019820F4005001900398F2
:1028E0008168019840EA01300190049842F6004165
:1028F000C4F2010188420BD1FFE7009820F4804028
:10290000009003984169009840EA81100090FFE729
:1029100000980499486002980499C8610398406837
:102920000499086401980499086205B07047000092
:10293000FFE7FEE74EF60C50CEF200000068C0F351
:102940000220704782B08DF8070000919DF90700C2
:1029500000280AD4FFE7009800019DF907104EF205
:102960000042CEF2000288540BE0009800019DF86E
:10297000071001F00F014EF61452CEF200028854F7
:10298000FFE702B07047000083B00290029800F0A9
:10299000070000904EF60C51CEF20001086801903D
:1029A00001984FF6FF02104001900198009A40EA0A
:1029B00002200022C0F2FA521043019001980860F0
:1029C00003B0704780B584B08DF80F009DF90F00FB
:1029D00000F0DCFD014649F67D40C3F6877000F04B
:1029E000E7F80021C4F2DC3100F050FE02900298BA
:1029F0000021C4F2B01100F049FE014645F240400A
:102A0000C4F6894000F082FC0021CBF6807100F012
:102A1000DFFB019001984FF60071C4F27F7100F066
:102A20005BFC30B9FFE74FF60070C4F27F70019095
:102A3000FFE701980021C4F2201100F046FC28B9FC
:102A4000FFE70020C4F220100190FFE7019800F09A
:102A50007DFD04B080BD000080B588B000200290EC
:102A60000790FEF7DDFBFFF719FDFFF71DFCFFF7F1
:102A7000E3FBFFF74BFC40F2A800C2F200000C2180
:102A8000FFF730FB40F27800C2F20000FDF7CAFC0D
:102A900002980690FFE700208DF81700FFE79DF8E9
:102AA000170040F21001C2F200010978884251DAA1
:102AB000FFE740F27800C2F200000190FEF7E4F870
:102AC00001984FF47A71FDF79DFF40B9FFE740F29E
:102AD0007800C2F20000FDF745FE0690FFE740F2E5
:102AE0007800C2F20000FEF7ABF99DF8171040F233
:102AF0000400C2F200004056FFF764FF0490FFE7B5
:102B0000049840F2A801C2F200010A68D062049859
:102B1000C860FFE706986421414340F20110C0F20B
:102B20001000A1FB0020091A00EB5100C00A03901D
:102B3000039840F2A801C2F20001096808644FF44A
:102B40009670FEF7B5F9FFE79DF8170001308DF894
:102B50001700A4E74FF4FA70FEF7AAF99BE74100CB
:102B6000080218BF04200A0E18BF40F001004FF001
:102B70007F4232EA010108BF40F00200012808BF8D
:102B80000520704700214FF07E5000F0BFBB00F0E1
:102B90001FBB0021084600F0B9BB61214FF0E040A7
:102BA00000F0F1BE6FF05E01080700F0ECBE00001F
:102BB0002DE9F04D0E460023A0F5000C4FF00071FA
:102BC000354684B002464FF07E5401EB45014FF08C
:102BD0007F48BCF1FE4F80F09F81B1F1804FC0F083
:102BE000DB81FE490144B1F5005F40F2A78200F5A8
:102BF0008021C90C01F00F07C1F307117F39A2EB47
:102C0000C15501EB030B384600F0C0FC6FF0030127
:102C100000F0B9FE4FF07E5100F0DAFA0146029062
:102C2000284600F009FE01902846029900F0D0FAEB
:102C300000F5006A6FF30B0A00905146029800F00D
:102C4000FBFD294600F0C4FA02904FF07E50009937
:102C500000F05CFB01460090019800F017FD00F5C4
:102C600000656FF30B052846029900F00FFD0290F6
:102C70005146284600F00AFD019900F0D3FD029963
:102C800000F0DAFD009900F001FD014601902846B0
:102C900000F09EFA0146029000F0F8FC8246D0490E
:102CA00000F0F4FCCF4900F093FA514600F0EEFC3E
:102CB00082460021284600F066FE009051460298A8
:102CC00000F0E4FC05460021019800F05CFE294676
:102CD00000F07EFA82460146009800F079FA00F58D
:102CE00000656FF30B052946009800F0A5FD5146DD
:102CF00000F06EFA8246BC49284600F0C7FC0090FE
:102D0000BA49504600F0C2FC8246B949284600F054
:102D1000BDFC514600F05CFA82460146009800F086
:102D200057FA00F500656FF30B052946009800F08F
:102D300083FD514600F04CFA8246AE48784450F884
:102D4000371000EBC700019147684FEA0B1000F005
:102D50001DFC00903946504600F03AFA294600F032
:102D600037FA019900F034FA009900F031FA00F5D1
:102D7000006B6FF30B0B5846009900F05DFD019955
:102D800000F05AFD294600F057FD394600F054FD89
:102D9000514600F047FD06F5006782466FF30B07CA
:102DA0003946304600F048FD0021009008464FF0BB
:102DB000000000F00C063946584600F067FC054656
:102DC00020F00040B0F18B4F0ADDB8EB400F07D385
:102DD0004FF08B4060F31E052F464FF0000A1FE0B6
:102DE0003846009900F0F4F9514600F04FFC0746D0
:102DF0005846009900F04AFC394600F0E9F982464D
:102E00000146284600F0E4F900F500676FF30B0770
:102E10003946284600F010FD514600F0D9F98246A7
:102E200031460C204FF000005146384600F0D0F9F2
:102E300000F062FB0646051100F0A8FB394600F0E1
:102E4000F1FC514600F0C4F907466B4900F01EFC46
:102E50006A4900F0BDF9394600F018FC684900F0F5
:102E6000B7F9394600F012FC0146664806F00F0635
:102E7000784450F8260000F009FC6349794451F881
:102E8000261000F0A5F96149794451F8261000F0A8
:102E90009FF905F17D01FC2908D2294600F073FD58
:102EA00004B02146BDE8F04D00F0F0BB05F1BF01D4
:102EB000B1F5BF7F16D8294600F065FD214600F028
:102EC000E5FB0546B8EB450F1AD068000CD0284644
:102ED000FFF745FE042808BFFFF764FE284604B04C
:102EE000BDE8F08D002D0BDA0220FDF7B2F9FFF7F7
:102EF00059FE0146204604B061F31E00BDE8F08D86
:102F00000220FDF7A6F9FFF748FE0146204604B06F
:102F100061F31E00BDE8F08DB1F1804F3CD300BFDE
:102F200000F1FF41B1F1FE4F21D200BF20F000427D
:102F3000C5F3C75110467F290DDB9729BFF651AE67
:102F4000C1F196014FF0010C0CFA01F1A1F1010C55
:102F50001CEA050F07D00120FDF77BF904B0BDE89E
:102F6000F04DFFF716BE294218BF294C39E6410043
:102F70001CBF4FF08071B1EB400F09D91B2100F04D
:102F800002FD02466FF01A0310F0004FCED128E682
:102F9000BCF1FE4F18D224E6B1F1007F0ED336F01B
:102FA000004105D006F0004141F0FC552E46B7E740
:102FB000410018BFB8EB400F78D8B1E7B1F1807F7E
:102FC00038BFA5F50006ABD320F000416FF0FF4CF1
:102FD000104C01EB0C03A3422FD31DE0001080C066
:102FE0007EE24C3EABAAAA3E00B038423BAA384231
:102FF000D49AB8BBC40C0000FC596337C9FF753ABA
:103000001872313D900C0000440C0000F80B0000D9
:10301000000080BFFFFF3F0025F000439C44A44513
:103020000BD3B0F17E5F18BF5FEA450C3ED0B1F123
:10303000FF4F98BFB3F1FF4F05D904B03146BDE84B
:10304000F04DFFF7A4BDB0F1FF4F0FD0C5F3C7514E
:103050007F2909DB972911DAC1F19601012202FAD1
:1030600001F14A1E2A4205D0002108E015F0004F68
:1030700055D128E0294218BF012100D1022110F5C5
:10308000000F14D020B3B0F1004F27D010F1814FC2
:103090004ED04FF0FE41B1EB400F94BF0120002015
:1030A000012101EBE571884239D10CE040E015F0D7
:1030B000004F02D0012936D031E0012902BF3F483C
:1030C00004B0BDE8F08D4FF0FF4004B0BDE8F08DD6
:1030D00015F000400ED104B0BDE8F08DB5F1FF4F02
:1030E0001DD015F5000F05D015F0004F14D009B113
:1030F000012907D00220FDF7ACF804B0BDE8F04D7F
:10310000FFF740BD0220FDF7A4F8FFF73BFD04B038
:1031100080F00040BDE8F08D09B1012903D004B072
:103120000020BDE8F08D04B04FF00040BDE8F08D08
:1031300004B04FF07E50BDE8F08D00BF4FF07E51DF
:1031400000F07AFB05466FF0010100F01CFC1C4901
:1031500000F068FB294600F099FA4FF07C5100F02E
:1031600061FB07462946084600F090FA80F00040CF
:10317000394600F08BFA82461249284600F086FA5A
:1031800007461149504600F081FA82460F49284609
:1031900000F07CFA514600F01BF80546014638461F
:1031A00000F016F800F5006B6FF30B0B594638462C
:1031B00000F042FB294600F00BF8ECE5000080FF30
:1031C000ABAAAA3E00B0B8413BAAB841D49A38BBDA
:1031D00090EA010F48BF81F0004100F13483421AA8
:1031E0003CBF801A89184FEAD052A2EBD1534FF05E
:1031F0007F4C1CEA410F18BF9CEA026F00F03B8035
:103200004FF0004C4CEA00204CEA012121FA03FC6B
:1032100010EB0C0C1ED202F1FF325FEA1C2040EBD7
:10322000C25038BF70471CF07F0F4FEA400C18BFE8
:10323000BCF17F4F38BF7047C3F12003994008BFEE
:1032400020F00100BCF17F4F38BF7047A0F1C040B3
:1032500000F0E3BA4FEA3C00000A40EBC25028BF3E
:103260001CF0FF0F4FEA400CE6D018BFBCF17F4FB7
:1032700038BF7047EAE79CEA026F05D010EA5C0F9E
:1032800008BF00F00040704710B500F080FA00BFA2
:1032900064FBBE3E014800F044BB00BF0000C07F9D
:1032A00010B500F0F5F80CBF0120002010BD10B5DE
:1032B00000F0EEF814BF0120002010BD10B500F0A2
:1032C0007DF98CBF0120002010BD10B500F076F90B
:1032D0002CBF0120002010BD10B500F0A3F994BF51
:1032E0000120002010BD10B500F09CF934BF012072
:1032F000002010BD401058BFC0F14040491058BFD9
:10330000C1F140418142EFF3008070474FF47F0CE0
:103310001CEAD0121EBF1CEAD11392EA0C0F93EAEA
:103320000C0F00F0858090EA010F48BF42F48072D4
:1033300040F4000C41F400002CF07F4120F07F406D
:1033400000B5A2EB030281420FF2081CACEB504E19
:103350009EF800E0C0F100004FEA4E0E00FB0EFCAC
:1033600038BF49004FEA2C1C0CFB0EF34FEACE1E6F
:103370000EEB635E4FEA112C0EFB0CFC4FEAC121F1
:103380004FEA1C5300FB031102F5FA024FEA112C1D
:103390000EFB0CFC4FEA01314FEADC4C00FB0C1138
:1033A00042EB2242C14228BF09184CEB03335DF8BF
:1033B00004EB10EB410143EBC250B2F57C0F38BF78
:1033C000704729D512F0F00F1CBF00F1C04000F08B
:1033D00000407047008182838485868788898B8C32
:1033E0008D8E8F919293959697999A9C9D9FA0A26E
:1033F000A3A5A7A8AAACAEB0B2B3B5B7B9BCBEC0BE
:10340000C2C5C7C9CCCED1D4D7D9DCDFE2E6E9EC5E
:10341000F0F3F7FAFE0000004FEA400C0CF1807C5C
:10342000BCF17E4F28BF7047B0F1C04000F0F5B945
:103430000CEAD11390EA010F48BF42F48072624552
:1034400038BF634507D213F47F0F16D080EA01001E
:1034500000F00040704710B500F099F9097EFC3E7D
:1034600000F005B880EA010000F00040704780EAF3
:10347000010000F0004000F0D0B912F47F0F04BF4B
:103480000248704780EA010000F0C7B90000C07F21
:1034900050EA010C00F113801CF5000F58BFBCF579
:1034A000000F01D48842704707D710F5000F58BFAE
:1034B00011F5000F15D488427047894270471CF5FA
:1034C000000F04D5BCF5000FF7D5814270474FF0CF
:1034D000807C1CEB400F38BF1CEB410F01D28142B6
:1034E000704710B500F053F9922449004FF0005096
:1034F0004FF08051FFF7FEBE41000B0ED3F19E024C
:1035000016D950F400034FEA032333FA02FC0AD31E
:1035100063FA02F383EA0C030CF1010C93F0004F01
:1035200008BF2CF0010C5CEA100028BF4042704735
:1035300010B500F02CF900BF49922480002070479C
:103540006FF0004282EA200070470000C10DD1F107
:103550009E0206DB4FEA002343F0004323FA02F009
:103560007047004207D54FEA4001B1F1FE4F02D249
:103570004FF00000704710B500F009F9499224801F
:10358000002070476FEA20007047000010F00041F3
:1035900048BF4042B0FA80F310FA03F2C3F19D0332
:1035A0000BD051EAC35101EB1220530638BF7047CC
:1035B00000F1010008BF20F00100704750EA010C43
:1035C00000F113801CF5000F58BFBCF5000F01D4AB
:1035D0008842704707D710F5000F58BF11F5000F4C
:1035E00015D488427047894270471CF5000F04D5F6
:1035F000BCF5000FF7D5814270474FF0807C1CEB83
:10360000400F38BF1CEB410F01D28142704710B50B
:1036100000F0BDF8922449004FF080504FF0005167
:10362000FFF768BE50EA010C00F113801CF5000F93
:1036300058BFBCF5000F01D48842704707D710F57A
:10364000000F58BF11F5000F15D48842704789420A
:1036500070471CF5000F04D5BCF5000FF7D581426B
:1036600070474FF0807C1CEB400F38BF1CEB410FC4
:1036700001D28142704710B500F089F892244900C8
:103680004FF000504FF08051FFF734BE4FF47F0CE5
:103690001CEAD0121EBF1CEAD11392EA0C0F93EA67
:1036A0000C0F00F0478090EA010F48BF42F480728F
:1036B0004FF0004C4CEA00204CEA012102EB0302DF
:1036C000A0FB0113A2F50002002918BF43F001037B
:1036D0005B0028BF4FEA330342EB22425FEA132C20
:1036E0004CEBC2502EBFBCEB436FB2F57C0F704762
:1036F0004FEA036CBCF1004F08BF20F00100B2F5A7
:103700007C0F38BF70470BD582F0FF0212F5803F67
:10371000C8BF704700F1C040D8BF00F000407047FC
:1037200000F5000C5FEA4C0C48BF7047B0F1C04098
:1037300000F073B80CEAD11390EA010F48BF42F4CD
:103740008072624538BF634504D280EA010000F010
:103750000040704710B500F01AF800BF8900013E24
:1037600000F007B800F009B85FEA410C5FEA1C6C92
:1037700008D080EA010000F050B85FEA400C5FEA30
:103780001C6CF6D14FF00040A0F5800070470EF1A0
:10379000020E2EF0030E5EF8044B244204D44FEACE
:1037A0004102B2F17F4F11D84FEA4003B3F17F4F8E
:1037B0000CD80ED14FEAD07C0CEB4C0C0CF1020C67
:1037C000B2F17F4F08BF4CEBD17C04E04FF0080C06
:1037D00001E04FEAD17C0CEB4C0324FA03F404F033
:1037E0000704B4F1040C06D20EEB840CBDE81040C3
:1037F0004CF0010C6047DFE80CF0070802024FF0C4
:103800000040A0F5800010BD0846420018BFD2F16C
:10381000807288BF00F0004010BDFF2141EAD05007
:10382000C005704780F0004090EA010F7FF5D7ACEB
:1038300081F0004100F007B890EA010F48BF81F025
:1038400000413FF5CCAC421A04D882F00042A0EB14
:10385000020011444FEAD052A2EBD1534FF07F4CFB
:103860001CEA410F18BF9CEA026F4AD04FF0004C8F
:103870004CEA00204CEA012121FA03FCB0EB0C0CCD
:103880000FD412F0FE0F36D05FEA4C001DD50012A7
:1038900040EBC25038BF70471CF03F0F18BF704755
:1038A0000BE05FEA1C20A2F1010240EBC25038BFDE
:1038B00070471CF07F0F18BF7047C3F12003994079
:1038C00014BF401E20F0010070474FEA1223800809
:1038D00008BF7047B0FA80FCA2EB0C02CCF1280CB8
:1038E00060FA0CF093EA122F04BF00EBC25070474D
:1038F0004FEAC3707047130A5FEADC1008BF7047D5
:10390000F6E79CEA026F04D010EA5C0F08BF0020C3
:10391000704710B5FFF73BFF40DFF63E81F00040F7
:1039200070470CF00F03092B08BF082000F05180EE
:103930000A2B0BD0082B18BF704708BF1CF0400F94
:103940000AD04FF000004FF0000170471CF0400F0C
:1039500018BF4FF0004070471CF0100F08D000F067
:103960007F4220F0704342EAD3014FEA4370704730
:1039700000F0604021F07F4242EA000201F07F4007
:1039800040EA727070474FF0FF0212EAD0521CBF3B
:1039900092F0FF038B42C2BFD14200EBC15070478F
:1039A000002A0AD0002B0BD000F000400029A4BF51
:1039B00040F0FE4040F40000704700F000407047C7
:1039C00043024FF00B0C18BF4CF0806C7FF462ACDC
:1039D00070471CF4801F11D01CF4E02F03D06FEA55
:1039E000CC31490070474FF04050EFF3008222F095
:1039F000704242EA000282F3008870474FF00000F4
:103A00007047000000000000000000000000B33F0D
:103A1000B2BE7D3A00002E40DFCF513800007E401C
:103A2000BF51FABA00E0A44019DAC3BA00E0C840B6
:103A3000C2ED8AB90040EB40CD1F2CBA0010064100
:103A40002AFFFABA00C01541DFCFD13700D0244198
:103A50009A97703A0050334189478E360040414171
:103A6000E75B9D3800B04E41C00A98B900A05B41A9
:103A7000558F943A00306841DA92C0BA00407441E0
:103A800062B3C63A0000803F00A0853F00908B3FA4
:103A900000C0913F0030983F00F09E3F00F0A53FEE
:103AA0000050AD3F0000B53F0000BD3F0060C53F86
:103AB0000020CE3F0040D73F00C0E03F00C0EA3FBB
:103AC0000020F53F000000007D36AC397D3C3839E0
:103AD000EBDCF438320A7E39124C26399B6AED3918
:103AE000A4EE83397F661E39F6398A392B4265394F
:103AF000A48211395B991F39C3EECD39DDE7C63792
:103B0000A5A22F390000803FC3AA853FC2958B3FF5
:103B1000D3C3913FF037983F32F59E3FD7FEA53F84
:103B20003F58AD3FF304B53FA408BD3F2A67C53FEA
:103B30008C24CE3FFD44D73FDFCCE03FC7C0EA3FF7
:103B40007D25F53F00000000000000000102030495
:103B5000060708090000000001020304020304052F
:103B6000060708090A0B0C0D0E0F101001020203C4
:103B70000405060708090A0B0C0D0E0F10100102B0
:103B8000A03B0008000000201800000050010008C1
:103B9000B83B000818000020E00600007001000893
:103BA00000127A00FD0205040205020402FE00FD77
:083BB0000C01000010000000F0
:04000005080000ED02
:00000001FF
