:020000040800F2
:1000000000280020CD0400087904000881040008BD
:100010008904000891040008990400080000000009
:10002000000000000000000000000000F13800089F
:10003000A104000800000000D13A00084D17000894
:100040001505000815050008150500081505000828
:100050001505000815050008150500081505000818
:100060001505000815050008150500081505000808
:1000700015050008150500081505000815050008F8
:1000800015050008150500081505000815050008E8
:1000900015050008150500081505000815050008D8
:1000A00015050008AD040008150500081505000831
:1000B00015050008150500080000000015050008DA
:1000C00015050008000000000000000015050008EC
:1000D00000000000150500081505000800000000DC
:1000E00015050008150500081505000800000000AA
:1000F0000000000000000000000000000000000000
:0C01000000000000000000005FF808F1A3
:1001100010B5054C237833B9044B13B10448AFF341
:1001200000800123237010BD60000020000000004B
:10013000D441000808B5034B1BB103490348AFF392
:10014000008008BD0000000064000020D4410008C9
:1001500080B582B002AF00F0DFF900F027F800F0C0
:100160006BF80C4B019301230093002380220A4972
:100170000A4802F035F90A4B01930123009300234A
:1001800080220849084802F02BF902F0BDFA00BFAE
:10019000FDE700BF7C000020EC410008B50200082C
:1001A00080000020F8410008D502000880B590B01A
:1001B00000AF07F1180328220021184603F01CFFA6
:1001C0003B1D00221A605A609A60DA601A610123AE
:1001D000BB614FF48033FB6100233B620123BB62B0
:1001E00002237B634FF48033BB634FF4E013FB6364
:1001F00007F11803184600F04FFC0346002B01D00E
:1002000000F08AF80F237B600223BB600023FB60B1
:100210004FF480633B6100237B613B1D0221184644
:1002200000F0BCFE0346002B01D000F075F800BFC3
:100230004037BD4680BD000080B586B000AF07F1F5
:10024000080300221A605A609A60DA60174B9B69B3
:10025000164A43F020039361144B9B6903F020037B
:100260007B607B68114B9B69104A43F004039361E8
:100270000E4B9B6903F004033B603B680022C021E6
:100280000B4800F0D7FBC023BB600123FB600023B9
:100290003B6102237B6107F108031946044800F023
:1002A0004DFA00BF1837BD4680BD00BF00100240A8
:1002B0000008014080B582B000AF7860402104485A
:1002C00000F0D0FB012002F0E9F900BFF6E700BF23
:1002D0000008014080B582B000AF786080210448FA
:1002E00000F0C0FB4FF47A7002F0D8F900BFF5E7D8
:1002F0000008014080B582B000AF78607B681B6861
:10030000044A934201D100F01DF900BF0837BD46F1
:1003100080BD00BF002C014080B400AF72B600BFAA
:1003200000BFFDE780B584B000AF184B9B69174A4A
:1003300043F001039361154B9B6903F00103BB601C
:10034000BB68124BDB69114A43F08053D3610F4BFA
:10035000DB6903F080537B607B6800220F216FF024
:10036000010000F0C0F90A4B5B68FB60FB6823F0FA
:10037000E063FB60FB6843F08063FB60044AFB685A
:10038000536000BF1037BD4680BD00BF0010024063
:100390000000014080B58CB000AF78600023BB62E4
:1003A00000237B62002387F82F302E4B9B692D4A58
:1003B00043F4006393612B4B9B6903F40063BB60C0
:1003C000BB6807F10C0207F110031146184600F054
:1003D00041FF00F02BFFB862BB6A234AA2FB032354
:1003E0009B0C013B7B62214B214A1A601F4B40F260
:1003F000E732DA601D4A7B6A53601C4B00221A61A7
:100400001A4B00229A60194B00229A61174800F09B
:100410006FFF034687F82F3097F82F30002B1BD142
:10042000124800F0BDFF034687F82F3097F82F30B1
:10043000002B11D1192000F072F97B680F2B08D81E
:1004400000227968192000F04EF90A4A7B6813608F
:1004500002E0012387F82F3097F82F301846303705
:10046000BD4680BD0010024083DE1B438400002097
:10047000002C01400400002080B400AF00BFFDE765
:1004800080B400AF00BFFDE780B400AF00BFFDE760
:1004900080B400AF00BFFDE780B400AF00BFFDE750
:1004A00080B400AF00BFBD4680BC704780B500AFD0
:1004B000024800F0C1FF00BF80BD00BF84000020E3
:1004C00080B400AF00BFBD4680BC7047FFF7F8FFA7
:1004D0000B480C490C4A002302E0D458C4500433A2
:1004E000C4188C42F9D3094A094C002301E0136077
:1004F0000432A242FBD303F0E5FDFFF729FE70476B
:100500000000002060000020504200086000002031
:10051000F41B0020FEE7000080B500AF084B1B680D
:10052000074A43F010031360032000F0D1F80F20B6
:10053000FFF730FFFFF7F6FE0023184680BD00BF2F
:100540000020024080B400AF054B1B781A46054BD3
:100550001B681344034A136000BFBD4680BC70474C
:1005600008000020CC00002080B400AF024B1B68C4
:100570001846BD4680BC7047CC00002080B485B0D2
:1005800000AF78607B6803F00703FB600C4BDB680F
:10059000BB60BA684FF6FF031340BB60FB681A02EA
:1005A000BB68134343F0BF6343F40033BB60044AAA
:1005B000BB68D36000BF1437BD4680BC704700BF26
:1005C00000ED00E080B400AF044BDB681B0A03F0D1
:1005D00007031846BD4680BC704700BF00ED00E031
:1005E00080B483B000AF0346FB7197F90730002B4E
:1005F0000BDBFB7903F01F02064997F907305B0913
:10060000012000FA02F241F8232000BF0C37BD465A
:1006100080BC704700E100E080B483B000AF0346C7
:100620003960FB7197F90730002B0ADB3B68DAB2BF
:100630000C4997F907301201D2B20B4483F800231A
:100640000AE03B68DAB20849FB7903F00F03043B88
:100650001201D2B20B441A7600BF0C37BD4680BCE3
:10066000704700BF00E100E000ED00E080B489B019
:1006700000AFF860B9607A60FB6803F00703FB61C4
:10068000FB69C3F10703042B28BF0423BB61FB698B
:100690000433062B02D9FB69033B00E000237B6196
:1006A0004FF0FF32BB6902FA03F3DA43BB681A402A
:1006B0007B699A404FF0FF317B6901FA03F3D9431C
:1006C0007B680B40134318462437BD4680BC7047F7
:1006D00080B582B000AF78607868FFF74FFF00BF49
:1006E0000837BD4680BD80B586B000AF0346B9600F
:1006F0007A60FB7300237B61FFF764FF78617A689F
:10070000B9687869FFF7B2FF024697F90F301146D2
:100710001846FFF781FF00BF1837BD4680BD80B582
:1007200082B000AF0346FB7197F907301846FFF718
:1007300057FF00BF0837BD4680BD000080B48BB0B6
:1007400000AF7860396000237B6200233B6261E187
:1007500001227B6A02FA03F3FB613B681B68FA69BA
:100760001340BB61BA69FB699A4240F050813B6813
:100770005B68974A93425ED0954A934275D8954AF2
:10078000934258D0934A93426FD8934A934252D09F
:10079000914A934269D8914A93424CD08F4A9342EE
:1007A00063D88F4A934246D08D4A93425DD8122B2C
:1007B0002AD8122B59D801A252F823F03708000882
:1007C0001108000823080008650800086B080008E5
:1007D0006B0800086B0800086B0800086B0800082D
:1007E0006B0800086B0800086B0800086B0800081D
:1007F0006B0800086B0800086B0800086B0800080D
:10080000190800082D080008764A934213D02CE0FE
:100810003B68DB683B6229E03B68DB6804333B6292
:1008200024E03B68DB6808333B621FE03B68DB6821
:100830000C333B621AE03B689B68002B02D1042317
:100840003B6213E03B689B68012B05D108233B62A8
:100850007B68FA691A6109E008233B627B68FA69E0
:100860005A6103E000233B6200E000BFBB69FF2B3D
:1008700001D87B6801E07B6804337B61BB69FF2B97
:1008800002D87B6A9B0002E07B6A083B9B003B61CD
:100890007B691A680F213B6901FA03F3DB431A40B5
:1008A000396A3B6901FA03F31A437B691A603B68B2
:1008B0005B6803F08053002B00F0A9804A4B9B69D2
:1008C000494A43F001039361474B9B6903F00103DD
:1008D000BB60BB68454A7B6A9B08023352F82330F1
:1008E000FB607B6A03F003039B000F2202FA03F311
:1008F000DB43FA681340FB607B683D4A93420DD0AE
:100900007B683C4A934207D07B683B4A934201D1C3
:10091000022304E0032302E0012300E000237A6ABB
:1009200002F0030292009340FA681343FB602F49E0
:100930007B6A9B080233FA6841F823203B685B68B6
:1009400003F48013002B06D02C4B9A682B49BB690B
:1009500013438B6006E0294B9A68BB69DB43274948
:1009600013408B603B685B6803F40013002B06D0D8
:10097000224BDA682149BB691343CB6006E01F4B69
:10098000DA68BB69DB431D491340CB603B685B6899
:1009900003F40033002B06D0184B5A681749BB6983
:1009A00013434B6006E0154B5A68BB69DB431349A0
:1009B00013404B603B685B6803F48033002B1FD00F
:1009C0000E4B1A680D49BB6913430B601FE000BF53
:1009D0000000321000003110000022100000211031
:1009E0000000121000001110001002400000014031
:1009F00000080140000C01400010014000040140CB
:100A00000B4B1A68BB69DB43094913400B607B6AD7
:100A100001337B623B681A687B6A22FA03F3002B7E
:100A20007FF496AE00BF00BF2C37BD4680BC704738
:100A30000004014080B483B000AF78600B467B8037
:100A400013467B707B78002B03D07A887B681A6111
:100A500003E07B881A047B681A6100BF0C37BD462F
:100A600080BC704780B485B000AF78600B467B8057
:100A70007B68DB68FB607A88FB6813401A04FB68BC
:100A8000D9437B880B401A437B681A6100BF143737
:100A9000BD4680BC7047000080B586B000AF78606E
:100AA0007B68002B01D1012372E27B681B6803F095
:100AB0000103002B00F08780924B5B6803F00C036E
:100AC000042B0CD08F4B5B6803F00C03082B12D166
:100AD0008C4B5B6803F48033B3F5803F0BD1894BBB
:100AE0001B6803F40033002B6CD07B685B68002B21
:100AF00068D101234CE27B685B68B3F5803F06D187
:100B0000804B1B687F4A43F4803313602EE07B6880
:100B10005B68002B0CD17B4B1B687A4A23F4803333
:100B20001360784B1B68774A23F4802313601DE021
:100B30007B685B68B3F5A02F0CD1724B1B68714AC0
:100B400043F4802313606F4B1B686E4A43F4803379
:100B500013600BE06B4B1B686A4A23F4803313600D
:100B6000684B1B68674A23F4802313607B685B68CB
:100B7000002B13D0FFF7F8FC386108E0FFF7F4FC16
:100B800002463B69D31A642B01D9032300E25D4B73
:100B90001B6803F40033002BF0D014E0FFF7E4FCF3
:100BA000386108E0FFF7E0FC02463B69D31A642B8A
:100BB00001D90323ECE1534B1B6803F40033002BF2
:100BC000F0D100E000BF7B681B6803F00203002B3C
:100BD00063D04C4B5B6803F00C03002B0BD0494BEC
:100BE0005B6803F00C03082B1CD1464B5B6803F4D5
:100BF0008033002B16D1434B1B6803F00203002BFC
:100C000005D07B681B69012B01D00123C0E13D4B5E
:100C10001B6823F0F8027B685B69DB0039491343EA
:100C20000B603AE07B681B69002B20D0364B012219
:100C30001A60FFF799FC386108E0FFF795FC02465F
:100C40003B69D31A022B01D90323A1E12D4B1B6869
:100C500003F00203002BF0D02A4B1B6823F0F802AC
:100C60007B685B69DB00274913430B6015E0264B6B
:100C700000221A60FFF778FC386108E0FFF774FC87
:100C800002463B69D31A022B01D9032380E11D4B95
:100C90001B6803F00203002BF0D17B681B6803F094
:100CA0000803002B3AD07B689B69002B19D0174BA7
:100CB00001221A60FFF758FC386108E0FFF754FC86
:100CC00002463B69D31A022B01D9032360E10D4B85
:100CD0005B6A03F00203002BF0D0012000F0EAFA77
:100CE0001CE00A4B00221A60FFF73EFC38610FE05F
:100CF000FFF73AFC02463B69D31A022B08D90323BB
:100D000046E100BF0010024000004242800442421F
:100D1000924B5B6A03F00203002BE9D17B681B68EE
:100D200003F00403002B00F0A6800023FB758B4B1F
:100D3000DB6903F08053002B0DD1884BDB69874AB8
:100D400043F08053D361854BDB6903F08053BB6074
:100D5000BB680123FB75824B1B6803F48073002B77
:100D600018D17F4B1B687E4A43F480731360FFF7F2
:100D7000FBFB386108E0FFF7F7FB02463B69D31A3B
:100D8000642B01D9032303E1754B1B6803F48073C3
:100D9000002BF0D07B68DB68012B06D16F4B1B6A00
:100DA0006E4A43F0010313622DE07B68DB68002B81
:100DB0000CD16A4B1B6A694A23F001031362674B2B
:100DC0001B6A664A23F0040313621CE07B68DB683D
:100DD000052B0CD1614B1B6A604A43F0040313627C
:100DE0005E4B1B6A5D4A43F0010313620BE05B4BF1
:100DF0001B6A5A4A23F001031362584B1B6A574A75
:100E000023F0040313627B68DB68002B15D0FFF727
:100E1000ABFB38610AE0FFF7A7FB02463B69D31A38
:100E200041F28832934201D90323B1E04B4B1B6A54
:100E300003F00203002BEED014E0FFF795FB3861BE
:100E40000AE0FFF791FB02463B69D31A41F2883270
:100E5000934201D903239BE0404B1B6A03F002033A
:100E6000002BEED1FB7D012B05D13C4BDB693B4ACE
:100E700023F08053D3617B68DB69002B00F087800F
:100E8000364B5B6803F00C03082B61D07B68DB6991
:100E9000022B46D1334B00221A60FFF765FB386105
:100EA00008E0FFF761FB02463B69D31A022B01D928
:100EB00003236DE0294B1B6803F00073002BF0D176
:100EC0007B681B6AB3F5803F08D1244B5B6823F431
:100ED00000327B689B68214913434B601F4B5B6862
:100EE00023F474127B68196A7B685B6A0B431B49A5
:100EF00013434B601B4B01221A60FFF735FB38612F
:100F000008E0FFF731FB02463B69D31A022B01D9F7
:100F100003233DE0114B1B6803F00073002BF0D05E
:100F200035E0104B00221A60FFF71EFB386108E025
:100F3000FFF71AFB02463B69D31A022B01D90323A0
:100F400026E0064B1B6803F00073002BF0D11EE077
:100F50007B68DB69012B07D1012319E000100240F7
:100F600000700040600042420B4B5B68FB60FB6816
:100F700003F480327B681B6A9A4206D1FB6803F453
:100F800070127B685B6A9A4201D0012300E0002363
:100F900018461837BD4680BD0010024080B584B0A9
:100FA00000AF786039607B68002B01D10123D0E06D
:100FB0006A4B1B6803F007033A689A4210D9674BE3
:100FC0001B6823F0070265493B6813430B60634BC2
:100FD0001B6803F007033A689A4201D00123B8E086
:100FE0007B681B6803F00203002B20D07B681B6822
:100FF00003F00403002B05D0594B5B68584A43F4B7
:10100000E06353607B681B6803F00803002B05D086
:10101000534B5B68524A43F460535360504B5B68D8
:1010200023F0F0027B689B684D4913434B607B685B
:101030001B6803F00103002B40D07B685B68012B29
:1010400007D1474B1B6803F40033002B15D1012354
:101050007FE07B685B68022B07D1414B1B6803F084
:101060000073002B09D1012373E03D4B1B6803F093
:101070000203002B01D101236BE0394B5B6823F0A5
:1010800003027B685B68364913434B60FFF76CFAD9
:10109000F8600AE0FFF768FA0246FB68D31A41F2EB
:1010A0008832934201D9032353E02D4B5B6803F050
:1010B0000C027B685B689B009A42EBD1274B1B6854
:1010C00003F007033A689A4210D2244B1B6823F0BE
:1010D000070222493B6813430B60204B1B6803F057
:1010E00007033A689A4201D0012332E07B681B680B
:1010F00003F00403002B08D0194B5B6823F4E06273
:101100007B68DB68164913434B607B681B6803F000
:101110000803002B09D0124B5B6823F460527B68F4
:101120001B69DB000E4913434B6000F021F80246B7
:101130000B4B5B681B0903F00F030A49CB5C22FAD7
:1011400003F3094A1360094B1B681846FFF722F99D
:10115000002318461037BD4680BD00BF0020024066
:10116000001002401C420008000000200400002083
:1011700080B487B000AF0023FB600023BB60002376
:101180007B6100237B6000233B611E4B5B68FB603F
:10119000FB6803F00C03042B02D0082B03D027E0DC
:1011A000194B3B6127E0FB689B0C03F00F03174AC8
:1011B000D35C7B60FB6803F48033002B10D0114BB1
:1011C0005B685B0C03F00103114AD35CBB607B6876
:1011D0000D4A03FB02F2BB68B2FBF3F37B6104E050
:1011E0007B680C4A02FB03F37B617B693B6102E095
:1011F000054B3B6100BF3B6918461C37BD4680BCB0
:10120000704700BF0010024000127A00344200080C
:101210004442000800093D0080B400AF024B1B6847
:101220001846BD4680BC70470000002080B500AF66
:10123000FFF7F2FF0246054B5B68DB0A03F007038A
:101240000349CB5C22FA03F3184680BD001002402C
:101250002C42000880B483B000AF786039607B68AE
:101260000F221A60114B5B6803F003027B685A601F
:101270000E4B5B6803F0F0027B689A600B4B5B6877
:1012800003F4E0627B68DA60084B5B68DB0803F418
:10129000E0627B681A61064B1B6803F007023B683B
:1012A0001A6000BF0C37BD4680BC7047001002407A
:1012B0000020024080B485B000AF78600A4B1B6804
:1012C0000A4AA2FB03235B0A7A6802FB03F3FB6072
:1012D00000BFFB685A1EFA60002BF9D100BF00BFA7
:1012E0001437BD4680BC704700000020D34D62100B
:1012F00080B582B000AF78607B68002B01D10123FC
:1013000041E07B6893F83D30DBB2002B06D17B686F
:10131000002283F83C20786800F039F87B680222CC
:1013200083F83D207B681A687B68043319461046B1
:1013300000F096F97B68012283F846207B68012241
:1013400083F83E207B68012283F83F207B680122DE
:1013500083F840207B68012283F841207B680122CA
:1013600083F842207B68012283F843207B680122B6
:1013700083F844207B68012283F845207B680122A2
:1013800083F83D20002318460837BD4680BD80B451
:1013900083B000AF786000BF0C37BD4680BC70479B
:1013A00080B485B000AF78607B6893F83D30DBB2E5
:1013B000012B01D0012335E07B68022283F83D2018
:1013C0007B681B68DA687B681B6842F00102DA60A0
:1013D0007B681B68164A934209D07B681B68B3F18F
:1013E000804F04D07B681B68124A934211D17B68FE
:1013F0001B689B6803F00703FB60FB68062B10D09B
:101400007B681B681A687B681B6842F001021A60DF
:1014100007E07B681B681A687B681B6842F0010262
:101420001A60002318461437BD4680BC704700BFC1
:10143000002C01400004004080B584B000AF78600B
:101440007B681B68DB68FB607B681B681B69BB6093
:10145000BB6803F00203002B20D0FB6803F00203FB
:10146000002B1BD07B681B686FF002021A617B683F
:1014700001221A777B681B689B6903F00303002B2A
:1014800003D0786800F0D1F805E0786800F0C4F87F
:10149000786800F0D3F87B6800221A77BB6803F005
:1014A0000403002B20D0FB6803F00403002B1BD0A7
:1014B0007B681B686FF004021A617B6802221A774E
:1014C0007B681B689B6903F44073002B03D078682A
:1014D00000F0ABF805E0786800F09EF8786800F05E
:1014E000ADF87B6800221A77BB6803F00803002B75
:1014F00020D0FB6803F00803002B1BD07B681B681F
:101500006FF008021A617B6804221A777B681B68F7
:10151000DB6903F00303002B03D0786800F085F843
:1015200005E0786800F078F8786800F087F87B6864
:1015300000221A77BB6803F01003002B20D0FB6851
:1015400003F01003002B1BD07B681B686FF01002A8
:101550001A617B6808221A777B681B68DB6903F4D1
:101560004073002B03D0786800F05FF805E07868DE
:1015700000F052F8786800F061F87B6800221A7772
:10158000BB6803F00103002B0CD0FB6803F00103E0
:10159000002B07D07B681B686FF001021A61786826
:1015A000FEF7A8FEBB6803F08003002B0CD0FB689D
:1015B00003F08003002B07D07B681B686FF080026C
:1015C0001A61786800F0B9F8BB6803F04003002B9B
:1015D0000CD0FB6803F04003002B07D07B681B682E
:1015E0006FF040021A61786800F031F8BB6803F0D0
:1015F0002003002B0CD0FB6803F02003002B07D046
:101600007B681B686FF020021A61786800F08CF824
:1016100000BF1037BD4680BD80B483B000AF786096
:1016200000BF0C37BD4680BC704780B483B000AFAC
:10163000786000BF0C37BD4680BC704780B483B073
:1016400000AF786000BF0C37BD4680BC704780B4E7
:1016500083B000AF786000BF0C37BD4680BC7047D8
:1016600080B485B000AF786039607B681B68FB6030
:101670007B682B4A934207D07B68B3F1804F03D03D
:101680007B68284A934208D1FB6823F07003FB6013
:101690003B685B68FA681343FB607B68204A9342AF
:1016A00007D07B68B3F1804F03D07B681D4A93421B
:1016B00008D1FB6823F44073FB603B68DB68FA6881
:1016C0001343FB60FB6823F080023B685B691343B4
:1016D000FB607B68FA681A603B689A687B68DA622C
:1016E0003B681A687B689A627B680D4A934203D113
:1016F0003B681A697B681A637B6801225A617B68C0
:101700001B6903F00103002B05D07B681B6923F0E4
:1017100001027B681A6100BF1437BD4680BC704768
:10172000002C01400004004080B483B000AF78601A
:1017300000BF0C37BD4680BC704780B483B000AF9B
:10174000786000BF0C37BD4680BC704780B500AFE5
:10175000054B1B6801F038FC0346012B01D002F059
:10176000DBF900BF80BD00BF10E000E080B485B0B1
:1017700000AFF860B9607A60FB68064A1A60BB681F
:10178000054A1A607B6880221A6000BF1437BD4684
:1017900080BC7047D00000207801002080B485B064
:1017A00000AFF860B9607A60FB68074A1A60BB68EE
:1017B000064A1A607B684FF480721A6000BF1437C3
:1017C000BD4680BC704700BF780300202004002085
:1017D00080B483B000AF78607B6803F108027B6857
:1017E0005A607B684FF0FF329A607B6803F1080211
:1017F0007B68DA607B6803F108027B681A617B68AA
:1018000000221A6000BF0C37BD4680BC704780B410
:1018100083B000AF78607B6800221A6100BF0C378C
:10182000BD4680BC704780B485B000AF7860396039
:101830007B685B68FB603B68FA685A60FB689A6883
:101840003B689A60FB689B683A685A60FB683A6834
:101850009A603B687A681A617B681B685A1C7B68CF
:101860001A6000BF1437BD4680BC704780B485B095
:1018700000AF786039603B681B68BB60BB68B3F140
:10188000FF3F03D17B681B69FB600CE07B6808337A
:10189000FB6002E0FB685B68FB60FB685B681B68E1
:1018A000BA689A42F6D2FB685A683B685A603B684D
:1018B0005B683A689A603B68FA689A60FB683A68C5
:1018C0005A603B687A681A617B681B685A1C7B689F
:1018D0001A6000BF1437BD4680BC704780B485B025
:1018E00000AF78607B681B69FB607B685B687A6827
:1018F00092689A607B689B687A6852685A60FB6855
:101900005B687A689A4203D17B689A68FB685A6080
:101910007B6800221A61FB681B685A1EFB681A600C
:10192000FB681B6818461437BD4680BC7047000032
:1019300080B584B000AF786039607B68FB60FB687D
:10194000002B0BD14FF0500383F31188BFF36F8F3F
:10195000BFF34F8FBB6000BF00BFFDE702F05EF832
:10196000FB681A68FB68DB6BF968096C01FB03F321
:101970001A44FB689A60FB6800229A63FB681A6845
:10198000FB685A60FB681A68FB68DB6B013BF9680F
:10199000096C01FB03F31A44FB68DA60FB68FF2261
:1019A00083F84420FB68FF2283F845203B68002B26
:1019B00014D1FB681B69002B1AD0FB681033184642
:1019C00001F03CF90346002B12D00D4B4FF0805232
:1019D0001A60BFF34F8FBFF36F8F09E0FB681033BE
:1019E0001846FFF7F5FEFB6824331846FFF7F0FEB4
:1019F00002F044F8012318461037BD4680BD00BFF1
:101A000004ED00E080B58EB002AFF860B9607A6096
:101A10003B60FB68002B0BD14FF0500383F3118820
:101A2000BFF36F8FBFF34F8FBB6200BF00BFFDE7F7
:101A30003B68002B0BD14FF0500383F31188BFF3A9
:101A40006F8FBFF34F8F7B6200BF00BFFDE77B68E6
:101A5000002B02D0BB68002B01D0012300E0002343
:101A6000002B0BD14FF0500383F31188BFF36F8F1E
:101A7000BFF34F8F3B6200BF00BFFDE77B68002BC9
:101A800002D1BB68002B01D1012300E00023002B11
:101A90000BD14FF0500383F31188BFF36F8FBFF367
:101AA0004F8FFB6100BF00BFFDE750237B617B6967
:101AB000502B0BD04FF0500383F31188BFF36F8F7F
:101AC000BFF34F8FBB6100BF00BFFDE77B693B6881
:101AD000FB62FB6A002B0DD0FB6A012283F84620D3
:101AE00097F83820FB6A009313467A68B968F8685B
:101AF00000F005F8FB6A18463037BD4680BD80B55A
:101B000084B000AFF860B9607A60FB70BB68002BEE
:101B100003D1BB69BA691A6002E0BB697A681A60CE
:101B2000BB69FA68DA63BB69BA681A640121B869EB
:101B3000FFF7FEFEBB69FA7883F84C2000BF103730
:101B4000BD4680BD80B58EB000AFF860B9607A60E8
:101B50003B6000237B63FB683B633B6B002B0BD13B
:101B60004FF0500383F31188BFF36F8FBFF34F8F94
:101B7000BB6200BF00BFFDE7BB68002B03D13B6B1E
:101B80001B6C002B01D1012300E00023002B0BD1A3
:101B90004FF0500383F31188BFF36F8FBFF34F8F64
:101BA0007B6200BF00BFFDE73B68022B03D13B6BAC
:101BB000DB6B012B01D1012300E00023002B0BD1B3
:101BC0004FF0500383F31188BFF36F8FBFF34F8F34
:101BD0003B6200BF00BFFDE701F0F6F90346002BB2
:101BE00002D17B68002B01D1012300E00023002BF0
:101BF0000BD14FF0500383F31188BFF36F8FBFF306
:101C00004F8FFB6100BF00BFFDE701F007FF3B6B9B
:101C10009A6B3B6BDB6B9A4202D33B68022B29D158
:101C20003A68B968386B00F00FFAF8623B6B5B6A90
:101C3000002B10D03B6B2433184600F0FFFF034607
:101C4000002B13D03F4B4FF080521A60BFF34F8FE1
:101C5000BFF36F8F0AE0FB6A002B07D0394B4FF0C0
:101C600080521A60BFF34F8FBFF36F8F01F006FFF2
:101C7000012363E07B68002B03D101F0FFFE00230A
:101C80005CE07B6B002B06D107F11403184601F0D2
:101C900039F801237B6301F0F1FE00F0A5FD01F0AE
:101CA000BDFE3B6B93F844305BB2B3F1FF3F03D111
:101CB0003B6B002283F844203B6B93F845305BB2CA
:101CC000B3F1FF3F03D13B6B002283F8452001F0C5
:101CD000D5FE3A1D07F114031146184601F028F805
:101CE0000346002B24D1386B00F0A6FA0346002BE4
:101CF00018D03B6B10337A681146184600F04CFF41
:101D0000386B00F031FA00F07DFD0346002B7FF4C4
:101D10007CAF0C4B4FF080521A60BFF34F8FBFF374
:101D20006F8F72E7386B00F01FFA00F06BFD6CE705
:101D3000386B00F019FA00F065FD002318463837BB
:101D4000BD4680BD04ED00E080B590B000AFF86006
:101D5000B9607A603B60FB68BB63BB6B002B0BD147
:101D60004FF0500383F31188BFF36F8FBFF34F8F92
:101D7000BB6200BF00BFFDE7BB68002B03D1BB6B9C
:101D80001B6C002B01D1012300E00023002B0BD1A1
:101D90004FF0500383F31188BFF36F8FBFF34F8F62
:101DA0007B6200BF00BFFDE73B68022B03D1BB6B2A
:101DB000DB6B012B01D1012300E00023002B0BD1B1
:101DC0004FF0500383F31188BFF36F8FBFF34F8F32
:101DD0003B6200BF00BFFDE701F0E2FEEFF31182BE
:101DE0004FF0500383F31188BFF36F8FBFF34F8F12
:101DF000FA61BB61FB697B63BB6B9A6BBB6BDB6B93
:101E00009A4202D33B68022B2FD1BB6B93F845302B
:101E100087F83330BB6B9B6BFB623A68B968B86B71
:101E200000F012F997F93330B3F1FF3F12D1BB6BD9
:101E30005B6A002B16D0BB6B2433184600F0FEFE05
:101E40000346002B0ED07B68002B0BD07B68012251
:101E50001A6007E097F833300133DBB25AB2BB6B3C
:101E600083F845200123FB6301E00023FB637B6BC8
:101E70007B617B6983F3118800BFFB6B1846403799
:101E8000BD4680BD80B58CB000AFF860B9607A60A7
:101E90000023FB62FB68BB62BB6A002B0BD14FF0D7
:101EA000500383F31188BFF36F8FBFF34F8F3B62F3
:101EB00000BF00BFFDE7BB68002B03D1BB6A1B6CF2
:101EC000002B01D1012300E00023002B0BD14FF0A8
:101ED000500383F31188BFF36F8FBFF34F8FFB6104
:101EE00000BF00BFFDE701F06FF80346002B02D1F1
:101EF0007B68002B01D1012300E00023002B0BD1D4
:101F00004FF0500383F31188BFF36F8FBFF34F8FF0
:101F1000BB6100BF00BFFDE701F080FDBB6A9B6BAA
:101F20007B627B6A002B1FD0B968B86A00F0F6F8B4
:101F30007B6A5A1EBB6A9A63BB6A1B69002B0FD06F
:101F4000BB6A1033184600F079FE0346002B07D019
:101F50003C4B4FF080521A60BFF34F8FBFF36F8F2F
:101F600001F08CFD012369E07B68002B03D101F0B7
:101F700085FD002362E0FB6A002B06D107F1100308
:101F8000184600F0BFFE0123FB6201F077FD00F070
:101F90002BFC01F043FDBB6A93F844305BB2B3F114
:101FA000FF3F03D1BB6A002283F84420BB6A93F849
:101FB00045305BB2B3F1FF3F03D1BB6A002283F827
:101FC000452001F05BFD3A1D07F11003114618464C
:101FD00000F0AEFE0346002B23D1B86A00F016F9DC
:101FE0000346002B17D0BB6A24337A681146184683
:101FF00000F0D2FDB86A00F0B7F800F003FC034629
:10200000002B89D10F4B4FF080521A60BFF34F8FD6
:10201000BFF36F8F80E7B86A00F0A6F800F0F2FB1C
:102020007AE7B86A00F0A0F800F0ECFBB86A00F0BC
:10203000EDF80346002B3FF46FAF0023184630370E
:10204000BD4680BD04ED00E080B586B000AFF8600D
:10205000B9607A6000237B61FB689B6B3B61FB6826
:102060001B6C002B0DD1FB681B68002B4DD1FB684E
:102070009B68184600F0C6FF7861FB6800229A60F2
:1020800043E07B68002B19D1FB685868FB681B6C28
:102090001A46B96802F03CF8FB685A68FB681B6C8A
:1020A0001A44FB685A60FB685A68FB689B689A424E
:1020B0002BD3FB681A68FB685A6026E0FB68D86877
:1020C000FB681B6C1A46B96802F022F8FB68DA68F4
:1020D000FB681B6C5B421A44FB68DA60FB68DA68D9
:1020E000FB681B689A4207D2FB689A68FB681B6C06
:1020F0005B421A44FB68DA607B68022B05D13B69BE
:10210000002B02D03B69013B3B613B695A1CFB68D9
:102110009A637B6918461837BD4680BD80B582B08A
:1021200000AF786039607B681B6C002B18D07B682F
:10213000DA687B681B6C1A447B68DA607B68DA6853
:102140007B689B689A4203D37B681A687B68DA6075
:102150007B68D9687B681B6C1A46386801F0D8FF29
:1021600000BF0837BD4680BD80B584B000AF786041
:1021700001F054FC7B6893F84530FB7311E07B68F9
:102180005B6A002B12D07B682433184600F056FDA2
:102190000346002B01D000F02FFEFB7B013BDBB29E
:1021A000FB7397F90F30002BE9DC00E000BF7B6880
:1021B000FF2283F8452001F061FC01F02FFC7B68D1
:1021C00093F84430BB7311E07B681B69002B12D07D
:1021D0007B681033184600F031FD0346002B01D018
:1021E00000F00AFEBB7B013BDBB2BB7397F90E30FC
:1021F000002BE9DC00E000BF7B68FF2283F844206D
:1022000001F03CFC00BF1037BD4680BD80B584B0F6
:1022100000AF786001F002FC7B689B6B002B02D161
:102220000123FB6001E00023FB6001F027FCFB6859
:1022300018461037BD4680BD80B584B000AF7860C9
:1022400001F0ECFB7B689A6B7B68DB6B9A4202D1F6
:102250000123FB6001E00023FB6001F00FFCFB6841
:1022600018461037BD4680BD80B485B000AF786099
:1022700039600023FB6014E00E4AFB6852F83330EB
:10228000002B0BD10B49FB683A6841F83320094A0F
:10229000FB68DB0013447A685A6006E0FB68013390
:1022A000FB60FB68072BE7D900BF00BF1437BD46B2
:1022B00080BC70472008002080B586B000AFF86071
:1022C000B9607A60FB687B6101F0A8FB7B6993F8D9
:1022D00044305BB2B3F1FF3F03D17B69002283F846
:1022E00044207B6993F845305BB2B3F1FF3F03D1E3
:1022F0007B69002283F8452001F0C0FB7B699B6B62
:10230000002B06D17B6924337A68B968184600F03F
:1023100069FC7869FFF728FF00BF1837BD4680BD0C
:1023200080B58EB004AFF860B9607A603B607B6BBB
:10233000002B0BD14FF0500383F31188BFF36F8F45
:10234000BFF34F8F3B6200BF00BFFDE7BB6B002BAD
:102350000BD14FF0500383F31188BFF36F8FBFF39E
:102360004F8FFB6100BF00BFFDE7A8233B613B69C6
:10237000A82B0BD04FF0500383F31188BFF36F8F5E
:10238000BFF34F8FBB6100BF00BFFDE73B69BB6B75
:10239000002B1ED07B6B002B1BD0BB6B7B627B6A40
:1023A0007A6B1A637B6A022283F8A52000230393C9
:1023B0007B6A029307F1140301933B6B00933B6824
:1023C0007A68B968F86800F051F8786A00F0F6F8B1
:1023D00001E000237B617B6918462837BD4680BD3C
:1023E00080B58CB004AFF860B9603B601346FB80E9
:1023F000FB889B00184601F013FC78617B69002B79
:102400000ED0A82001F00CFCF861FB69002B03D072
:10241000FB697A691A6305E0786901F0CFFC01E095
:102420000023FB61FB69002B17D0FB69002283F8B6
:10243000A520FA8800230393FB690293FB6A0193AA
:10244000BB6A00933B68B968F86800F00FF8F86958
:1024500000F0B4F80123BB6102E04FF0FF33BB6131
:10246000BB6918462037BD4680BD000080B588B0E6
:1024700000AFF860B9607A603B603B6B186B7B68BB
:102480009B001A46A52101F0B7FD3B6B1A6B7B68D8
:1024900003F18043013B9B001344BB61BB6923F004
:1024A0000703BB61BB6903F00703002B0BD04FF0A0
:1024B000500383F31188BFF36F8FBFF34F8F7B619E
:1024C00000BF00BFFDE7BB68002B1FD00023FB61EE
:1024D00012E0BA68FB69134419783A6BFB6913443C
:1024E00034330A461A70BA68FB6913441B78002B10
:1024F00006D0FB690133FB61FB690F2BE9D900E0D2
:1025000000BF3B6B002283F8432003E03B6B0022BB
:1025100083F83420BB6A372B01D93723BB623B6B6E
:10252000BA6ADA623B6BBA6ADA643B6B00221A65FC
:102530003B6B04331846FFF76AF93B6B18331846B8
:10254000FFF765F93B6B3A6B1A61BB6AC3F138025E
:102550003B6B9A613B6B3A6B5A623B6B0022C3F850
:10256000A0203B6B002283F8A4203B6B54334C2209
:102570000021184601F040FD3B6B0D4A9A653B6B0C
:102580000C4ADA653B6B0C4A1A663A68F968B86916
:1025900001F054F902463B6B1A60FB6A002B02D033
:1025A000FB6A3A6B1A6000BF2037BD4680BD00BF92
:1025B000B41A00201C1B0020841B002080B582B0B0
:1025C00000AF786001F02AFA2D4B1B6801332C4ACA
:1025D00013602C4B1B68002B09D12A4A7B681360BF
:1025E000274B1B68012B10D100F02AFC0DE0264B75
:1025F0001B68002B09D1234B1B68DA6A7B68DB6AF6
:102600009A4202D81F4A7B681360204B1B68013333
:102610001E4A13601D4B1A687B685A647B68DA6A2D
:102620001B4B1B689A4203D97B68DB6A184A13600C
:102630007B68DA6A13469B0013449B00154A1A44D0
:102640007B68043319461046FFF7EDF801F016FADF
:102650000D4B1B68002B0ED00A4B1B68DA6A7B6897
:10266000DB6A9A4207D20C4B4FF080521A60BFF3DC
:102670004F8FBFF36F8F00BF0837BD4680BD00BFCF
:10268000340D002060080020400D0020500D002077
:102690003C0D00206408002004ED00E080B584B00B
:1026A00000AF78600023FB607B68002B18D0144BD0
:1026B0001B68002B0BD04FF0500383F31188BFF33E
:1026C0006F8FBFF34F8FBB6000BF00BFFDE700F00F
:1026D0008BF80021786800F005FD00F093F8F860B1
:1026E000FB68002B07D1074B4FF080521A60BFF3F5
:1026F0004F8FBFF36F8F00BF1037BD4680BD00BF47
:102700005C0D002004ED00E080B58AB004AF00232A
:10271000BB6000237B603A46391D07F10803184669
:10272000FFF724F839687B68BA68029201930023A6
:10273000009300230A4624492448FFF7F1FD03468D
:10274000234A1360224B1B68002B02D001237B61BC
:1027500001E000237B617B69012B02D100F016FDB3
:1027600078617B69012B1BD14FF0500383F31188F3
:10277000BFF36F8FBFF34F8F3B6100BF154B1B68DB
:102780005433154A1360154B4FF0FF321A60144B47
:1027900001221A60134B00221A6001F0CDF80FE0FD
:1027A0007B69B3F1FF3F0BD14FF0500383F31188E6
:1027B000BFF36F8FBFF34F8FFB6000BF00BFFDE71C
:1027C00000BF1837BD4680BD04420008112E000826
:1027D000580D00206008002010000020540D00203B
:1027E000400D0020380D002080B400AF044B1B6862
:1027F0000133034A136000BFBD4680BC704700BF71
:102800005C0D002080B584B000AF0023FB60002386
:10281000BB60424B1B68002B0BD14FF0500383F37E
:102820001188BFF36F8FBFF34F8F3B6000BF00BFB6
:10283000FDE701F0F3F8394B1B68013B374A1360A1
:10284000364B1B68002B62D1354B1B68002B5ED0CA
:102850002FE0344BDB68DB68FB60FB6818331846FD
:10286000FFF73CF8FB6804331846FFF737F8FB68BE
:10287000DA6A2D4B1B689A4203D9FB68DB6A2A4A45
:102880001360FB68DA6A13469B0013449B00274AD7
:102890001A44FB68043319461046FEF7C4FFFB6870
:1028A000DA6A234B1B68DB6A9A4202D3214B01226E
:1028B0001A601C4B1B68002BCBD1FB68002B01D08E
:1028C00000F062FB1C4B1B687B607B68002B10D008
:1028D00000F044F80346002B02D0164B01221A6088
:1028E0007B68013B7B607B68002BF1D1124B00229F
:1028F0001A60104B1B68002B09D00123BB600F4BE3
:102900004FF080521A60BFF34F8FBFF36F8F01F00B
:10291000B5F8BB6818461037BD4680BD5C0D002079
:10292000340D0020F40C00203C0D00206408002031
:1029300060080020480D0020440D002004ED00E058
:1029400080B483B000AF044B1B687B607B68184683
:102950000C37BD4680BC7047380D002080B586B06E
:1029600000AF00237B614F4B1B68002B40F0908031
:102970004D4B1B6801333B614B4A3B6913603B691C
:10298000002B21D1494B1B681B68002B0BD04FF04B
:10299000500383F31188BFF36F8FBFF34F8F3B60FA
:1029A00000BF00BFFDE7414B1B68FB60404B1B684D
:1029B0003E4A13603E4AFB6813603E4B1B6801337E
:1029C0003C4A136000F0E0FA3B4B1B683A699A42BC
:1029D00049D3364B1B681B68002B04D1364B4FF094
:1029E000FF321A603FE0314B1B68DB68DB68BB607D
:1029F000BB685B687B603A697B689A4203D22E4A67
:102A00007B6813602FE0BB6804331846FEF766FF4F
:102A1000BB689B6A002B04D0BB6818331846FEF7CE
:102A20005DFFBB68DA6A254B1B689A4203D9BB6815
:102A3000DB6A224A1360BB68DA6A13469B001344C0
:102A40009B001F4A1A44BB68043319461046FEF720
:102A5000EAFEBB68DA6A1B4B1B68DB6A9A42B8D392
:102A600001237B61B5E7174B1B68DA6A14491346EB
:102A70009B0013449B000B441B68012B01D90123CD
:102A80007B61114B1B68002B07D001237B6104E0A5
:102A90000E4B1B6801330D4A13607B6918461837CB
:102AA000BD4680BD5C0D0020380D0020EC0C0020E0
:102AB000F00C00204C0D0020540D00203C0D002097
:102AC0006408002060080020480D0020440D00200C
:102AD00080B485B000AF2A4B1B68002B03D0294B74
:102AE00001221A6047E0274B00221A60264B1B6820
:102AF000FB6011E0FB68002B0BD14FF0500383F318
:102B00001188BFF36F8FBFF34F8F7B6000BF00BF93
:102B1000FDE7FB68013BFB601C49FA6813469B001C
:102B200013449B000B441B68002BE3D0FA68134648
:102B30009B0013449B00154A1344BB60BB685B6851
:102B40005A68BB685A60BB685A68BB6808339A42C7
:102B500004D1BB685B685A68BB685A60BB685B6835
:102B6000DB680B4A1360084AFB681360084B1B685C
:102B70005433084A136000BF1437BD4680BC704709
:102B80005C0D0020480D00203C0D00206408002052
:102B9000600800201000002080B584B000AF78608D
:102BA00039607B68002B0BD14FF0500383F3118801
:102BB000BFF36F8FBFF34F8FFB6000BF00BFFDE718
:102BC000074B1B68183319467868FEF74FFE012142
:102BD000386800F087FA00BF1037BD4680BD00BFDF
:102BE0006008002080B586B000AFF860B9607A60F8
:102BF000FB68002B0BD14FF0500383F31188BFF318
:102C00006F8FBFF34F8F7B6100BF00BFFDE70A4BA3
:102C10001B6818331946F868FEF705FE7B68002B21
:102C200002D04FF0FF33BB607968B86800F05AFA01
:102C300000BF1837BD4680BD6008002080B586B053
:102C400000AF78607B68DB68DB683B613B69002B29
:102C50000BD14FF0500383F31188BFF36F8FBFF395
:102C60004F8FFB6000BF00BFFDE73B69183318467C
:102C7000FEF734FE1D4B1B68002B1DD13B6904334E
:102C80001846FEF72BFE3B69DA6A194B1B689A421D
:102C900003D93B69DB6A164A13603B69DA6A13465B
:102CA0009B0013449B00134A1A443B6904331946A2
:102CB0001046FEF7B8FD05E03B69183319460E488B
:102CC000FEF7B1FD3B69DA6A0C4B1B68DB6A9A427E
:102CD00005D901237B610A4B01221A6001E0002320
:102CE0007B617B6918461837BD4680BD5C0D0020AE
:102CF0003C0D002064080020F40C00206008002037
:102D0000480D002080B483B000AF7860064B1A688D
:102D10007B681A60054B1A687B685A6000BF0C37E5
:102D2000BD4680BC704700BF4C0D0020380D002010
:102D300080B588B000AF786039607B68002B0BD11C
:102D40004FF0500383F31188BFF36F8FBFF34F8FA2
:102D50003B6100BF00BFFDE73B68002B0BD14FF08C
:102D6000500383F31188BFF36F8FBFF34F8FFB6066
:102D700000BF00BFFDE700F051FE1D4B1B68BB61AB
:102D80007B685B68BA69D31A7B613B681B68B3F1E7
:102D9000FF3F02D10023FB6123E07B681A68154BDB
:102DA0001B689A4207D07B685B68BA699A4202D373
:102DB0000123FB6115E03B681B687A699A420BD2DC
:102DC0003B681A687B69D21A3B681A607868FFF71B
:102DD00099FF0023FB6104E03B6800221A60012395
:102DE000FB6100F04BFEFB6918462037BD4680BDF5
:102DF000380D00204C0D002080B400AF034B0122A1
:102E00001A6000BFBD4680BC704700BF480D00205F
:102E100080B582B000AF786000F052F8064B1B68B6
:102E2000012BF9D9054B4FF080521A60BFF34F8F39
:102E3000BFF36F8FF0E700BF6408002004ED00E0EF
:102E400080B582B000AF00237B600CE07A68134647
:102E50009B0013449B00124A13441846FEF7B8FC2B
:102E60007B6801337B607B68372BEFD90D48FEF719
:102E7000AFFC0D48FEF7ACFC0C48FEF7A9FC0C4873
:102E8000FEF7A6FC0B48FEF7A3FC0B4B054A1A60A5
:102E90000A4B054A1A6000BF0837BD4680BD00BF17
:102EA00064080020C40C0020D80C0020F40C002082
:102EB000080D0020200D0020EC0C0020F00C00205C
:102EC00080B582B000AF19E000F0A8FD104BDB68C0
:102ED000DB687B607B6804331846FEF7FFFC0D4B14
:102EE0001B68013B0B4A13600B4B1B68013B0A4AF2
:102EF000136000F0C3FD786800F010F8064B1B6803
:102F0000002BE1D100BF00BF0837BD4680BD00BF28
:102F1000080D0020340D00201C0D002080B584B069
:102F200000AF78607B685433184601F06DF87B6819
:102F300093F8A530002B08D17B681B6B184600F076
:102F40003DFF786800F03AFF19E07B6893F8A53000
:102F5000012B03D1786800F031FF10E07B6893F813
:102F6000A530022B0BD04FF0500383F31188BFF331
:102F70006F8FBFF34F8FFB6000BF00BFFDE700BF47
:102F80001037BD4680BD000080B483B000AF0C4B4D
:102F90001B681B68002B04D10A4B4FF0FF321A60EC
:102FA00008E0074B1B68DB68DB687B607B685B685D
:102FB000044A136000BF0C37BD4680BC704700BF99
:102FC000EC0C0020540D002080B483B000AF0B4BFC
:102FD0001B68002B02D101237B6008E0084B1B68B3
:102FE000002B02D102237B6001E000237B607B6821
:102FF00018460C37BD4680BC704700BF400D00200E
:103000005C0D002080B586B000AF78607B683B61C6
:1030100000237B617B68002B58D02F4B1B683A69DB
:103020009A420BD04FF0500383F31188BFF36F8F98
:10303000BFF34F8FFB6000BF00BFFDE73B691B6D17
:10304000002B0BD14FF0500383F31188BFF36F8F28
:10305000BFF34F8FBB6000BF00BFFDE73B691B6D37
:103060005A1E3B691A653B69DA6A3B69DB6C9A4216
:103070002CD03B691B6D002B28D13B6904331846CB
:10308000FEF72CFC3B69DA6C3B69DA623B69DB6A70
:10309000C3F138023B699A613B69DA6A0F4B1B68DE
:1030A0009A4203D93B69DB6A0C4A13603B69DA6ACE
:1030B00013469B0013449B00094A1A443B6904339E
:1030C00019461046FEF7AFFB01237B617B6918466A
:1030D0001837BD4680BD00BF600800203C0D0020B1
:1030E0006408002080B584B000AF78603960214B5F
:1030F0001B68FB60204B1B6804331846FEF7EEFB91
:103100007B68B3F1FF3F0AD13B68002B07D01A4B15
:103110001B68043319461948FEF785FB26E0FA6858
:103120007B681344BB60144B1B68BA685A60BA686A
:10313000FB689A4209D2124B1A680F4B1B68043382
:1031400019461046FEF792FB10E00E4B1A680A4B28
:103150001B68043319461046FEF788FB0A4B1B68B0
:10316000BA689A4202D2084ABB68136000BF10379F
:10317000BD4680BD380D002060080020200D0020D5
:10318000F00C0020EC0C0020540D002080B58AB01B
:1031900004AF00237B6100F011FB1D4B1B68002B6B
:1031A00021D00023FB600023BB603A1D07F108011A
:1031B00007F10C031846FEF7F1FA7968BB68FA6864
:1031C000029201930223009300230A4611491248F8
:1031D000FFF7A6F80346114A1360104B1B68002B3B
:1031E00001D001237B617B69002B0BD14FF0500391
:1031F00083F31188BFF36F8FBFF34F8F3B6100BF25
:1032000000BFFDE77B6918461837BD4680BD00BF8B
:10321000900D00200C42000859330008940D002046
:1032200080B58AB000AFF860B9607A603B60002377
:103230007B62FB68002B0BD14FF0500383F31188A6
:10324000BFF36F8FBFF34F8F3B6200BF00BFFDE73F
:10325000194B1B68002B2AD0BB683B617B687B61E4
:10326000FB68BB61BB68052B18DCFFF7ADFE0346AE
:10327000022B09D1104B186807F1100100233A6B9B
:10328000FEF760FC786212E00B4B186807F1100142
:1032900000230022FEF756FC786208E0064B18680F
:1032A00007F1100100233A68FEF74EFD78627B6A51
:1032B00018462837BD4680BD900D002080B588B0E7
:1032C00002AF78603960234B1B68DB68DB687B6189
:1032D0007B6904331846FEF701FB7B6993F82830BD
:1032E00003F00403002B23D07B699A697B68D11813
:1032F0007B683A68786900F0D3F80346002B20D049
:103300000023009300237A6800217869FFF788FF83
:1033100038613B69002B14D14FF0500383F31188BF
:10332000BFF36F8FBFF34F8FFB6000BF00BFFDE7A0
:103330007B6993F8283023F00103DAB27B6983F8C4
:1033400028207B691B6A7869984700BF1837BD46FB
:1033500080BD00BF880D002080B584B000AF7860CC
:1033600007F10803184600F059F8F860BB681946E1
:10337000F86800F005F800F0D5F800BFF0E70000AD
:1033800080B584B000AF78603960FFF72DFA07F19F
:103390000803184600F064F8F860BB68002B30D1D1
:1033A0003B68002B0AD17A68FB689A4206D8FFF77F
:1033B00029FAF9687868FFF781FF24E03B68002B61
:1033C00008D0134B1B681B68002B01D1012300E0C0
:1033D00000233B600F4B18687A68FB68D31A3A6881
:1033E0001946FEF769FFFFF70DFA0346002B0AD1D5
:1033F000094B4FF080521A60BFF34F8FBFF36F8FAE
:1034000001E0FFF7FFF900BF1037BD4680BD00BFE8
:103410008C0D0020900D002004ED00E080B485B0FC
:1034200000AF78600D4B1B681B68002B01D1012297
:1034300000E000227B681A607B681B68002B05D1C6
:10344000064B1B68DB681B68FB6001E00023FB6028
:10345000FB6818461437BD4680BC7047880D0020B5
:1034600080B584B000AF7860FFF76AFAF8600B4B64
:103470001B68FA689A4205D200F03AF97B6801228B
:103480001A6002E07B6800221A60044AFB6813603D
:10349000FB6818461037BD4680BD00BF980D002060
:1034A00080B586B000AFF860B9607A603B600023F9
:1034B0007B61FB68BA685A60FB68FA681A61BA688F
:1034C0007B689A4212D87A683B68D21AFB689B697B
:1034D0009A4202D301237B611BE0104B1A68FB6800
:1034E000043319461046FEF7C1F912E07A683B68CA
:1034F0009A4206D2BA683B689A4202D301237B61A2
:1035000007E0074B1A68FB68043319461046FEF7BC
:10351000ADF97B6918461837BD4680BD8C0D00207B
:10352000880D002080B58EB002AFCEE07B68002B06
:1035300019DA3B1D0433FB62FB6A002B0BD14FF001
:10354000500383F31188BFF36F8FBFF34F8FFB617D
:1035500000BF00BFFDE7FB6A1B68FA6A5068FA6AA1
:103560009268114698477B68002BC0F2AE80FB68DA
:10357000BB62BB6A5B69002B04D0BB6A043318468C
:10358000FEF7ACF93B461846FFF76AFF78627B68A6
:10359000092B00F2978001A252F823F0C5350008EC
:1035A000C5350008C53500083B3600084F36000811
:1035B0009B360008C5350008C53500083B360008B5
:1035C0004F360008BB6A93F8283043F00103DAB2A3
:1035D000BB6A83F82820BA68BB6A9B69D118BB68AC
:1035E0007A6AB86AFFF75CFF0346002B6CD0BB6AAF
:1035F0001B6AB86A9847BB6A93F8283003F0040343
:10360000002B61D0BA68BB6A9B691A4400230093FF
:1036100000230021B86AFFF703FE38623B6A002BE3
:1036200052D14FF0500383F31188BFF36F8FBFF374
:103630004F8FBB6100BF00BFFDE7BB6A93F8283026
:1036400023F00103DAB2BB6A83F828203DE0BB6AAD
:1036500093F8283043F00103DAB2BB6A83F82820DC
:10366000BA68BB6A9A61BB6A9B69002B0BD14FF0A9
:10367000500383F31188BFF36F8FBFF34F8F7B61CC
:1036800000BF00BFFDE7BB6A9A697B6AD1187B6AFD
:103690007A6AB86AFFF704FF17E0BB6A93F828302C
:1036A00003F00203002B03D1B86A00F087FB0CE0A3
:1036B000BB6A93F8283023F00103DAB2BB6A83F8BF
:1036C000282002E000BF00E000BF084B1B68391D46
:1036D00000221846FEF7D6FB0346002B7FF426AFE8
:1036E00000BF00BF3037BD4680BD00BF900D002039
:1036F00080B588B002AF49E02E4B1B68DB681B68C1
:103700003B612C4B1B68DB68DB68FB60FB680433A8
:103710001846FEF7E3F8FB681B6AF8689847FB68F1
:1037200093F8283003F00403002B2FD0FB689B692B
:103730003A691344BB60BA683B699A420ED9FB6888
:10374000BA685A60FB68FA681A611A4B1A68FB6813
:10375000043319461046FEF789F817E0002300935A
:1037600000233A690021F868FFF75AFD78607B680A
:10377000002B0BD14FF0500383F31188BFF36F8FF1
:10378000BFF34F8F3B6000BF00BFFDE7094B1B68D5
:103790001B68002BB0D1074B1B687B61064B1B6875
:1037A000044A1360044A7B69136000BF1837BD46A2
:1037B00080BD00BF880D00208C0D002080B582B038
:1037C00002AF00F02BF9154B1B68002B20D11448D9
:1037D000FDF7FEFF1348FDF7FBFF134B104A1A607D
:1037E000124B104A1A6000230093114B114A10210A
:1037F0000A20FEF707F90346084A1360074B1B68C7
:10380000002B05D0054B1B680B491846FEF72CFD15
:1038100000F034F900BFBD4680BD00BF900D002010
:10382000600D0020740D0020880D00208C0D0020FC
:103830003C0E00209C0D00201442000880B485B08E
:1038400000AFF860B9607A60FB68043BFB60FB681E
:103850004FF080721A60FB68043BFB60BB6823F08A
:103860000102FB681A60FB68043BFB60084AFB68C6
:103870001A60FB68143BFB607A68FB681A60FB689F
:10388000203BFB60FB6818461437BD4680BC704780
:103890009538000880B485B000AF00237B60124BE0
:1038A0001B68B3F1FF3F0BD04FF0500383F3118837
:1038B000BFF36F8FBFF34F8FFB6000BF00BFFDE70B
:1038C0004FF0500383F31188BFF36F8FBFF34F8F17
:1038D000BB6000BF00BF7B68002BFCD000BF00BFF7
:1038E0001437BD4680BC70470C000020000000006B
:1038F000074B19680868B0E8F00F80F30988BFF338
:103900006F8F4FF0000080F311884EF00D0E70475E
:103910006008002000BF00BF06480068006880F310
:10392000088862B661B6BFF34F8FBFF36F8F00DFB9
:1039300000BF00BF08ED00E080B584B000AF324B9F
:10394000FB60FB681B78DBB27B60FB68FF221A70B0
:10395000FB681B78DBB2FB70FB78DBB203F0500333
:10396000DAB22A4B1A702A4B07221A6009E0284B58
:103970001B68013B264A1360FB78DBB25B00DBB2BD
:10398000FB70FB78DBB203F08003802BEFD0204B81
:103990001B68C3F10703042B0BD04FF0500383F3D4
:1039A0001188BFF36F8FBFF34F8FBB6000BF00BFA5
:1039B000FDE7174B1B681B02154A1360144B1B686D
:1039C00003F4E063124A13607B68DAB2FB681A7092
:1039D000104B1B680F4A43F4700313600D4B1B68B8
:1039E0000C4A43F07043136000F0B8F80A4B002211
:1039F0001A60FFF791FFFFF76BF8FFF74BFF00230B
:103A000018461037BD4680BD00E400E08C0E002053
:103A1000900E002020ED00E00C00002080B483B068
:103A200000AF4FF0500383F31188BFF36F8FBFF3E4
:103A30004F8F7B6000BF0F4B1B6801330D4A136033
:103A40000C4B1B68012B10D10B4B1B68DBB2002BFE
:103A50000BD04FF0500383F31188BFF36F8FBFF388
:103A60004F8F3B6000BF00BFFDE700BF0C37BD4676
:103A700080BC70470C00002004ED00E080B483B0EF
:103A800000AF124B1B68002B0BD14FF0500383F398
:103A90001188BFF36F8FBFF34F8F7B6000BF00BFF4
:103AA000FDE70A4B1B68013B084A1360074B1B6884
:103AB000002B05D100233B603B6883F3118800BFD6
:103AC00000BF0C37BD4680BC704700BF0C00002013
:103AD000EFF30980BFF36F8F0D4B1A6820E9F00FE9
:103AE00010602DE908404FF0500080F31188FEF778
:103AF000EFFF4FF0000080F31188BDE8084019681F
:103B00000868B0E8F00F80F30988BFF36F8F704743
:103B10006008002000BF00BF80B582B000AF4FF04A
:103B2000500383F31188BFF36F8FBFF34F8F7B6018
:103B300000BFFEF713FF0346002B03D0064B4FF0E8
:103B400080521A6000233B603B6883F3118800BFFA
:103B500000BF0837BD4680BD04ED00E080B400AF73
:103B60000A4B00221A600A4B00221A60094B1B689C
:103B7000094AA2FB03239B09084A013B1360034B3C
:103B800007221A6000BFBD4680BC704710E000E00D
:103B900018E000E000000020D34D621014E000E0C7
:103BA00080B485B000AFEFF30583FB60FB680F2B9B
:103BB00015D9174AFB6813441B78FB72154B1B7809
:103BC000FA7A9A420BD24FF0500383F31188BFF375
:103BD0006F8FBFF34F8F7B6000BF00BFFDE70E4BC1
:103BE0001B6803F4E0620D4B1B689A420BD94FF03F
:103BF000500383F31188BFF36F8FBFF34F8F3B6088
:103C000000BF00BFFDE700BF1437BD4680BC704752
:103C1000F0E300E08C0E00200CED00E0900E0020A0
:103C200080B58AB000AF78600023FB61FEF7DCFD51
:103C30005C4B1B68002B01D100F024F95A4B1A6829
:103C40007B681340002B40F095807B68002B1ED0D2
:103C500008227B6813447B607B6803F00703002B1A
:103C600015D07B6823F0070308337B607B6803F083
:103C70000703002B0BD04FF0500383F31188BFF3E1
:103C80006F8FBFF34F8F7B6100BF00BFFDE77B6885
:103C9000002B6FD0454B1B687A689A426AD8444B18
:103CA0003B62434B1B687B6204E07B6A3B627B6A3E
:103CB0001B687B627B6A5B687A689A4203D97B6A7D
:103CC0001B68002BF1D1374B1B687A6A9A4251D09E
:103CD0003B6A1B6808221344FB617B6A1A683B6AD3
:103CE0001A607B6A5A687B68D21A08235B009A4282
:103CF00020D97A6A7B681344BB61BB6903F0070370
:103D0000002B0BD04FF0500383F31188BFF36F8F5C
:103D1000BFF34F8F3B6100BF00BFFDE77B6A5A686E
:103D20007B68D21ABB695A607B6A7A685A60B86944
:103D300000F00AF91D4B1A687B6A5B68D31A1B4AAC
:103D400013601A4B1A681B4B1B689A4203D2174B1D
:103D50001B68184A13607B6A5A68134B1B681A4326
:103D60007B6A5A607B6A00221A60134B1B6801331E
:103D7000114A1360FEF746FDFB6903F00703002BB1
:103D80000BD04FF0500383F31188BFF36F8FBFF355
:103D90004F8FFB6000BF00BFFDE7FB691846283767
:103DA000BD4680BD9C1A0020B01A0020A01A002039
:103DB000941A0020A41A0020A81A002080B586B00A
:103DC00000AF78607B687B617B68002B4FD0082355
:103DD0005B427A6913447B617B693B613B695A684A
:103DE000254B1B681340002B0BD14FF0500383F37E
:103DF0001188BFF36F8FBFF34F8FFB6000BF00BF11
:103E0000FDE73B691B68002B0BD04FF0500383F399
:103E10001188BFF36F8FBFF34F8FBB6000BF00BF30
:103E2000FDE73B695A68144B1B681340002B1ED0FA
:103E30003B691B68002B1AD13B695A680E4B1B6803
:103E4000DB431A403B695A60FEF7CEFC3B695A6877
:103E50000A4B1B681344094A1360386900F074F870
:103E6000074B1B680133064A1360FEF7CBFC00BF0B
:103E70001837BD4680BD00BFB01A0020A01A002030
:103E8000AC1A002080B485B000AF4FF44063BB6033
:103E9000274BFB60FB6803F00703002B0CD0FB688B
:103EA0000733FB60FB6823F00703FB60BA68FB681D
:103EB000D31A1F4A1344BB60FB687B601D4A7B68B2
:103EC00013601C4B00225A607B68BA681344FB6085
:103ED0000822FB689B1AFB60FB6823F00703FB606A
:103EE000FB68154A1360144B1B6800225A60124B82
:103EF0001B6800221A607B683B603B68FA68D21A34
:103F00003B685A600C4B1A683B681A603B685B68F8
:103F10000A4A13603B685B68094A1360094B4FF01B
:103F200000421A6000BF1437BD4680BC704700BF16
:103F3000940E0020941A00209C1A0020A41A00203D
:103F4000A01A0020B01A002080B485B000AF7860BD
:103F5000274BFB6002E0FB681B68FB60FB681B688B
:103F60007A689A42F7D8FB68BB60FB685B68BA68FE
:103F700013447A689A4208D1FB685A687B685B6888
:103F80001A44FB685A60FB687B607B68BB607B6897
:103F90005B68BA681A44FB681B689A4218D1FB68D0
:103FA0001A68144B1B689A420DD07B685A68FB68EC
:103FB0001B685B681A447B685A60FB681B681A6858
:103FC0007B681A6008E00B4B1A687B681A6003E094
:103FD000FB681A687B681A60FA687B689A4202D0AC
:103FE000FB687A681A6000BF1437BD4680BC704712
:103FF000941A00209C1A002003460244934200D1E8
:10400000704703F8011BF9E72D4B70B51B68044698
:10401000834253D0C3691BB3DB6863B10025E369F6
:10402000DB685959B1B90435802DF8D1E3692046D0
:10403000D96800F07BF8E369196811B1204600F0F7
:1040400075F8E3699D685DB1294620462D6800F04A
:104050006DF8F8E70E68204600F068F83146E1E7B1
:10406000616911B1204600F061F8E16911B12046A3
:1040700000F05CF8216B11B1204600F057F8616B3D
:1040800011B1204600F052F8A16B11B1204600F0AA
:104090004DF8A16C11B1204600F048F8616C11B1E7
:1040A000204600F043F8E16A11B1204600F03EF8E6
:1040B000236A1BB12046BDE87040184770BD00BFA1
:1040C0001000002070B500260C4D0D4C641BA41090
:1040D000A64209D100F07EF800260A4D0A4C641B66
:1040E000A410A64205D170BD55F8043B984701368F
:1040F000EEE755F8043B98470136F2E748420008DE
:1041000048420008484200084C4200087047704787
:104110000A44914200F1FF3300D1704710B511F805
:10412000014B914203F8014FF9D110BD38B5054656
:10413000002940D051F8043C0C1F002BB8BFE418F4
:1041400000F03CF81C4A136833B9636014602846D9
:10415000BDE8384000F038B8A34208D920682118DB
:104160008B4201BF19685B6809182160EDE71A46A8
:104170005B680BB1A342FAD911685018A0420BD169
:1041800020680144501883421160E0D118685B68D0
:10419000084410605360DAE702D90C232B60D6E79D
:1041A000206821188B4201BF19685B6809182160DB
:1041B00063605460CBE738BDF01B00200148FFF777
:1041C000A5BF00BFEC1B00200148FFF7A0BF00BF48
:1041D000EC1B0020F8B500BFF8BC08BC9E46704739
:0C41E000F8B500BFF8BC08BC9E46704754
:1041EC0064656661756C745461736B006D795461B0
:1041FC00736B30320000000049444C450000000055
:10420C00546D722053766300546D7251000000009F
:10421C00000000000000000001020304060708096A
:10422C00000000000102030402030405060708094C
:0C423C000A0B0C0D0E0F10100102000008
:044248003501000834
:04424C001101000854
:1042500000127A001000000001000000AAAAAAAA19
:104260001400002000000000B41A00201C1B0020D5
:10427000841B00200000000000000000000000007F
:10428000000000000000000000000000000000002E
:10429000000000000000000000000000000000001E
:1042A000000000000000000000000000000000000E
:04000005080004CD1E
:00000001FF
