:020000040800F2
:10000000A8060020B5010008ED210008E120000845
:10001000E9210008FD0300087D230008000000001E
:100020000000000000000000000000009D22000809
:1000300001040008000000005D220008F52200080D
:10004000CF010008CF010008CF010008CF01000850
:10005000CF010008CF010008CF010008CF01000840
:10006000CF010008CF010008CF010008CF01000830
:10007000CF010008CF010008CF010008CF01000820
:10008000CF010008CF010008CF010008CF01000810
:10009000CF010008CF010008CF010008CF01000800
:1000A000CF010008CF010008CF010008CF010008F0
:1000B000CF010008CF01000800000000CF010008B8
:1000C000CF0100080000000000000000CF01000880
:1000D00000000000CF010008CF0100080000000070
:1000E000CF010008CF010008CF01000800F002F89E
:1000F00000F050F814A696E8000CB244B344DA4578
:1001000001D100F047F8BAE80F000FA696E83000DA
:10011000A5EB040504EB0607AAEB0704A7F101070A
:100120004FEA15154FEA3414A4F10104AC4201D38F
:1001300000F030F813F0010F18BFFB1A43F0010371
:1001400000F001F8DBE71847FC2300001C24000046
:10015000103A24BF78C878C1FAD8520724BF30C8F3
:1001600030C144BF04680C60704700007047000055
:100170000023002400250026103A28BF78C1FBD8B0
:10018000520728BF30C148BF0B6070471FB51FBD65
:1001900010B510BD00F058F81146FFF7F7FF02F058
:1001A00037F900F076F803B4FFF7F2FF03BC00F074
:1001B0007DF800000948804709480047FEE7FEE750
:1001C000FEE7FEE7FEE7FEE7FEE7FEE7FEE7FEE707
:1001D00004480549054A064B70470000792300088A
:1001E000ED000008A8000020A8060020A8020020BA
:1001F000A80200204FF0000200B513469446964630
:10020000203922BFA0E80C50A0E80C50B1F1200129
:10021000BFF4F7AF090728BFA0E80C5048BF0CC0D7
:100220005DF804EB890028BF40F8042B08BF704735
:1002300048BF20F8022B11F0804F18BF00F8012BA7
:100240007047704770477047754600F02BF8AE4610
:1002500005006946534620F00700854618B020B5D2
:10026000FFF7B6FFBDE820404FF000064FF0000753
:100270004FF000084FF0000BAC46ACE8C009ACE80A
:10028000C009ACE8C009ACE8C00921F007018D46FF
:10029000704710B50446AFF300802046BDE810401B
:1002A000FFF781BF00487047100000200149182067
:1002B000ABBEFEE7260002007047000080B584B0A8
:1002C000029000200190029800688068C00770B317
:1002D000FFE702980168886820F00100886000F05C
:1002E000B3FF0190FFE7029800688068C007E8B19B
:1002F000FFE700F0A9FF0199401A032815D3FFE793
:10030000029800688068C00770B1FFE70299886AA8
:1003100040F0100088620299C86A40F00100C8628B
:1003200001208DF80F0006E0FFE7DCE7FFE7002083
:100330008DF80F00FFE79DF80F0004B080BD0000AE
:1003400080B584B00290002001900090029800686F
:100350008068C007002849D1FFE7029801688868D3
:1003600040F00100886040F20000C2F20000006826
:100370004DF68361C4F21B31A0FB0110800C00908C
:10038000FFE7009820B1FFE7009801380090F8E7F8
:1003900000F05AFF0190FFE7029800688068C007EC
:1003A00018BBFFE700F050FF0199401A03281BD348
:1003B000FFE7029800688068C007A0B9FFE70299CC
:1003C000886A40F0100088620299C86A40F0010013
:1003D000C862FFE70299002081F82400FFE70120AE
:1003E0008DF80F0006E0FFE7D6E7FFE700208DF865
:1003F0000F00FFE79DF80F0004B080BDFFE7FEE7A8
:100400007047000081B0EFF3108072B60090FFE7F4
:10041000FEE7000080B586B0049000208DF80F0044
:100420000190FFE7049890F82400012804D1FFE729
:1004300002208DF81700AEE00499012081F8240015
:10044000FFE7FFE70498FFF739FF8DF80F000498E6
:10045000FFF776FF8DF80F009DF80F00002840F0A1
:100460008F80FFE70498806A40F0020020F48850F3
:100470000499886240F20000C2F200000068009017
:10048000022000F095FF01460098B0FBF1F040001B
:100490000190FFE7019820B1FFE701980138019032
:1004A000F8E704980168886840F00800886000F068
:1004B000CBFE0290FFE704980068806800070028E0
:1004C00022D5FFE700F0C0FE0299401A0B281AD38C
:1004D000FFE70498006880680007002812D5FFE74E
:1004E0000498806A40F0100020F0020004998862AD
:1004F000FFE70499002081F82400FFE701208DF830
:10050000170048E0FFE7D6E704980168886840F0E4
:100510000400886000F098FE0290FFE704980068ED
:1005200080684007002822D5FFE700F08DFE029981
:10053000401A0B281AD3FFE7049800688068400728
:10054000002812D5FFE70498806A40F0100020F0E0
:10055000020004998862FFE70499002081F82400D2
:10056000FFE701208DF8170015E0FFE7D6E70498B4
:10057000806A40F0010020F0020004998862FFE7E1
:10058000FFE70499002081F82400FFE79DF80F00A1
:100590008DF81700FFE79DF8170006B080BD00003A
:1005A00085B00390029100208DF807000090FFE7CE
:1005B000039890F82400012804D1FFE702208DF869
:1005C0001300C3E00399012081F82400FFE7FFE74F
:1005D00002984068062812D8FFE703980068406B2D
:1005E000029A1168526802EB8202053A1F23934077
:1005F00098439140084303990968486329E00298A9
:1006000040680C2812D8FFE703980068006B029A34
:100610001168526802EB8202233A1F2393409843E9
:100620009140084303990968086311E00398006842
:10063000C06A029A1168526802EB8202413A1F2393
:10064000934098439140084303990968C862FFE7C3
:10065000FFE7029800680A2812D3FFE703980068B2
:10066000C06802990A68896802EB42021E3A0723B1
:10067000934098439140084303990968C86010E08B
:1006800003980068006902990A68896802EB4202CF
:1006900007239340984391400843039909680861F0
:1006A000FFE702980068102805D0FFE7029800686D
:1006B000112840D1FFE70398006842F20041C4F2DC
:1006C000010188422DD1FFE703980068806800028D
:1006D000002825D4FFE703980168886840F40000EB
:1006E000886002980068102819D1FFE740F20000E6
:1006F000C2F2000000684DF68361C4F21B31A0FB1A
:100700000110800C00EB800040000090FFE7009893
:1007100020B1FFE7009801380090F8E7FFE7FFE716
:1007200008E00399886A40F02000886201208DF873
:100730000700FFE7FFE7FFE70399002081F82400A7
:10074000FFE79DF807008DF81300FFE79DF8130001
:1007500005B0704781B0009000980068C06C01B08F
:100760007047000080B588B0069000208DF8170013
:10077000049003900290069820B9FFE701208DF8BD
:100780001F00F4E00698806830B1FFE70698007D0E
:1007900008B1FFE7FFE7FFE70698806A50B9FFE777
:1007A00006990020C862069981F82400069800F096
:1007B000E3F8FFE70698FFF781FD8DF8170006982C
:1007C000806AC006002800F1C480FFE79DF817008A
:1007D000002840F0BE80FFE70698806A40F00200E3
:1007E00020F488500699886206994868CA691043BF
:1007F000097B40EA41010398084303900698816809
:100800000120B1F5807F019008D0FFE7069880684D
:100810000138B0FA80F040090190FFE7019904988F
:10082000CA0740F48071002A18BF08460490069851
:10083000007D01281ED1FFE70698007B70B9FFE715
:10084000069881694EF20000CFF6FF7000EB413050
:100850000499084340F4006004900AE00699886A0D
:1008600040F0200088620699C86A40F00100C86222
:10087000FFE7FFE706980068406820F469400499A4
:1008800008430699096848600698006880684FF236
:10089000FD71CFF6E1710840039908430699096894
:1008A0008860069881680120B1F5807F009008D0AB
:1008B000FFE7069880680138B0FA80F040090090A0
:1008C000FFE7009800F00100002818BF4FF4807087
:1008D000B0F5807F09D1FFE7069801690020CFF6C7
:1008E000F07000EB01500290FFE706980068C06AC4
:1008F00020F470000299084306990968C8620698B6
:100900000068806840F6FE61CFF61F7108400399C9
:1009100088420CD1FFE706990020C8620698806AD9
:1009200040F0010020F002000699886210E006986D
:10093000806A40F0100020F0020006998862069953
:10094000C86A40F00100C86201208DF81700FFE777
:1009500008E00699886A40F01000886201208DF84E
:100960001700FFE79DF817008DF81F00FFE79DF8BF
:100970001F0008B080BD000080B588B0079000203F
:1009800006900590049003900798006842F2004199
:10099000C4F2010188422AD1FFE7FFE741F21800C3
:1009A000C4F20200016841F400710160006800F4C3
:1009B000007002900298FFE7FFE741F21800C4F2CE
:1009C0000200016841F004010160006800F00400C9
:1009D00001900198FFE7022003900320049040F665
:1009E0000000C4F2010003A900F07CFAFFE708B0A0
:1009F00080BD000080B58CB00A900991002008905D
:100A00000790069000F020FC08900A980068806823
:100A1000C00500280FD5FFE70A99886A40F020003A
:100A20008862FFE70A99002081F82400FFE701208F
:100A30008DF82F001CE10A9800684068C005002866
:100A400038D4FFE70A980068C06A10F4700F31D1FB
:100A5000FFE7FFE70A98006800688007002828D4AD
:100A6000FFE70998013018B3FFE7099840B1FFE7A5
:100A700000F0EAFB0899401A0999884217D9FFE764
:100A80000A9800680068800700280FD4FFE70A99D9
:100A9000886A40F004008862FFE70A99002081F824
:100AA0002400FFE703208DF82F00E1E0FFE7FFE7D8
:100AB000D0E7B0E040F20000C2F20000006804900D
:100AC000022000F075FC01460498B0FBF1F005909F
:100AD0000A980068006944F62411C2F29241084263
:100AE0002BD1FFE70A980068C06844F62411C0F2D1
:100AF0009201084221D1FFE70A98006801690020AD
:100B000042F29242C1F24922114203900DD1FFE715
:100B10000A980068C06842F29241C0F24901084058
:100B2000B0FA80F040090390FFE70398C10729203D
:100B3000002918BF1420029039E00A980068006963
:100B400042F29241C1F2492108420CD1FFE70A98D2
:100B50000068C168012042F29242C0F2490211428B
:100B600001901CD0FFE70A9800680169002049F253
:100B70004922C0F22402114200900DD1FFE70A98E9
:100B80000068C06849F24921C0F224010840B0FA67
:100B900080F040090090FFE700980190FFE701987E
:100BA000C107FC20002918BF54200290FFE70598D8
:100BB000029948430690FFE707980699884229D290
:100BC000FFE70998013008B3FFE7099840B1FFE754
:100BD00000F03AFB0899401A0999884215D9FFE7B5
:100BE0000798069988420FD2FFE70A99886A40F071
:100BF00004008862FFE70A99002081F82400FFE7DB
:100C000003208DF82F0033E0FFE7FFE7079801305E
:100C10000790D1E7FFE70A9801686FF012000860BB
:100C20000A99886A40F4007088620A9800688068AF
:100C300000F46020B0F5602F16D1FFE70A98007B22
:100C400090B9FFE70A99886A20F4807088620A9850
:100C5000806AC004002806D4FFE70A99886A40F039
:100C600001008862FFE7FFE700208DF82F00FFE713
:100C70009DF82F000CB080BD80B584B0029000209C
:100C80008DF80700FFE7029890F82400012804D1AE
:100C9000FFE702208DF80F00C5E00299012081F8DE
:100CA0002400FFE7FFE70298FFF74AFB8DF80700F3
:100CB0009DF80700002840F0AA80FFE70298806AAC
:100CC00040F4807040F201218843029988620298C2
:100CD000006842F60001C4F20101884209D1FFE731
:100CE00042F20440C4F20100006810F4702F03D0F7
:100CF00018E00020B0B9FFE70299886A20F480105C
:100D000088620298006840684005002809D5FFE71E
:100D10000298806A40F4805020F400500299886262
:100D2000FFE72CE00299886A40F4801088620298FC
:100D3000006842F20041C4F20101884209D0FFE795
:100D40000298006842F60001C4F20101884209D10C
:100D5000FFE742F20440C4F20100006840050028A9
:100D600003D40BE0012048B9FFE70298806A40F401
:100D7000805020F4005002998862FFE7FFE7029854
:100D8000806AC004002806D5FFE70299C86A20F0EF
:100D90000600C86203E002990020C862FFE7FFE78F
:100DA0000299002081F82400FFE7029801686FF0A3
:100DB0000200086002980068806800F46020B0F5C6
:100DC000602F1CD1FFE70298006842F60001C4F2D0
:100DD0000101884209D1FFE742F20440C4F2010058
:100DE000006810F4702F03D009E0002038B9FFE745
:100DF00002980168886840F4A000886006E00298C4
:100E00000168886840F480108860FFE706E0FFE72B
:100E10000299002081F82400FFE7FFE79DF8070012
:100E20008DF80F00FFE79DF80F0004B080BD0000B3
:100E300080B584B0029000208DF80700FFE702988B
:100E400090F82400012804D1FFE702208DF80F005C
:100E500022E00299012081F82400FFE7FFE70298D1
:100E6000FFF72CFA8DF807009DF8070048B9FFE757
:100E70000298806A40F0010020F48850029988624C
:100E8000FFE7FFE70299002081F82400FFE79DF8C3
:100E900007008DF80F00FFE79DF80F0004B080BD3C
:100EA00080B584B0039000F0CFF9029003980190D0
:100EB0000198013048B1FFE740F20400C2F200009F
:100EC0000178019808440190FFE7FFE700F0BCF9C2
:100ED0000299401A0199884201D2FFE7F6E704B06F
:100EE00080BD00008FB00E900D9100200C900890F6
:100EF000FFE70D9800680C99C840002800F0718148
:100F0000FFE70C99012088400B900D9800680B9921
:100F100008400A900A980B99884240F05E81FFE7EA
:100F20000D9840680490002851D0FFE704980128EC
:100F30003AD0FFE7049802283FD0FFE7049803283F
:100F40005FD0FFE70498112832D0FFE704981228F9
:100F500038D0FFE704980021C1F21101884236D051
:100F6000FFE704980021C1F2120188422FD0FFE769
:100F700004980021C1F22101884228D0FFE704989B
:100F80000021C1F22201884221D0FFE7049800210C
:100F9000C1F2310188421AD0FFE704980021C1F262
:100FA0003201884213D02FE00D98C06808902CE0E1
:100FB0000D98C0680430089027E00D98C06808308C
:100FC000089022E00D98C0680C3008901DE00D9844
:100FD000806818B9FFE70420089011E00D98806838
:100FE000012806D1FFE7082008900B980E990861A8
:100FF00005E0082008900B980E994861FFE7FFE78D
:1010000003E00020089000E0FFE70A98FF2803D8DB
:10101000FFE70E98039003E00E9804300390FFE77B
:10102000039807900A98FF2804D8FFE70C988000DF
:10103000029006E00C996FF01F0000EB8100029017
:10104000FFE70298069007980068069A0F219140E2
:101050008843089991400843079908600D98C07922
:10106000C006002840F1B880FFE7FFE741F2180012
:10107000C4F20200016841F001010160006800F063
:10108000010005900598FFE70C9820F00300082167
:10109000C4F20101405809900C9800F0030081004F
:1010A0000F2000FA01F10998884309900E9840F644
:1010B0000001C4F20101884203D1FFE70020019042
:1010C00018E00E9840F60041C4F20101884203D1B5
:1010D000FFE7012000900AE00E9941F20002C4F2FD
:1010E00001020320914208BF02200090FFE7009810
:1010F0000190FFE701980C9901F00301890000FAC3
:1011000001F109980843099009980C9921F003010D
:101110000822C4F2010288500D988079C006002888
:1011200009D5FFE70A9A40F20841C4F201010868B4
:101130001043086008E00A9A40F20841C4F2010135
:10114000086890430860FFE70D98807980060028C2
:1011500009D5FFE70A9A40F20C41C4F20101086880
:101160001043086008E00A9A40F20C41C4F2010101
:10117000086890430860FFE70D9880798007002891
:1011800009D5FFE70A9A40F20441C4F20101086858
:101190001043086008E00A9A40F20441C4F20101D9
:1011A000086890430860FFE70D988079C00748B150
:1011B000FFE70A9A40F20041C4F2010108681043B7
:1011C000086008E00A9A40F20041C4F20101086890
:1011D00090430860FFE7FFE7FFE70C9801300C90B1
:1011E00087E60FB07047000082B00190ADF80210A2
:1011F00001988068BDF80210084204D0FFE7012082
:101200008DF8010003E000208DF80100FFE79DF854
:10121000010002B07047000082B00190ADF80210EA
:101220008DF801209DF8010028B1FFE7BDF802000C
:101230000199086105E0BDF8020000040199086108
:10124000FFE702B07047000040F2A400C2F20000C5
:101250000068704740F20400C2F20000027840F2D9
:10126000A401C2F200010868104408607047000041
:1012700080B542F20001C4F20201086840F010009B
:101280000860032000F08CF80F2000F005F800F053
:101290003BF8002080BD000080B582B0009040F295
:1012A0000000C2F20000006840F20401C2F2000136
:1012B0000A784FF47A71B1FBF2F1B0FBF1F000F073
:1012C00007FF20B1FFE701208DF8070018E0009824
:1012D0000F280DD8FFE700994FF0FF30002200F0F3
:1012E00045F8009840F20801C2F20001086003E0EE
:1012F00001208DF8070003E000208DF80700FFE7CC
:101300009DF8070002B080BD83B0FFE741F21800EE
:10131000C4F20200016841F001010160006800F0C0
:10132000010002900298FFE7FFE741F21C00C4F2BF
:101330000200016841F080510160006800F08050B7
:1013400001900198FFE7FFE70421C4F2010108685A
:101350000090009820F0E0600090009840F08060DD
:10136000009000980860FFE703B0704780B586B032
:101370008DF81700049103920020029001F000F80C
:1013800002909DF91700019002980499039A00F0C9
:101390002FFF0146019800F0FBFF06B080BD000062
:1013A00080B582B00190019801F014F802B080BDC0
:1013B00080B588B0079000200690059004900390B7
:1013C000029007980190012866D0FFE70198022853
:1013D00000F0A580FFE70198102840F0B080FFE7FB
:1013E00041F20400C4F202000068039041F20000E0
:1013F000C4F202000068C00100284CD5FFE7039842
:10140000C0F3834142F21E50C0F60000405C0490DD
:101410009DF80E00C007F0B1FFE741F20400C4F2EE
:1014200002000068C0F3404142F22E50C0F60000B6
:10143000405C06909DF80E00C00758B1FFE7069982
:1014400041F20020C0F27A00B0FBF1F00499484369
:101450000590FFE707E0049840F60011C0F23D0157
:1014600048430590FFE741F20400C4F2020000681F
:101470004002002803D5FFE7059802900AE005988E
:1014800040004AF6AB21CAF6AA21A0FB0110400891
:101490000290FFE7FFE753E041F22000C4F20200B0
:1014A00000680390039800F44070B0F5807F0AD183
:1014B000FFE79DF80C008007002804D5FFE74FF4F4
:1014C000004002902AE0039800F44070B0F5007FDD
:1014D0000DD1FFE741F22400C4F20200006880074A
:1014E000002804D5FFE749F64040029015E0039834
:1014F00000F44070B0F5407F0DD1FFE741F20000ED
:10150000C4F2020000688003002804D5FFE74FF210
:101510002440029000E0FFE7FFE7FFE710E000F063
:1015200029FA41F20401C4F20201096801F44042BF
:10153000022101EB5231B0FBF1F0029000E0FFE735
:10154000029808B080BD000080B586B004900020ED
:101550000390029004980078C007002800F0AC8047
:10156000FFE700208DF8070041F21C00C4F20200E2
:101570000068C000002813D4FFE7FFE741F21C0019
:10158000C4F20200016841F080510160006800F07F
:10159000805000900098FFE701208DF80700FFE7DA
:1015A00047F20000C4F200000068C005002822D401
:1015B000FFE747F20001C4F20001086840F48070C0
:1015C0000860FFF741FE0390FFE747F20000C4F216
:1015D00000000068C00500280CD4FFE7FFF734FEC8
:1015E0000399401A652804D3FFE703208DF81700FC
:1015F0008AE0EAE7FFE741F22000C4F20200006857
:1016000000F4407002900298E0B3FFE7029804995A
:10161000496801F44071884234D0FFE741F220016B
:10162000C4F20201086820F44070029040F2404287
:10163000C4F242220120106000201060029808606D
:101640009DF80800C007E0B1FFE7FFF7FDFD03903C
:10165000FFE741F22000C4F2020000688007002882
:101660000ED4FFE7FFF7F0FD0399401A41F28931EC
:10167000884204D3FFE703208DF8170044E0E8E731
:10168000FFE7FFE741F22001C4F20201086820F4FD
:101690004070049A5268104308609DF807000128C2
:1016A00009D1FFE741F21C01C4F20201086820F0F1
:1016B00080500860FFE7FFE7049800788007002863
:1016C0000CD5FFE741F20401C4F20201086820F4DE
:1016D0004040049A926810430860FFE7049800783D
:1016E000C00600280CD5FFE741F20401C4F2020154
:1016F000086820F48000049AD26810430860FFE76D
:1017000000208DF81700FFE79DF8170006B080BD98
:1017100080B584B002900191029820B9FFE70120C2
:101720008DF80F001BE1019842F20001C4F20201A2
:10173000096801F00701884216D9FFE742F200006C
:10174000C4F20200016821F00701019A114301600F
:10175000006800F007000199884204D0FFE70120EB
:101760008DF80F00FBE0FFE7029800788007002863
:101770002AD5FFE7029800784007002809D5FFE73F
:1017800041F20401C4F20201086840F4E06008601C
:10179000FFE7029800780007002809D5FFE741F22B
:1017A0000401C4F20201086840F460500860FFE7D9
:1017B00041F20401C4F20201086820F0F000029A2C
:1017C000926810430860FFE702980078C00700287D
:1017D00060D0FFE70298406801280ED1FFE741F290
:1017E0000000C4F2020000688003002804D4FFE770
:1017F00001208DF80F00B2E021E002984068022835
:101800000ED1FFE741F20000C4F20200006880013F
:10181000002804D4FFE701208DF80F009FE00DE0C1
:1018200041F20000C4F2020000688007002804D4DE
:10183000FFE701208DF80F0091E0FFE7FFE741F29D
:101840000401C4F20201086820F00300029A526801
:1018500010430860FFF7F8FC0090FFE741F2040036
:10186000C4F20200006800F00C0002994968B0EB75
:10187000810F0ED0FFE7FFF7E7FC0099401A41F215
:101880008931884204D3FFE703208DF80F0066E01A
:10189000E4E7FFE7019842F20001C4F2020109689F
:1018A00001F00701884216D2FFE742F20000C4F2BD
:1018B0000200016821F00701019A114301600068EC
:1018C00000F007000199884204D0FFE701208DF85D
:1018D0000F0044E0FFE702980078400700280CD58D
:1018E000FFE741F20401C4F20201086820F4E0605D
:1018F000029AD26810430860FFE702980078000758
:1019000000280DD5FFE741F20401C4F20201086886
:1019100020F46050029A126940EAC2000860FFE7B2
:1019200000F03AF841F20401C4F202010968C9B2B8
:101930000A0942F20651C0F60001895CC84040F233
:101940000001C2F20001086040F20800C2F200008B
:101950000068FFF7A1FC00208DF80F00FFE79DF85D
:101960000F0004B080BD000040F20000C2F2000091
:101970000068704780B5FFF7F7FF41F20401C4F239
:1019800002010968C1F3C22242F21651C0F60001F9
:10199000895CC84080BD000086B00020059004909E
:1019A00003900290019041F20400C4F2020000682A
:1019B0000590059800F00C000146009100283FD0EA
:1019C000FFE70098042804D0FFE70098082806D015
:1019D00037E041F20020C0F27A00019037E005982C
:1019E000C0F3834142F23050C0F60000405C0290E8
:1019F0009DF81600C007C0B1FFE741F20400C4F231
:101A000002000068C0F3404142F24050C0F60000BE
:101A1000405C0490029841F20021C0F27A014843F0
:101A20000499B0FBF1F0039007E0029840F6001132
:101A3000C0F23D0148430390FFE70398019006E0A0
:101A4000FFE741F20020C0F27A000190FFE7019821
:101A500006B0704780B586B00490049820B9FFE7BF
:101A600001208DF817002EE304980078C0070028A5
:101A700000F0AE80FFE741F20400C4F2020000680B
:101A800000F00C00042813D0FFE741F20400C4F278
:101A90000200006800F00C0008281BD1FFE741F2AB
:101AA0000400C4F202000068C003002812D5FFE75A
:101AB00041F20000C4F2020000688003002808D54B
:101AC000FFE70498406820B9FFE701208DF8170070
:101AD000F9E27CE0FFE704984068B0F5803F09D167
:101AE000FFE741F20001C4F20201086840F48030CF
:101AF000086032E00498406868B9FFE741F20001ED
:101B0000C4F20201086820F480300860086820F4FC
:101B10008020086020E004984068B0F5A02F0DD127
:101B2000FFE741F20001C4F20201086840F480209E
:101B30000860086840F4803008600CE041F2000161
:101B4000C4F20201086820F480300860086820F4BC
:101B500080200860FFE7FFE7FFE7FFE704984068A1
:101B6000D0B1FFE7FFF770FB0390FFE741F2000001
:101B7000C4F202000068800300280CD4FFE7FFF7DE
:101B800063FB0399401A652804D3FFE703208DF80F
:101B9000170098E2EAE719E0FFF756FB0390FFE72A
:101BA00041F20000C4F202000068800300280CD556
:101BB000FFE7FFF749FB0399401A652804D3FFE7C5
:101BC00003208DF817007EE2EAE7FFE7FFE7FFE773
:101BD000049800788007002840F18D80FFE741F2EB
:101BE0000400C4F20200006810F00C0F13D0FFE7ED
:101BF00041F20400C4F20200006800F00C00082862
:101C000029D1FFE741F20400C4F202000068C003DA
:101C1000002820D4FFE741F20000C4F2020000686F
:101C20008007002809D5FFE704980069012804D03F
:101C3000FFE701208DF8170045E241F20001C4F2F0
:101C40000201086820F0F800049A526940EAC200D4
:101C50000860FFE74EE00498006958B3FFE70021F1
:101C6000C4F2422101200860FFF7EEFA0390FFE77B
:101C700041F20000C4F202000068800700280CD482
:101C8000FFE7FFF7E1FA0399401A032804D3FFE7BF
:101C900003208DF8170016E2EAE741F20001C4F2D2
:101CA0000201086820F0F800049A526940EAC20074
:101CB00008601EE00021C4F2422100200860FFF706
:101CC000C3FA0390FFE741F20000C4F2020000688B
:101CD000800700280CD5FFE7FFF7B6FA0399401AF2
:101CE000032804D3FFE703208DF81700EBE1EAE7B0
:101CF000FFE7FFE7FFE7049800780007002848D5D2
:101D0000FFE70498806918B3FFE740F28041C4F20E
:101D1000422101200860FFF797FA0390FFE741F2A4
:101D20002400C4F202000068800700280CD4FFE7FA
:101D3000FFF78AFA0399401A032804D3FFE7032028
:101D40008DF81700BFE1EAE7012000F089FA1FE0F3
:101D500040F28041C4F2422100200860FFF774FA8B
:101D60000390FFE741F22400C4F2020000688007FC
:101D700000280CD5FFE7FFF767FA0399401A0328FC
:101D800004D3FFE703208DF817009CE1EAE7FFE7A3
:101D9000FFE7049800784007002840F1D880FFE76B
:101DA00000208DF8070041F21C00C4F20200006818
:101DB000C000002813D4FFE7FFE741F21C00C4F283
:101DC0000200016841F080510160006800F080501D
:101DD00000900098FFE701208DF80700FFE747F229
:101DE0000000C4F200000068C005002822D4FFE70C
:101DF00047F20001C4F20001086840F480700860F6
:101E0000FFF722FA0390FFE747F20000C4F2000058
:101E10000068C00500280CD4FFE7FFF715FA039906
:101E2000401A652804D3FFE703208DF817004AE124
:101E3000EAE7FFE7FFE70498C068012809D1FFE758
:101E400041F22001C4F20201086840F0010008607C
:101E500031E00498C06868B9FFE741F22001C4F29C
:101E60000201086820F001000860086820F0040002
:101E700008601FE00498C06805280DD1FFE741F213
:101E80002001C4F20201086840F0040008600868FC
:101E900040F0010008600CE041F22001C4F20201B0
:101EA000086820F001000860086820F0040008605D
:101EB000FFE7FFE7FFE7FFE70498C068E0B1FFE74F
:101EC000FFF7C2F90390FFE741F22000C4F20200DD
:101ED0000068800700280ED4FFE7FFF7B5F90399E3
:101EE000401A41F28931884204D3FFE703208DF87C
:101EF0001700E8E0E8E71BE0FFF7A6F90390FFE72B
:101F000041F22000C4F202000068800700280ED5CC
:101F1000FFE7FFF799F90399401A41F289318842A6
:101F200004D3FFE703208DF81700CCE0E8E7FFE7D4
:101F30009DF80700012809D1FFE741F21C01C4F216
:101F40000201086820F080500860FFE7FFE704986E
:101F5000C069002800F0B380FFE741F20400C4F23A
:101F60000200006800F00C00082800F08280FFE703
:101F70000498C06902285CD1FFE76021C4F24221C5
:101F800000200860FFF760F90390FFE741F20000CE
:101F9000C4F202000068800100280CD5FFE7FFF7BB
:101FA00053F90399401A032804D3FFE703208DF85F
:101FB000170088E0EAE70498006AB0F5803F0CD18A
:101FC000FFE741F20401C4F20201086820F4003086
:101FD000049A926810430860FFE741F20401C4F2DA
:101FE0000201086820F47410049B1A6A5B6A1A43A1
:101FF000104308606021C4F2422101200860FFF70D
:1020000023F90390FFE741F20000C4F202000068E8
:10201000800100280CD4FFE7FFF716F90399401A56
:10202000032804D3FFE703208DF817004BE0EAE70D
:102030001EE06021C4F2422100200860FFF704F98D
:102040000390FFE741F20000C4F202000068800143
:1020500000280CD5FFE7FFF7F7F80399401A03288B
:1020600004D3FFE703208DF817002CE0EAE7FFE731
:1020700024E00498C069012804D1FFE701208DF80D
:10208000170020E041F20400C4F202000068029050
:10209000029800F480300499096A884208D1FFE769
:1020A000029800F470100499496A884204D0FFE74E
:1020B00001208DF8170006E0FFE7FFE7FFE70020AB
:1020C0008DF81700FFE79DF8170006B080BD0000EF
:1020D00080B582B00190019800F0E2F802B080BDB6
:1020E000FFE7FEE780B584B00021039102910191E2
:1020F00040F27400C2F20000009042F20042C4F2CA
:10210000010202608160017301754FF46022C261B7
:10211000416001210161FEF725FB18B1FFE7FEF7E1
:1021200071F9FFE70120019002900020039040F236
:102130007400C2F2000001A9FEF732FA18B1FFE7FD
:10214000FEF760F9FFE704B080BD000080B58CB0F9
:1021500000200B900A9009900890FFE741F21800C8
:10216000C4F20200016841F020010160006800F043
:10217000200007900798FFE7FFE741F21800C4F23C
:102180000200016841F004010160006800F00400F1
:1021900006900698FFE740F60000C4F201000490A4
:1021A0004FF40071019100220292FFF735F8019A75
:1021B000029904980892012209920A91022103913E
:1021C0000B9108A90591FEF78DFE029B039A0498D6
:1021D00005994FF4806CCDF820C009930A92FEF760
:1021E00081FE0CB080BD0000FFE7FEE7FFE7FEE7E1
:1021F00088B0079006910592079800F007000490B8
:102200000498C0F10700052803D3FFE704200190DC
:1022100004E00498C0F107000190FFE701980390E3
:1022200004980430062803D8FFE70020009003E05C
:10223000049803380090FFE70098029006980399ED
:10224000012202FA01F101390840029B98400599E8
:102250009A40013A1140084308B0704770470000A7
:1022600082B00190019840F20001C2F200010968B9
:10227000C90844F6D352C1F26202A1FB02218909C6
:1022800048430090FFE700BFFFE70098411E009120
:102290000028F8D1FFE702B0704700007047000047
:1022A00080B582B0009000980138B0F1807F03D3F0
:1022B000FFE70120019019E0009801384EF2140167
:1022C000CEF2000108604FF0FF300F2100F060F8FF
:1022D0004EF21801CEF20001002008604EF210020A
:1022E000CEF20002072111600190FFE7019802B0D1
:1022F00080BD000080B5FEF7ADFF80BD80B596B013
:102300000CA801902821FDF775FF0198002102918A
:102310000B910A91099108910791069105910491F9
:10232000039102220C920122109210221192139119
:10233000FFF790FB18B1FFE7FEF764F8FFE70F2007
:1023400007900021089109910A910B9107A8FFF7C6
:10235000DFF918B1FFE7FEF755F8FFE70220039019
:102360000020059003A8FFF7EFF818B1FFE7FEF78C
:1023700049F8FFE716B080BD70470000FFE7FEE7B1
:102380004EF60C50CEF200000068C0F302207047F9
:1023900082B08DF8070000919DF9070000280AD44B
:1023A000FFE7009800019DF907104EF20042CEF2BF
:1023B000000288540BE0009800019DF8071001F01E
:1023C0000F014EF61452CEF200028854FFE702B01D
:1023D0007047000083B00290029800F00700009060
:1023E0004EF60C51CEF200010868019001984FF6AC
:1023F000FF02104001900198009A40EA022000225A
:10240000C0F2FA52104301900198086003B070477F
:1024100080B586B0002003900590FEF729FFFFF7F6
:102420006DFFFFF793FEFFF75DFE40F27400C2F20E
:102430000000FDF7EFFF03988DF813008DF81200F0
:10244000FFE79DF813008DF8120040F60000C4F27B
:1024500001004FF48061FEF7C7FE8DF813009DF870
:1024600013009DF81210884204D0FFE79DF8130076
:1024700008B9FFE7E5E79DF813008DF8120040F278
:102480007001C2F200010020086040F27400C2F244
:1024900000000290FEF7F0FB02986421FEF7AAFA12
:1024A00038BBFFE740F27400C2F20000FEF752F9B9
:1024B000014640F27000C2F200000160006840F284
:1024C0004671884214D3FFE740F60000C4F20100D1
:1024D00000904FF4007101910122FEF79DFE6420EF
:1024E000FEF7DEFC009801990022FEF795FEFFE75B
:1024F000FFE76420FEF7D4FC40F27400C2F2000053
:10250000FEF796FC9DE700000000000000000102BD
:102510000304060708090000000001020304020387
:102520000405060708090A0B0C0D0E0F1010010216
:1025300002030405060708090A0B0C0D0E0F101004
:1025400001020000682500080000002010000000C3
:1025500050010008782500081000002098060000AF
:10256000700100080000000000127A000100000065
:08257000100000000000000053
:04000005080000ED02
:00000001FF
