:020000040800F2
:10000000C8060020B50100085D0F0008550F000864
:10001000590F0008BD020008710F00080000000021
:10002000000000000000000000000000650F000854
:10003000C102000800000000610F0008690F0008FD
:10004000CF010008CF010008CF010008CF01000850
:10005000CF010008CF010008CF010008CF01000840
:10006000CF010008CF010008CF010008CF01000830
:10007000CF010008CF010008CF010008CF01000820
:10008000CF010008CF010008CF010008CF01000810
:10009000CF010008CF010008CF010008CF01000800
:1000A000CF010008CF010008CF010008CF010008F0
:1000B000CF010008CF01000800000000CF010008B8
:1000C000CF0100080000000000000000CF01000880
:1000D00000000000CF010008CF0100080000000070
:1000E000CF010008CF010008CF01000800F002F89E
:1000F00000F050F814A696E8000CB244B344DA4578
:1001000001D100F047F8BAE80F000FA696E83000DA
:10011000A5EB040504EB0607AAEB0704A7F101070A
:100120004FEA15154FEA3414A4F10104AC4201D38F
:1001300000F030F813F0010F18BFFB1A43F0010371
:1001400000F001F8DBE71847D40F0000F40F0000BF
:10015000103A24BF78C878C1FAD8520724BF30C8F3
:1001600030C144BF04680C60704700007047000055
:100170000023002400250026103A28BF78C1FBD8B0
:10018000520728BF30C148BF0B6070471FB51FBD65
:1001900010B510BD00F058F81146FFF7F7FF00F05A
:1001A000E9FE00F076F803B4FFF7F2FF03BC00F0BD
:1001B0007DF800000948804709480047FEE7FEE750
:1001C000FEE7FEE7FEE7FEE7FEE7FEE7FEE7FEE707
:1001D00004480549054A064B704700006D0F0008AA
:1001E000ED000008C8000020C8060020C80200205A
:1001F000C80200204FF0000200B513469446964610
:10020000203922BFA0E80C50A0E80C50B1F1200129
:10021000BFF4F7AF090728BFA0E80C5048BF0CC0D7
:100220005DF804EB890028BF40F8042B08BF704735
:1002300048BF20F8022B11F0804F18BF00F8012BA7
:100240007047704770477047754600F02BF8AE4610
:1002500005006946534620F00700854618B020B5D2
:10026000FFF7B6FFBDE820404FF000064FF0000753
:100270004FF000084FF0000BAC46ACE8C009ACE80A
:10028000C009ACE8C009ACE8C00921F007018D46FF
:10029000704710B50446AFF300802046BDE810401B
:1002A000FFF781BF00487047100000200149182067
:1002B000ABBEFEE72600020070470000FEE700002C
:1002C00070470000B0B5044600F00EF9054640F254
:1002D0000400C2F200000078611C18BF044400BF93
:1002E00000F002F9401BA042FAD3B0BD2DE9F04F57
:1002F00082B00E68002E00F0EE8041F20002C4F2DF
:100300000102032340F2004E904208BF02234FF641
:10031000FF7CC4F2010E009300240123C1F2100CF3
:100320004FF0000B4FF0000943E0002704F00C03EE
:100330000F229A402AEA020207FA03F34FEA9B05CA
:100340001A4346F825204E6840F20C45F202DEF8CA
:10035000082054BF22EA080242EA0802C4F201055A
:10036000CEF808202A68B30254BF22EA080242EA03
:1003700008022A60B303DEF8042054BF22EA080210
:1003800042EA0802F303CEF80420DEF800204FF022
:10039000010354BF22EA080242EA0802CEF8002014
:1003A0000E680BF1010B36FA0BF204F1040400F0B5
:1003B000928003FA0BFA16EA0A08F1D04E686645F5
:1003C00010DC122E50D8DFE806F0330A48454F4FB4
:1003D0004F4F4F4F4F4F4F4F4F4F4F414C00D1F862
:1003E0000C9041E04FF6FF72C1F2210296420FDC01
:1003F0000022C1F2110296421AD00022C1F212026A
:10040000964215D00022C1F22102964210D02BE074
:100410000022C1F2220296420AD00022C1F2310229
:10042000964205D00022C1F2320296421CD100BF92
:100430008A6842B1012A14BFC0F814A0C0F810A005
:100440004FF0080910E04FF004090DE0CA6802F10E
:10045000040909E04FF0000906E0CA6802F1080942
:1004600002E0CA6802F10C0902462646B8F5807F10
:1004700024BF0432203E17680F25B54027EA050542
:1004800009FA06F635431560CA79D2067FF588AFBA
:1004900041F21803C4F202031A68AEF57E7642F008
:1004A00001021A601A6802F001020192019A2BF00F
:1004B000030256F802A040F60002C4F20102904284
:1004C0003FF433AF40F60042C4F20102009F904275
:1004D00008BF01272AE702B0BDE8F08F002A08BF55
:1004E000090401617047000040F2C000C2F2000040
:1004F0000068704740F2040040F2C001C2F2000000
:10050000C2F2000100780A681044086070470000D9
:1005100080B542F20000C4F20200016841F010010F
:100520000160032000F07EF80F2000F005F800F0D5
:100530002BF8002080BD0000B0B540F20402C2F2EA
:10054000000240F200011278C2F200014FF47A7307
:100550000968B3FBF2F20446B1FBF2F1084600F081
:100560000FFB0F2C4FF001050CD858B94FF0FF309E
:1005700021460022002500F029F840F20800C2F2CE
:10058000000004602846B0BD82B041F21800C4F2F9
:1005900002000168042241F001010160016801F0DC
:1005A000010101910199416841F080514160406829
:1005B00000F08050009000980420C4F2010001680F
:1005C00062F31A61016002B07047000010B54EF688
:1005D0000C5CCEF2000CDCF80030C3F3022E8EF07F
:1005E0000704042C28BF0424BEF103034FF0FF3E90
:1005F0000EFA04F438BF0023A14399400EFA03F326
:100600009A43114300F1604200F00F03090102F523
:100610006442043B6344002848BF03F10C0211709C
:1006200010BD00004EF60C51CEF200010A684FF6E4
:10063000FF031A4060F30A2242F0806040F0FD7030
:1006400008607047002804BF012070472DE9F0437F
:1006500081B042F20008C4F202080446D8F8000053
:100660000D4600F0070081420CD9D8F8000020F0B8
:1006700007002843C8F80000D8F8000000F0070081
:10068000A8426BD1206841F204098107C4F2020933
:1006900017D5410705D5D9F8001041F4E061C9F834
:1006A0000010010705D5D9F8001041F46051C9F8D0
:1006B0000010D9F80010A26821F0F0011143C9F828
:1006C0000010C00741D1D8F8000000F007008542B3
:1006D0000CD2D8F8000020F007002843C8F800002A
:1006E000D8F8000000F00700A84237D12068410781
:1006F00007D5D9F80010E26821F4E0611143C9F888
:100700000010000708D5D9F80000216920F46050D6
:1007100040EAC100C9F80000D9F8002002F00C003E
:10072000082841F20020C0F27A0049D141F20A13B0
:10073000C2F38341C0F60003595CD20334D440F6BF
:100740000010C0F23D0048433AE0606859F8041CCC
:10075000022807D0012824D1890305D4012001B043
:10076000BDE8F0838901F9D5D9F8001021F0030123
:100770000843C9F80000FFF7B7FE064641F2883784
:10078000D9F80000616800F00C00B0EB810F9AD03E
:10079000FFF7AAFE801BB842F2D9032001B0BDE8E2
:1007A000F0838907DAD5DFE7D9F8002041F2081392
:1007B000C2F34042C0F600039A5C4843B0FBF2F03B
:1007C000D9F8001041F2F002C1F30311C0F60002A3
:1007D000515C40F2000220FA01F140F20800C2F23E
:1007E00000000068C2F200021160FFF7A5FE0020C1
:1007F00001B0BDE8F083000040F2000041F20401C6
:10080000C2F20000C4F202010068096841F200125D
:10081000C1F30221C0F60002515CC84070470000DD
:1008200040F2000041F20401C2F20000C4F20201F1
:100830000068096841F20012C1F3C221C0F600024B
:10084000515CC84070470000002804BF0120704779
:100850002DE9F04182B00446007841F20006C0075D
:10086000C4F2020647D0706800F00C00042808D1DA
:10087000306880033FD56068E8BB012002B0BDE866
:10088000F081706800F00C00082802D17068C00385
:10089000EED4656830682DB1B5F5A02F09D0B5F557
:1008A000803F0AD020F480303060306820F480200F
:1008B00005E040F480203060306840F480303060E3
:1008C000FFF712FE002D054612D000BF30688003EE
:1008D00011D4FFF709FE401B6428F7D916E100BFC9
:1008E000FFF702FE401B64284FF0030000F2D8809F
:1008F00030688003F4D42078800719D5706810F030
:100900000C0F07D0706800F00C00082827D1706821
:10091000C00324D43068800703D52069012840F043
:10092000A6803068616920F0F80040EAC1003060BC
:10093000207800074ED5A06938B30020C4F24220C9
:100940000121C0F88014FFF7CFFD0546706A8007CB
:100950002DD4FFF7C9FD401B0228F7D9D6E0206946
:10096000002840F20000C4F2422000F0A8800121DB
:100970000160FFF7B9FD054630688007D1D4FFF765
:10098000B3FD401B0228F7D9C0E00020C4F242208A
:100990000021C0F88014FFF7A7FD0546706A8007A4
:1009A00018D5FFF7A1FD401B0228F7D9AEE040F2B1
:1009B0000000C2F20000006844F6D351C1F26201A7
:1009C000A0FB0101480A019000BF0198411E0028C8
:1009D0000191F9D12078400717D4E5698DB170688D
:1009E00000F00C00082846D1012D40D07068216A23
:1009F00000F480328A423AD1616A00F47010884271
:100A000035D1002002B0BDE8F081F0695FEAC0088E
:100A100008D4F06940F08050F061F06900F0805037
:100A20000090009847F20007C4F200073868C0053C
:100A30000FD4386840F480703860FFF755FD0546E4
:100A40003868C00505D4FFF74FFD401B6428F7D96F
:100A50005CE0E568306A1DB1052D41D0012D43D021
:100A600020F001003062306A20F004003EE00120F6
:100A700002B0BDE8F0810027C4F2422700203866AA
:100A8000FFF732FD022D05460ED100BF3068800110
:100A900053D5FFF729FD401B02284FF00300F5D97D
:100AA00002B0BDE8F08100BF30688001A9D5FFF732
:100AB0001BFD401B02284FF00300F5D9F0E7002191
:100AC0000160FFF711FD0546306880077FF530AF04
:100AD000FFF70AFD401B02284FF00300F4D9DFE7BF
:100AE00040F004003062306A40F001003062FFF7ED
:100AF000FBFC002D054641F2883712D0306A800792
:100B000012D4FFF7F1FC401BB842F7D9032002B022
:100B1000BDE8F081FFF7E8FC401BB8424FF003004E
:100B2000BED8306A8007F5D4B8F1000F3FF555AF55
:100B3000F06920F08050F0614FE7206AB0F5803F07
:100B400005D17168A26821F40031114371607168A8
:100B5000626A21F474111143084370600120386601
:100B6000FFF7C2FC044600BF306880013FF549AF83
:100B7000FFF7BAFC001B02284FF00300F4D98FE7FF
:100B8000411E0020B0EB116F1CBF012070474EF2D8
:100B90001002CEF2000251604EF62351CEF2000157
:100BA000F0230B700721906011607047002804BF8C
:100BB0000120704710B5044690F8410028B9002084
:100BC00084F84000204600F061F8242084F84100B9
:100BD0002068D4E90212C36823F40053C360036998
:100BE00023F440531A430261D4E904231143C26839
:100BF000194341F20C639A431143C1604169A269F0
:100C000021F44071114343F60002C4F20102904204
:100C1000416102D0FFF7F0FD01E0FFF701FED4E9EA
:100C20000023192148439900B0FBF1F048F21F5C02
:100C3000C5F2EB1CA0FB0C314FF69C734909C0F6C2
:100C4000FF7301FB0300322303EB0010A0FB0C0336
:100C5000F02000EA531000EB0110C3F343110844E5
:100C600090601069202120F490401061506920F0BC
:100C70002A005061D06840F40050D06000206064C9
:100C800084F8411084F84210606310BD70B586B0DE
:100C900040F60004C4F20104006804F54051002647
:100CA00088420596CDE90366029601D006B070BD74
:100CB00041F21800C4F20200016802AD41F4804123
:100CC0000160016801F4804101910199016841F0DE
:100CD000040101600068294600F0040001900198B9
:100CE0004FF40070029002200390032005902046EC
:100CF000FFF7FCFA4FF48060CDE902062046294652
:100D00000496FFF7F3FA06B070BD00002DE9F0433A
:100D100081B0044690F84200202809D18946002974
:100D20004FF0010018BF002A06D101B0BDE8F083E2
:100D3000022001B0BDE8F083002022211D4660643E
:100D400084F8421020631646FFF7CEFBA685E685A1
:100D5000A1680746B1F5805F02D12069002842D022
:100D6000C8464FF00009E08DD8B36E1C20680068BB
:100D7000800614D4002EF9D0FFF7B6FB0146002DF3
:100D80004FF0030066D0C91BA94263D82068C16830
:100D9000490744BF01685FEA0171E7D526E0B8F171
:100DA000000F0BD0A068B0F5805F10D008B92069A3
:100DB00068B12068406800F07F000AE020684FF0CA
:100DC000000840686FF35F2029F8020B03E02068F9
:100DD000406808F8010BE08D0138E085E08D0028BF
:100DE000C4D1002036E04FF00008BCE7002100919C
:100DF0000168009140680090009800BF206850E8AA
:100E0000030F216820F4907041E80302002AF5D115
:100E1000206850E8050F216820F0010041E8050234
:100E2000002AF5D1206B01280AD100BF206850E8C4
:100E3000030F216820F0100041E80302002AF5D1D9
:100E4000202084F84200002008212063616484F897
:100E500040000320202184F8421001B0BDE8F08357
:100E60002DE9F04381B0044690F84100202809D1D3
:100E7000884600294FF0010018BF002A06D101B0B2
:100E8000BDE8F083022001B0BDE8F083002060647B
:100E900021201D4684F841001646FFF725FBA68455
:100EA000E684A1680646B1F5805F02D1206900287A
:100EB0004DD0C1464FF00008E08C40B36F1C0BE0F2
:100EC000B9F1000F1AD019F8010B21684860E08CC5
:100ED0000138E084E08CD0B1206800680006EFD4CF
:100EE000002FF9D0FFF700FB01464FF0030045B398
:100EF000891BA94225D82068C068EDE738F8020BA5
:100F000021686FF35F2048604FF00009DFE7206839
:100F10000068400614D46F1C04E000BF206800681D
:100F200040060DD4002FF9D0FFF7DEFA01464FF04E
:100F3000030035B1891BA94203D82068C068EDE7DA
:100F40000020202184F8411001B0BDE8F0834FF06B
:100F50000009B1E7FEE70000FEE70000FEE7000041
:100F60007047000070470000FFF7C4BA70470000E8
:100F7000FEE7000090B0FFF7CBFA06AC2046282130
:100F8000FFF738F90220069001200A901020002572
:100F90000B9020460595CDE90355CDE901550D95FA
:100FA000FFF752FC18B1EFF3108072B6FEE70F2086
:100FB000CDE9010501A80021CDE903550595FFF70D
:100FC00041FB20B1EFF3108072B600BFFEE70025B1
:100FD00041F21800CDE90855CDE90655C4F20200EA
:100FE000016840F6000441F0040101600068C4F2A9
:100FF000010400F00400019001982046182100220D
:101000001826FFF76BFA0120CDE9070502200990A9
:1010100006A920460696FFF769F940F2700004F52C
:101020004051C2F200000C234FF4E13280E8260068
:10103000C0E90355C0E90535C561FFF7B7FD20B12B
:10104000EFF3108072B600BFFEE740F27004C2F208
:10105000000406AD2046294601224FF0FF33FFF77A
:10106000FFFE4FF4FA70FFF72DF9204629460122C2
:101070004FF0FF33FFF74AFE9DF8180000F002F82A
:10108000E8E70000B0B5722808D0672815D140F213
:10109000B804C2F200042068082105E040F2BC0454
:1010A000C2F2000420681021002840F60000C4F2BB
:1010B00001000ED0002200250DE040F27000C2F2C7
:1010C000000007A10F224FF0FF33BDE8B040FFF74B
:1010D000C7BE01220125FFF701FA2560B0BD00BFA0
:1010E000496E76616C696420696E707574210A00BE
:1010F00000000000000000000102030406070809C8
:1011000000000000010203040102020304050607B7
:1011100008090A0B0C0D0E0F1010000040110008FA
:1011200000000020100000005001000850110008CD
:1011300010000020B8060000700100080000000048
:1011400000127A0001000000100000000000000002
:04000005080000ED02
:00000001FF
