:020000040800F2
:1000000010070020BD010008B11E0008FD190008FE
:10001000AD1E00089D050008C51E00080000000078
:10002000000000000000000000000000B91E0008F1
:10003000A105000800000000B51E0008BD1E000854
:10004000D7010008D7010008D7010008D701000830
:10005000D7010008D7010008D7010008D701000820
:10006000D7010008D7010008D7010008D701000810
:10007000D7010008D7010008D7010008D701000800
:10008000D7010008D7010008D7010008D7010008F0
:10009000D7010008D7010008D7010008D7010008E0
:1000A000D7010008D7010008D7010008D7010008D0
:1000B000D7010008D701000800000000D7010008A0
:1000C000D70100080000000000000000D701000870
:1000D00000000000D7010008D70100080000000060
:1000E000D7010008D7010008D701000800F002F886
:1000F00000F055F814A696E8000CB244B344DA4573
:1001000001D100F04CF8BAE80F000FA696E83000D5
:10011000A5EB040504EB0607AAEB0704A7F101070A
:100120004FEA15154FEA3414A4F10104AC4201D38F
:1001300000F035F813F0010F18BFFB1A43F001036C
:1001400000F001F8DBE71847EC1F00000C2000006E
:10015000103A24BF78C878C1FAD8520724BF30C8F3
:1001600030C144BF04680C60704700007047000055
:100170000023002400250026103A28BF78C1FBD8B0
:10018000520728BF30C148BF0B607047642900F098
:10019000F580002070471FB51FBD10B510BD00F0E1
:1001A000C2F91146FFF7F7FF01F08EFE00F0E0F90B
:1001B00003B4FFF7F2FF03BC00F0E8F909488047F9
:1001C00009480047FEE7FEE7FEE7FEE7FEE7FEE739
:1001D000FEE7FEE7FEE7FEE704480549054A064B51
:1001E00070470000C11E0008ED000008100100204B
:1001F00010070020100300201003002053EA020C17
:1002000000F069802DE9F04B4FF00006002B1FBF76
:10021000B3FA83F503FA05F424FA05F65E4012BF3B
:100220001643B2FA82F502FA05F4C5F120051EBFA5
:1002300022FA05FC44EA0C04203556EA044C4FEA45
:10024000144418BF641C4FF000084FF0000990429E
:1002500071EB030C39D3002919BFB1FA81F701FA08
:1002600007F6B0FA80F700FA07F6C7F120071EBFBD
:1002700020FA07FC46EA0C062037B6FBF4FCA7EB95
:100280000507103F07F01F0BCBF120062CFA06F6EE
:100290000CFA0BFB44BFB3460026202FA4BF5E46DA
:1002A0004FF0000B5BEA060C08BF4FF0010B19EB97
:1002B0000B0948EB0608ABFB027C06FB02CC0BFBF0
:1002C00003CCC01B71EB0C01C1E70B460246414653
:1002D0004846BDE8F08B13B5084318BF4FF0FF3018
:1002E0000146AFF30080BDE81C4070470FB41CB559
:1002F000074B06AA7B4469460090059800F0FBF87E
:100300000020694600F00AF91CBC5DF814FB0000EF
:10031000250200002DE9F0410E460446002020622F
:100320002046E168884730B3252805D0D4E901216B
:100330009047206A401CF2E7E16820460027884782
:10034000050018D0A5F14100192802D820354FF436
:1003500000673246294620462760FFF717FF40B165
:10036000012804D0F61D26F007060836D8E7361D0A
:10037000D6E72846DAE7206ABDE8F0812DE9F041AA
:100380000646002410687529314616A510D0AFF333
:100390000080002802DA404213A507E031688A078E
:1003A00001D512A502E0490704D511A5012401E0F9
:1003B000AFF3008000210A2206F1240709E0B0FB18
:1003C000F2FCB0FBF2F302FB1C003030785418460C
:1003D000491C0028F3D123462A463046BDE8F041A7
:1003E00000F02AB8000000002D0000002B000000E3
:1003F0002000000010B5431C02E010F8011B71B191
:100400008107FAD14FF0013202C88C1A8C4314EAEA
:10041000C211F9D0C01A0A0603D0C01E10BDC01AFE
:1004200010BD0A0401D0801E10BD0902FCD0401E80
:1004300010BD7047704770472DE9F0470D4699464B
:100440009246044600F124080168880604D5E06954
:1004500021F01001216000E00120A84201DD471BCE
:1004600000E00027A1697A1902EB0900081AA061CF
:100470002078C00602D42046AFF30080002608E0B2
:10048000D4E901211AF806009047206A401C761C26
:1004900020624E45F4DB2078C0060AD52046AFF333
:1004A000008006E0D4E9012130209047206A401CFA
:1004B0002062381EA7F10107F4DC07E0D4E901212E
:1004C00018F805009047206A401C2062281EA5F1FC
:1004D0000105F3DC2046AFF300802078000602D54A
:1004E0000220BDE8F0870120FBE7000001694A1CFB
:1004F00002610878704700B58FB0CDE90131002165
:10050000059105497944CDE9031011466846FFF786
:1005100001FF0FB000BD0000E5FFFFFF0A6802F811
:10052000010B0A607047754600F02CF8AE460500D6
:100530006946534620F00700854618B020B5FFF7FE
:100540004BFEBDE820404FF000064FF000074FF093
:1005500000084FF0000BAC46ACE8C009ACE8C0099D
:10056000ACE8C009ACE8C00921F007018D4670472E
:1005700010B50446AFF300802046BDE81040FFF7F9
:1005800017BE0000004870471000002001491820E5
:10059000ABBEFEE72600020070470000FEE7000049
:1005A00070470000B0B5044600F010F9054640F26F
:1005B0000000C2F200000078611C18BF044400BFB4
:1005C00000F004F9401BA042FAD3B0BD2DE9F04F72
:1005D00082B00E68002E00F0F58041F20002C4F2F5
:1005E0000102032340F2004E904208BF02234FF65F
:1005F000FF7CC4F2010E009300240123C1F2100C11
:100600004FF0000B4FF0000944E000BF002704F05A
:100610000C030F229A402AEA020207FA03F34FEA78
:100620009B051A4346F825204E6840F20C45F2021D
:10063000DEF8082054BF22EA080242EA0802C4F2A7
:100640000105CEF808202A68B30254BF22EA080246
:1006500042EA08022A60B303DEF8042054BF22EA0B
:10066000080242EA0802F303CEF80420DEF8002074
:100670004FF0010354BF22EA080242EA0802CEF812
:1006800000200E680BF1010B36FA0BF204F10404A2
:1006900000F0988003FA0BFA16EA0A08F1D04E68C7
:1006A000664511DC122E55D8DFE806F0340A4C48B6
:1006B0005454545454545454545454545444500062
:1006C000D1F80C9046E000BF4FF6FF72C1F2210254
:1006D00096420FDC0022C1F2110296421AD000228B
:1006E000C1F21202964215D00022C1F221029642B6
:1006F00010D02FE00022C1F2220296420AD000223E
:10070000C1F23102964205D00022C1F23202964275
:1007100020D100BF8A684AB1012A14BFC0F814A0D2
:10072000C0F810A04FF0080914E000BF4FF0040912
:1007300010E000BFCA6802F104090BE04FF00009A5
:1007400008E000BFCA6802F1080903E0CA6802F1C4
:100750000C0900BF02462646B8F5807F24BF04324C
:10076000203E17680F25B54027EA050509FA06F669
:1007700035431560CA79D2067FF583AF41F218037D
:10078000C4F202031A68AEF57E7642F001021A60E6
:100790001A6802F001020192019A2BF0030256F846
:1007A00002A040F60002C4F2010290423FF42EAFD4
:1007B00040F60042C4F20102009F904208BF0127A8
:1007C00025E700BF02B0BDE8F08F000040F20C103A
:1007D000C2F2000000687047002804BF0120704783
:1007E000F0B581B0044690F83D0028B9002084F8A7
:1007F0003C00204600F090FB242084F83D00206857
:10080000016821F001010160016841F400410160CB
:10081000016821F40041016000F036FD636848F290
:10082000A16CC0F2010C40F60011C0F23D0163451D
:100830003CBF48F28041C0F21E01884202D2012032
:1008400001B0F0BD4DF68361C4F21B31A0FB011273
:100850002168970CD1F804E04FF496762EF03F050E
:1008600045EA92454D60774348F638160D6AC0F266
:100870004106A7FB067625F03F07634538BF960C77
:10088000721C3A430A62CA6948F2A0664CF6FF77C6
:10089000C0F20106B34222EA07020BD801385B001E
:1008A000B0FBF3F001306FF31F30042898BF042031
:1008B0001BE000BFA768013857B119277B43B0FB85
:1008C000F3F001306FF31F3070B100F5804007E0A6
:1008D00003EB4303B0FBF3F001306FF31F3018B1AB
:1008E00000F5004001E000BF01201043C861086826
:1008F000D4E9072320F0C00010431843086088683B
:1009000048F2FF3204F10C0790438CCF1843104398
:10091000A6698860C86820F0FF0038433043C8608B
:10092000086840F00100086000202021206484F85D
:100930003D10206384F83E0001B0F0BD2DE9F04782
:1009400084B0044600201F46164689460290FFF7F1
:100950003DFF94F83D10202924D10546206800BFB2
:10096000816989071AD5FFF731FF411B20681A29D1
:10097000F6D381698907F3D500202021206384F80C
:100980003D1084F83E00216C41F02001216484F880
:100990003C00022004B0BDE8F08700BF94F83C1092
:1009A000012903D1022004B0BDE8F087012184F8B9
:1009B0003C100168C90703D1016841F001010160E1
:1009C0000168DDF8308021F400610160222184F8A3
:1009D0003D10102184F83E10002121646662678575
:1009E000618D0227C0F201072185A7F10211E162A2
:1009F000E16A026811F5803F42F48062026018BF2C
:100A000001293DD1016841F48071016020464FF019
:100A1000011100224346009501F050F850B12068C2
:100A20000068C00544BF4FF400702064012004B08A
:100A3000BDE8F0872069B0F5804F27D149F001006B
:100A4000C0B2216842460861204639462B4601F073
:100A50001BF90028EAD1208D022861D0012849D055
:100A6000002840F0738000200390206841690391C2
:100A7000816903910399016841F40071016071E09B
:100A80000829BFD0216B1129BCD0BFE7062000EA9E
:100A9000D916206806F1F0010161B91D20464246D1
:100AA0002B4601F0F1F80028C0D120685FFA89F1E7
:100AB00001612046394642462B4601F0E5F8002800
:100AC000B4D100200390206800224169434603917D
:100AD000816903910399016841F4807101602046A6
:100AE0004FF00111009500F0E9FF002897D146F082
:100AF000F100A6E72068016821F480610160EFF34E
:100B0000108072B6002003902068416903918169CA
:100B100003910399016841F40071016062B621E01C
:100B20002068016841F400610160EFF3108072B643
:100B30000020039020684169039181690391039922
:100B4000016821F48061016062B60BE020680168F1
:100B500041F4806101600021039141690391806942
:100B600003900398208D002800F0CA8040F2080905
:100B70004BF2895A0237C2F20009C1F2F84A232621
:100B80000EE000BF10690870606A218D013060625C
:100B9000481E2085618D01396185010400F0B08017
:100BA00080B203280CD802282CD001284AD1204634
:100BB00041462A4601F0D4F8002800F09C8035E731
:100BC000204641462A4601F0CBF800287FF42EAF9C
:100BD0002068616A00690870606A2268411C208D83
:100BE000616201382085638D013B638553695B0732
:100BF000D3D580B20328C5D1106820F4806010607E
:100C0000C0E700BF2046394600224346009500F069
:100C100055FF00287FF40AAFEFF3108072B620680A
:100C2000616A026842F40072026000690870606ADA
:100C3000218D01306062481E2085608D01386085FD
:100C400062B658E02046394600224346009500F03F
:100C500035FF00287FF4EAAE2068016821F4806146
:100C60000160EFF3108072B62068616A0069087055
:100C7000606A218D0130013960622185618D013901
:100C80006185D9F80010C908A1FB0A12110A714345
:100C90000291029901390291029900293CD0216800
:100CA0004A69520717D4029A013A0292029A9AB3F9
:100CB0004A6952070FD4029A013A0292029A5AB331
:100CC0004A69520707D4029A013A0292029A1AB369
:100CD0004A695207DDD50A6842F400720A60096960
:100CE0000170606A218D01306062481E2085608D30
:100CF0000138608562B62068616A006943E700BF19
:100D0000202084F83D00002084F83E0084F83C0058
:100D100004B0BDE8F08700BF00202021206384F8E4
:100D20003D1084F83E00216C41F02001216462B640
:100D300084F83C00012004B0BDE8F0872DE9F043C1
:100D400083B01E46174689460446FFF73FFD94F8D8
:100D50003D10202924D10546206800BF81698907FC
:100D60001AD5FFF733FD411B20681A29F6D3816994
:100D70008907F3D500202021206384F83D1084F8F2
:100D80003E00216C41F02001216484F83C000220E7
:100D900003B0BDE8F08300BF94F83C10012903D1F3
:100DA000022003B0BDE8F083012184F83C10016803
:100DB000C90703D1016841F001010160016840F2F7
:100DC000020821F400610160212184F83D10102106
:100DD00084F83E100021216467626685618DC0F24F
:100DE00001082185A8F10211E162E16A0A9E11F56C
:100DF000803F18BF01291DD1016841F48071016055
:100E000020464FF0011100223346009500F056FEB7
:100E100050B120680068C00544BF4FF400702064E2
:100E2000012003B0BDE8F0832069B0F5804F07D101
:100E3000FE2015E00829DFD0216B1229DCD0DFE786
:100E4000062000EAD9102168F030086108F1060197
:100E5000204632462B4600F017FF0028E0D1FF2045
:100E6000216800EA090008612046414632462B46C7
:100E700000F00AFF0028D3D10020029020684169C9
:100E8000029180690290029806E000BF2046314638
:100E90002A4600F0B5FD18BB208D68B320463146C8
:100EA0002A4600F0A5FFD8B9606A2168024612F808
:100EB000013B0B616262628D013A6285228D531E95
:100EC00023854F697F07E1D51B04DFD043780230CB
:100ED0000B616062608D01386085901E2085D5E7CA
:100EE000206C04289CD12068016841F400710160E5
:100EF000012003B0BDE8F0832068016841F400716F
:100F00000160202084F83D00002084F83E0084F831
:100F10003C0003B0BDE8F08310B586B0016845F22F
:100F20000040C4F2000081424FF00001CDE90411FD
:100F3000CDE9021102D006B010BD00BF41F2180485
:100F4000C4F20204216800F5384041F00801216034
:100F5000216801F0080101910199C021029112213B
:100F600003910121CDE9041102A9FFF72FFB60686D
:100F700040F400106060606800F400100190019877
:100F800006B010BD40F2000040F20C11C2F20000A9
:100F9000C2F2000100780A6810440860704700003F
:100FA00080B542F20000C4F20200016841F0100175
:100FB0000160032000F07AF80F2000F005F800F03F
:100FC00027F8002080BD000070B540F20006C2F294
:100FD000000640F208013278C2F200014FF47A7341
:100FE0000968B3FBF2F20446B1FBF2F1084600F0E7
:100FF00073FB0F2C4FF0010508D838B94FF0FF30C4
:1010000021460022002500F025F87460284670BDB6
:1010100082B041F21800C4F202000168042241F0DB
:1010200001010160016801F001010191019941682C
:1010300041F080514160406800F08050009000987D
:101040000420C4F20100016862F31A61016002B079
:101050007047000010B54EF60C5CCEF2000CDCF8C8
:101060000030C3F3022E8EF00704042C28BF0424A2
:10107000BEF103034FF0FF3E0EFA04F438BF002325
:10108000A14399400EFA03F39A43114300F00F0273
:1010900000F160430901043A03F564436244002807
:1010A00048BF02F10C03197010BD00004EF60C5140
:1010B000CEF200010A684FF6FF031A4060F30A22DD
:1010C00042F0806040F0FD7008607047002804BF67
:1010D000012070472DE9F04381B042F20008C4F2CC
:1010E00002080446D8F800000D4600F007008142CF
:1010F0000CD9D8F8000020F007002843C8F80000F9
:10110000D8F8000000F00700A8426CD1206841F236
:1011100004098107C4F2020917D5410705D5D9F89A
:10112000001041F4E061C9F80010010705D5D9F8B5
:10113000001041F46051C9F80010D9F80010A268FD
:1011400021F0F0011143C9F80010C00742D1D8F8CE
:10115000000000F0070085420CD2D8F8000020F013
:1011600007002843C8F80000D8F8000000F0070086
:10117000A84238D12068410707D5D9F80010E268A5
:1011800021F4E0611143C9F80010000708D5D9F82F
:101190000000216920F4605040EAC100C9F8000055
:1011A000D9F8002002F00C00082841F20020C0F21B
:1011B0007A004DD142F22413C2F38341C0F60003FA
:1011C000595CD20338D440F60010C0F23D004843C9
:1011D0003EE000BF606859F8041C022808D00128CE
:1011E00026D1890306D4012001B0BDE8F08300BFF9
:1011F0008901F8D5D9F8001021F003010843C9F896
:101200000000FFF7E3FA064641F28837D9F80000FC
:10121000616800F00C00B0EB810F98D0FFF7D6FAB0
:10122000801BB842F2D9032001B0BDE8F08300BFB3
:101230008907D8D5DEE700BFD9F8002042F2221393
:10124000C2F34042C0F600039A5C4843B0FBF2F0A0
:10125000D9F8001042F20A12C1F30311C0F60002DD
:10126000515C40F2080220FA01F140F20400C2F29F
:1012700000000068C2F200021160FFF7A5FE002026
:1012800001B0BDE8F083000040F2080041F2040123
:10129000C2F20000C4F202010068096842F21A12A8
:1012A000C1F30221C0F60002515CC8407047000043
:1012B00040F2080041F20401C2F20000C4F202014F
:1012C0000068096842F21A12C1F3C221C0F6000296
:1012D000515CC84070470000002804BF01207047DF
:1012E0002DE9F04182B00446007841F20006C007C3
:1012F000C4F202060CD0706800F00C00042840F024
:1013000081803068800303D56068002800F0468142
:10131000207880071BD5706810F00C0F09D070681A
:1013200000F00C00082840F087807068C00300F1CE
:1013300083803068800703D52069012840F02E8122
:101340003068616920F0F80040EAC1003060207820
:10135000000713D4207840072CD4E569002D00F055
:101360001881706800F00C00082840F0A780012D5B
:1013700040F00481012002B0BDE8F081A06900289E
:1013800000F084800020C4F242200121C0F88014C3
:10139000FFF71CFA054600BF706A800700F1B280B3
:1013A000FFF714FA401B0228F6D9032002B0BDE86B
:1013B000F08100BFF0695FEAC00808D4F06940F02E
:1013C0008050F061F06900F080500090009847F282
:1013D0000007C4F200073868C00549D4386840F4F3
:1013E00080703860FFF7F2F9054600BF3868C00525
:1013F0003ED4FFF7EBF9401B6428F7D9032002B075
:10140000BDE8F081706800F00C00082803D1706816
:10141000C0033FF576AF61683068002900F00C81A9
:10142000B1F5A02F00F00081B1F5803F40F01A81A6
:1014300040F480301CE100BF2069002840F2000029
:10144000C4F2422000F0888001210160FFF7BEF95C
:10145000054600BF306880073FF572AFFFF7B6F969
:10146000401B0228F6D9032002B0BDE8F08100BF7E
:10147000E168306A002900F09D80052900F0928023
:10148000012940F0AF8040F00100B1E00020C4F23B
:1014900042200021C0F88014FFF798F9054600BFEC
:1014A000706A80077FF556AFFFF790F9401B02285E
:1014B000F6D9032002B0BDE8F08100BF0027C4F2D6
:1014C000422700203866FFF781F9022D05460DD12D
:1014D0003068800140F1DE80FFF778F9401B022878
:1014E0004FF00300F4D902B0BDE8F081306880010C
:1014F0004FD5FFF76BF9401B02284FF00300F5D9D9
:10150000F1E700BF40F20800C2F20000006844F6B4
:10151000D351C1F26201A0FB0101480A019000BF52
:1015200000BF0198411E002801913FF413AF00BF96
:101530000198411E002801913FF40CAF00BF0198B3
:10154000411E002801913FF405AF00BF0198411EE4
:1015500000280191E4D1FDE600210160FFF736F992
:10156000054600BF306880077FF5F1AEFFF72EF922
:10157000401B02284FF00300F4D9B4E77068216AD9
:1015800000F480328A4209D1616A00F47010884206
:1015900004D1002002B0BDE8F08100BF012002B0FC
:1015A000BDE8F08140F004003062306A40F0010094
:1015B0001EE000BF20F001003062306A20F004001D
:1015C0003062FFF703F9054641F28837306A800739
:1015D00020D5FFF7FBF8401BB8424FF00300F5D9C8
:1015E00081E700BF20F001003062306A20F0040083
:1015F0003062FFF7EBF8054641F28837306A800722
:1016000008D4FFF7E3F8401BB842F7D9032002B033
:10161000BDE8F081B8F1000F3FF59FAEF06920F012
:101620008050F06199E600BF40F48020306030685F
:1016300040F480301CE000BF20F48030306030681F
:1016400020F480203060FFF7C1F805463068800341
:101650007FF55EAEFFF7BAF8401B64284FF0030039
:10166000F4D940E720F480303060306820F48020E6
:101670003060FFF7ABF80546306880033FF548AEB1
:10168000FFF7A4F8401B6428F6D9032002B0BDE898
:10169000F08100BF206AB0F5803F05D17168A26873
:1016A00021F40031114371607168626A21F4741190
:1016B00011430843706001203866FFF787F804463D
:1016C000306880013FF565AFFFF780F8001B022806
:1016D0004FF00300F4D906E7411E0020B0EB116F74
:1016E0001CBF012070474EF21002CEF20002516082
:1016F0004EF62351CEF20001F0230B7007219060CB
:1017000011607047002804BF0120704710B50446DF
:1017100090F8410028B9002084F84000204600F0ED
:1017200063F8242084F841002068D4E90212C368D9
:1017300023F40053C360036923F440531A43026146
:10174000D4E904231143C268194341F20C639A435C
:101750001143C1604169A26921F44071114343F60C
:101760000002C4F201029042416103D0FFF78CFDF8
:1017700002E000BFFFF79CFDD4E900231921484394
:101780009900B0FBF1F048F21F5CC5F2EB1CA0FB26
:101790000C314FF69C734909C0F6FF7301FB03003F
:1017A000322303EB0010A0FB0C03F02000EA5310DF
:1017B00000EB0110C3F3431108449060106920212D
:1017C00020F490401061506920F02A005061D068E8
:1017D00040F40050D0600020606484F8411084F828
:1017E0004210606310BD000070B586B040F6000482
:1017F000C4F20104006804F54051002688420596B1
:10180000CDE90366029601D006B070BD41F2180022
:10181000C4F20200016802AD41F480410160016838
:1018200001F4804101910199016841F004010160D6
:101830000068294600F00400019001984FF4007000
:10184000029002200390032005902046FEF7BEFE82
:101850004FF48060CDE90206204629460496FEF743
:10186000B5FE06B070BD00002DE9F04381B004461E
:1018700090F84100202809D100294FF0010018BF3D
:10188000002A07D101B0BDE8F08300BF022001B0FB
:10189000BDE8F0830020606421201D460E4684F8D8
:1018A00041001746FEF792FFA784E784A1688146AE
:1018B000B1F5805F02D1206900285DD03746002055
:1018C000E28C2168002A5DD06A1C24D0002D4AD009
:1018D000804600BF0868000608D4FEF777FFA0EB3B
:1018E0000900A8427AD82168C868F3E717B117F849
:1018F000010B04E038F8020B00276FF35F2048600B
:10190000E08C0138E084E08C0028E3D13AE000BFAD
:101910000A68120609D40A68120606D40A68120672
:101920005CBF0A685FEA0262F2D51FB117F8012BAB
:1019300005E000BF30F8022B00276FF35F224A60FA
:10194000E28C013AE284E28C002AE4D11AE000BF82
:1019500030F8022B00276FF35F224A60E28C013AD5
:10196000E284E28C72B10A68120635D5002FEFD0FE
:1019700017F8012BF1E700BF00273046E28C216801
:10198000002AA1D1086840061ED42DB3681C14D1CA
:10199000086840062AD40868400627D4086840062C
:1019A00024D4086840064FF00000F1D50DE000BFD8
:1019B0002068C1680068400618D4FEF707FFA0EB56
:1019C0000900A842F4D909E00020202184F8411040
:1019D00001B0BDE8F08300BFFEF7F8FE0320202130
:1019E00084F8411001B0BDE8F08300BF0020202141
:1019F00084F8411001B0BDE8F0830000FEE700006C
:101A000070B50368044653F8140F400711D40E460E
:101A1000481C29D086BB00BF1868400527D4FEF7B4
:101A2000D5FE236853F8140F400737D518684007D0
:101A3000F2D5002070BD00BF18684007F9D41868BF
:101A4000400514D418684007F3D4186840050ED434
:101A500018684007EDD41868400508D41868400796
:101A60004FF0000048BF70BD18684005E4D56FF422
:101A700080601860042012E0154603E053F8140F4C
:101A80004007D6D418684005F1D4FEF79FFE401BEE
:101A90002368B042F2D958694007EFD420200021D2
:101AA0002022216384F83D2084F83E10226C1043EC
:101AB0002064012084F83C1070BD00002DE9F04145
:101AC000054600681E46144601F47F0201338FB2BA
:101AD00042D0DDF81880B2F5803F40F08780406941
:101AE0003840C01BB0FA80F04009844240F0C88002
:101AF0004EB924E040693840C01BB0FA80F040097C
:101B0000844240F0BD80FEF761FEA0EB080128682A
:101B1000B142EFD941693940C91BB1FA81F1490994
:101B20008C42E7D19BE000BF40693840C01BB0FA4F
:101B300080F0400984424FF0000040F0A280FEF7A0
:101B400045FE286841693940C91BB1FA81F149094C
:101B50008C42E9D183E000BFB2F5803F24D100BFC1
:101B600041693940C91BB1FA81F149098C4240F001
:101B7000878041693940C91BB1FA81F149098C421A
:101B800040F07E8041693940C91BB1FA81F14909B1
:101B90008C4275D141693940C91BB1FA81F14909BB
:101BA0008C42DDD06CE000BF81693940C91BB1FABD
:101BB00081F149098C4263D181693940C91BB1FA6D
:101BC00081F149098C425BD181693940C91BB1FA65
:101BD00081F149098C4253D181693940C91BB1FA5D
:101BE00081F149098C42DFD04AE000BF806938406A
:101BF000C01BB0FA80F04009844241D146B923E0CD
:101C000080693840C01BB0FA80F04009844237D167
:101C1000FEF7DCFDA0EB08012868B142F0D981692C
:101C20003940C91BB1FA81F149098C42E8D116E06B
:101C300080693840C01BB0FA80F0400984424FF000
:101C4000000018BFBDE8F081FEF7C0FD286881697B
:101C50003940C91BB1FA81F149098C42E8D1002011
:101C60002021286385F83D1085F83E00296C41F05D
:101C70002001296485F83C000120BDE8F08100BF07
:101C80000020BDE8F0810000F0B581B00446006896
:101C90001D4643698FB203EA0701B94202D1002011
:101CA00001B0F0BD4169164601323CD0490512D45D
:101CB0007EB300BFFEF78AFD411B2068B14203D905
:101CC00041693940B9422BD141693940B942E6D026
:101CD00041694905EED5016841F4007101606FF476
:101CE00080614161042000212022216384F83D208D
:101CF00084F83E10226C1043206484F83C100120CC
:101D000001B0F0BD41693940B942C8D041694905C7
:101D1000E1D4FEF75BFD206841693940B942F1D05A
:101D20002020E0E741694905D5D441693940B942ED
:101D3000B5D041694905CED441693940B942AED0E8
:101D400041694905C7D441693940B942A7D04169C1
:101D50004905C0D441693940B942E3D19FE7000049
:101D600070B504460068154650F8143F5A063DD435
:101D70000E4629B926E000BF50F8141F490635D495
:101D80000168C90621D4FEF721FD411B2068B1423C
:101D9000F2D941694906EFD400202021206384F85C
:101DA0003D1084F83E00206C40F0200018E000BF99
:101DB000FEF70CFD206850F8141F4906ECD50168A9
:101DC000490613D40168C906F2D56FF0100101600D
:101DD00000202021206384F83D1084F83E00206C10
:101DE0002064002084F83C00012070BD002070BDFC
:101DF00070B50368044653F8140F000611D40E465C
:101E0000481C29D086BB00BF1868400527D4FEF7C0
:101E1000DDFC236853F8140F000637D51868000658
:101E2000F2D5002070BD00BF18680006F9D418680C
:101E3000400514D418680006F3D4186840050ED481
:101E400018680006EDD41868400508D41868000624
:101E50004FF0000048BF70BD18684005E4D56FF42E
:101E600080601860042012E0154603E053F8140F58
:101E70000006D6D418684005F1D4FEF7A7FC401B35
:101E80002368B042F2D958690006EFD4202000211F
:101E90002022216384F83D2084F83E10226C1043F8
:101EA0002064012084F83C1070BD0000FEE70000B3
:101EB000FEE700007047000070470000FFF762B8BF
:101EC00070470000FEE7000092B0FFF769F80024B9
:101ED0000120CDE90544CDE90344009004904FF47E
:101EE000E0104FF48031022509906846CDE90114D5
:101EF000CDE90751FFF7F0F920B1EFF3108072B68A
:101F0000FEE700BF0F20CDE90D054FF48060CDE95D
:101F100010040DA802210F94FFF7D8F820B1EFF3B9
:101F2000108072B6FEE700BF41F21800C4F2020052
:101F3000016845F2004541F0200101600168C4F2EA
:101F4000000501F02001009100990168002441F092
:101F50000401016001684FF4804201F00401009126
:101F60000099016841F008010160006848F2A06131
:101F700000F008000090009840F27000C2F20000EB
:101F8000C0F20101C0E90051C0E90244C0E90424E3
:101F9000C0E906440462FEF71FFC28B1EFF310808D
:101FA00072B600BFFEE700BF40F2C40005F5644111
:101FB000C2F200000C234FF4165280E81600C0E96C
:101FC0000344C0E90534C461FFF79CFB20B1EFF383
:101FD000108072B6FEE700BF40F2700440F2C40702
:101FE000C2F200040FF240086E46C2F2000700BFC2
:101FF000204600F049F80546204600F01BF803464D
:10200000304641462A46FEF771F93046FEF7F2F9AE
:1020100082B2384631464FF0FF33FFF725FC4FF4CC
:102020007A70FEF7BFFAE3E72564202D2025640AC5
:1020300000000000B0B582B00446F5208DF8040021
:10204000642501AA2046802101230095FEF776FE33
:1020500050B91E20FEF7A6FA01AA204681210223CC
:102060000095FEF76BFC18B14FF6FF7002B0B0BDE3
:10207000BDF804007D2140BA48436FF0050101EB33
:10208000104002B0B0BD0000B0B584B00446F320EB
:102090008DF80800642502AA2046802101230095BE
:1020A000FEF74CFEC8B91E20FEF77CFA03AA2046B4
:1020B000812102230095FEF741FC70B9BDF80C00A8
:1020C00040F2A05201BACFF6FF7202EB114140F686
:1020D0009B72CFF6FF72914204D24FF6FF7004B0AC
:1020E000B0BD00BF40BA6421484344F2A4414FF65A
:1020F0009C72A0FB0101C0F263020023FEF77EF890
:1021000041F24D21401A04B0B0BD000000000000B3
:102110000000010203040607080900000000010294
:102120000304010202030405060708090A0B0C0D4B
:102130000E0F1010582100080000002010000000B1
:10214000500100086821000810000020000700006E
:1021500070010008000000000100000010000000F5
:0821600000127A0000000000EB
:04000005080000ED02
:00000001FF
