:020000040800F2
:10000000708E002069030008C11B00081D1800083D
:10001000791A0008AD060008592100080000000008
:10002000000000000000000000000000690200085D
:10003000B106000800000000390300084903000869
:100040008303000883030008830300088303000878
:100050008303000883030008830300088303000868
:100060008303000883030008830300088303000858
:100070008303000883030008830300088303000848
:1000800083030008830300088303000800000000C6
:1000900000000000000000000000000083030008D2
:1000A0008303000883030008830300088303000818
:1000B0008303000883030008830300088303000808
:1000C00083030008830300088303000883030008F8
:1000D0008303000883030008830300080000000076
:1000E0008303000883030008830300080000000066
:1000F0000000000000000000000000008303000872
:100100000000000083030008830300088303000845
:1001100000000000000000000000000000000000DF
:100120008303000883030008830300088303000897
:100130008303000800000000000000000000000031
:100140000000000000000000000000008303000821
:100150008303000883030008830300088303000867
:100160008303000883030008000000000000000073
:10017000000000000000000000000000000000007F
:1001800000000000830300080000000000000000E1
:100190008303000800F002F800F052F814A696E875
:1001A000000CB244B344DA4501D100F049F8BAE892
:1001B0000F000FA696E83000A5EB040504EB060738
:1001C000AAEB0704A7F101074FEA15154FEA34140B
:1001D000A4F10104AC4201D300F032F813F0010F96
:1001E00018BFFB1A43F0010300F001F8DBE71847E2
:1001F0006454000084540000103A24BF78C878C1C9
:10020000FAD8520724BF30C830C144BF04680C601C
:1002100070470000704700000023002400250026DE
:10022000103A28BF78C1FBD8520728BF30C148BF59
:100230000B6070471FB500F02DFA1FBD10B510BD43
:1002400000F0EDF9114603B402F01AF803BCFFF711
:10025000F1FF02F03FFA00F007FA03B4FFF7EEFFF8
:1002600003BC00F00FFA00001EF0040F0CBFEFF308
:100270000880EFF30980816911F8021C00294DD133
:1002800001B590E80F10E047BDE80050CCF8000041
:10029000314B93E80600914208BF70471A6041B99C
:1002A0001EF0100F2CD12D4B186820F001001860A3
:1002B00026E0ACF1200C1EF0100F08BFACF1400C92
:1002C00081F822E0C1F838C006B4084603F0DCFC2F
:1002D00006BC50B90C46012002F016FC204B5A68AF
:1002E0001A60002194F922E0DAE7D1F838C091F9D8
:1002F00022E01EF0100F08BFACEC108A8CE8F00F63
:100300001400A06B94F922E01EF0100F08BFB0ECAF
:10031000108AB0E8F00F80F309887047114A13681B
:100320009942FAD801B552F821C00FC8E047BDE89C
:100330000050CCF80000704701B503F043F8BDE869
:100340000140EFF3098CA3E701B503F07FFDBDE8A1
:100350000140EFF3098C9BE71800002034EF00E028
:1003600018000020E4550008094880470948004764
:10037000FEE7FEE7FEE7FEE7FEE7FEE7FEE7FEE755
:10038000FEE7FEE704480549054A064B70470000B2
:10039000012000089501000870880020708E002060
:1003A000708A0020708A002053EA020C00F06980F5
:1003B0002DE9F04B4FF00006002B1FBFB3FA83F579
:1003C00003FA05F424FA05F65E4012BF1643B2FAAA
:1003D00082F502FA05F4C5F120051EBF22FA05FCDC
:1003E00044EA0C04203556EA044C4FEA144418BF82
:1003F000641C4FF000084FF00009904271EB030CB1
:1004000039D3002919BFB1FA81F701FA07F6B0FA1A
:1004100080F700FA07F6C7F120071EBF20FA07FC95
:1004200046EA0C062037B6FBF4FCA7EB0507103FA5
:1004300007F01F0BCBF120062CFA06F60CFA0BFB8B
:1004400044BFB3460026202FA4BF5E464FF0000BEA
:100450005BEA060C08BF4FF0010B19EB0B0948EBE8
:100460000608ABFB027C06FB02CC0BFB03CCC01BDB
:1004700071EB0C01C1E70B46024641464846BDE818
:10048000F08B13B5084318BF4FF0FF300146AFF3B0
:100490000080BDE81C407047032A40F2308010F015
:1004A000030C00F0158011F8013BBCF1020F62440F
:1004B00098BF11F801CB00F8013B38BF11F8013BA0
:1004C000A2F1040298BF00F801CB38BF00F8013B4D
:1004D00011F0030300F07180083AC0F0088051F871
:1004E000043B083A51F804CBA0E80810F5E7121DC8
:1004F0005CBF51F8043B40F8043BAFF30080D207E7
:1005000024BF11F8013B11F801CB48BF11F8012BB2
:1005100024BF00F8013B00F801CB48BF00F8012BD5
:1005200070474FF000020429C0F0128010F0030C55
:1005300000F01B80CCF1040CBCF1020F18BF00F8D6
:10054000012BA8BF20F8022BA1EB0C0100F00DB885
:100550005FEAC17C24BF00F8012B00F8012B48BFE3
:1005600000F8012B70474FF0000200B51346944687
:100570009646203922BFA0E80C50A0E80C50B1F1FB
:100580002001BFF4F7AF090728BFA0E80C5048BF0F
:100590000CC05DF804EB890028BF40F8042B08BFAD
:1005A000704748BF20F8022B11F0804F18BF00F8A9
:1005B000012B704770477047704710B5203AC0F064
:1005C0000B80B1E81850A0E81850B1E81850A0E826
:1005D0001850203ABFF4F5AF5FEA027C24BFB1E8BF
:1005E0001850A0E8185044BF18C918C0BDE8104002
:1005F0005FEA827C24BF51F8043B40F8043B08BF0B
:100600007047D20728BF31F8023B48BF11F8012BD1
:1006100028BF20F8023B48BF00F8012B7047754601
:1006200000F02CF8AE4605006946534620F007005E
:10063000854618B020B5FFF7A5FEBDE820404FF075
:1006400000064FF000074FF000084FF0000BAC46DB
:10065000ACE8C009ACE8C009ACE8C009ACE8C00926
:1006600021F007018D46704710B50446AFF30080B6
:100670002046BDE81040FFF7F0BD0000004870477D
:10068000B000002001491820ABBEFEE726000200A2
:100690007047000080B504F03CFFF1EE100A4EF602
:1006A0003C71CEF20001086080BD0000FFE7FEE76C
:1006B0007047000081B0009001B0704781B0009099
:1006C00001B0704781B0009001B0704781B00090D8
:1006D00001B0704781B0009001B0704781B00090C8
:1006E00001B0704782B00190009102B070470000E5
:1006F00081B0009001B07047704700007047000063
:10070000704700007047000084B00390029101928E
:10071000009304B07047000082B00190009102B0D5
:100720007047000083B002900191009203B07047BF
:1007300084B0039002910192009304B070470000CE
:1007400083B002900191009203B0704783B0029091
:100750000191009203B0704781B0009001B07047E2
:1007600082B00190009102B07047000082B0019009
:10077000009102B07047000084B003900291019292
:10078000009304B07047000083B002900191009282
:1007900003B0704781B0009001B0704782B0019003
:1007A000009102B07047000082B00190009102B049
:1007B0007047000082B00190009102B070470000C5
:1007C00082B00190009102B07047000084B00390A5
:1007D00002918DF80720009304B0704783B0029017
:1007E0000191009203B0704781B0009001B0704752
:1007F00082B00190009102B07047000082B0019079
:10080000009102B07047000082B00190009102B0E8
:100810007047000081B0009001B0704782B0019035
:10082000009102B07047000082B00190009102B0C8
:100830007047000081B0009001B0704781B0009017
:1008400001B0704782B00190009102B07047000083
:1008500081B0009001B0704781B0009001B0704746
:1008600081B0009001B0704782B00190009102B059
:100870007047000081B0009001B0704782B00190D5
:10088000009102B07047000083B002900191009285
:1008900003B0704781B0009001B0704782B0019002
:1008A000009102B0704700007047000084B00390D0
:1008B00002910192009304B07047000081B0009053
:1008C00001B0704781B0009001B0704783B00290D2
:1008D0000191009203B0704781B0009001B0704761
:1008E00081B0009001B0704782B00190009102B0D9
:1008F0007047000082B00190009102B07047000084
:100900008BB00A90099100200790069005900890FE
:10091000FFE708980F2800F2A281FFE7089901205D
:100920008840079009980068079908400690069843
:100930000799884240F08E81FFE70998406800F0EF
:100940000300012807D0FFE70998406800F0030082
:1009500002282FD1FFE70A98806805900898410087
:10096000032000FA01F10598884305900998C068B2
:100970000899490000FA01F1059808430590059887
:100980000A9988600A98406805900899012000FA41
:1009900001F105988843059009984068C0F300105C
:1009A000089900FA01F105980843059005980A99FD
:1009B0004860FFE70998406800F00300032818D05A
:1009C000FFE70A98C068059008984100032000FAE4
:1009D00001F10598884305900998806808994900B5
:1009E00000FA01F105980843059005980A99C86036
:1009F000FFE70998406800F00300022826D1FFE7CE
:100A00000A9808996FF0030202EA51010844006A4B
:100A10000590089800F0070081000F2000FA01F10E
:100A200005988843059009980069089901F0070125
:100A3000890000FA01F105980843059005980A9984
:100A4000089B02EA530211440862FFE70A98006813
:100A5000059008984100032000FA01F105988843A9
:100A600005900998406800F003000899490000FAD1
:100A700001F105980843059005980A9908600998BE
:100A800080798007002800F0E480FFE7FFE700207E
:100A9000049043F64400C4F20200016841F480412E
:100AA0000160006800F4804004900498FFE7089813
:100AB00020F0030043F60801C4F2010140580590FC
:100AC000089800F0030081000F2000FA01F105985A
:100AD000884305900A980021C4F20201884203D19C
:100AE000FFE70020039034E00A9840F20041C4F28E
:100AF0000201884203D1FFE70120029026E00A9814
:100B000040F60001C4F20201884203D1FFE702204F
:100B1000019018E00A9840F60041C4F202018842B0
:100B200003D1FFE7032000900AE00A9941F2000296
:100B3000C4F202020720914208BF04200090FFE7A0
:100B400000980190FFE701980290FFE70298039058
:100B5000FFE70398C0B2089901F00301890000FA89
:100B600001F10598084305900598089921F00301C3
:100B700043F60802C4F20102885043F60840C4F26A
:100B8000010000680590069905988843059009982A
:100B90008079C006002805D5FFE706990598084327
:100BA0000590FFE7059843F60841C4F2010108608B
:100BB00043F60C40C4F201000068059006990598C0
:100BC00088430590099880798006002805D5FFE7BD
:100BD0000699059808430590FFE7059843F60C41F0
:100BE000C4F20101086043F60440C4F20100006849
:100BF00005900699059888430590099880798007A3
:100C0000002805D5FFE70699059808430590FFE7FA
:100C1000059843F60441C4F20101086043F6004020
:100C2000C4F2010000680590069905988843059074
:100C300009988079C00728B1FFE70699059808430D
:100C40000590FFE7059843F60041C4F201010860F2
:100C5000FFE7FFE7FFE708980130089059E60BB07F
:100C60007047000083B00290ADF80610029840690A
:100C70000090009ABDF8060002EA0001904340EAA5
:100C800001400299886103B07047000082B0019072
:100C9000ADF802108DF801209DF8010028B1FFE7A2
:100CA000BDF802000199886105E0BDF8020000046A
:100CB00001998861FFE702B07047000048F66C00B8
:100CC000C2F200000068704780B543F60041C4F2EC
:100CD0000201086840F400700860086840F4806011
:100CE0000860086840F480700860032000F080F815
:100CF0000F2000F005F800F03BF8002080BD000058
:100D000080B582B0009040F20000C2F2000000689E
:100D100040F2A801C2F200010A784FF47A71B1FBE7
:100D2000F2F1B0FBF1F000F071FD20B1FFE701201E
:100D30008DF8070018E000980F280DD8FFE70099FC
:100D40004FF0FF30002200F039F8009840F2AC017B
:100D5000C2F20001086003E001208DF8070003E003
:100D600000208DF80700FFE79DF8070002B080BD66
:100D700082B0FFE70020019043F64400C4F2020075
:100D8000016841F480410160006800F480400190F6
:100D90000198FFE7FFE70020009043F64000C4F20F
:100DA0000200016841F080510160006800F080504D
:100DB00000900098FFE702B07047000080B586B051
:100DC0008DF81700049103920020029001F0C6F9FB
:100DD00002909DF91700019002980499039A00F07F
:100DE000F1FE0146019801F0C9F906B080BD00008E
:100DF00080B582B00190019801F0E2F902B080BDA7
:100E000080B584B002900191029820B9FFE70120DB
:100E10008DF80F0021E1019843F60041C4F2020170
:100E2000096801F00701884212D9FFE7019943F6EA
:100E30000040C4F202000170006800F00700019950
:100E4000884204D0FFE701208DF80F0005E1FFE79D
:100E500002980078800700282AD5FFE702980078DA
:100E60004007002809D5FFE743F60801C4F2020154
:100E7000086840F4E0500860FFE702980078000737
:100E8000002809D5FFE743F60801C4F2020108680B
:100E900040F460400860FFE743F60801C4F2020135
:100EA000086820F0F000029A926810430860FFE79B
:100EB00002980078C00700286ED0FFE702984068CB
:100EC000012811D1FFE743F60000C4F202000068D8
:100ED00000F400310020B0EB514F04D1FFE70120B6
:100EE0008DF80F00B9E02CE002984068022805D088
:100EF000FFE702984068032811D1FFE743F600009E
:100F0000C4F20200006800F000710020B0EB516FE5
:100F100004D1FFE701208DF80F009EE010E043F6BA
:100F20000000C4F20200006800F002010020B0EBF3
:100F3000510F04D1FFE701208DF80F008DE0FFE78E
:100F4000FFE743F60801C4F20201086820F003003D
:100F5000029A526810430860FFF7B0FE0090FFE766
:100F600043F60800C4F20200006800F00C00029989
:100F70004968B0EB810F0ED0FFE7FFF79FFE0099A5
:100F8000401A41F28931884204D3FFE703208DF8EB
:100F90000F0062E0E4E7FFE7019843F60041C4F286
:100FA0000201096801F00701884212D2FFE70199A6
:100FB00043F60040C4F202000170006800F0070030
:100FC0000199884204D0FFE701208DF80F0044E02A
:100FD000FFE702980078400700280CD5FFE743F6AA
:100FE0000801C4F20201086820F4E050029AD268B5
:100FF00010430860FFE702980078000700280DD52D
:10100000FFE743F60801C4F20201086820F46040DB
:10101000029A126940EAC2000860FFE700F022F875
:1010200043F60801C4F202010968C9B20A0945F28F
:10103000D451C0F60001895CC84040F20001C2F200
:101040000001086040F2AC00C2F200000068FFF747
:1010500057FE00208DF80F00FFE79DF80F0004B049
:1010600080BD000080B586B00020059004900390FC
:10107000029043F60800C4F20200006800F00C0081
:101080000146019140B1FFE7019804280AD0FFE72B
:10109000019808280CD04FE042F20040C0F2F40062
:1010A00002904FE047F64000C0F27D10029049E008
:1010B00043F60400C4F20200016801F03F0105910B
:1010C00000684002002813D5FFE743F60400C4F28D
:1010D00002000068C0F3881047F64001C0F27D119D
:1010E000A0FB0101059A0023FFF75EF9049012E0CE
:1010F00043F60400C4F202000068C0F3881042F214
:101100000041C0F2F401A0FB0101059A0023FFF7A2
:101110004BF90490FFE743F60400C4F202000068B4
:1011200000F44031022000EBD13003900498039981
:10113000B0FBF1F0029005E042F20040C0F2F40092
:101140000290FFE7029806B080BD000080B586B02F
:101150000490049820B9FFE701208DF8170050E3B0
:1011600004980078C007002800F0A580FFE743F648
:101170000800C4F20200006800F00C00042813D03C
:10118000FFE743F60800C4F20200006800F00C001C
:1011900008281ED1FFE743F60400C4F202000068ED
:1011A0004002002815D5FFE743F60000C4F2020014
:1011B000006800F400310020B0EB514F08D0FFE789
:1011C0000498406820B9FFE701208DF8170018E364
:1011D00070E0FFE704984068B0F5803F09D1FFE771
:1011E00043F60001C4F20201086840F48030086050
:1011F00020E004984068B0F5A02F0DD1FFE743F63A
:101200000001C4F20201086840F480200860086808
:1012100040F4803008600CE043F60001C4F20201A3
:10122000086820F480300860086820F48020086096
:10123000FFE7FFE7FFE704984068E8B1FFE7FFF743
:101240003DFD0390FFE743F60000C4F20200006892
:1012500000F400310020B0EB514F0CD1FFE7FFF755
:101260002DFD0399401A652804D3FFE703208DF86C
:101270001700C6E2E7E71CE0FFF720FD0390FFE759
:1012800043F60000C4F20200006800F400310020C0
:10129000B0EB514F0CD0FFE7FFF710FD0399401A58
:1012A000652804D3FFE703208DF81700A9E2E7E7DC
:1012B000FFE7FFE7FFE7049800788007002840F188
:1012C0009680FFE743F60800C4F20200006810F0C1
:1012D0000C0F13D0FFE743F60800C4F202000068C9
:1012E00000F00C0008282CD1FFE743F60400C4F2FC
:1012F000020000684002002823D4FFE743F6000004
:10130000C4F20200006800F002010020B0EB510FAF
:1013100009D0FFE70498C068012804D0FFE7012046
:101320008DF817006DE243F60001C4F2020108686F
:1013300020F0F800049A126940EAC2000860FFE752
:1013400054E00498C06870B3FFE70021C4F247215D
:1013500001200860FFF7B2FC0390FFE743F60000AE
:10136000C4F20200006800F002010020B0EB510F4F
:101370000CD1FFE7FFF7A2FC0399401A032804D31E
:10138000FFE703208DF817003BE2E7E743F6000193
:10139000C4F20201086820F0F800049A126940EAD9
:1013A000C200086021E00021C4F24721002008604B
:1013B000FFF784FC0390FFE743F60000C4F202004D
:1013C000006800F002010020B0EB510F0CD0FFE7E5
:1013D000FFF774FC0399401A032804D3FFE70320A6
:1013E0008DF817000DE2E7E7FFE7FFE7FFE7049856
:1013F0000078000700284BD5FFE70498406918B330
:10140000FFE740F68061C4F2472101200860FFF742
:1014100055FC0390FFE743F67400C4F20200006835
:1014200000F002010020B0EB510F0CD1FFE7FFF7F5
:1014300045FC0399401A032804D3FFE703208DF8E5
:101440001700DEE1E7E722E040F68061C4F24721C1
:1014500000200860FFF732FC0390FFE743F67400BA
:10146000C4F20200006800F002010020B0EB510F4E
:101470000CD0FFE7FFF722FC0399401A032804D39E
:10148000FFE703208DF81700BBE1E7E7FFE7FFE781
:10149000049800784007002840F1CE80FFE7002044
:1014A0008DF8070043F64000C4F202000068C00057
:1014B000002815D4FFE7FFE70020009043F6400026
:1014C000C4F20200016841F080510160006800F040
:1014D000805000900098FFE701208DF80700FFE79B
:1014E00047F20000C4F200000068C005002822D4C2
:1014F000FFE747F20001C4F20001086840F4807081
:101500000860FFF7DBFB0390FFE747F20000C4F23F
:1015100000000068C00500280CD4FFE7FFF7CEFBF1
:101520000399401A032804D3FFE703208DF817001E
:1015300067E1EAE7FFE7FFE704988068012809D13F
:10154000FFE743F67001C4F20201086840F00100B1
:1015500008601FE00498806805280DD1FFE743F676
:101560007001C4F20201086840F0040008600868D5
:1015700040F0010008600CE043F67001C4F2020183
:10158000086820F001000860086820F00400086086
:10159000FFE7FFE7FFE704988068F8B1FFE7FFF790
:1015A0008DFB0390FFE743F67000C4F20200006871
:1015B00000F002010020B0EB510F0ED1FFE7FFF762
:1015C0007DFB0399401A41F28931884204D3FFE739
:1015D00003208DF8170014E1E5E71EE0FFF76EFB2E
:1015E0000390FFE743F67000C4F20200006800F0C9
:1015F00002010020B0EB510F0ED0FFE7FFF75EFBBA
:101600000399401A41F28931884204D3FFE703204D
:101610008DF81700F5E0E5E7FFE79DF807000128E2
:1016200009D1FFE743F64001C4F20201086820F047
:1016300080500860FFE7FFE704988069002800F009
:10164000DC80FFE743F60800C4F20200006800F007
:101650000C00082800F08580FFE7049880690228C4
:101660005CD1FFE76021C4F2472100200860FFF74A
:1016700025FB0390FFE743F60000C4F20200006878
:1016800000F000710020B0EB516F0CD0FFE7FFF7C6
:1016900015FB0399401A032804D3FFE703208DF8B4
:1016A0001700AEE0E7E70499C869D1F820C04B6A9B
:1016B0008A6A40EA0C0040EA8310D2034FF6FF73B7
:1016C0009A43A2F580321043C96A40EA016043F6AA
:1016D0000401C4F2020108606021C4F24721012024
:1016E0000860FFF7EBFA0390FFE743F60000C4F24F
:1016F0000200006800F000710020B0EB516F0CD1C7
:10170000FFE7FFF7DBFA0399401A032804D3FFE74A
:1017100003208DF8170074E0E7E721E06021C4F2B0
:10172000472100200860FFF7C9FA0390FFE743F65E
:101730000000C4F20200006800F000710020B0EB6D
:10174000516F0CD0FFE7FFF7B9FA0399401A03284D
:1017500004D3FFE703208DF8170052E0E7E7FFE727
:101760004AE004988069012804D1FFE701208DF840
:10177000170046E043F60400C4F20200006802903D
:1017800004988069012831D0FFE7029800F48000B6
:101790000499C969884229D1FFE7029800F03F0007
:1017A0000499096A884221D1FFE7029847F6C0717F
:1017B00008400499496AB0EB811F17D1FFE70298EE
:1017C00000F440300499896AC9034FF6FF729143CF
:1017D000A1F58031884209D1FFE7029800F07060DE
:1017E0000499C96AB0EB016F04D0FFE701208DF8BE
:1017F000170006E0FFE7FFE7FFE700208DF817007E
:10180000FFE79DF8170006B080BD000080B582B0EC
:101810000190019800F0D6FA02B080BDFFE7FEE724
:1018200081B0EFF3058000900098002818BF0120D8
:1018300001B0704781B0EFF3058000900098002858
:1018400018BF012001B0704781B0EFF30580009010
:101850000098002818BF012001B0704781B0EFF355
:10186000058000900098002818BF012001B0704743
:1018700081B0EFF3058000900098002818BF012088
:1018800001B0704783B0EFF31080019001990120FF
:10189000009049B9FFE7EFF3118002900298002809
:1018A00018BF01200090FFE7009800F0010003B08E
:1018B0007047000083B0EFF3108001900199012080
:1018C000009049B9FFE7EFF31180029002980028D9
:1018D00018BF01200090FFE7009800F0010003B05E
:1018E0007047000083B0EFF3108001900199012050
:1018F000009049B9FFE7EFF31180029002980028A9
:1019000018BF01200090FFE7009800F0010003B02D
:101910007047000083B0EFF310800190019901201F
:10192000009049B9FFE7EFF3118002900298002878
:1019300018BF01200090FFE7009800F0010003B0FD
:101940007047000083B0EFF31080019001990120EF
:10195000009049B9FFE7EFF3118002900298002848
:1019600018BF01200090FFE7009800F0010003B0CD
:101970007047000082B00090009820B9FFE7002077
:101980008DF8070003E001208DF80700FFE79DF8C0
:10199000070002B07047000082B00090009820B9A4
:1019A000FFE700208DF8070003E001208DF8070015
:1019B000FFE79DF8070002B07047000081B0EFF329
:1019C000148000909DF800100120884301B07047FA
:1019D00082B00090009820B9FFE700208DF8070042
:1019E00003E001208DF80700FFE79DF8070002B033
:1019F0007047000080B58AB0FFE70020099043F6E9
:101A00003000C4F20200016841F001010160006889
:101A100000F0010009900998FFE70020039008906A
:101A200007900690059004902021029104910121D5
:101A30000591069007900020C4F20200019004A9CD
:101A4000FEF75EFF01980299039AFFF71FF90AB0AB
:101A500080BD000084B0039002910398029908446D
:101A6000019001980090009804B0704781B00090F8
:101A7000009801B070470000FFE7FEE780B584B032
:101A800003900398283000F05FFC01900198C0B1EA
:101A9000FFE70398C06A0290FFE7029880B1FFE772
:101AA00002980230012100F0E5FC8DF803009DF85A
:101AB000030008B9FFE703E0029880680290ECE7B2
:101AC00002E000200290FFE7029804B080BD000011
:101AD00080B586B0059004910598006BE0B3FFE7F0
:101AE0000598006B039000200290FFE70399002007
:101AF000019051B1FFE70398C1780498C2780020A3
:101B00009142B8BF01200190FFE70198C00730B1B2
:101B1000FFE703980290039840680390E6E7039874
:101B200004994860029804998860039820B1FFE7FF
:101B300004980399886003E004980599C862FFE758
:101B4000029820B1FFE704980299486003E00498E6
:101B500005990863FFE70BE00499002048600499A9
:101B6000886004980599C862049805990863FFE79E
:101B70000598283000F042FC06B080BD82B001908C
:101B800000910098406828B1FFE70098416880689C
:101B9000886004E0009880680199C862FFE70098B7
:101BA000806828B1FFE7009948688968486004E0C8
:101BB0000098406801990863FFE702B07047000091
:101BC000FFE7FEE788B0079006910592079800F0BE
:101BD000070004900498C0F10700052803D3FFE72D
:101BE0000420019004E00498C0F107000190FFE791
:101BF0000198039004980430062803D8FFE70020DA
:101C0000009003E0049803380090FFE700980290EA
:101C100006980399012202FA01F101390840029B5A
:101C2000984005999A40013A1140084308B070471E
:101C30004EF21000CEF200000068704748F25010DB
:101C4000C2F20000007870B1FFE748F25011C2F212
:101C50000001002008704EF60451CEF200014FF052
:101C600080600860FFE74EF21001CEF200010868C4
:101C700040F00100086070474FF0FF3070470000EF
:101C800084B002900191029820B9FFE74FF0FF3035
:101C9000039031E040F20000C2F2000000680299B7
:101CA000B0FBF1F0013800900098B0F1807F04D3D0
:101CB000FFE74FF0FF3003901EE04EF62351CEF2C7
:101CC0000001FF2008704EF21001CEF20001062044
:101CD000086000984EF21401CEF2000108604EF246
:101CE0001801CEF200010020086048F25011C2F243
:101CF000000108700390FFE7039804B070470000EC
:101D000080B584B04EF62250CEF20000FF21017063
:101D1000007880F0FF000290029820B9FFE72020B1
:101D20008DF80F0005E00298B0FA80F08DF80F00F2
:101D3000FFE79DF80F00C0F12000009000F016FAB8
:101D4000019001980099884204D3FFE7019801307F
:101D50000090FFE70099FE2088404EF61F51CEF21A
:101D60000001087004B080BD4EF60451CEF20001AF
:101D70004FF080500860704783B08DF803009DF8E5
:101D80000300C00740B1FFE702200290029880F3F1
:101D90001488BFF36F8F07E003200190019880F350
:101DA0001488BFF36F8FFFE703B0704781B08DF8E1
:101DB00003009DF80300C1062020002958BF6020C1
:101DC00001B0704780B582B0009000980138B0F142
:101DD000807F03D3FFE70120019019E000980138CC
:101DE0004EF21401CEF2000108604FF0FF300F21D7
:101DF00000F0C4F94EF21801CEF200010020086094
:101E00004EF21002CEF20002072111600190FFE7AE
:101E1000019802B080BD000080B594B008A83021C0
:101E2000FEF7A1FB00200790069005900490039018
:101E3000FFE70020029043F64000C4F20200016870
:101E400041F080510160006800F0805002900298DB
:101E5000FFE7FFE70020019047F20000C4F2000016
:101E60000168022262F38F310160006800F4404093
:101E700001900198FFE7012008904FF4803009900D
:101E800002200E904FF480000F90082010904FF425
:101E9000A8701190042012900720139008A8FFF753
:101EA00055F910B1FFE7FFE7FEE70F20039002218D
:101EB0000491002005904FF480520692079003A8E9
:101EC000FEF79EFF10B1FFE7FFE7FEE714B080BD0D
:101ED00086B00021059104910220039002910190A7
:101EE00043F60800C4F20200006800F00C00059000
:101EF0000598009040B1FFE7009804280ED0FFE756
:101F00000098082814D059E040F20001C2F2000104
:101F100042F20040C0F2F400086059E040F20001D3
:101F2000C2F2000147F64000C0F27D1008604FE0A9
:101F300043F60400C4F202000168C1F3805102912B
:101F4000006800F03F000190029888B1FFE7019916
:101F500047F64000C0F27D10B0FBF1F043F60401FB
:101F6000C4F202010968C1F388114843049010E0EB
:101F7000019942F20040C0F2F400B0FBF1F043F6E8
:101F80000401C4F202010968C1F3881148430490B6
:101F9000FFE743F60400C4F20200006800F4403199
:101FA000022000EBD130039004980399B0FBF1F0CC
:101FB00040F20001C2F20001086009E040F20001B5
:101FC000C2F2000142F20040C0F2F4000860FFE7F4
:101FD00043F60800C4F202000068C0B2010945F2ED
:101FE000D450C0F60000405C0590059A40F2000114
:101FF000C2F200010868D040086006B070470000D7
:102000004EF68851CEF20001086840F47000086076
:102010007047000080B584B00390029101929DF852
:1020200004008007002814D4FFE79DF80400C007CF
:1020300038B1FFE703982830029900F029F90090A1
:1020400006E003982830029900F03EF90090FFE77F
:102050001BE00398806A00909DF80400C00730B12F
:10206000FFE700980299084088420AD1FFE79DF8EF
:102070000400C00740B9FFE700980299084203D165
:10208000FFE700200090FFE7FFE7009804B080BD65
:1020900085B0049003910020029040F20400C2F247
:1020A0000000406C0190FFE701990020009049B1C9
:1020B000FFE701980169039A0020914298BF01202F
:1020C0000090FFE70098C00758B1FFE70198016949
:1020D0000398401A0390019802900198C0680190FB
:1020E000E2E70398049908610298049988600198CE
:1020F0000499C860019850B1FFE7049802690199FA
:102100000869801A0861049801998860FFE70298BD
:1021100020B1FFE704980299C86006E0049840F2F5
:102120000401C2F200014864FFE705B070470000F7
:1021300081B000900098C06828B1FFE700998868D6
:10214000C9688860FFE70098C06840F20401C2F2E5
:102150000001486401B07047FFE7FEE74EF60C50FF
:10216000CEF200000068C0F3022070474EF60C501B
:10217000CEF200000068C0F30220704782B08DF8F4
:10218000070000919DF9070000280AD4FFE7009896
:1021900000019DF907104EF20042CEF20002885471
:1021A0000BE0009800019DF8071001F00F014EF6BA
:1021B0001452CEF200028854FFE702B070470000CC
:1021C00083B00290029800F0070000904EF60C5188
:1021D000CEF200010868019001984FF6FF0210400E
:1021E00001900198009A40EA02200022C0F2FA52BF
:1021F000104301900198086003B0704780B582B029
:10220000019001F09FFF38B1FFE7019800684FF09F
:10221000FF3100F09FFBFFE702B080BD80B582B0C8
:1022200001900198006800F0C7FB02B080BD00007B
:1022300080B582B00190002000F0EAFB01990860AF
:102240000198006818B1FFE70120009006E0002027
:1022500000900199052000F057FCFFE7009802B0BC
:1022600080BD000080B582B0019001F06BFF28B105
:10227000FFE70198006800F0F7FBFFE702B080BDC0
:1022800080B500F097FA80BD81B00090FFE7FEE7CF
:1022900010B585B004900391049B039C53E8002F74
:1022A00002EA0401A14203D0BFF32F8F002205E010
:1022B00022EA040143E8001000B1EFE70092029126
:1022C0000190009805B010BD10B585B00490039141
:1022D000049B039C53E8002F224203D1BFF32F8FAE
:1022E000002205E022EA040143E8001000B1F1E712
:1022F000009202910190009805B010BD84B0039047
:10230000039BD3E85F2F12B9BFF32F8F04E0511E58
:10231000C3E8501F00B1F4E7ADF80220029101902C
:10232000BDF8020004B0704784B00390039B53E8EB
:10233000002F511E43E8001000B1F8E7009202910F
:102340000190009804B0704784B00390039B53E859
:10235000002F12B9BFF32F8F04E0511E43E8001085
:1023600000B1F4E7009202910190009804B0704728
:1023700010B585B00490ADF80E10049BBDF80E406A
:10238000D3E85F2F511C8C4200D80021C3E8501FB6
:1023900000B1F5E7ADF8022002910190BDF802000E
:1023A00005B010BD10B585B00490ADF80E10049BBB
:1023B000BDF80E40D3E85F2F944202D8BFF32F8FB1
:1023C00004E0511CC3E8501F00B1F3E7ADF8022050
:1023D00002910190BDF8020005B010BD84B00390D9
:1023E000039B53E8002F511C43E8001000B1F8E7AD
:1023F000009202910190009804B0704784B003905D
:10240000039B53E8002F511C43E8001000B1F8E78C
:10241000009202910190009804B0704784B003903C
:10242000039B53E8002F12B9BFF32F8F04E011680C
:1024300043E8001000B1F4E7009202910190009887
:1024400004B0704710B585B004900391049B039CC1
:102450001A682260BFF35F8F53E8002F2168914212
:10246000F6D143E8004000B1F2E7029201910090FA
:1024700005B010BD84B003908DF80B10039A9DF841
:102480000B30D2E84F1FC2E8403F00B1F9E78DF8AA
:10249000031001909DF8030004B0704780B58AB026
:1024A0000890079106920593089800F051FD04905A
:1024B0000498FFF75FFA58B1FFE704980078FA280C
:1024C00006D1FFE7079818B1FFE7059848B1FFE785
:1024D00004986FF003010191FEF748F90198099003
:1024E0002FE00498FFF7CAFA03900398F0B1FFE7D2
:1024F000079803990C31049A526AFDF7CDFF0698AC
:1025000028B1FFE70398C07806990870FFE70498A0
:102510000399C860039800F03DFF00F0AFFF0498F6
:102520000799FEF765F90020029007E004980799E3
:10253000FEF746F96FF002000290FFE7029809905B
:10254000FFE709980AB080BD80B58AB0089007916E
:102550008DF81B200593089800F0FAFC049004986D
:10256000FFF708FA58B1FFE704980078FA2806D177
:10257000FFE7079818B1FFE7059848B1FFE704980F
:102580006FF003010191FEF7F1F80198099036E030
:1025900004980C3000F02CFC0390039820B3FFE764
:1025A00003980C300799049A526AFDF775FF039956
:1025B000F920087003990020009088709DF81B0096
:1025C0000399C87007980399486004980399886034
:1025D000039800F0DFFE00F051FF04980799FEF722
:1025E000DDF80098029007E004980799FEF7E2F8FA
:1025F0006FF002000290FFE702980990FFE7099848
:102600000AB080BD80B584B040F20400C2F2000080
:10261000B0F85410ADF80A105630FFF76FFEA8B1AD
:10262000FFE7BDF80A1040F20400C2F2000000907B
:102630005A30FFF79DFE014600980391C06D039943
:1026400050F8210000F0B2FE019002E0002001905D
:10265000FFE7019804B080BD80B586B0059040F2D8
:102660000400C2F20000B0F85410ADF80E10BDF82E
:102670000E105630FFF796FEBDF80E10884214DAA1
:10268000FFE7BDF80E1040F20400C2F20000019016
:102690005830FFF76DFE019904900598C96D049AB2
:1026A00041F822000120029002E000200290FFE7A2
:1026B000029806B080BD000082B00190FFE70020C4
:1026C000C4F202002021FEF7CDFA642000F026F8C3
:1026D000F5E7000080B582B0002000900190FFF780
:1026E000F7FBFEF7F1FAFFF797FBFFF783F900F02E
:1026F00061F8009A42F28920C0F60000114601F00C
:10270000E7FC009A42F2B960C0F60000114601F001
:10271000DFFC00F075F8FFE7FEE7000080B586B04B
:1027200002900298FDF7C6FFFFF77AF820B9FFE79D
:10273000FFF7A8F840B1FFE76FF005000090FDF744
:10274000C1FF0098019010E0029805900598049050
:1027500044F27D10C0F600000390DDF80CC0049830
:1027600000DF049004980190FFE7019806B080BD57
:1027700080B584B0FFF75EF840B9FFE7FFF79AF83D
:1027800020B9FFE7FFF71AF920B1FFE701F01EFDBE
:1027900001900BE044F2CD10C0F600000290DDF88D
:1027A00008C000DF039003980190FFE7019804B090
:1027B00080BD000080B584B000F0A4F9FDF79CFF57
:1027C000FFF738F820B9FFE7FFF774F840B1FFE7EB
:1027D0006FF005000090FDF781FF009801900BE07D
:1027E00044F2E510C0F600000290DDF808C000DFFA
:1027F000039003980190FFE7019804B080BD0000AA
:1028000080B584B0FDF77CFFFFF714F820B9FFE72F
:10281000FFF750F840B1FFE76FF005000090FDF7BB
:102820005DFF009801900BE044F2E940C0F6000023
:102830000290DDF808C000DF039003980190FFE7E5
:10284000019804B080BD000080B58EB00490039163
:102850000292019304980399029A019BFDF78CFF61
:10286000FEF7F2FF20B9FFE7FFF73CF840B1FFE7C2
:1028700004980399029A019BFFF710FE00901FE055
:10288000049B039A029901980D930C920B910A9064
:102890000D9809900C9808900B9807900A9806904C
:1028A00044F28D50C0F600000590DDF814C0099880
:1028B0000899079A069B00DF099009980090FFE7A6
:1028C00000980EB080BD000080B58EB004900391DA
:1028D0008DF80B200193049803999DF80B20019B20
:1028E000FDF774FFFEF7B0FF20B9FFE7FEF7FAFF30
:1028F00048B1FFE7049803999DF80B20019BFFF76F
:1029000023FE009022E0049B039A9DF80B1001988F
:102910000D930C928DF82F100A900D9809900C9839
:1029200008909DF82F0007900A98069044F6B91079
:10293000C0F600000590DDF814C009980899079AC0
:10294000069B00DF099009980090FFE700980EB001
:1029500080BD000080B58AB004900391049803996B
:10296000FDF74CFFFEF77AFF20B9FFE7FEF7D2FF35
:1029700048B1FFE704986FF005010191FDF762FF90
:102980000198029015E0049903980991089009981C
:1029900007900898069044F61530C0F600000590A0
:1029A000DDF814C00798069900DF07900798029099
:1029B000FFE702980AB080BD80B586B00290029809
:1029C000FDF738FFFEF74AFF20B9FFE7FEF7A2FF49
:1029D00048B1FFE702986FF005010091FDF732FF63
:1029E0000098019010E0029805900598049044F634
:1029F0008D40C0F600000390DDF80CC0049800DFA5
:102A0000049004980190FFE7019806B080BD000093
:102A100080B586B002900298FDF71AFFFEF71EFF00
:102A200020B9FFE7FEF776FF48B1FFE700200090EE
:102A30006FF00501FDF706FF0098019010E0029885
:102A400005900598049044F6E540C0F60000039018
:102A5000DDF80CC0049800DF049004980190FFE7B3
:102A6000019806B080BD000080B586B00290029843
:102A7000FDF7F6FEFEF7F2FE20B9FFE7FEF74AFF8C
:102A800048B1FFE702986FF005010091FDF7DAFE0B
:102A90000098019010E0029805900598049044F683
:102AA0002960C0F600000390DDF80CC0049800DF38
:102AB000049004980190FFE7019806B080BD0000E3
:102AC00083B00290019102980138014600910528D7
:102AD0000BD80099DFE801F003040506070805E0BC
:102AE00004E003E002E001E000E0FFE7FFE7FEE7CB
:102AF00081B00090009801B07047000081B0009054
:102B0000FFE7FEE77047000080B582B001900091BA
:102B100001980099FDF7E6FD01980099FFF7D0FFB5
:102B200002B080BD40F20400C2F20000007A70479B
:102B300040F20400C2F20000007A704740F2040044
:102B4000C2F20000007A704780B58EB00C900B91F5
:102B50000A920C9838B1FFE70B9820B1FFE70A986A
:102B6000800850B1FFE70C980B990A9A0023049350
:102B7000FDF7CAFD04980D9089E00B980830069087
:102B80000698073020F0070006900C980821FEF701
:102B900061FF0890FFE708990868401A05900898B7
:102BA000406820F003010598401A059005980699A1
:102BB000884201D3FFE711E0089800680890089860
:102BC000006850B9FFE70C980B990A9A0023039309
:102BD000FDF79AFD03980D9059E0DCE70698009008
:102BE0000C98FEF743FF009A01464868104448607D
:102BF0000C980190FEF73AFF0146019809680839E0
:102C0000FEF728FF07900798406802900C98FEF79F
:102C10002DFF014602984968884207D2FFE70C98C9
:102C2000FEF724FF406807994860FFE7089840686E
:102C300058B9FFE706980A99084308994860089828
:102C40000821FEF707FF099018E00898416821F075
:102C50000301FEF7FFFE07900898006807990860D7
:102C600006980A99084307994860079808990860E8
:102C700007980821FEF7EEFE0990FFE70C980B99E4
:102C80000A9A099BFDF740FD09980D90FFE70D9802
:102C90000EB080BD80B58CB00A9009910A9818B129
:102CA000FFE7099848B9FFE70A98099900220592B9
:102CB000FDF746FD05980B904AE009980021049124
:102CC000FEF7C8FE01460498089108990839089152
:102CD00006900A980821FEF7BDFE0790FFE70798C7
:102CE0000899884212D0FFE7079806900798006875
:102CF0000790079848B9FFE70A98099900220392BC
:102D0000FDF71EFD03980B9022E0E8E70798406866
:102D100020F0030002900A98FEF7A8FE029A0146EE
:102D20004868801A4860069820B9FFE70799002094
:102D3000486004E00798006806990860FFE70A9871
:102D4000099901220192FDF7FBFC01980B90FFE726
:102D50000B980CB080BD000080B588B0069005913E
:102D6000069870B1FFE79DF81800400748B9FFE7E3
:102D70009DF81400400720B9FFE70598172809D8E7
:102D8000FFE70698059900220292FDF7DFFC029802
:102D9000079029E00698FEF769FE049005980499CB
:102DA0000860049910200090486006980821FEF7FA
:102DB00051FE0390069805990839FEF74BFE0099DD
:102DC000039A10600398026800201060039A12684A
:102DD0005160039948600698059901220192FDF718
:102DE000B5FC01980790FFE7079808B080BD000088
:102DF00080B584B00290029840B9FFE700210091AD
:102E00000846FDF789FC0098039013E002981430FF
:102E1000FFF704FB0190019828B1FFE70298043006
:102E2000FFF7DCFAFFE702980199FDF775FC0198BE
:102E30000390FFE7039804B080BD000080B586B022
:102E400004900391049860B1FFE703980499C9685E
:102E5000884206D3FFE703980499096988420AD398
:102E6000FFE7049803996FF003020292FDF75AFC02
:102E70000298059011E0049814300399FFF7E2FAE4
:102E800004980430FFF750FA049803990022019245
:102E9000FDF748FC01980590FFE7059806B080BD56
:102EA00080B588B00690059104920393069848B1C6
:102EB000FFE7059830B1FFE7049818B1FFE70398E2
:102EC00018B9FFE70020079033E0059806990860DD
:102ED000069900204860049806998860039806992E
:102EE000C860039806994861039A0598049900FB05
:102EF00001200699086106980599049A039BFDF73D
:102F000017FC03980290FFE705980138059050B12F
:102F1000FFE702980499084401900198029908601B
:102F200001980290F0E702990020086001200790C4
:102F3000FFE7079808B080BD81B00090009801B00D
:102F40007047000081B00090009801B07047000009
:102F500081B00090009801B07047000080B588B043
:102F600007900798807800284AD0FFE70798C06844
:102F7000069006980799FEF701FE07990020087051
:102F800006980C300799FFF759FF06988068B0B390
:102F9000FFE706980C30FFF72BFF0590059868B304
:102FA000FFE7069800F0F6F900F05AFD0490049847
:102FB00000220092114600F025FF049800F03EFE2A
:102FC000039003984068029005980C300299069A85
:102FD000526AFDF761FA0098059AF9211170059976
:102FE0008870039880680599C87006980599FEF75F
:102FF0006FFD06980299FDF7D7FBFFE7FFE74DE06D
:103000000798806806900798406802900698806844
:10301000D0B3FFE7069880684078832834D1FFE773
:1030200006980299FDF7C0FB069800F0B3F900F08E
:1030300017FD049004980022114600F0E3FE049866
:1030400000F0FCFD039003984068019001980799F7
:103050000C31069A526AFDF71FFA0398806830B166
:10306000FFE70798C078039989680870FFE706981A
:103070000199FDF7BDFB07990020087006980C30F8
:103080000799FFF7DBFE08E006980299FDF78CFB35
:1030900006980799FEF71CFDFFE7FFE708B080BD23
:1030A00080B582B04FF0FF30019045F22C50C0F651
:1030B0000000826EC06E082101F01CFBFFF748FF84
:1030C000014640F20400C2F20000C164C06C18B1B5
:1030D000FFE700200190FFE7019802B080BD0000EB
:1030E00080B582B001900199002008700198807825
:1030F000C007E8B1FFE740F20400C2F20000D0F8D8
:10310000940050B1FFE740F20400C2F20000D0F892
:1031100094000199FFF792FE09E040F20400C2F228
:103120000000D0F880000199FFF7B4FDFFE7FFE74A
:103130000198FDF783FB02B080BD000081B00090D4
:10314000009801B07047000081B00090009801B075
:103150007047000080B586B0059005980490FFE7A1
:103160000498002840D0FFE7049840690390049831
:10317000C0780007002834D5FFE7049800210176C5
:103180000498FDF771FB0498806848B3FFE7049842
:1031900000F006F900F064FC02900298002201920F
:1031A000114600F02FFE01980299049AD16004990B
:1031B00008610298C06A049948610298C06A28B1FF
:1031C000FFE704980299C96A0861FFE70498029929
:1031D000C8620498012101760498FDF71FFBFFE700
:1031E000FFE703980490BBE706B080BD80B586B0CA
:1031F000059004910598C078800700284AD5FFE71C
:103200000598C0680290029890F821008DF803009C
:103210000298C06A0390FFE70398C07880070028EF
:103220001ED5FFE7039880680190019804998842B1
:1032300004D1FFE7019880680190FFE7019870B121
:10324000FFE7019890F920009DF90310884206DD00
:10325000FFE7019890F820008DF80300FFE7FFE7F3
:10326000039840690390FFE703980028D4D1FFE753
:10327000029890F920009DF90310884209D0FFE7D9
:103280009DF80300029981F82000029800F06CFC80
:10329000FFE7FFE706B080BD80B586B004900498D4
:1032A000007E20B9FFE700208DF817006EE004983B
:1032B000C06802900498406928B1FFE70499086942
:1032C00049690861FFE70498006928B1FFE704989D
:1032D00001694069486104E0049840690299C86244
:1032E000FFE7029890F821008DF807000298C06A65
:1032F0000390FFE70398F8B1FFE70398C0788007D1
:10330000002815D5FFE70398806880B1FFE7039890
:10331000806890F920009DF90710884207DDFFE7DB
:103320000398806890F820008DF80700FFE7FFE71A
:10333000039840690390DDE7029890F920009DF919
:103340000710884209D0FFE79DF80700029981F82D
:103350002000029800F008FCFFE7FFE7049880686F
:1033600068B1FFE7049800F01BF800F079FB0290C9
:1033700002986FF00201002200F044FDEEE704998C
:103380000020087601208DF81700FFE79DF8170050
:1033900006B080BD81B00090009801B07047000079
:1033A00081B00090009801B07047000081B000909B
:1033B000009801B07047000081B00090009801B003
:1033C0007047000080B588B0FFE7FFF71BF9079052
:1033D000079808B9FFE74CE007980078F1380146F4
:1033E0000691082843D80699DFE801F0054111410C
:1033F000411D2941350040F20400C2F20000006E78
:103400000590079800F0DCFB0599884730E040F212
:103410000400C2F20000406E04900798FFF768FBBA
:103420000499884724E040F20400C2F20000806E54
:103430000390079800F044F80399884718E040F299
:103440000400C2F20000C06E02900798FFF774FDFE
:10345000029988470CE040F20400C2F20000006FBD
:1034600001900798FFF76EFD0199884700E0FFE79C
:10347000ABE7002000F01AFA08B080BD80B582B03A
:1034800001900198FFF7E8F890B1FFE740F20400DF
:10349000C2F20000407A18B9FFE7FEF765FC06E0CB
:1034A00040F20401C2F2000101208872FFE704E04B
:1034B00001990220FFF728FBFFE702B080BD000062
:1034C00081B00090009801B07047000080B582B0D4
:1034D0000190019801F0F0FF02B080BD80B586B088
:1034E0000590059901204870059890F920000290F8
:1034F00040F20400C2F200001C3000F067FB0490B0
:10350000049880680390FFE703990020019051B16F
:10351000FFE7039890F92010029A00209142C8BF5B
:1035200001200190FFE70198C00730B1FFE7039841
:103530000490039880680390E6E704980599C860B2
:10354000039805998860059804998860039820B1CC
:10355000FFE705980399C860FFE70598FDF7BCF9F8
:1035600006B080BD85B0049003910398013050BB34
:10357000FFE70020029040F20400C2F20000006B5E
:103580000190FFE7019830B1FFE7019802900198A0
:1035900000690190F6E703980499C86102980499BC
:1035A0004861049900200861029820B1FFE704985F
:1035B0000299086106E0049840F20401C2F2000199
:1035C0000863FFE749E00020029040F20400C2F2E5
:1035D0000000C06A0190FFE701990020009049B106
:1035E000FFE70198C169039A0020914298BF01202A
:1035F0000090FFE70098C00758B1FFE70198C16944
:103600000398401A03900198029001980069019074
:10361000E2E703980499C861029804994861019807
:1036200004990861029820B1FFE7049802990861A3
:1036300006E0049840F20401C2F20001C862FFE70C
:10364000019848B1FFE7039A0199C869801AC861D7
:10365000049801994861FFE7FFE705B07047000053
:1036600081B000900098C0690130F0B9FFE7009880
:10367000006928B1FFE70098016940694861FFE7E8
:103680000098406940B1FFE70099086949690861FD
:1036900000990020486107E00098006940F20401A9
:1036A000C2F200010863FFE723E00098006958B107
:1036B000FFE700980169C269C8691044C8610098B1
:1036C000016940694861FFE70098406940B1FFE740
:1036D000009908694969086100990020486107E07C
:1036E0000098006940F20401C2F20001C862FFE7DD
:1036F000FFE700990020C86101B0704780B586B02F
:1037000040F20400C2F20000C06A0590059808B9B2
:10371000FFE799E00599C8690138C8610598C06953
:10372000002840F09180FFE7FFE7059840780146C8
:10373000039113281CD0FFE7039833281CD0FFE720
:10374000039843281CD0FFE7039853281ED0FFE7B7
:10375000039863282CD0FFE7039873282ED0FFE747
:103760000398832830D0FFE70398932832D037E0BE
:103770000598FCF7A3FF34E00598FDF79FF830E0CB
:10378000059800F0DFF9FCF7A5FF2AE0059800F0A6
:10379000D9F9FFF711FE04900498FFF7D5FC0599BD
:1037A000FFF724FD0498FFF7CFFCFDF733F818E08E
:1037B000059800F0C7F9FDF75DF812E0059800F0F4
:1037C000C1F9FCF7C9FF0CE0059800F0BBF9FCF764
:1037D000E1FF06E0059800F0B5F9FDF705F800E017
:1037E000FFE70598029000F029FA0146029809685F
:1037F000FDF77AF8059800F08BF9059800F00EFABD
:10380000059800690590FFE705990020019039B1FE
:10381000FFE70598C069B0FA80F040090190FFE722
:103820000198C00700287FF480AFFFE7059820B11A
:10383000FFE7059900204861FFE7059840F2040181
:10384000C2F20001C862FFE706B080BD80B582B059
:1038500001900198C078C00720B9FFE7019800F0F7
:1038600071F81EE001990420487001990020C86099
:1038700040F20400C2F20000416B019A9160406B7B
:1038800040B1FFE7019840F20401C2F20001496B28
:10389000C860FFE7019840F20401C2F200014863EA
:1038A000FFE70198FCF7F6FF02B080BD80B584B059
:1038B0000390FFF73DF98DF80B0000F0A1F801909F
:1038C000039810BBFFE740F20400C2F20000406A18
:1038D00000909DF80B00022816D1FFE7009898B1E0
:1038E000FFE7009890F92000019991F92010884293
:1038F0000ADDFFE7009800F00BF90198FFF7EEFDF5
:10390000009800F02BFAFFE719E09DF80B00022861
:1039100010D1FFE7039890F92000019991F9201048
:10392000884207DDFFE70198FFF7D8FD039800F014
:1039300015FA03E0039800F071F9FFE7FFE704B020
:1039400080BD000080B582B001900198FFF7BEFDF8
:1039500001990020487001990870019880788007CB
:1039600000281CD5FFE701988078C00600280BD5F9
:10397000FFE740F20400C2F20000D0F88400019991
:10398000096BFFF75BFA09E040F20400C2F20000A5
:10399000406F0199096BFFF77DF9FFE7FFE7019899
:1039A0008078C007E8B1FFE740F20400C2F20000EF
:1039B000D0F8880050B1FFE740F20400C2F20000E6
:1039C000D0F888000199FFF739FA09E040F20400C5
:1039D000C2F20000D0F880000199FFF75BF9FFE721
:1039E000FFE702B080BD000040F20400C2F2000018
:1039F0004069704740F20400C2F20000406970471D
:103A000040F20400C2F200004069704740F2040036
:103A1000C2F200004069704781B00090009801B088
:103A20007047000080B582B001900198806958B15C
:103A3000FFE7019880690022114600F0E3F9019840
:103A40008069FCF73FFFFFE701984078232805D104
:103A5000FFE70198816800208861FFE702B080BD20
:103A600080B582B0019001988068009000988068CD
:103A7000019988600098806838B1FFE7019800F0EC
:103A8000A5F800998968C860FFE700990020C86020
:103A9000009802B080BD000080B586B0059004910A
:103AA000049890F920000190059800F08FF8039099
:103AB000039880680290FFE702990020009051B1BE
:103AC000FFE7029890F92010019A00209142A8BFC8
:103AD00001200090FFE70098C00730B1FFE702988F
:103AE0000390029880680290E6E703980499C86002
:103AF000029804998860049803998860029820B11C
:103B0000FFE704980299C860FFE706B080BD000097
:103B100081B000900098C06888B1FFE7009988687C
:103B2000C96888600098806828B1FFE700988168BC
:103B3000C068C860FFE700990020C860FFE701B0D7
:103B40007047000082B0019001980090FFE7009854
:103B50000078F12804D1FFE70098C0680090F6E7EC
:103B6000009802B07047000080B584B003900398BD
:103B70000190FFE701990020009041B1FFE7019813
:103B80000078F138B0FA80F040090090FFE7009823
:103B9000C00720B1FFE70198C0680190EAE70198EB
:103BA000FFF70AFC0290029840B1FFE70398FFF785
:103BB000AFFF02980399FFF76FFFFFE704B080BDE6
:103BC00081B00090009801B07047000081B0009073
:103BD000009801B07047000080B582B00190019854
:103BE0004078332818D1FFE70198416A90F82320E4
:103BF000FEF710FA0090009868B1FFE7019800996D
:103C0000002200F0FFF8019B586A93F82310009AF5
:103C1000FCF74CFEFFE7FFE702B080BD80B582B045
:103C20000190019901204870019940F20400C2F20C
:103C300000001C30FFF730FF02B080BD80B584B0BB
:103C400003900398816B019190F82200FEF7AEF883
:103C50000146019808440290029804B080BD00001B
:103C600081B00090009840F20401C2F20001486166
:103C700001B0704781B00090009840F20401C2F298
:103C80000001486101B0704782B000900098016B5C
:103C9000806B88420AD9FFE70098006B006842F603
:103CA000A561CEF25A21884204D0FFE700208DF8AA
:103CB000070003E001208DF80700FFE79DF80700EB
:103CC00002B0704780B584B000218DF80F1045F226
:103CD0002C50C0F600000290826D42F6FD20C0F626
:103CE000000001F0B3F9FFF797FE0146029840F299
:103CF0000402C2F200029162406E20B3FFE745F277
:103D00002C50C0F60000406E8047D8B9FFE745F25E
:103D10002C50C0F60000C26D006E40F20401C2F2E9
:103D200000010191C96C01F091F9FFF775FE0146A0
:103D300001988164806C20B1FFE701208DF80F00AD
:103D4000FFE7FFE703E001208DF80F00FFE79DF894
:103D50000F0000F0010004B080BD000080B582B00B
:103D600001900199022048700198C078C0F380004A
:103D7000FEF702F8019840F20401C2F200018861E6
:103D80000198FCF7ADFD02B080BD000080B584B0A5
:103D90008DF80E000291FEF7CBFE022804D0FFE75B
:103DA00000208DF80F0028E040F20400C2F200006D
:103DB000406A20B9FFE700208DF80F001DE0FFF7F3
:103DC0001FFE019001980299FCF758FD9DF80E0026
:103DD0000199487001980299FFF7C4FB40F2040072
:103DE000C2F200001C30FFF73BFE01900198FFF784
:103DF000B5FF01208DF80F00FFE79DF80F0004B01C
:103E000080BD000080B584B0039002918DF807203A
:103E100003980299FCF768FD0398FFF70FFF0090E5
:103E20000298009908600398FFF71AFC9DF80700B4
:103E3000C00720B1FFE70398FFF738FD03E00398C0
:103E4000FFF7ECFEFFE704B080BD000080B584B052
:103E5000FDF7EEFE40F20401C2F200010291C868D3
:103E60000130C860FFF74AFC0020FFF71FFD0298F1
:103E7000006D38B1FFE740F20400C2F20000006DAF
:103E80008047FFE740F20400C2F20000006C002807
:103E900062D0FFE740F20401C2F20001886903909A
:103EA0000398C96B884213D0FFE7039840F20401DE
:103EB000C2F20001C8630398C06940B9FFE740F24D
:103EC0000400C2F20000006C0399C861FFE7FFE73D
:103ED0000398C06928B1FFE70399C8690138C86130
:103EE000FFE70398C069B0BBFFE7FEF71BFE02289F
:103EF00030D1FFE740F20400C2F20000406A0390B4
:103F0000039830B3FFE7039890F9200040F20401D2
:103F1000C2F20001C96B91F92010884219D1FFE764
:103F20000398FFF7F5FD40F20400C2F20000019093
:103F3000C06BFFF773FE0198C06BFCF7CDFC0398D4
:103F4000FFF70CFF01980399C163006C0399C861E6
:103F5000FFE7FFE7FFE7FFE704B080BD80B582B071
:103F60004FF0FF300190FFF79BF860B9FFE740F298
:103F70000401C2F2000143F6C170C0F600000865FA
:103F800000200190FFE7019802B080BD86B0059047
:103F900005980190FFE7019803A900224FF0FF3335
:103FA000FEF752FC0290029840B9FFE7039804998B
:103FB000FCF7A0FC039904988847FFE7EBE70000B3
:103FC00080B586B040F20400C2F20000406C04905C
:103FD000049808B9FFE75FE0FFF718FD0590049922
:103FE000086901380861FFE704990020019039B1A0
:103FF000FFE704980069B0FA80F040090190FFE7FC
:104000000198C007002843D0FFE70498FEF790F816
:1040100040F20400C2F20000C06C04991831002381
:104020001A46FEF751FC03900398E0B1FFE7FFF753
:10403000EDFC029040F20400C2F200008069FFF73C
:1040400019FE04990320FEF75FFDFFF7DFFC48B976
:10405000FFE705980299884203D1FFE70020059009
:10406000FFE7FFE7FFE70498C078C00728B1FFE744
:1040700004984169FEF70CF803E0049901204870A8
:10408000FFE740F20400C2F20000406C0490ABE78E
:104090000598FFF7EFFDFFE706B080BD82B0019005
:1040A000009100990198884700F000F882B0FCF771
:1040B000FBFB44F6C970C0F600000190DDF804C0B7
:1040C00000DF00204FF0FF31FCF7E8FBFFE7FEE7E1
:1040D00080B58CB004900391029204980399029ADF
:1040E000FCF7F4FBFDF7C4FB20B9FFE7FDF72AFC62
:1040F00048B1FFE7002000906FF00501FCF7CEFB10
:10410000009801901AE0049A039902980B920A9180
:1041100009900B9808900A9807900998069045F224
:104120004D00C0F600000590DDF814C0089807990E
:10413000069A00DF089008980190FFE701980CB0FC
:1041400080BD000080B548F66800C2F2000000782B
:1041500068B9FFE7FEF70CFB022807DBFFE748F62C
:104160006801C2F2000101200870FFE7FFE748F68E
:104170006800C2F20000007880BD000080B586B003
:104180000490049840B9FFE76FF003000290FCF739
:1041900099FA0298059016E004991320FFF7F6FDAE
:1041A00030B1FFE70498FCF791FA0020039007E094
:1041B0004FF0FF300190FCF785FA01980390FFE77C
:1041C00003980590FFE7059806B080BD80B582B0E2
:1041D000FEF7B4FC01900198FCF78AFA019802B04E
:1041E00080BD000080B58CB040F20400C2F2000037
:1041F000007A012805D1FFE7FCF780FA00200B9038
:104200006FE140F20400C2F20000007A40B1FFE723
:104210004FF0FF300A90FCF761FA0A980B9060E1CA
:1042200040F20400C2F20000099008309C21FCF723
:104230009AF9099A45F22C51C0F60001C868D06578
:10424000088AA2F8540088681064C86A096BFEF7EF
:1042500083FD60B1FFE745F22C50C0F60000C06A54
:1042600040F20401C2F20001C1F88000FFE745F20C
:104270002C51C0F6000148698969FEF76DFD58B1FF
:10428000FFE745F22C50C0F60000406940F20401FF
:10429000C2F20001486707E040F20401C2F20001E7
:1042A000D1F880004867FFE745F22C51C0F60001C5
:1042B000C869096AFEF750FD58B1FFE745F22C5076
:1042C000C0F60000C06940F20401C2F20001886734
:1042D00007E040F20401C2F20001D1F880008867D3
:1042E000FFE745F22C51C0F60001486A896AFEF7E3
:1042F00033FD58B1FFE745F22C50C0F60000406A8C
:1043000040F20401C2F20001C86707E040F2040174
:10431000C2F20001D1F88000C867FFE745F22C50D7
:10432000C0F60000406BA0B1FFE745F22C50C0F68C
:1043300000000890406B01688268C368FEF7B0FD1A
:104340000898406B40F20401C2F20001C1F88400F9
:10435000FFE745F22C50C0F60000806BA0B1FFE7EC
:1043600045F22C50C0F600000790806B016882680F
:10437000C368FEF795FD0798806B40F20401C2F216
:104380000001C1F88800FFE745F22C50C0F600009C
:10439000C06BA0B1FFE745F22C50C0F600000690BC
:1043A000C06B01688268C368FEF77AFD0698C06B2F
:1043B00040F20401C2F20001C1F88C00FFE745F2AF
:1043C0002C50C0F60000006CA0B1FFE745F22C5065
:1043D000C0F600000590006C01688268C368FEF7B3
:1043E0005FFD0598006C40F20401C2F20001C1F8C3
:1043F0009000FFE745F22C50C0F60000406CA0B1E1
:10440000FFE745F22C50C0F600000490406C0168B4
:104410008268C368FEF744FD0498406C40F20401D2
:10442000C2F20001C1F89400FFE745F22C50C0F63B
:104430000000806CA0B1FFE745F22C50C0F60000F0
:104440000390806C01688268C368FEF729FD0398B9
:10445000806C40F20401C2F20001C1F89800FFE74D
:1044600045F22C50C0F60000C06CA0B1FFE745F249
:104470002C50C0F600000290C06C01688268C368CE
:10448000FEF70EFD0298C06C40F20401C2F200017A
:10449000C1F89C00FFE745F22C50C0F60000006D0B
:1044A000A0B1FFE745F22C50C0F600000190006D6E
:1044B00001688268C368FEF7F3FC0198006D40F262
:1044C0000401C2F20001C1F8A000FFE740F20401BC
:1044D000C2F2000101200872FCF710F900200B90D5
:1044E000FFE70B980CB080BD80B586B040F20400A9
:1044F000C2F20000007A012808D0FFE76FF0070041
:10450000FCF7ECF84FF0FF3005903CE0FFF7DAFBEA
:1045100040B9FFE74FF0FF300390FCF7DFF8039856
:10452000059030E0FDF7ECFB45F22C50C0F60000A2
:10453000406840F24931C0F60001FDF7A1FB40B1EF
:10454000FFE74FF0FF300290FCF7C8F802980590A3
:1045500019E0FDF791FB40F20401C2F20001019164
:104560000861FDF76BFB01981C30FFF779FA0490A6
:104570000498FFF7F3FB019902200872FCF7C2F8D8
:1045800000200590FFE7059806B080BD80B58EB08D
:104590000C900B910A9209930C98FEF7D9FC0890A5
:1045A0000898FDF7E7F940B1FFE708980078FA2886
:1045B00003D1FFE70B9848B9FFE708986FF00301B4
:1045C0000291FCF7D3F802980D9090E00898FDF75F
:1045D00055FA0790079800285CD0FFE708980799DC
:1045E000FDF7CCFA0B9807990C31089A526AFBF741
:1045F00053FF0A9828B1FFE70798C0780A99087016
:10460000FFE708980B99FCF7F3F80799002008706A
:1046100008980C300799FEF711FC08988068B0B331
:10462000FFE708980C30FEF7E3FB0790079868B3A4
:10463000FFE70898FEF7AEFEFFF712FA069006981D
:10464000002101910122FFF7DDFB0698FFF7F6FA42
:10465000059005984068049007980C300499089AD2
:10466000526AFBF719FF0198079AF921117007990F
:104670008870059880680799C87008980799FDF7B1
:1046800027FA08980499FCF78FF8FFE7FFE7002066
:10469000039029E00998F0B1FFE708980B99099A6F
:1046A000FCF772F809998320FFF770FB58B1FFE718
:1046B0000898FEF76FFE0090FFF796F90146009804
:1046C000FFF7EAF903E00898FCF764F8FFE76FF0FA
:1046D0000100039007E008980B99FCF771F86FF060
:1046E00002000390FFE7FFE703980D90FFE70D98A6
:1046F0000EB080BD80B598B01290119110921298B2
:1047000058B3FFE7119840B3FFE712981690169838
:1047100020B9FFE720208DF85F0005E01698B0FA79
:1047200080F08DF85F00FFE79DF85F00079011981B
:104730001490149820B9FFE720208DF8570005E069
:104740001498B0FA80F08DF85700FFE707989DF8AD
:10475000571008441F2809D8FFE7002006906FF083
:104760000301FCF703F80698139022E11198033037
:1047700020F003000C300B9012980B9948430A90DC
:104780001098002868D0FFE71098006808901098EB
:1047900040680E90109880680F90109800690D90F6
:1047A000109840690C909DF83A00C006002809D581
:1047B000FFE7002005906FF00601FBF7D7FF059893
:1047C0001390F6E00F98A0B1FFE70F98FDF7D2F82D
:1047D00028B1FFE71098C068342809D0FFE700200F
:1047E00004906FF00901FBF7C1FF04981390E0E01B
:1047F0000DE01098C06848B1FFE7002003906FF00B
:104800000901FBF7B3FF03981390D2E0FFE70D987F
:10481000A0B1FFE79DF83400800728B9FFE70C98A6
:104820000A99884209D2FFE7002002906FF00A013E
:10483000FBF79CFF02981390BBE00CE00C9848B18A
:10484000FFE7002001906FF00A01FBF78FFF01984E
:104850001390AEE0FFE704E0002008900F900D9069
:10486000FFE70F9810BBFFE740F20400C2F2000020
:10487000D0F8A00050B1FFE740F20400C2F20000FF
:10488000D0F8A000FEF7B4FA0F900BE040F204005D
:10489000C2F20000D0F8800034210122FEF754F962
:1048A0000F90FFE701208DF8270003E000208DF82E
:1048B0002700FFE70F98002842D0FFE70D98002857
:1048C0003ED1FFE740F20400C2F20000C06F0A9937
:1048D0000022FEF739F90D900D9828BBFFE79DF8EF
:1048E0002700C007E8B1FFE740F20400C2F2000071
:1048F000D0F8A00050B1FFE740F20400C2F200007F
:10490000D0F8A0000F99FEF799FA09E040F20400F0
:10491000C2F20000D0F880000F99FEF7BBF9FFE764
:10492000FFE700200F9004E00D980A99FBF7F9FDCE
:10493000FFE79DF8270040F002008DF82700FFE711
:104940000F9868B3FFE70F99FA2008709DF82700C9
:104950000F9988700F990020C87008990F9A5160BC
:104960000F99886011990F9A51620F9988620F9977
:10497000C8620F9908630F980C3012990B9A0D9B1F
:10498000FEF78EFA40F20401C2F2000142F65D70B9
:10499000C0F6000008670F984168FBF7E1FE05E0EC
:1049A00000206FF00401FBF7E1FEFFE70F98139082
:1049B000FFE7139818B080BD80B58EB00C900B91B6
:1049C0008DF82B2009930C98FEF7C2FA08900898EE
:1049D000FCF7D0FF40B1FFE708980078FA2803D130
:1049E000FFE70B9848B9FFE708986FF003010291C1
:1049F000FBF7BCFE02980D9089E00898806898B398
:104A0000FFE708988068407883282DD1FFE7089851
:104A10000B99FBF7C9FE0898FEF7BCFCFFF720F8DE
:104A20000690069800210122FFF7ECF90698FFF79F
:104A300005F9059005984068049004980B99089A28
:104A4000526AFBF729FD0598806830B1FFE79DF8B1
:104A50002B00059989680870FFE708980499FBF70F
:104A6000C7FE002003904FE008980C30FEF7C0F915
:104A700007900798E8B1FFE707980C300B99089A60
:104A8000526AFBF709FD0799F92008700799002081
:104A9000019088709DF82B000799C87008980799B5
:104AA000FDF716F808980B99FBF77EFE0198039026
:104AB00029E00998F0B1FFE708980B99099AFBF7EC
:104AC0008DFE09999320FFF761F958B1FFE7089827
:104AD000FEF760FC0090FEF787FF01460098FEF7A6
:104AE000DBFF03E00898FBF77FFEFFE76FF00100B4
:104AF000039007E008980B99FBF75CFE6FF002004B
:104B00000390FFE7FFE7FFE703980D90FFE70D989D
:104B10000EB080BD80B588B0069005910698FEF76E
:104B20000DFB0490FEF766FF0390039848B9FFE77A
:104B300004986FF00801FBF785FE4FF0FF300790F7
:104B4000A0E00498FCF728FF28B1FFE7049800785C
:104B5000F52809D0FFE704986FF003010191FBF7F6
:104B600071FE019807908DE00498007E00BBFFE77E
:104B700003980499C8600499002008610398C06AEA
:104B8000049948610398C06A28B1FFE70498039923
:104B9000C96A0861FFE704980399C8620499012073
:104BA00008760498017EFBF739FE0020029066E04B
:104BB0000498C078C00700B3FFE70498C068039961
:104BC00088421AD1FFE70498007EFF2809D1FFE749
:104BD00004986FF01101FBF735FE6FF002000290B0
:104BE0000AE00499087E013008760498017EFBF7FC
:104BF00015FE00200290FFE740E00598B0B3FFE704
:104C00000498C0788007002817D5FFE70498C0688B
:104C100090F92000039991F9201088420CDAFFE7FF
:104C2000039890F820000499C96881F8200004983E
:104C3000C068FEF799FFFFE7FFE704980599FBF7C7
:104C4000E3FD05995320FFF7A1F838B1FFE7049879
:104C5000FEF7A6FB0399FEF71FFF03E00498FBF79E
:104C6000D9FDFFE76FF00100029006E00498FBF722
:104C7000F3FD6FF002000290FFE7FFE7FFE7029805
:104C80000790FFE7079808B080BD000080B584B0AA
:104C900002900298FEF752FA01900198FCF77CFE10
:104CA00028B1FFE701980078F52809D0FFE70198BF
:104CB0006FF003010091FBF7C5FD009803900EE033
:104CC0000198FEF7E9FA20B1FFE70020FEF7EEFDBC
:104CD000FFE70198FEF704FA00200390FFE703982E
:104CE00004B080BD80B58AB00890089800283ED0F6
:104CF000FFE70898006804900898406806900898B4
:104D0000806807909DF81A00C006002809D5FFE7C3
:104D1000002003906FF00601FBF794FD03980990C3
:104D20007EE00798A0B1FFE70798FCF735FE28B1B1
:104D3000FFE70898C0681C2809D0FFE70020029010
:104D40006FF00901FBF77EFD0298099068E00DE025
:104D50000898C06848B1FFE7002001906FF0090192
:104D6000FBF770FD019809905AE0FFE704E000208E
:104D7000049006900790FFE7079810BBFFE740F20A
:104D80000400C2F20000D0F8940050B1FFE740F2F6
:104D90000400C2F20000D0F89400FEF729F8079052
:104DA0000BE040F20400C2F20000D0F880001C21A9
:104DB0000122FDF7C9FE0790FFE701208DF81700DB
:104DC00003E000208DF81700FFE70798F8B1FFE730
:104DD0000799F52008709DF81700079988700698C4
:104DE00000F00F000799C870049807994860079968
:104DF000002088600799C860079908610799486191
:104E00000799087607984168FBF70EFD05E000203A
:104E10006FF00401FBF716FDFFE707980990FFE725
:104E200009980AB080BD000080B588B00690069849
:104E3000FEF784F90590FEF7DDFD0390039848B96D
:104E4000FFE705986FF00801FBF7FCFC4FF0FF301F
:104E50000790B6E00598FCF79FFD28B1FFE705989D
:104E60000078F52809D0FFE705986FF0030101915C
:104E7000FBF7E8FC01980790A3E00598007E48B98D
:104E8000FFE705986FF01001FBF7DCFC6FF0020004
:104E9000079096E00598C0680399884209D0FFE71B
:104EA00005986FF00F01FBF7CDFC6FF00200079043
:104EB00087E00599087E013808760598017EFBF7A2
:104EC000D3FC0598007E002878D1FFE7059840695B
:104ED00028B1FFE70599086949690861FFE7059866
:104EE000006928B1FFE7059801694069486104E05D
:104EF000059840690399C862FFE7039890F821007C
:104F00008DF80B000398C06A0490FFE70498F8B18D
:104F1000FFE70498C0788007002815D5FFE70498BC
:104F2000806880B1FFE70498806890F920009DF9BF
:104F30000B10884207DDFFE70498806890F8200096
:104F40008DF80B00FFE7FFE7049840690490DDE768
:104F50009DF80B00039981F820000598806848B3FC
:104F6000FFE70598FEF71CFAFEF77AFD0390039819
:104F7000002200921146FEF745FF00980399059A1A
:104F8000D160059908610398C06A05994861039842
:104F9000C06A28B1FFE705980399C96A0861FFE76D
:104FA00005980399C8620598012101760598FBF7D9
:104FB00035FCFFE70020FEF779FCFFE700200790B3
:104FC000FFE7079808B080BD80B582B0FDF7B0FD5F
:104FD000022807D1FFE740F20400C2F20000406A55
:104FE00008B9FFE730E0FEF70BFD00900098C06ABB
:104FF000FEF7B0F80098FEF715FD40F20400C2F28B
:1050000000001C30FEF72CFDFEF7A8FEEFF3098030
:1050100001900198009988630098FEF735FE60B909
:10502000FFE740F20400C2F200008069FEF718FEBC
:1050300000990120FDF768FDFFE70020FEF710FE54
:105040000098FEF703FCFFE702B080BD80B596B084
:10505000149013911292149848B9FFE70020089019
:105060006FF00301FBF71AFC0898159020E21298E4
:10507000002800F08A80FFE7129800680B901298D1
:1050800040681090129880681190129800690F90F3
:10509000129840690E90129880690D909DF840001A
:1050A000400700280FD5FFE79DF840008007002843
:1050B00009D5FFE7002007906FF00301FBF7EEFB37
:1050C00007981590F4E19DF84200C006002809D524
:1050D000FFE7002006906FF00601FBF7DFFB069864
:1050E0001590E5E11198A0B1FFE71198FCF770FC6D
:1050F00028B1FFE71298C068502809D0FFE70020C8
:1051000005906FF00901FBF7C9FB05981590CFE1F9
:105110000DE01298C06848B1FFE7002004906FF0DE
:105120000901FBF7BBFB04981590C1E1FFE70F985D
:1051300090B1FFE79DF83C00400718B9FFE70E98D3
:1051400048B9FFE7002003906FF00B01FBF7A6FBC7
:1051500003981590ACE1FFE70D9818B9FFE7182008
:105160000D9011E00D98012804DBFFE70D98392818
:1051700009DBFFE7002002906FF00C01FBF78EFBCC
:105180000298159094E1FFE708E000200B90109042
:1051900011900F900E9018200D90FFE79DF84000A1
:1051A00010F0060F13D1FFE745F22C50C0F60000B7
:1051B0000078C00728B1FFE7109840F00400109075
:1051C00004E0109840F002001090FFE7FFE70E980F
:1051D000C0B1FFE79DF83800400748B9FFE70E98D7
:1051E000482805D3FFE70E98B0F1FF3F09DCFFE741
:1051F000002001906FF00B01FBF750FB0198159018
:1052000056E1FFE7119810BBFFE740F20400C2F23D
:105210000000D0F8880050B1FFE740F20400C2F26D
:105220000000D0F88800FDF7E3FD11900BE040F29C
:105230000400C2F20000D0F8800050210122FDF7E6
:1052400083FC1190FFE701208DF8330003E000207C
:105250008DF83300FFE7119800286FD0FFE70F9813
:1052600000286BD1FFE70E9870BBFFE745F22C508A
:10527000C0F60000406D0E9040F20400C2F2000043
:10528000D0F88400A0B1FFE740F20400C2F20000B1
:10529000D0F88400FDF7ACFD0F900F9838B1FFE710
:1052A0009DF8330040F010008DF83300FFE70AE06E
:1052B00040F20400C2F20000406F0E990022FDF798
:1052C00043FC0F90FFE70AE040F20400C2F2000046
:1052D000406F0E990022FDF737FC0F90FFE70F9803
:1052E00028BBFFE79DF83300C007E8B1FFE740F2B5
:1052F0000400C2F20000D0F8880050B1FFE740F28D
:105300000400C2F20000D0F888001199FDF796FD64
:1053100009E040F20400C2F20000D0F880001199C8
:10532000FDF7B8FCFFE7FFE700201190FFE79DF8CD
:10533000330040F002008DF83300FFE71198002899
:1053400000F0A680FFE71199F12008701199012063
:1053500048709DF8330011998870109800F00F0084
:105360001199C8700B98119948601199002000900C
:1053700088601199C8601199086111994861119963
:1053800088611199C8610D99119A82F820100D99C0
:10539000119A82F82110119AFD2182F82210119998
:1053A00081F8230011994862119988621199C862A5
:1053B0000F98119908630E98119948630F980E99E8
:1053C000084440381199886314981199C8630F985C
:1053D0000A900A9942F6A560CEF25A20086045F27A
:1053E0002C50C0F6000000784007002817D5FFE7D2
:1053F0000E996FF0100000EB91000990FFE70998FB
:1054000060B1FFE70A9804300A900A994FF0CC3057
:105410000860FFE7099801380990F0E7FFE7119865
:10542000806B0A9000200990FFE709980E280AD0A7
:10543000FFE70A99099A002041F82200FFE709983E
:1054400001300990F1E70A9944F29D00C0F600008E
:1054500088631098C0F38000149901F0010100F0F6
:105460004FF80A99C86313980A99086214980A9920
:10547000486240F20401C2F2000143F6D930C0F69E
:105480000000086611984268C16BFBF7FDF905E062
:1054900000206FF00401FBF701FAFFE7119820B13B
:1054A000FFE71198FEF702FAFFE711981590FFE762
:1054B000159816B080BD000082B0019000200090C9
:1054C000FFE70098032819D8FFE7009948F2541025
:1054D000C2F2000050F821000199884209D1FFE78B
:1054E000009A48F25411C2F20001002041F8220053
:1054F00004E0FFE7009801300090E2E702B0704757
:1055000081B08DF803008DF802104FF0807001B06B
:105510007047F1EE100A4FF6FF71C0F2C03120EA79
:10552000010040F04070E1EE100A704702000000F8
:10553000E80300000500000010010020100000003A
:10554000000000000000000000000000000000005B
:10555000000000000000000050010020008000005A
:10556000000000000000000000000000000000003B
:10557000000000000000000000000000000000002B
:10558000000C0000E8550008245600088D3F000874
:105590005D3F00080C56000804000000C88300208E
:1055A00068840020000000000000000000000000EF
:1055B00000000000000000000000000000000000EB
:1055C00000000000000000000000000044830020F4
:1055D00078830020000000000000000001020304A6
:1055E000060708090000000000000000000000009D
:1055F000C8830020500000006884002000020000E2
:105600000100000000000000000000000000000099
:105610000000000044830020340000007883002054
:10562000500000000000000000000000188400206E
:1056300050000000688600200002000028000000E2
:1056400000000000000000005254582056352E394A
:105650002E3000007456000800000020B00000004A
:10566000F801000824570008B0000020C08D000099
:10567000180200080024F400485600081050FC02EC
:10568000000000000000000000000000000000001A
:10569000000000000000000000000000000000000A
:1056A00000000000000000000000000000000000FA
:1056B00000000000000000000000000000000000EA
:1056C00000000000000000000000000000000000DA
:1056D00000000000000000000000000000000000CA
:1056E00000000000000000000000000000000000BA
:1056F00000000000000000000000000000000000AA
:105700000000000000000000000000000000000099
:105710000000000000000000000000000100000088
:045720001000000075
:040000050800036983
:00000001FF
